{
  "_format": "hh-sol-artifact-1",
  "contractName": "Hack",
  "sourceName": "contracts/hack.sol",
  "abi": [
    {
      "inputs": [
        {
          "internalType": "bytes",
          "name": "_answer",
          "type": "bytes"
        }
      ],
      "name": "decodeThis",
      "outputs": [
        {
          "internalType": "string",
          "name": "_decodedValue",
          "type": "string"
        }
      ],
      "stateMutability": "pure",
      "type": "function"
    }
  ],
  "bytecode": "0x608060405234801561001057600080fd5b506103ea806100206000396000f3fe608060405234801561001057600080fd5b506004361061002b5760003560e01c8063e3a79a7b14610030575b600080fd5b61004a600480360381019061004591906101d7565b610060565b60405161005791906102a8565b60405180910390f35b606081806020019051810190610076919061036b565b9050919050565b6000604051905090565b600080fd5b600080fd5b600080fd5b600080fd5b6000601f19601f8301169050919050565b7f4e487b7100000000000000000000000000000000000000000000000000000000600052604160045260246000fd5b6100e48261009b565b810181811067ffffffffffffffff82111715610103576101026100ac565b5b80604052505050565b600061011661007d565b905061012282826100db565b919050565b600067ffffffffffffffff821115610142576101416100ac565b5b61014b8261009b565b9050602081019050919050565b82818337600083830152505050565b600061017a61017584610127565b61010c565b90508281526020810184848401111561019657610195610096565b5b6101a1848285610158565b509392505050565b600082601f8301126101be576101bd610091565b5b81356101ce848260208601610167565b91505092915050565b6000602082840312156101ed576101ec610087565b5b600082013567ffffffffffffffff81111561020b5761020a61008c565b5b610217848285016101a9565b91505092915050565b600081519050919050565b600082825260208201905092915050565b60005b8381101561025a57808201518184015260208101905061023f565b83811115610269576000848401525b50505050565b600061027a82610220565b610284818561022b565b935061029481856020860161023c565b61029d8161009b565b840191505092915050565b600060208201905081810360008301526102c2818461026f565b905092915050565b600067ffffffffffffffff8211156102e5576102e46100ac565b5b6102ee8261009b565b9050602081019050919050565b600061030e610309846102ca565b61010c565b90508281526020810184848401111561032a57610329610096565b5b61033584828561023c565b509392505050565b600082601f83011261035257610351610091565b5b81516103628482602086016102fb565b91505092915050565b60006020828403121561038157610380610087565b5b600082015167ffffffffffffffff81111561039f5761039e61008c565b5b6103ab8482850161033d565b9150509291505056fea264697066735822122080e270214aa89dd1b466c1efb01f4e207a2d2b8b0f0dd6b77f430ab4854e279e64736f6c63430008090033",
  "linkReferences": {},
  "deployedLinkReferences": {}
}