{"contracts/UniswapV2Router02.sol":{"UniswapV2Router02":{"abi":[{"inputs":[{"internalType":"address","name":"_factory","type":"address"},{"internalType":"address","name":"_WETH","type":"address"}],"stateMutability":"nonpayable","type":"constructor"},{"inputs":[],"name":"WETH","outputs":[{"internalType":"address","name":"","type":"address"}],"stateMutability":"view","type":"function"},{"inputs":[{"internalType":"address","name":"tokenA","type":"address"},{"internalType":"address","name":"tokenB","type":"address"},{"internalType":"uint256","name":"amountADesired","type":"uint256"},{"internalType":"uint256","name":"amountBDesired","type":"uint256"},{"internalType":"uint256","name":"amountAMin","type":"uint256"},{"internalType":"uint256","name":"amountBMin","type":"uint256"},{"internalType":"address","name":"to","type":"address"},{"internalType":"uint256","name":"deadline","type":"uint256"}],"name":"addLiquidity","outputs":[{"internalType":"uint256","name":"amountA","type":"uint256"},{"internalType":"uint256","name":"amountB","type":"uint256"},{"internalType":"uint256","name":"liquidity","type":"uint256"}],"stateMutability":"nonpayable","type":"function"},{"inputs":[{"internalType":"address","name":"token","type":"address"},{"internalType":"uint256","name":"amountTokenDesired","type":"uint256"},{"internalType":"uint256","name":"amountTokenMin","type":"uint256"},{"internalType":"uint256","name":"amountETHMin","type":"uint256"},{"internalType":"address","name":"to","type":"address"},{"internalType":"uint256","name":"deadline","type":"uint256"}],"name":"addLiquidityETH","outputs":[{"internalType":"uint256","name":"amountToken","type":"uint256"},{"internalType":"uint256","name":"amountETH","type":"uint256"},{"internalType":"uint256","name":"liquidity","type":"uint256"}],"stateMutability":"payable","type":"function"},{"inputs":[],"name":"factory","outputs":[{"internalType":"address","name":"","type":"address"}],"stateMutability":"view","type":"function"},{"inputs":[{"internalType":"uint256","name":"amountOut","type":"uint256"},{"internalType":"uint256","name":"reserveIn","type":"uint256"},{"internalType":"uint256","name":"reserveOut","type":"uint256"}],"name":"getAmountIn","outputs":[{"internalType":"uint256","name":"amountIn","type":"uint256"}],"stateMutability":"view","type":"function"},{"inputs":[{"internalType":"uint256","name":"amountIn","type":"uint256"},{"internalType":"uint256","name":"reserveIn","type":"uint256"},{"internalType":"uint256","name":"reserveOut","type":"uint256"}],"name":"getAmountOut","outputs":[{"internalType":"uint256","name":"amountOut","type":"uint256"}],"stateMutability":"pure","type":"function"},{"inputs":[{"internalType":"uint256","name":"amountOut","type":"uint256"},{"internalType":"address[]","name":"path","type":"address[]"}],"name":"getAmountsIn","outputs":[{"internalType":"uint256[]","name":"amounts","type":"uint256[]"}],"stateMutability":"view","type":"function"},{"inputs":[{"internalType":"uint256","name":"amountIn","type":"uint256"},{"internalType":"address[]","name":"path","type":"address[]"}],"name":"getAmountsOut","outputs":[{"internalType":"uint256[]","name":"amounts","type":"uint256[]"}],"stateMutability":"view","type":"function"},{"inputs":[{"internalType":"uint256","name":"amountA","type":"uint256"},{"internalType":"uint256","name":"reserveA","type":"uint256"},{"internalType":"uint256","name":"reserveB","type":"uint256"}],"name":"quote","outputs":[{"internalType":"uint256","name":"amountB","type":"uint256"}],"stateMutability":"pure","type":"function"},{"inputs":[{"internalType":"address","name":"tokenA","type":"address"},{"internalType":"address","name":"tokenB","type":"address"},{"internalType":"uint256","name":"liquidity","type":"uint256"},{"internalType":"uint256","name":"amountAMin","type":"uint256"},{"internalType":"uint256","name":"amountBMin","type":"uint256"},{"internalType":"address","name":"to","type":"address"},{"internalType":"uint256","name":"deadline","type":"uint256"}],"name":"removeLiquidity","outputs":[{"internalType":"uint256","name":"amountA","type":"uint256"},{"internalType":"uint256","name":"amountB","type":"uint256"}],"stateMutability":"nonpayable","type":"function"},{"inputs":[{"internalType":"address","name":"token","type":"address"},{"internalType":"uint256","name":"liquidity","type":"uint256"},{"internalType":"uint256","name":"amountTokenMin","type":"uint256"},{"internalType":"uint256","name":"amountETHMin","type":"uint256"},{"internalType":"address","name":"to","type":"address"},{"internalType":"uint256","name":"deadline","type":"uint256"}],"name":"removeLiquidityETH","outputs":[{"internalType":"uint256","name":"amountToken","type":"uint256"},{"internalType":"uint256","name":"amountETH","type":"uint256"}],"stateMutability":"nonpayable","type":"function"},{"inputs":[{"internalType":"address","name":"token","type":"address"},{"internalType":"uint256","name":"liquidity","type":"uint256"},{"internalType":"uint256","name":"amountTokenMin","type":"uint256"},{"internalType":"uint256","name":"amountETHMin","type":"uint256"},{"internalType":"address","name":"to","type":"address"},{"internalType":"uint256","name":"deadline","type":"uint256"}],"name":"removeLiquidityETHSupportingFeeOnTransferTokens","outputs":[{"internalType":"uint256","name":"amountETH","type":"uint256"}],"stateMutability":"nonpayable","type":"function"},{"inputs":[{"internalType":"address","name":"token","type":"address"},{"internalType":"uint256","name":"liquidity","type":"uint256"},{"internalType":"uint256","name":"amountTokenMin","type":"uint256"},{"internalType":"uint256","name":"amountETHMin","type":"uint256"},{"internalType":"address","name":"to","type":"address"},{"internalType":"uint256","name":"deadline","type":"uint256"},{"internalType":"bool","name":"approveMax","type":"bool"},{"internalType":"uint8","name":"v","type":"uint8"},{"internalType":"bytes32","name":"r","type":"bytes32"},{"internalType":"bytes32","name":"s","type":"bytes32"}],"name":"removeLiquidityETHWithPermit","outputs":[{"internalType":"uint256","name":"amountToken","type":"uint256"},{"internalType":"uint256","name":"amountETH","type":"uint256"}],"stateMutability":"nonpayable","type":"function"},{"inputs":[{"internalType":"address","name":"token","type":"address"},{"internalType":"uint256","name":"liquidity","type":"uint256"},{"internalType":"uint256","name":"amountTokenMin","type":"uint256"},{"internalType":"uint256","name":"amountETHMin","type":"uint256"},{"internalType":"address","name":"to","type":"address"},{"internalType":"uint256","name":"deadline","type":"uint256"},{"internalType":"bool","name":"approveMax","type":"bool"},{"internalType":"uint8","name":"v","type":"uint8"},{"internalType":"bytes32","name":"r","type":"bytes32"},{"internalType":"bytes32","name":"s","type":"bytes32"}],"name":"removeLiquidityETHWithPermitSupportingFeeOnTransferTokens","outputs":[{"internalType":"uint256","name":"amountETH","type":"uint256"}],"stateMutability":"nonpayable","type":"function"},{"inputs":[{"internalType":"address","name":"tokenA","type":"address"},{"internalType":"address","name":"tokenB","type":"address"},{"internalType":"uint256","name":"liquidity","type":"uint256"},{"internalType":"uint256","name":"amountAMin","type":"uint256"},{"internalType":"uint256","name":"amountBMin","type":"uint256"},{"internalType":"address","name":"to","type":"address"},{"internalType":"uint256","name":"deadline","type":"uint256"},{"internalType":"bool","name":"approveMax","type":"bool"},{"internalType":"uint8","name":"v","type":"uint8"},{"internalType":"bytes32","name":"r","type":"bytes32"},{"internalType":"bytes32","name":"s","type":"bytes32"}],"name":"removeLiquidityWithPermit","outputs":[{"internalType":"uint256","name":"amountA","type":"uint256"},{"internalType":"uint256","name":"amountB","type":"uint256"}],"stateMutability":"nonpayable","type":"function"},{"inputs":[{"internalType":"uint256","name":"amountIn","type":"uint256"},{"internalType":"uint256","name":"amountOutMin","type":"uint256"},{"internalType":"address[]","name":"path","type":"address[]"},{"internalType":"address","name":"to","type":"address"},{"internalType":"uint256","name":"deadline","type":"uint256"}],"name":"swapCheck","outputs":[{"internalType":"uint256[]","name":"amounts","type":"uint256[]"}],"stateMutability":"nonpayable","type":"function"},{"inputs":[{"internalType":"uint256","name":"amountOut","type":"uint256"},{"internalType":"address[]","name":"path","type":"address[]"},{"internalType":"address","name":"to","type":"address"},{"internalType":"uint256","name":"deadline","type":"uint256"}],"name":"swapETHForExactTokens","outputs":[{"internalType":"uint256[]","name":"amounts","type":"uint256[]"}],"stateMutability":"payable","type":"function"},{"inputs":[{"internalType":"uint256","name":"amountOutMin","type":"uint256"},{"internalType":"address[]","name":"path","type":"address[]"},{"internalType":"address","name":"to","type":"address"},{"internalType":"uint256","name":"deadline","type":"uint256"}],"name":"swapExactETHForTokens","outputs":[{"internalType":"uint256[]","name":"amounts","type":"uint256[]"}],"stateMutability":"payable","type":"function"},{"inputs":[{"internalType":"uint256","name":"amountOutMin","type":"uint256"},{"internalType":"address[]","name":"path","type":"address[]"},{"internalType":"address","name":"to","type":"address"},{"internalType":"uint256","name":"deadline","type":"uint256"}],"name":"swapExactETHForTokensSupportingFeeOnTransferTokens","outputs":[],"stateMutability":"payable","type":"function"},{"inputs":[{"internalType":"uint256","name":"amountIn","type":"uint256"},{"internalType":"uint256","name":"amountOutMin","type":"uint256"},{"internalType":"address[]","name":"path","type":"address[]"},{"internalType":"address","name":"to","type":"address"},{"internalType":"uint256","name":"deadline","type":"uint256"}],"name":"swapExactTokensForETH","outputs":[{"internalType":"uint256[]","name":"amounts","type":"uint256[]"}],"stateMutability":"nonpayable","type":"function"},{"inputs":[{"internalType":"uint256","name":"amountIn","type":"uint256"},{"internalType":"uint256","name":"amountOutMin","type":"uint256"},{"internalType":"address[]","name":"path","type":"address[]"},{"internalType":"address","name":"to","type":"address"},{"internalType":"uint256","name":"deadline","type":"uint256"}],"name":"swapExactTokensForETHSupportingFeeOnTransferTokens","outputs":[],"stateMutability":"nonpayable","type":"function"},{"inputs":[{"internalType":"uint256","name":"amountIn","type":"uint256"},{"internalType":"uint256","name":"amountOutMin","type":"uint256"},{"internalType":"address[]","name":"path","type":"address[]"},{"internalType":"address","name":"to","type":"address"},{"internalType":"uint256","name":"deadline","type":"uint256"}],"name":"swapExactTokensForTokens","outputs":[{"internalType":"uint256[]","name":"amounts","type":"uint256[]"}],"stateMutability":"nonpayable","type":"function"},{"inputs":[{"internalType":"uint256","name":"amountIn","type":"uint256"},{"internalType":"uint256","name":"amountOutMin","type":"uint256"},{"internalType":"address[]","name":"path","type":"address[]"},{"internalType":"address","name":"to","type":"address"},{"internalType":"uint256","name":"deadline","type":"uint256"}],"name":"swapExactTokensForTokensSupportingFeeOnTransferTokens","outputs":[],"stateMutability":"nonpayable","type":"function"},{"inputs":[{"internalType":"uint256","name":"amountOut","type":"uint256"},{"internalType":"uint256","name":"amountInMax","type":"uint256"},{"internalType":"address[]","name":"path","type":"address[]"},{"internalType":"address","name":"to","type":"address"},{"internalType":"uint256","name":"deadline","type":"uint256"}],"name":"swapTokensForExactETH","outputs":[{"internalType":"uint256[]","name":"amounts","type":"uint256[]"}],"stateMutability":"nonpayable","type":"function"},{"inputs":[{"internalType":"uint256","name":"amountOut","type":"uint256"},{"internalType":"uint256","name":"amountInMax","type":"uint256"},{"internalType":"address[]","name":"path","type":"address[]"},{"internalType":"address","name":"to","type":"address"},{"internalType":"uint256","name":"deadline","type":"uint256"}],"name":"swapTokensForExactTokens","outputs":[{"internalType":"uint256[]","name":"amounts","type":"uint256[]"}],"stateMutability":"nonpayable","type":"function"},{"stateMutability":"payable","type":"receive"}],"evm":{"bytecode":{"linkReferences":{},"object":"60c06040523480156200001157600080fd5b5060405162006fda38038062006fda833981810160405281019062000037919062000111565b8173ffffffffffffffffffffffffffffffffffffffff1660808173ffffffffffffffffffffffffffffffffffffffff16815250508073ffffffffffffffffffffffffffffffffffffffff1660a08173ffffffffffffffffffffffffffffffffffffffff1681525050505062000158565b600080fd5b600073ffffffffffffffffffffffffffffffffffffffff82169050919050565b6000620000d982620000ac565b9050919050565b620000eb81620000cc565b8114620000f757600080fd5b50565b6000815190506200010b81620000e0565b92915050565b600080604083850312156200012b576200012a620000a7565b5b60006200013b85828601620000fa565b92505060206200014e85828601620000fa565b9150509250929050565b60805160a051616cbf6200031b6000396000818161017101528181610788015281816107c6015281816108c301528181610b7401528181611533015281816117d8015281816118ee01528181611d3f01528181611efe01528181611fec015281816120d10152818161225f015281816122fb015281816126e80152818161276c0152818161283001528181612914015281816129cf01528181612a50015281816130b40152818161333b01528181613394015281816133c8015281816134490152818161360201528181613784015261382001526000818161098a01528181610a8f01528181610c6701528181610c9f01528181610e2101528181610f6401528181611146015281816111c7015281816115fa015281816116f3015281816118cc01528181611a5201528181611e330152818161218a0152818161233a015281816124ff015281816125f801528181612a8f01528181612dfb015281816130310152818161305a015281816130920152818161320f01528181613372015281816136bb0152818161385f015281816141af01528181614203015281816145b1015281816147db01528181614c7a01528181614d410152614df60152616cbf6000f3fe60806040526004361061016a5760003560e01c806385f8c259116100d1578063baa2abde1161008a578063ded9382a11610064578063ded9382a1461065c578063e8e337001461069a578063f305d719146106d9578063fb3bdb411461070b576101cd565b8063baa2abde146105b6578063c45a0155146105f4578063d06ca61f1461061f576101cd565b806385f8c2591461047b5780638803dbee146104b8578063ad5c4648146104f5578063ad615dec14610520578063af2979eb1461055d578063b6f9de951461059a576101cd565b8063494339e111610123578063494339e1146103425780634a25d94a1461037f5780635b0d5984146103bc5780635c11d795146103f9578063791ac947146104225780637ff36ab51461044b576101cd565b806302751cec146101d2578063054d50d41461021057806318cbafe51461024d5780631f00ca741461028a5780632195995c146102c757806338ed173914610305576101cd565b366101cd577f000000000000000000000000000000000000000000000000000000000000000073ffffffffffffffffffffffffffffffffffffffff163373ffffffffffffffffffffffffffffffffffffffff16146101cb576101ca615131565b5b005b600080fd5b3480156101de57600080fd5b506101f960048036038101906101f49190615208565b61073b565b6040516102079291906152a4565b60405180910390f35b34801561021c57600080fd5b50610237600480360381019061023291906152cd565b610865565b6040516102449190615320565b60405180910390f35b34801561025957600080fd5b50610274600480360381019061026f91906153a0565b61087b565b60405161028191906154f8565b60405180910390f35b34801561029657600080fd5b506102b160048036038101906102ac9190615669565b610c60565b6040516102be91906154f8565b60405180910390f35b3480156102d357600080fd5b506102ee60048036038101906102e9919061576c565b610c95565b6040516102fc9291906152a4565b60405180910390f35b34801561031157600080fd5b5061032c600480360381019061032791906153a0565b610d98565b60405161033991906154f8565b60405180910390f35b34801561034e57600080fd5b50610369600480360381019061036491906153a0565b6110ce565b60405161037691906154f8565b60405180910390f35b34801561038b57600080fd5b506103a660048036038101906103a191906153a0565b6114eb565b6040516103b391906154f8565b60405180910390f35b3480156103c857600080fd5b506103e360048036038101906103de9190615860565b6118c4565b6040516103f09190615320565b60405180910390f35b34801561040557600080fd5b50610420600480360381019061041b91906153a0565b6119dc565b005b34801561042e57600080fd5b50610449600480360381019061044491906153a0565b611cf9565b005b6104656004803603810190610460919061593f565b612089565b60405161047291906154f8565b60405180910390f35b34801561048757600080fd5b506104a2600480360381019061049d91906152cd565b61249e565b6040516104af9190615320565b60405180910390f35b3480156104c457600080fd5b506104df60048036038101906104da91906153a0565b6124b4565b6040516104ec91906154f8565b60405180910390f35b34801561050157600080fd5b5061050a6126e6565b60405161051791906159d6565b60405180910390f35b34801561052c57600080fd5b50610547600480360381019061054291906152cd565b61270a565b6040516105549190615320565b60405180910390f35b34801561056957600080fd5b50610584600480360381019061057f9190615208565b612720565b6040516105919190615320565b60405180910390f35b6105b460048036038101906105af919061593f565b6128ce565b005b3480156105c257600080fd5b506105dd60048036038101906105d891906159f1565b612dad565b6040516105eb9291906152a4565b60405180910390f35b34801561060057600080fd5b5061060961302f565b60405161061691906159d6565b60405180910390f35b34801561062b57600080fd5b5061064660048036038101906106419190615669565b613053565b60405161065391906154f8565b60405180910390f35b34801561066857600080fd5b50610683600480360381019061067e9190615860565b613088565b6040516106919291906152a4565b60405180910390f35b3480156106a657600080fd5b506106c160048036038101906106bc9190615a93565b6131a9565b6040516106d093929190615b49565b60405180910390f35b6106f360048036038101906106ee9190615208565b6132ec565b60405161070293929190615b49565b60405180910390f35b6107256004803603810190610720919061593f565b6135ba565b60405161073291906154f8565b60405180910390f35b6000808242811015610782576040517f08c379a000000000000000000000000000000000000000000000000000000000815260040161077990615bdd565b60405180910390fd5b6107b1897f00000000000000000000000000000000000000000000000000000000000000008a8a8a308a612dad565b80935081945050506107c4898685613a17565b7f000000000000000000000000000000000000000000000000000000000000000073ffffffffffffffffffffffffffffffffffffffff16632e1a7d4d836040518263ffffffff1660e01b815260040161081d9190615320565b600060405180830381600087803b15801561083757600080fd5b505af115801561084b573d6000803e3d6000fd5b505050506108598583613b4d565b50965096945050505050565b6000610872848484613c4d565b90509392505050565b606081428110156108c1576040517f08c379a00000000000000000000000000000000000000000000000000000000081526004016108b890615bdd565b60405180910390fd5b7f000000000000000000000000000000000000000000000000000000000000000073ffffffffffffffffffffffffffffffffffffffff16868660018989905061090a9190615c2c565b81811061091a57610919615c60565b5b905060200201602081019061092f9190615c8f565b73ffffffffffffffffffffffffffffffffffffffff1614610985576040517f08c379a000000000000000000000000000000000000000000000000000000000815260040161097c90615d08565b60405180910390fd5b6109f17f000000000000000000000000000000000000000000000000000000000000000089888880806020026020016040519081016040528093929190818152602001838360200280828437600081840152601f19601f82011690508083019250505050505050613d53565b9150868260018451610a039190615c2c565b81518110610a1457610a13615c60565b5b60200260200101511015610a5d576040517f08c379a0000000000000000000000000000000000000000000000000000000008152600401610a5490615d9a565b60405180910390fd5b610b2686866000818110610a7457610a73615c60565b5b9050602002016020810190610a899190615c8f565b33610b057f00000000000000000000000000000000000000000000000000000000000000008a8a6000818110610ac257610ac1615c60565b5b9050602002016020810190610ad79190615c8f565b8b8b6001818110610aeb57610aea615c60565b5b9050602002016020810190610b009190615c8f565b613ede565b85600081518110610b1957610b18615c60565b5b6020026020010151613f74565b610b7282878780806020026020016040519081016040528093929190818152602001838360200280828437600081840152601f19601f82011690508083019250505050505050306140ad565b7f000000000000000000000000000000000000000000000000000000000000000073ffffffffffffffffffffffffffffffffffffffff16632e1a7d4d8360018551610bbd9190615c2c565b81518110610bce57610bcd615c60565b5b60200260200101516040518263ffffffff1660e01b8152600401610bf29190615320565b600060405180830381600087803b158015610c0c57600080fd5b505af1158015610c20573d6000803e3d6000fd5b50505050610c55848360018551610c379190615c2c565b81518110610c4857610c47615c60565b5b6020026020010151613b4d565b509695505050505050565b6060610c8d7f00000000000000000000000000000000000000000000000000000000000000008484614306565b905092915050565b6000806000610cc57f00000000000000000000000000000000000000000000000000000000000000008f8f613ede565b9050600087610cd4578c610cf6565b7fffffffffffffffffffffffffffffffffffffffffffffffffffffffffffffffff5b90508173ffffffffffffffffffffffffffffffffffffffff1663d505accf3330848d8c8c8c6040518863ffffffff1660e01b8152600401610d3d9796959493929190615dd8565b600060405180830381600087803b158015610d5757600080fd5b505af1158015610d6b573d6000803e3d6000fd5b50505050610d7e8f8f8f8f8f8f8f612dad565b809450819550505050509b509b9950505050505050505050565b60608142811015610dde576040517f08c379a0000000000000000000000000000000000000000000000000000000008152600401610dd590615bdd565b60405180910390fd5b610e1c6040518060400160405280600e81526020017f54686973207375636365646465640000000000000000000000000000000000008152506144a1565b610e887f000000000000000000000000000000000000000000000000000000000000000089888880806020026020016040519081016040528093929190818152602001838360200280828437600081840152601f19601f82011690508083019250505050505050613d53565b9150868260018451610e9a9190615c2c565b81518110610eab57610eaa615c60565b5b60200260200101511015610ef4576040517f08c379a0000000000000000000000000000000000000000000000000000000008152600401610eeb90615d9a565b60405180910390fd5b610f326040518060400160405280601081526020017f54686973207375636365646465642032000000000000000000000000000000008152506144a1565b610ffb86866000818110610f4957610f48615c60565b5b9050602002016020810190610f5e9190615c8f565b33610fda7f00000000000000000000000000000000000000000000000000000000000000008a8a6000818110610f9757610f96615c60565b5b9050602002016020810190610fac9190615c8f565b8b8b6001818110610fc057610fbf615c60565b5b9050602002016020810190610fd59190615c8f565b613ede565b85600081518110610fee57610fed615c60565b5b6020026020010151613f74565b6110396040518060400160405280601081526020017f54686973207375636365646465642033000000000000000000000000000000008152506144a1565b61108582878780806020026020016040519081016040528093929190818152602001838360200280828437600081840152601f19601f82011690508083019250505050505050866140ad565b6110c36040518060400160405280601081526020017f54686973207375636365646465642034000000000000000000000000000000008152506144a1565b509695505050505050565b60608142811015611114576040517f08c379a000000000000000000000000000000000000000000000000000000000815260040161110b90615bdd565b60405180910390fd5b6111c28686600081811061112b5761112a615c60565b5b90506020020160208101906111409190615c8f565b336111bc7f00000000000000000000000000000000000000000000000000000000000000008a8a600081811061117957611178615c60565b5b905060200201602081019061118e9190615c8f565b8b8b60018181106111a2576111a1615c60565b5b90506020020160208101906111b79190615c8f565b613ede565b8b613f74565b61122e7f000000000000000000000000000000000000000000000000000000000000000089888880806020026020016040519081016040528093929190818152602001838360200280828437600081840152601f19601f82011690508083019250505050505050613d53565b915060008686600081811061124657611245615c60565b5b905060200201602081019061125b9190615c8f565b73ffffffffffffffffffffffffffffffffffffffff166370a08231306040518263ffffffff1660e01b815260040161129391906159d6565b60206040518083038186803b1580156112ab57600080fd5b505afa1580156112bf573d6000803e3d6000fd5b505050506040513d601f19601f820116820180604052508101906112e39190615e5c565b9050808914611327576040517f08c379a000000000000000000000000000000000000000000000000000000000815260040161131e90615ed5565b60405180910390fd5b60008787600181811061133d5761133c615c60565b5b90506020020160208101906113529190615c8f565b73ffffffffffffffffffffffffffffffffffffffff166370a08231876040518263ffffffff1660e01b815260040161138a91906159d6565b60206040518083038186803b1580156113a257600080fd5b505afa1580156113b6573d6000803e3d6000fd5b505050506040513d601f19601f820116820180604052508101906113da9190615e5c565b905061142884898980806020026020016040519081016040528093929190818152602001838360200280828437600081840152601f19601f82011690508083019250505050505050886140ad565b60008888600181811061143e5761143d615c60565b5b90506020020160208101906114539190615c8f565b73ffffffffffffffffffffffffffffffffffffffff166370a08231886040518263ffffffff1660e01b815260040161148b91906159d6565b60206040518083038186803b1580156114a357600080fd5b505afa1580156114b7573d6000803e3d6000fd5b505050506040513d601f19601f820116820180604052508101906114db9190615e5c565b9050505050509695505050505050565b60608142811015611531576040517f08c379a000000000000000000000000000000000000000000000000000000000815260040161152890615bdd565b60405180910390fd5b7f000000000000000000000000000000000000000000000000000000000000000073ffffffffffffffffffffffffffffffffffffffff16868660018989905061157a9190615c2c565b81811061158a57611589615c60565b5b905060200201602081019061159f9190615c8f565b73ffffffffffffffffffffffffffffffffffffffff16146115f5576040517f08c379a00000000000000000000000000000000000000000000000000000000081526004016115ec90615d08565b60405180910390fd5b6116617f000000000000000000000000000000000000000000000000000000000000000089888880806020026020016040519081016040528093929190818152602001838360200280828437600081840152601f19601f82011690508083019250505050505050614306565b9150868260008151811061167857611677615c60565b5b602002602001015111156116c1576040517f08c379a00000000000000000000000000000000000000000000000000000000081526004016116b890615f67565b60405180910390fd5b61178a868660008181106116d8576116d7615c60565b5b90506020020160208101906116ed9190615c8f565b336117697f00000000000000000000000000000000000000000000000000000000000000008a8a600081811061172657611725615c60565b5b905060200201602081019061173b9190615c8f565b8b8b600181811061174f5761174e615c60565b5b90506020020160208101906117649190615c8f565b613ede565b8560008151811061177d5761177c615c60565b5b6020026020010151613f74565b6117d682878780806020026020016040519081016040528093929190818152602001838360200280828437600081840152601f19601f82011690508083019250505050505050306140ad565b7f000000000000000000000000000000000000000000000000000000000000000073ffffffffffffffffffffffffffffffffffffffff16632e1a7d4d83600185516118219190615c2c565b8151811061183257611831615c60565b5b60200260200101516040518263ffffffff1660e01b81526004016118569190615320565b600060405180830381600087803b15801561187057600080fd5b505af1158015611884573d6000803e3d6000fd5b505050506118b984836001855161189b9190615c2c565b815181106118ac576118ab615c60565b5b6020026020010151613b4d565b509695505050505050565b6000806119127f00000000000000000000000000000000000000000000000000000000000000008d7f0000000000000000000000000000000000000000000000000000000000000000613ede565b9050600086611921578b611943565b7fffffffffffffffffffffffffffffffffffffffffffffffffffffffffffffffff5b90508173ffffffffffffffffffffffffffffffffffffffff1663d505accf3330848c8b8b8b6040518863ffffffff1660e01b815260040161198a9796959493929190615dd8565b600060405180830381600087803b1580156119a457600080fd5b505af11580156119b8573d6000803e3d6000fd5b505050506119ca8d8d8d8d8d8d612720565b925050509a9950505050505050505050565b8042811015611a20576040517f08c379a0000000000000000000000000000000000000000000000000000000008152600401611a1790615bdd565b60405180910390fd5b611ace85856000818110611a3757611a36615c60565b5b9050602002016020810190611a4c9190615c8f565b33611ac87f000000000000000000000000000000000000000000000000000000000000000089896000818110611a8557611a84615c60565b5b9050602002016020810190611a9a9190615c8f565b8a8a6001818110611aae57611aad615c60565b5b9050602002016020810190611ac39190615c8f565b613ede565b8a613f74565b60008585600188889050611ae29190615c2c565b818110611af257611af1615c60565b5b9050602002016020810190611b079190615c8f565b73ffffffffffffffffffffffffffffffffffffffff166370a08231856040518263ffffffff1660e01b8152600401611b3f91906159d6565b60206040518083038186803b158015611b5757600080fd5b505afa158015611b6b573d6000803e3d6000fd5b505050506040513d601f19601f82011682018060405250810190611b8f9190615e5c565b9050611bdc868680806020026020016040519081016040528093929190818152602001838360200280828437600081840152601f19601f820116905080830192505050505050508561453a565b86611cae82888860018b8b9050611bf39190615c2c565b818110611c0357611c02615c60565b5b9050602002016020810190611c189190615c8f565b73ffffffffffffffffffffffffffffffffffffffff166370a08231886040518263ffffffff1660e01b8152600401611c5091906159d6565b60206040518083038186803b158015611c6857600080fd5b505afa158015611c7c573d6000803e3d6000fd5b505050506040513d601f19601f82011682018060405250810190611ca09190615e5c565b61490990919063ffffffff16565b1015611cef576040517f08c379a0000000000000000000000000000000000000000000000000000000008152600401611ce690615d9a565b60405180910390fd5b5050505050505050565b8042811015611d3d576040517f08c379a0000000000000000000000000000000000000000000000000000000008152600401611d3490615bdd565b60405180910390fd5b7f000000000000000000000000000000000000000000000000000000000000000073ffffffffffffffffffffffffffffffffffffffff168585600188889050611d869190615c2c565b818110611d9657611d95615c60565b5b9050602002016020810190611dab9190615c8f565b73ffffffffffffffffffffffffffffffffffffffff1614611e01576040517f08c379a0000000000000000000000000000000000000000000000000000000008152600401611df890615d08565b60405180910390fd5b611eaf85856000818110611e1857611e17615c60565b5b9050602002016020810190611e2d9190615c8f565b33611ea97f000000000000000000000000000000000000000000000000000000000000000089896000818110611e6657611e65615c60565b5b9050602002016020810190611e7b9190615c8f565b8a8a6001818110611e8f57611e8e615c60565b5b9050602002016020810190611ea49190615c8f565b613ede565b8a613f74565b611efa858580806020026020016040519081016040528093929190818152602001838360200280828437600081840152601f19601f820116905080830192505050505050503061453a565b60007f000000000000000000000000000000000000000000000000000000000000000073ffffffffffffffffffffffffffffffffffffffff166370a08231306040518263ffffffff1660e01b8152600401611f5591906159d6565b60206040518083038186803b158015611f6d57600080fd5b505afa158015611f81573d6000803e3d6000fd5b505050506040513d601f19601f82011682018060405250810190611fa59190615e5c565b905086811015611fea576040517f08c379a0000000000000000000000000000000000000000000000000000000008152600401611fe190615d9a565b60405180910390fd5b7f000000000000000000000000000000000000000000000000000000000000000073ffffffffffffffffffffffffffffffffffffffff16632e1a7d4d826040518263ffffffff1660e01b81526004016120439190615320565b600060405180830381600087803b15801561205d57600080fd5b505af1158015612071573d6000803e3d6000fd5b5050505061207f8482613b4d565b5050505050505050565b606081428110156120cf576040517f08c379a00000000000000000000000000000000000000000000000000000000081526004016120c690615bdd565b60405180910390fd5b7f000000000000000000000000000000000000000000000000000000000000000073ffffffffffffffffffffffffffffffffffffffff168686600081811061211a57612119615c60565b5b905060200201602081019061212f9190615c8f565b73ffffffffffffffffffffffffffffffffffffffff1614612185576040517f08c379a000000000000000000000000000000000000000000000000000000000815260040161217c90615d08565b60405180910390fd5b6121f17f000000000000000000000000000000000000000000000000000000000000000034888880806020026020016040519081016040528093929190818152602001838360200280828437600081840152601f19601f82011690508083019250505050505050613d53565b91508682600184516122039190615c2c565b8151811061221457612213615c60565b5b6020026020010151101561225d576040517f08c379a000000000000000000000000000000000000000000000000000000000815260040161225490615d9a565b60405180910390fd5b7f000000000000000000000000000000000000000000000000000000000000000073ffffffffffffffffffffffffffffffffffffffff1663d0e30db0836000815181106122ad576122ac615c60565b5b60200260200101516040518263ffffffff1660e01b81526004016000604051808303818588803b1580156122e057600080fd5b505af11580156122f4573d6000803e3d6000fd5b50505050507f000000000000000000000000000000000000000000000000000000000000000073ffffffffffffffffffffffffffffffffffffffff1663a9059cbb6123b07f00000000000000000000000000000000000000000000000000000000000000008989600081811061236d5761236c615c60565b5b90506020020160208101906123829190615c8f565b8a8a600181811061239657612395615c60565b5b90506020020160208101906123ab9190615c8f565b613ede565b846000815181106123c4576123c3615c60565b5b60200260200101516040518363ffffffff1660e01b81526004016123e9929190615f87565b602060405180830381600087803b15801561240357600080fd5b505af1158015612417573d6000803e3d6000fd5b505050506040513d601f19601f8201168201806040525081019061243b9190615fc5565b61244857612447615131565b5b61249482878780806020026020016040519081016040528093929190818152602001838360200280828437600081840152601f19601f82011690508083019250505050505050866140ad565b5095945050505050565b60006124ab848484614962565b90509392505050565b606081428110156124fa576040517f08c379a00000000000000000000000000000000000000000000000000000000081526004016124f190615bdd565b60405180910390fd5b6125667f000000000000000000000000000000000000000000000000000000000000000089888880806020026020016040519081016040528093929190818152602001838360200280828437600081840152601f19601f82011690508083019250505050505050614306565b9150868260008151811061257d5761257c615c60565b5b602002602001015111156125c6576040517f08c379a00000000000000000000000000000000000000000000000000000000081526004016125bd90615f67565b60405180910390fd5b61268f868660008181106125dd576125dc615c60565b5b90506020020160208101906125f29190615c8f565b3361266e7f00000000000000000000000000000000000000000000000000000000000000008a8a600081811061262b5761262a615c60565b5b90506020020160208101906126409190615c8f565b8b8b600181811061265457612653615c60565b5b90506020020160208101906126699190615c8f565b613ede565b8560008151811061268257612681615c60565b5b6020026020010151613f74565b6126db82878780806020026020016040519081016040528093929190818152602001838360200280828437600081840152601f19601f82011690508083019250505050505050866140ad565b509695505050505050565b7f000000000000000000000000000000000000000000000000000000000000000081565b6000612717848484614a75565b90509392505050565b60008142811015612766576040517f08c379a000000000000000000000000000000000000000000000000000000000815260040161275d90615bdd565b60405180910390fd5b612795887f00000000000000000000000000000000000000000000000000000000000000008989893089612dad565b90508092505061282e88858a73ffffffffffffffffffffffffffffffffffffffff166370a08231306040518263ffffffff1660e01b81526004016127d991906159d6565b60206040518083038186803b1580156127f157600080fd5b505afa158015612805573d6000803e3d6000fd5b505050506040513d601f19601f820116820180604052508101906128299190615e5c565b613a17565b7f000000000000000000000000000000000000000000000000000000000000000073ffffffffffffffffffffffffffffffffffffffff16632e1a7d4d836040518263ffffffff1660e01b81526004016128879190615320565b600060405180830381600087803b1580156128a157600080fd5b505af11580156128b5573d6000803e3d6000fd5b505050506128c38483613b4d565b509695505050505050565b8042811015612912576040517f08c379a000000000000000000000000000000000000000000000000000000000815260040161290990615bdd565b60405180910390fd5b7f000000000000000000000000000000000000000000000000000000000000000073ffffffffffffffffffffffffffffffffffffffff168585600081811061295d5761295c615c60565b5b90506020020160208101906129729190615c8f565b73ffffffffffffffffffffffffffffffffffffffff16146129c8576040517f08c379a00000000000000000000000000000000000000000000000000000000081526004016129bf90615d08565b60405180910390fd5b60003490507f000000000000000000000000000000000000000000000000000000000000000073ffffffffffffffffffffffffffffffffffffffff1663d0e30db0826040518263ffffffff1660e01b81526004016000604051808303818588803b158015612a3557600080fd5b505af1158015612a49573d6000803e3d6000fd5b50505050507f000000000000000000000000000000000000000000000000000000000000000073ffffffffffffffffffffffffffffffffffffffff1663a9059cbb612b057f000000000000000000000000000000000000000000000000000000000000000089896000818110612ac257612ac1615c60565b5b9050602002016020810190612ad79190615c8f565b8a8a6001818110612aeb57612aea615c60565b5b9050602002016020810190612b009190615c8f565b613ede565b836040518363ffffffff1660e01b8152600401612b23929190615f87565b602060405180830381600087803b158015612b3d57600080fd5b505af1158015612b51573d6000803e3d6000fd5b505050506040513d601f19601f82011682018060405250810190612b759190615fc5565b612b8257612b81615131565b5b60008686600189899050612b969190615c2c565b818110612ba657612ba5615c60565b5b9050602002016020810190612bbb9190615c8f565b73ffffffffffffffffffffffffffffffffffffffff166370a08231866040518263ffffffff1660e01b8152600401612bf391906159d6565b60206040518083038186803b158015612c0b57600080fd5b505afa158015612c1f573d6000803e3d6000fd5b505050506040513d601f19601f82011682018060405250810190612c439190615e5c565b9050612c90878780806020026020016040519081016040528093929190818152602001838360200280828437600081840152601f19601f820116905080830192505050505050508661453a565b87612d6282898960018c8c9050612ca79190615c2c565b818110612cb757612cb6615c60565b5b9050602002016020810190612ccc9190615c8f565b73ffffffffffffffffffffffffffffffffffffffff166370a08231896040518263ffffffff1660e01b8152600401612d0491906159d6565b60206040518083038186803b158015612d1c57600080fd5b505afa158015612d30573d6000803e3d6000fd5b505050506040513d601f19601f82011682018060405250810190612d549190615e5c565b61490990919063ffffffff16565b1015612da3576040517f08c379a0000000000000000000000000000000000000000000000000000000008152600401612d9a90615d9a565b60405180910390fd5b5050505050505050565b6000808242811015612df4576040517f08c379a0000000000000000000000000000000000000000000000000000000008152600401612deb90615bdd565b60405180910390fd5b6000612e217f00000000000000000000000000000000000000000000000000000000000000008c8c613ede565b90508073ffffffffffffffffffffffffffffffffffffffff166323b872dd33838c6040518463ffffffff1660e01b8152600401612e6093929190615ff2565b602060405180830381600087803b158015612e7a57600080fd5b505af1158015612e8e573d6000803e3d6000fd5b505050506040513d601f19601f82011682018060405250810190612eb29190615fc5565b506000808273ffffffffffffffffffffffffffffffffffffffff166389afcb44896040518263ffffffff1660e01b8152600401612eef91906159d6565b6040805180830381600087803b158015612f0857600080fd5b505af1158015612f1c573d6000803e3d6000fd5b505050506040513d601f19601f82011682018060405250810190612f409190616029565b915091506000612f508e8e614b2f565b5090508073ffffffffffffffffffffffffffffffffffffffff168e73ffffffffffffffffffffffffffffffffffffffff1614612f8d578183612f90565b82825b80975081985050508a871015612fdb576040517f08c379a0000000000000000000000000000000000000000000000000000000008152600401612fd2906160db565b60405180910390fd5b8986101561301e576040517f08c379a00000000000000000000000000000000000000000000000000000000081526004016130159061616d565b60405180910390fd5b505050505097509795505050505050565b7f000000000000000000000000000000000000000000000000000000000000000081565b60606130807f00000000000000000000000000000000000000000000000000000000000000008484613d53565b905092915050565b60008060006130d87f00000000000000000000000000000000000000000000000000000000000000008e7f0000000000000000000000000000000000000000000000000000000000000000613ede565b90506000876130e7578c613109565b7fffffffffffffffffffffffffffffffffffffffffffffffffffffffffffffffff5b90508173ffffffffffffffffffffffffffffffffffffffff1663d505accf3330848d8c8c8c6040518863ffffffff1660e01b81526004016131509796959493929190615dd8565b600060405180830381600087803b15801561316a57600080fd5b505af115801561317e573d6000803e3d6000fd5b505050506131908e8e8e8e8e8e61073b565b809450819550505050509a509a98505050505050505050565b600080600083428110156131f2576040517f08c379a00000000000000000000000000000000000000000000000000000000081526004016131e990615bdd565b60405180910390fd5b6132008c8c8c8c8c8c614c5d565b809450819550505060006132357f00000000000000000000000000000000000000000000000000000000000000008e8e613ede565b90506132438d338388613f74565b61324f8c338387613f74565b8073ffffffffffffffffffffffffffffffffffffffff16636a627842886040518263ffffffff1660e01b815260040161328891906159d6565b602060405180830381600087803b1580156132a257600080fd5b505af11580156132b6573d6000803e3d6000fd5b505050506040513d601f19601f820116820180604052508101906132da9190615e5c565b92505050985098509895505050505050565b60008060008342811015613335576040517f08c379a000000000000000000000000000000000000000000000000000000000815260040161332c90615bdd565b60405180910390fd5b6133638a7f00000000000000000000000000000000000000000000000000000000000000008b348c8c614c5d565b809450819550505060006133b87f00000000000000000000000000000000000000000000000000000000000000008c7f0000000000000000000000000000000000000000000000000000000000000000613ede565b90506133c68b338388613f74565b7f000000000000000000000000000000000000000000000000000000000000000073ffffffffffffffffffffffffffffffffffffffff1663d0e30db0856040518263ffffffff1660e01b81526004016000604051808303818588803b15801561342e57600080fd5b505af1158015613442573d6000803e3d6000fd5b50505050507f000000000000000000000000000000000000000000000000000000000000000073ffffffffffffffffffffffffffffffffffffffff1663a9059cbb82866040518363ffffffff1660e01b81526004016134a2929190615f87565b602060405180830381600087803b1580156134bc57600080fd5b505af11580156134d0573d6000803e3d6000fd5b505050506040513d601f19601f820116820180604052508101906134f49190615fc5565b61350157613500615131565b5b8073ffffffffffffffffffffffffffffffffffffffff16636a627842886040518263ffffffff1660e01b815260040161353a91906159d6565b602060405180830381600087803b15801561355457600080fd5b505af1158015613568573d6000803e3d6000fd5b505050506040513d601f19601f8201168201806040525081019061358c9190615e5c565b9250833411156135ac576135ab3385346135a69190615c2c565b613b4d565b5b505096509650969350505050565b60608142811015613600576040517f08c379a00000000000000000000000000000000000000000000000000000000081526004016135f790615bdd565b60405180910390fd5b7f000000000000000000000000000000000000000000000000000000000000000073ffffffffffffffffffffffffffffffffffffffff168686600081811061364b5761364a615c60565b5b90506020020160208101906136609190615c8f565b73ffffffffffffffffffffffffffffffffffffffff16146136b6576040517f08c379a00000000000000000000000000000000000000000000000000000000081526004016136ad90615d08565b60405180910390fd5b6137227f000000000000000000000000000000000000000000000000000000000000000088888880806020026020016040519081016040528093929190818152602001838360200280828437600081840152601f19601f82011690508083019250505050505050614306565b9150348260008151811061373957613738615c60565b5b60200260200101511115613782576040517f08c379a000000000000000000000000000000000000000000000000000000000815260040161377990615f67565b60405180910390fd5b7f000000000000000000000000000000000000000000000000000000000000000073ffffffffffffffffffffffffffffffffffffffff1663d0e30db0836000815181106137d2576137d1615c60565b5b60200260200101516040518263ffffffff1660e01b81526004016000604051808303818588803b15801561380557600080fd5b505af1158015613819573d6000803e3d6000fd5b50505050507f000000000000000000000000000000000000000000000000000000000000000073ffffffffffffffffffffffffffffffffffffffff1663a9059cbb6138d57f00000000000000000000000000000000000000000000000000000000000000008989600081811061389257613891615c60565b5b90506020020160208101906138a79190615c8f565b8a8a60018181106138bb576138ba615c60565b5b90506020020160208101906138d09190615c8f565b613ede565b846000815181106138e9576138e8615c60565b5b60200260200101516040518363ffffffff1660e01b815260040161390e929190615f87565b602060405180830381600087803b15801561392857600080fd5b505af115801561393c573d6000803e3d6000fd5b505050506040513d601f19601f820116820180604052508101906139609190615fc5565b61396d5761396c615131565b5b6139b982878780806020026020016040519081016040528093929190818152602001838360200280828437600081840152601f19601f82011690508083019250505050505050866140ad565b816000815181106139cd576139cc615c60565b5b6020026020010151341115613a0d57613a0c33836000815181106139f4576139f3615c60565b5b602002602001015134613a079190615c2c565b613b4d565b5b5095945050505050565b6000808473ffffffffffffffffffffffffffffffffffffffff1663a9059cbb8585604051602401613a49929190615f87565b6040516020818303038152906040529060e01b6020820180517bffffffffffffffffffffffffffffffffffffffffffffffffffffffff8381831617835250505050604051613a979190616207565b6000604051808303816000865af19150503d8060008114613ad4576040519150601f19603f3d011682016040523d82523d6000602084013e613ad9565b606091505b5091509150818015613b075750600081511480613b06575080806020019051810190613b059190615fc5565b5b5b613b46576040517f08c379a0000000000000000000000000000000000000000000000000000000008152600401613b3d90616290565b60405180910390fd5b5050505050565b60008273ffffffffffffffffffffffffffffffffffffffff1682600067ffffffffffffffff811115613b8257613b8161552b565b5b6040519080825280601f01601f191660200182016040528015613bb45781602001600182028036833780820191505090505b50604051613bc29190616207565b60006040518083038185875af1925050503d8060008114613bff576040519150601f19603f3d011682016040523d82523d6000602084013e613c04565b606091505b5050905080613c48576040517f08c379a0000000000000000000000000000000000000000000000000000000008152600401613c3f90616322565b60405180910390fd5b505050565b6000808411613c91576040517f08c379a0000000000000000000000000000000000000000000000000000000008152600401613c88906163b4565b60405180910390fd5b600083118015613ca15750600082115b613ce0576040517f08c379a0000000000000000000000000000000000000000000000000000000008152600401613cd790616446565b60405180910390fd5b6000613cf76103e586614f2a90919063ffffffff16565b90506000613d0e8483614f2a90919063ffffffff16565b90506000613d3983613d2b6103e889614f2a90919063ffffffff16565b614f9790919063ffffffff16565b90508082613d479190616495565b93505050509392505050565b6060600282511015613d9a576040517f08c379a0000000000000000000000000000000000000000000000000000000008152600401613d9190616512565b60405180910390fd5b815167ffffffffffffffff811115613db557613db461552b565b5b604051908082528060200260200182016040528015613de35781602001602082028036833780820191505090505b5090508281600081518110613dfb57613dfa615c60565b5b60200260200101818152505060005b60018351613e189190615c2c565b811015613ed657600080613e6d87868581518110613e3957613e38615c60565b5b602002602001015187600187613e4f9190616532565b81518110613e6057613e5f615c60565b5b6020026020010151614ff0565b91509150613e96848481518110613e8757613e86615c60565b5b60200260200101518383613c4d565b84600185613ea49190616532565b81518110613eb557613eb4615c60565b5b60200260200101818152505050508080613ece90616588565b915050613e0a565b509392505050565b60008373ffffffffffffffffffffffffffffffffffffffff1663e6a4390584846040518363ffffffff1660e01b8152600401613f1b9291906165d1565b60206040518083038186803b158015613f3357600080fd5b505afa158015613f47573d6000803e3d6000fd5b505050506040513d601f19601f82011682018060405250810190613f6b919061660f565b90509392505050565b6000808573ffffffffffffffffffffffffffffffffffffffff166323b872dd868686604051602401613fa893929190615ff2565b6040516020818303038152906040529060e01b6020820180517bffffffffffffffffffffffffffffffffffffffffffffffffffffffff8381831617835250505050604051613ff69190616207565b6000604051808303816000865af19150503d8060008114614033576040519150601f19603f3d011682016040523d82523d6000602084013e614038565b606091505b509150915081801561406657506000815114806140655750808060200190518101906140649190615fc5565b5b5b6140a5576040517f08c379a000000000000000000000000000000000000000000000000000000000815260040161409c906166ae565b60405180910390fd5b505050505050565b60005b600183516140be9190615c2c565b811015614300576000808483815181106140db576140da615c60565b5b6020026020010151856001856140f19190616532565b8151811061410257614101615c60565b5b602002602001015191509150600061411a8383614b2f565b50905060008760018661412d9190616532565b8151811061413e5761413d615c60565b5b602002602001015190506000808373ffffffffffffffffffffffffffffffffffffffff168673ffffffffffffffffffffffffffffffffffffffff16146141865782600061418a565b6000835b91509150600060028a5161419e9190615c2c565b88106141aa57886141fc565b6141fb7f0000000000000000000000000000000000000000000000000000000000000000878c60028c6141dd9190616532565b815181106141ee576141ed615c60565b5b6020026020010151613ede565b5b90506142297f00000000000000000000000000000000000000000000000000000000000000008888613ede565b73ffffffffffffffffffffffffffffffffffffffff1663022c0d9f848484600067ffffffffffffffff8111156142625761426161552b565b5b6040519080825280601f01601f1916602001820160405280156142945781602001600182028036833780820191505090505b506040518563ffffffff1660e01b81526004016142b49493929190616718565b600060405180830381600087803b1580156142ce57600080fd5b505af11580156142e2573d6000803e3d6000fd5b505050505050505050505080806142f890616588565b9150506140b0565b50505050565b606060028251101561434d576040517f08c379a000000000000000000000000000000000000000000000000000000000815260040161434490616512565b60405180910390fd5b815167ffffffffffffffff8111156143685761436761552b565b5b6040519080825280602002602001820160405280156143965781602001602082028036833780820191505090505b5090508281600183516143a99190615c2c565b815181106143ba576143b9615c60565b5b6020026020010181815250506000600183516143d69190615c2c565b90505b60008111156144995760008061443087866001866143f79190615c2c565b8151811061440857614407615c60565b5b602002602001015187868151811061442357614422615c60565b5b6020026020010151614ff0565b9150915061445984848151811061444a57614449615c60565b5b60200260200101518383614962565b846001856144679190615c2c565b8151811061447857614477615c60565b5b6020026020010181815250505050808061449190616764565b9150506143d9565b509392505050565b614537816040516024016144b591906167d2565b6040516020818303038152906040527f41304fac000000000000000000000000000000000000000000000000000000007bffffffffffffffffffffffffffffffffffffffffffffffffffffffff19166020820180517bffffffffffffffffffffffffffffffffffffffffffffffffffffffff8381831617835250505050615108565b50565b60005b6001835161454b9190615c2c565b8110156149045760008084838151811061456857614567615c60565b5b60200260200101518560018561457e9190616532565b8151811061458f5761458e615c60565b5b60200260200101519150915060006145a78383614b2f565b50905060006145d77f00000000000000000000000000000000000000000000000000000000000000008585613ede565b90506000806000808473ffffffffffffffffffffffffffffffffffffffff16630902f1ac6040518163ffffffff1660e01b815260040160606040518083038186803b15801561462557600080fd5b505afa158015614639573d6000803e3d6000fd5b505050506040513d601f19601f8201168201806040525081019061465d9190616876565b506dffffffffffffffffffffffffffff1691506dffffffffffffffffffffffffffff1691506000808773ffffffffffffffffffffffffffffffffffffffff168a73ffffffffffffffffffffffffffffffffffffffff16146146bf5782846146c2565b83835b91509150614761828b73ffffffffffffffffffffffffffffffffffffffff166370a082318a6040518263ffffffff1660e01b815260040161470391906159d6565b60206040518083038186803b15801561471b57600080fd5b505afa15801561472f573d6000803e3d6000fd5b505050506040513d601f19601f820116820180604052508101906147539190615e5c565b61490990919063ffffffff16565b955061476e868383613c4d565b9450505050506000808573ffffffffffffffffffffffffffffffffffffffff168873ffffffffffffffffffffffffffffffffffffffff16146147b2578260006147b6565b6000835b91509150600060028c516147ca9190615c2c565b8a106147d6578a614828565b6148277f0000000000000000000000000000000000000000000000000000000000000000898e60028e6148099190616532565b8151811061481a57614819615c60565b5b6020026020010151613ede565b5b90508573ffffffffffffffffffffffffffffffffffffffff1663022c0d9f848484600067ffffffffffffffff8111156148645761486361552b565b5b6040519080825280601f01601f1916602001820160405280156148965781602001600182028036833780820191505090505b506040518563ffffffff1660e01b81526004016148b69493929190616718565b600060405180830381600087803b1580156148d057600080fd5b505af11580156148e4573d6000803e3d6000fd5b5050505050505050505050505080806148fc90616588565b91505061453d565b505050565b60008282846149189190615c2c565b915081111561495c576040517f08c379a000000000000000000000000000000000000000000000000000000000815260040161495390616915565b60405180910390fd5b92915050565b60008084116149a6576040517f08c379a000000000000000000000000000000000000000000000000000000000815260040161499d906169a7565b60405180910390fd5b6000831180156149b65750600082115b6149f5576040517f08c379a00000000000000000000000000000000000000000000000000000000081526004016149ec90616446565b60405180910390fd5b6000614a1e6103e8614a108787614f2a90919063ffffffff16565b614f2a90919063ffffffff16565b90506000614a496103e5614a3b888761490990919063ffffffff16565b614f2a90919063ffffffff16565b9050614a6a60018284614a5c9190616495565b614f9790919063ffffffff16565b925050509392505050565b6000808411614ab9576040517f08c379a0000000000000000000000000000000000000000000000000000000008152600401614ab090616a39565b60405180910390fd5b600083118015614ac95750600082115b614b08576040517f08c379a0000000000000000000000000000000000000000000000000000000008152600401614aff90616446565b60405180910390fd5b82614b1c8386614f2a90919063ffffffff16565b614b269190616495565b90509392505050565b6000808273ffffffffffffffffffffffffffffffffffffffff168473ffffffffffffffffffffffffffffffffffffffff161415614ba1576040517f08c379a0000000000000000000000000000000000000000000000000000000008152600401614b9890616acb565b60405180910390fd5b8273ffffffffffffffffffffffffffffffffffffffff168473ffffffffffffffffffffffffffffffffffffffff1610614bdb578284614bde565b83835b8092508193505050600073ffffffffffffffffffffffffffffffffffffffff168273ffffffffffffffffffffffffffffffffffffffff161415614c56576040517f08c379a0000000000000000000000000000000000000000000000000000000008152600401614c4d90616b37565b60405180910390fd5b9250929050565b600080600073ffffffffffffffffffffffffffffffffffffffff167f000000000000000000000000000000000000000000000000000000000000000073ffffffffffffffffffffffffffffffffffffffff1663e6a439058a8a6040518363ffffffff1660e01b8152600401614cd39291906165d1565b60206040518083038186803b158015614ceb57600080fd5b505afa158015614cff573d6000803e3d6000fd5b505050506040513d601f19601f82011682018060405250810190614d23919061660f565b73ffffffffffffffffffffffffffffffffffffffff161415614dee577f000000000000000000000000000000000000000000000000000000000000000073ffffffffffffffffffffffffffffffffffffffff1663c9c6539689896040518363ffffffff1660e01b8152600401614d9a9291906165d1565b602060405180830381600087803b158015614db457600080fd5b505af1158015614dc8573d6000803e3d6000fd5b505050506040513d601f19601f82011682018060405250810190614dec919061660f565b505b600080614e1c7f00000000000000000000000000000000000000000000000000000000000000008b8b614ff0565b91509150600082148015614e305750600081145b15614e445787878094508195505050614f1d565b6000614e51898484614a75565b9050878111614eac5785811015614e9d576040517f08c379a0000000000000000000000000000000000000000000000000000000008152600401614e949061616d565b60405180910390fd5b88818095508196505050614f1b565b6000614eb9898486614a75565b905089811115614ecc57614ecb615131565b5b87811015614f0f576040517f08c379a0000000000000000000000000000000000000000000000000000000008152600401614f06906160db565b60405180910390fd5b80898096508197505050505b505b5050965096945050505050565b600080821480614f52575082828385614f439190616b57565b925082614f509190616495565b145b614f91576040517f08c379a0000000000000000000000000000000000000000000000000000000008152600401614f8890616bfd565b60405180910390fd5b92915050565b6000828284614fa69190616532565b9150811015614fea576040517f08c379a0000000000000000000000000000000000000000000000000000000008152600401614fe190616c69565b60405180910390fd5b92915050565b6000806000614fff8585614b2f565b509050600061500f878787613ede565b90506000808273ffffffffffffffffffffffffffffffffffffffff16630902f1ac6040518163ffffffff1660e01b815260040160606040518083038186803b15801561505a57600080fd5b505afa15801561506e573d6000803e3d6000fd5b505050506040513d601f19601f820116820180604052508101906150929190616876565b506dffffffffffffffffffffffffffff1691506dffffffffffffffffffffffffffff1691508373ffffffffffffffffffffffffffffffffffffffff168873ffffffffffffffffffffffffffffffffffffffff16146150f15780826150f4565b81815b809650819750505050505050935093915050565b60008151905060006a636f6e736f6c652e6c6f679050602083016000808483855afa5050505050565b7f4e487b7100000000000000000000000000000000000000000000000000000000600052600160045260246000fd5b6000604051905090565b600080fd5b600080fd5b600073ffffffffffffffffffffffffffffffffffffffff82169050919050565b600061519f82615174565b9050919050565b6151af81615194565b81146151ba57600080fd5b50565b6000813590506151cc816151a6565b92915050565b6000819050919050565b6151e5816151d2565b81146151f057600080fd5b50565b600081359050615202816151dc565b92915050565b60008060008060008060c087890312156152255761522461516a565b5b600061523389828a016151bd565b965050602061524489828a016151f3565b955050604061525589828a016151f3565b945050606061526689828a016151f3565b935050608061527789828a016151bd565b92505060a061528889828a016151f3565b9150509295509295509295565b61529e816151d2565b82525050565b60006040820190506152b96000830185615295565b6152c66020830184615295565b9392505050565b6000806000606084860312156152e6576152e561516a565b5b60006152f4868287016151f3565b9350506020615305868287016151f3565b9250506040615316868287016151f3565b9150509250925092565b60006020820190506153356000830184615295565b92915050565b600080fd5b600080fd5b600080fd5b60008083601f8401126153605761535f61533b565b5b8235905067ffffffffffffffff81111561537d5761537c615340565b5b60208301915083602082028301111561539957615398615345565b5b9250929050565b60008060008060008060a087890312156153bd576153bc61516a565b5b60006153cb89828a016151f3565b96505060206153dc89828a016151f3565b955050604087013567ffffffffffffffff8111156153fd576153fc61516f565b5b61540989828a0161534a565b9450945050606061541c89828a016151bd565b925050608061542d89828a016151f3565b9150509295509295509295565b600081519050919050565b600082825260208201905092915050565b6000819050602082019050919050565b61546f816151d2565b82525050565b60006154818383615466565b60208301905092915050565b6000602082019050919050565b60006154a58261543a565b6154af8185615445565b93506154ba83615456565b8060005b838110156154eb5781516154d28882615475565b97506154dd8361548d565b9250506001810190506154be565b5085935050505092915050565b60006020820190508181036000830152615512818461549a565b905092915050565b6000601f19601f8301169050919050565b7f4e487b7100000000000000000000000000000000000000000000000000000000600052604160045260246000fd5b6155638261551a565b810181811067ffffffffffffffff821117156155825761558161552b565b5b80604052505050565b6000615595615160565b90506155a1828261555a565b919050565b600067ffffffffffffffff8211156155c1576155c061552b565b5b602082029050602081019050919050565b60006155e56155e0846155a6565b61558b565b9050808382526020820190506020840283018581111561560857615607615345565b5b835b81811015615631578061561d88826151bd565b84526020840193505060208101905061560a565b5050509392505050565b600082601f8301126156505761564f61533b565b5b81356156608482602086016155d2565b91505092915050565b600080604083850312156156805761567f61516a565b5b600061568e858286016151f3565b925050602083013567ffffffffffffffff8111156156af576156ae61516f565b5b6156bb8582860161563b565b9150509250929050565b60008115159050919050565b6156da816156c5565b81146156e557600080fd5b50565b6000813590506156f7816156d1565b92915050565b600060ff82169050919050565b615713816156fd565b811461571e57600080fd5b50565b6000813590506157308161570a565b92915050565b6000819050919050565b61574981615736565b811461575457600080fd5b50565b60008135905061576681615740565b92915050565b60008060008060008060008060008060006101608c8e0312156157925761579161516a565b5b60006157a08e828f016151bd565b9b505060206157b18e828f016151bd565b9a505060406157c28e828f016151f3565b99505060606157d38e828f016151f3565b98505060806157e48e828f016151f3565b97505060a06157f58e828f016151bd565b96505060c06158068e828f016151f3565b95505060e06158178e828f016156e8565b9450506101006158298e828f01615721565b93505061012061583b8e828f01615757565b92505061014061584d8e828f01615757565b9150509295989b509295989b9093969950565b6000806000806000806000806000806101408b8d0312156158845761588361516a565b5b60006158928d828e016151bd565b9a505060206158a38d828e016151f3565b99505060406158b48d828e016151f3565b98505060606158c58d828e016151f3565b97505060806158d68d828e016151bd565b96505060a06158e78d828e016151f3565b95505060c06158f88d828e016156e8565b94505060e06159098d828e01615721565b93505061010061591b8d828e01615757565b92505061012061592d8d828e01615757565b9150509295989b9194979a5092959850565b60008060008060006080868803121561595b5761595a61516a565b5b6000615969888289016151f3565b955050602086013567ffffffffffffffff81111561598a5761598961516f565b5b6159968882890161534a565b945094505060406159a9888289016151bd565b92505060606159ba888289016151f3565b9150509295509295909350565b6159d081615194565b82525050565b60006020820190506159eb60008301846159c7565b92915050565b600080600080600080600060e0888a031215615a1057615a0f61516a565b5b6000615a1e8a828b016151bd565b9750506020615a2f8a828b016151bd565b9650506040615a408a828b016151f3565b9550506060615a518a828b016151f3565b9450506080615a628a828b016151f3565b93505060a0615a738a828b016151bd565b92505060c0615a848a828b016151f3565b91505092959891949750929550565b600080600080600080600080610100898b031215615ab457615ab361516a565b5b6000615ac28b828c016151bd565b9850506020615ad38b828c016151bd565b9750506040615ae48b828c016151f3565b9650506060615af58b828c016151f3565b9550506080615b068b828c016151f3565b94505060a0615b178b828c016151f3565b93505060c0615b288b828c016151bd565b92505060e0615b398b828c016151f3565b9150509295985092959890939650565b6000606082019050615b5e6000830186615295565b615b6b6020830185615295565b615b786040830184615295565b949350505050565b600082825260208201905092915050565b7f556e69737761705632526f757465723a20455850495245440000000000000000600082015250565b6000615bc7601883615b80565b9150615bd282615b91565b602082019050919050565b60006020820190508181036000830152615bf681615bba565b9050919050565b7f4e487b7100000000000000000000000000000000000000000000000000000000600052601160045260246000fd5b6000615c37826151d2565b9150615c42836151d2565b925082821015615c5557615c54615bfd565b5b828203905092915050565b7f4e487b7100000000000000000000000000000000000000000000000000000000600052603260045260246000fd5b600060208284031215615ca557615ca461516a565b5b6000615cb3848285016151bd565b91505092915050565b7f556e69737761705632526f757465723a20494e56414c49445f50415448000000600082015250565b6000615cf2601d83615b80565b9150615cfd82615cbc565b602082019050919050565b60006020820190508181036000830152615d2181615ce5565b9050919050565b7f556e69737761705632526f757465723a20494e53554646494349454e545f4f5560008201527f545055545f414d4f554e54000000000000000000000000000000000000000000602082015250565b6000615d84602b83615b80565b9150615d8f82615d28565b604082019050919050565b60006020820190508181036000830152615db381615d77565b9050919050565b615dc3816156fd565b82525050565b615dd281615736565b82525050565b600060e082019050615ded600083018a6159c7565b615dfa60208301896159c7565b615e076040830188615295565b615e146060830187615295565b615e216080830186615dba565b615e2e60a0830185615dc9565b615e3b60c0830184615dc9565b98975050505050505050565b600081519050615e56816151dc565b92915050565b600060208284031215615e7257615e7161516a565b5b6000615e8084828501615e47565b91505092915050565b7f746f6b656e412069732074617861626c65000000000000000000000000000000600082015250565b6000615ebf601183615b80565b9150615eca82615e89565b602082019050919050565b60006020820190508181036000830152615eee81615eb2565b9050919050565b7f556e69737761705632526f757465723a204558434553534956455f494e50555460008201527f5f414d4f554e5400000000000000000000000000000000000000000000000000602082015250565b6000615f51602783615b80565b9150615f5c82615ef5565b604082019050919050565b60006020820190508181036000830152615f8081615f44565b9050919050565b6000604082019050615f9c60008301856159c7565b615fa96020830184615295565b9392505050565b600081519050615fbf816156d1565b92915050565b600060208284031215615fdb57615fda61516a565b5b6000615fe984828501615fb0565b91505092915050565b600060608201905061600760008301866159c7565b61601460208301856159c7565b6160216040830184615295565b949350505050565b600080604083850312156160405761603f61516a565b5b600061604e85828601615e47565b925050602061605f85828601615e47565b9150509250929050565b7f556e69737761705632526f757465723a20494e53554646494349454e545f415f60008201527f414d4f554e540000000000000000000000000000000000000000000000000000602082015250565b60006160c5602683615b80565b91506160d082616069565b604082019050919050565b600060208201905081810360008301526160f4816160b8565b9050919050565b7f556e69737761705632526f757465723a20494e53554646494349454e545f425f60008201527f414d4f554e540000000000000000000000000000000000000000000000000000602082015250565b6000616157602683615b80565b9150616162826160fb565b604082019050919050565b600060208201905081810360008301526161868161614a565b9050919050565b600081519050919050565b600081905092915050565b60005b838110156161c15780820151818401526020810190506161a6565b838111156161d0576000848401525b50505050565b60006161e18261618d565b6161eb8185616198565b93506161fb8185602086016161a3565b80840191505092915050565b600061621382846161d6565b915081905092915050565b7f5472616e7366657248656c7065723a3a736166655472616e736665723a20747260008201527f616e73666572206661696c656400000000000000000000000000000000000000602082015250565b600061627a602d83615b80565b91506162858261621e565b604082019050919050565b600060208201905081810360008301526162a98161626d565b9050919050565b7f5472616e7366657248656c7065723a3a736166655472616e736665724554483a60008201527f20455448207472616e73666572206661696c6564000000000000000000000000602082015250565b600061630c603483615b80565b9150616317826162b0565b604082019050919050565b6000602082019050818103600083015261633b816162ff565b9050919050565b7f556e697377617056324c6962726172793a20494e53554646494349454e545f4960008201527f4e5055545f414d4f554e54000000000000000000000000000000000000000000602082015250565b600061639e602b83615b80565b91506163a982616342565b604082019050919050565b600060208201905081810360008301526163cd81616391565b9050919050565b7f556e697377617056324c6962726172793a20494e53554646494349454e545f4c60008201527f4951554944495459000000000000000000000000000000000000000000000000602082015250565b6000616430602883615b80565b915061643b826163d4565b604082019050919050565b6000602082019050818103600083015261645f81616423565b9050919050565b7f4e487b7100000000000000000000000000000000000000000000000000000000600052601260045260246000fd5b60006164a0826151d2565b91506164ab836151d2565b9250826164bb576164ba616466565b5b828204905092915050565b7f556e697377617056324c6962726172793a20494e56414c49445f504154480000600082015250565b60006164fc601e83615b80565b9150616507826164c6565b602082019050919050565b6000602082019050818103600083015261652b816164ef565b9050919050565b600061653d826151d2565b9150616548836151d2565b9250827fffffffffffffffffffffffffffffffffffffffffffffffffffffffffffffffff0382111561657d5761657c615bfd565b5b828201905092915050565b6000616593826151d2565b91507fffffffffffffffffffffffffffffffffffffffffffffffffffffffffffffffff8214156165c6576165c5615bfd565b5b600182019050919050565b60006040820190506165e660008301856159c7565b6165f360208301846159c7565b9392505050565b600081519050616609816151a6565b92915050565b6000602082840312156166255761662461516a565b5b6000616633848285016165fa565b91505092915050565b7f5472616e7366657248656c7065723a3a7472616e7366657246726f6d3a20747260008201527f616e7366657246726f6d206661696c6564000000000000000000000000000000602082015250565b6000616698603183615b80565b91506166a38261663c565b604082019050919050565b600060208201905081810360008301526166c78161668b565b9050919050565b600082825260208201905092915050565b60006166ea8261618d565b6166f481856166ce565b93506167048185602086016161a3565b61670d8161551a565b840191505092915050565b600060808201905061672d6000830187615295565b61673a6020830186615295565b61674760408301856159c7565b818103606083015261675981846166df565b905095945050505050565b600061676f826151d2565b9150600082141561678357616782615bfd565b5b600182039050919050565b600081519050919050565b60006167a48261678e565b6167ae8185615b80565b93506167be8185602086016161a3565b6167c78161551a565b840191505092915050565b600060208201905081810360008301526167ec8184616799565b905092915050565b60006dffffffffffffffffffffffffffff82169050919050565b616817816167f4565b811461682257600080fd5b50565b6000815190506168348161680e565b92915050565b600063ffffffff82169050919050565b6168538161683a565b811461685e57600080fd5b50565b6000815190506168708161684a565b92915050565b60008060006060848603121561688f5761688e61516a565b5b600061689d86828701616825565b93505060206168ae86828701616825565b92505060406168bf86828701616861565b9150509250925092565b7f64732d6d6174682d7375622d756e646572666c6f770000000000000000000000600082015250565b60006168ff601583615b80565b915061690a826168c9565b602082019050919050565b6000602082019050818103600083015261692e816168f2565b9050919050565b7f556e697377617056324c6962726172793a20494e53554646494349454e545f4f60008201527f55545055545f414d4f554e540000000000000000000000000000000000000000602082015250565b6000616991602c83615b80565b915061699c82616935565b604082019050919050565b600060208201905081810360008301526169c081616984565b9050919050565b7f556e697377617056324c6962726172793a20494e53554646494349454e545f4160008201527f4d4f554e54000000000000000000000000000000000000000000000000000000602082015250565b6000616a23602583615b80565b9150616a2e826169c7565b604082019050919050565b60006020820190508181036000830152616a5281616a16565b9050919050565b7f556e697377617056324c6962726172793a204944454e544943414c5f4144445260008201527f4553534553000000000000000000000000000000000000000000000000000000602082015250565b6000616ab5602583615b80565b9150616ac082616a59565b604082019050919050565b60006020820190508181036000830152616ae481616aa8565b9050919050565b7f556e697377617056324c6962726172793a205a45524f5f414444524553530000600082015250565b6000616b21601e83615b80565b9150616b2c82616aeb565b602082019050919050565b60006020820190508181036000830152616b5081616b14565b9050919050565b6000616b62826151d2565b9150616b6d836151d2565b9250817fffffffffffffffffffffffffffffffffffffffffffffffffffffffffffffffff0483118215151615616ba657616ba5615bfd565b5b828202905092915050565b7f64732d6d6174682d6d756c2d6f766572666c6f77000000000000000000000000600082015250565b6000616be7601483615b80565b9150616bf282616bb1565b602082019050919050565b60006020820190508181036000830152616c1681616bda565b9050919050565b7f64732d6d6174682d6164642d6f766572666c6f77000000000000000000000000600082015250565b6000616c53601483615b80565b9150616c5e82616c1d565b602082019050919050565b60006020820190508181036000830152616c8281616c46565b905091905056fea26469706673582212202d8241843f6924ab6dfa45147e9765c88289295753fa5909e2d9bcf7c8a5100564736f6c63430008090033","opcodes":"PUSH1 0xC0 PUSH1 0x40 MSTORE CALLVALUE DUP1 ISZERO PUSH3 0x11 JUMPI PUSH1 0x0 DUP1 REVERT JUMPDEST POP PUSH1 0x40 MLOAD PUSH3 0x6FDA CODESIZE SUB DUP1 PUSH3 0x6FDA DUP4 CODECOPY DUP2 DUP2 ADD PUSH1 0x40 MSTORE DUP2 ADD SWAP1 PUSH3 0x37 SWAP2 SWAP1 PUSH3 0x111 JUMP JUMPDEST DUP2 PUSH20 0xFFFFFFFFFFFFFFFFFFFFFFFFFFFFFFFFFFFFFFFF AND PUSH1 0x80 DUP2 PUSH20 0xFFFFFFFFFFFFFFFFFFFFFFFFFFFFFFFFFFFFFFFF AND DUP2 MSTORE POP POP DUP1 PUSH20 0xFFFFFFFFFFFFFFFFFFFFFFFFFFFFFFFFFFFFFFFF AND PUSH1 0xA0 DUP2 PUSH20 0xFFFFFFFFFFFFFFFFFFFFFFFFFFFFFFFFFFFFFFFF AND DUP2 MSTORE POP POP POP POP PUSH3 0x158 JUMP JUMPDEST PUSH1 0x0 DUP1 REVERT JUMPDEST PUSH1 0x0 PUSH20 0xFFFFFFFFFFFFFFFFFFFFFFFFFFFFFFFFFFFFFFFF DUP3 AND SWAP1 POP SWAP2 SWAP1 POP JUMP JUMPDEST PUSH1 0x0 PUSH3 0xD9 DUP3 PUSH3 0xAC JUMP JUMPDEST SWAP1 POP SWAP2 SWAP1 POP JUMP JUMPDEST PUSH3 0xEB DUP2 PUSH3 0xCC JUMP JUMPDEST DUP2 EQ PUSH3 0xF7 JUMPI PUSH1 0x0 DUP1 REVERT JUMPDEST POP JUMP JUMPDEST PUSH1 0x0 DUP2 MLOAD SWAP1 POP PUSH3 0x10B DUP2 PUSH3 0xE0 JUMP JUMPDEST SWAP3 SWAP2 POP POP JUMP JUMPDEST PUSH1 0x0 DUP1 PUSH1 0x40 DUP4 DUP6 SUB SLT ISZERO PUSH3 0x12B JUMPI PUSH3 0x12A PUSH3 0xA7 JUMP JUMPDEST JUMPDEST PUSH1 0x0 PUSH3 0x13B DUP6 DUP3 DUP7 ADD PUSH3 0xFA JUMP JUMPDEST SWAP3 POP POP PUSH1 0x20 PUSH3 0x14E DUP6 DUP3 DUP7 ADD PUSH3 0xFA JUMP JUMPDEST SWAP2 POP POP SWAP3 POP SWAP3 SWAP1 POP JUMP JUMPDEST PUSH1 0x80 MLOAD PUSH1 0xA0 MLOAD PUSH2 0x6CBF PUSH3 0x31B PUSH1 0x0 CODECOPY PUSH1 0x0 DUP2 DUP2 PUSH2 0x171 ADD MSTORE DUP2 DUP2 PUSH2 0x788 ADD MSTORE DUP2 DUP2 PUSH2 0x7C6 ADD MSTORE DUP2 DUP2 PUSH2 0x8C3 ADD MSTORE DUP2 DUP2 PUSH2 0xB74 ADD MSTORE DUP2 DUP2 PUSH2 0x1533 ADD MSTORE DUP2 DUP2 PUSH2 0x17D8 ADD MSTORE DUP2 DUP2 PUSH2 0x18EE ADD MSTORE DUP2 DUP2 PUSH2 0x1D3F ADD MSTORE DUP2 DUP2 PUSH2 0x1EFE ADD MSTORE DUP2 DUP2 PUSH2 0x1FEC ADD MSTORE DUP2 DUP2 PUSH2 0x20D1 ADD MSTORE DUP2 DUP2 PUSH2 0x225F ADD MSTORE DUP2 DUP2 PUSH2 0x22FB ADD MSTORE DUP2 DUP2 PUSH2 0x26E8 ADD MSTORE DUP2 DUP2 PUSH2 0x276C ADD MSTORE DUP2 DUP2 PUSH2 0x2830 ADD MSTORE DUP2 DUP2 PUSH2 0x2914 ADD MSTORE DUP2 DUP2 PUSH2 0x29CF ADD MSTORE DUP2 DUP2 PUSH2 0x2A50 ADD MSTORE DUP2 DUP2 PUSH2 0x30B4 ADD MSTORE DUP2 DUP2 PUSH2 0x333B ADD MSTORE DUP2 DUP2 PUSH2 0x3394 ADD MSTORE DUP2 DUP2 PUSH2 0x33C8 ADD MSTORE DUP2 DUP2 PUSH2 0x3449 ADD MSTORE DUP2 DUP2 PUSH2 0x3602 ADD MSTORE DUP2 DUP2 PUSH2 0x3784 ADD MSTORE PUSH2 0x3820 ADD MSTORE PUSH1 0x0 DUP2 DUP2 PUSH2 0x98A ADD MSTORE DUP2 DUP2 PUSH2 0xA8F ADD MSTORE DUP2 DUP2 PUSH2 0xC67 ADD MSTORE DUP2 DUP2 PUSH2 0xC9F ADD MSTORE DUP2 DUP2 PUSH2 0xE21 ADD MSTORE DUP2 DUP2 PUSH2 0xF64 ADD MSTORE DUP2 DUP2 PUSH2 0x1146 ADD MSTORE DUP2 DUP2 PUSH2 0x11C7 ADD MSTORE DUP2 DUP2 PUSH2 0x15FA ADD MSTORE DUP2 DUP2 PUSH2 0x16F3 ADD MSTORE DUP2 DUP2 PUSH2 0x18CC ADD MSTORE DUP2 DUP2 PUSH2 0x1A52 ADD MSTORE DUP2 DUP2 PUSH2 0x1E33 ADD MSTORE DUP2 DUP2 PUSH2 0x218A ADD MSTORE DUP2 DUP2 PUSH2 0x233A ADD MSTORE DUP2 DUP2 PUSH2 0x24FF ADD MSTORE DUP2 DUP2 PUSH2 0x25F8 ADD MSTORE DUP2 DUP2 PUSH2 0x2A8F ADD MSTORE DUP2 DUP2 PUSH2 0x2DFB ADD MSTORE DUP2 DUP2 PUSH2 0x3031 ADD MSTORE DUP2 DUP2 PUSH2 0x305A ADD MSTORE DUP2 DUP2 PUSH2 0x3092 ADD MSTORE DUP2 DUP2 PUSH2 0x320F ADD MSTORE DUP2 DUP2 PUSH2 0x3372 ADD MSTORE DUP2 DUP2 PUSH2 0x36BB ADD MSTORE DUP2 DUP2 PUSH2 0x385F ADD MSTORE DUP2 DUP2 PUSH2 0x41AF ADD MSTORE DUP2 DUP2 PUSH2 0x4203 ADD MSTORE DUP2 DUP2 PUSH2 0x45B1 ADD MSTORE DUP2 DUP2 PUSH2 0x47DB ADD MSTORE DUP2 DUP2 PUSH2 0x4C7A ADD MSTORE DUP2 DUP2 PUSH2 0x4D41 ADD MSTORE PUSH2 0x4DF6 ADD MSTORE PUSH2 0x6CBF PUSH1 0x0 RETURN INVALID PUSH1 0x80 PUSH1 0x40 MSTORE PUSH1 0x4 CALLDATASIZE LT PUSH2 0x16A JUMPI PUSH1 0x0 CALLDATALOAD PUSH1 0xE0 SHR DUP1 PUSH4 0x85F8C259 GT PUSH2 0xD1 JUMPI DUP1 PUSH4 0xBAA2ABDE GT PUSH2 0x8A JUMPI DUP1 PUSH4 0xDED9382A GT PUSH2 0x64 JUMPI DUP1 PUSH4 0xDED9382A EQ PUSH2 0x65C JUMPI DUP1 PUSH4 0xE8E33700 EQ PUSH2 0x69A JUMPI DUP1 PUSH4 0xF305D719 EQ PUSH2 0x6D9 JUMPI DUP1 PUSH4 0xFB3BDB41 EQ PUSH2 0x70B JUMPI PUSH2 0x1CD JUMP JUMPDEST DUP1 PUSH4 0xBAA2ABDE EQ PUSH2 0x5B6 JUMPI DUP1 PUSH4 0xC45A0155 EQ PUSH2 0x5F4 JUMPI DUP1 PUSH4 0xD06CA61F EQ PUSH2 0x61F JUMPI PUSH2 0x1CD JUMP JUMPDEST DUP1 PUSH4 0x85F8C259 EQ PUSH2 0x47B JUMPI DUP1 PUSH4 0x8803DBEE EQ PUSH2 0x4B8 JUMPI DUP1 PUSH4 0xAD5C4648 EQ PUSH2 0x4F5 JUMPI DUP1 PUSH4 0xAD615DEC EQ PUSH2 0x520 JUMPI DUP1 PUSH4 0xAF2979EB EQ PUSH2 0x55D JUMPI DUP1 PUSH4 0xB6F9DE95 EQ PUSH2 0x59A JUMPI PUSH2 0x1CD JUMP JUMPDEST DUP1 PUSH4 0x494339E1 GT PUSH2 0x123 JUMPI DUP1 PUSH4 0x494339E1 EQ PUSH2 0x342 JUMPI DUP1 PUSH4 0x4A25D94A EQ PUSH2 0x37F JUMPI DUP1 PUSH4 0x5B0D5984 EQ PUSH2 0x3BC JUMPI DUP1 PUSH4 0x5C11D795 EQ PUSH2 0x3F9 JUMPI DUP1 PUSH4 0x791AC947 EQ PUSH2 0x422 JUMPI DUP1 PUSH4 0x7FF36AB5 EQ PUSH2 0x44B JUMPI PUSH2 0x1CD JUMP JUMPDEST DUP1 PUSH4 0x2751CEC EQ PUSH2 0x1D2 JUMPI DUP1 PUSH4 0x54D50D4 EQ PUSH2 0x210 JUMPI DUP1 PUSH4 0x18CBAFE5 EQ PUSH2 0x24D JUMPI DUP1 PUSH4 0x1F00CA74 EQ PUSH2 0x28A JUMPI DUP1 PUSH4 0x2195995C EQ PUSH2 0x2C7 JUMPI DUP1 PUSH4 0x38ED1739 EQ PUSH2 0x305 JUMPI PUSH2 0x1CD JUMP JUMPDEST CALLDATASIZE PUSH2 0x1CD JUMPI PUSH32 0x0 PUSH20 0xFFFFFFFFFFFFFFFFFFFFFFFFFFFFFFFFFFFFFFFF AND CALLER PUSH20 0xFFFFFFFFFFFFFFFFFFFFFFFFFFFFFFFFFFFFFFFF AND EQ PUSH2 0x1CB JUMPI PUSH2 0x1CA PUSH2 0x5131 JUMP JUMPDEST JUMPDEST STOP JUMPDEST PUSH1 0x0 DUP1 REVERT JUMPDEST CALLVALUE DUP1 ISZERO PUSH2 0x1DE JUMPI PUSH1 0x0 DUP1 REVERT JUMPDEST POP PUSH2 0x1F9 PUSH1 0x4 DUP1 CALLDATASIZE SUB DUP2 ADD SWAP1 PUSH2 0x1F4 SWAP2 SWAP1 PUSH2 0x5208 JUMP JUMPDEST PUSH2 0x73B JUMP JUMPDEST PUSH1 0x40 MLOAD PUSH2 0x207 SWAP3 SWAP2 SWAP1 PUSH2 0x52A4 JUMP JUMPDEST PUSH1 0x40 MLOAD DUP1 SWAP2 SUB SWAP1 RETURN JUMPDEST CALLVALUE DUP1 ISZERO PUSH2 0x21C JUMPI PUSH1 0x0 DUP1 REVERT JUMPDEST POP PUSH2 0x237 PUSH1 0x4 DUP1 CALLDATASIZE SUB DUP2 ADD SWAP1 PUSH2 0x232 SWAP2 SWAP1 PUSH2 0x52CD JUMP JUMPDEST PUSH2 0x865 JUMP JUMPDEST PUSH1 0x40 MLOAD PUSH2 0x244 SWAP2 SWAP1 PUSH2 0x5320 JUMP JUMPDEST PUSH1 0x40 MLOAD DUP1 SWAP2 SUB SWAP1 RETURN JUMPDEST CALLVALUE DUP1 ISZERO PUSH2 0x259 JUMPI PUSH1 0x0 DUP1 REVERT JUMPDEST POP PUSH2 0x274 PUSH1 0x4 DUP1 CALLDATASIZE SUB DUP2 ADD SWAP1 PUSH2 0x26F SWAP2 SWAP1 PUSH2 0x53A0 JUMP JUMPDEST PUSH2 0x87B JUMP JUMPDEST PUSH1 0x40 MLOAD PUSH2 0x281 SWAP2 SWAP1 PUSH2 0x54F8 JUMP JUMPDEST PUSH1 0x40 MLOAD DUP1 SWAP2 SUB SWAP1 RETURN JUMPDEST CALLVALUE DUP1 ISZERO PUSH2 0x296 JUMPI PUSH1 0x0 DUP1 REVERT JUMPDEST POP PUSH2 0x2B1 PUSH1 0x4 DUP1 CALLDATASIZE SUB DUP2 ADD SWAP1 PUSH2 0x2AC SWAP2 SWAP1 PUSH2 0x5669 JUMP JUMPDEST PUSH2 0xC60 JUMP JUMPDEST PUSH1 0x40 MLOAD PUSH2 0x2BE SWAP2 SWAP1 PUSH2 0x54F8 JUMP JUMPDEST PUSH1 0x40 MLOAD DUP1 SWAP2 SUB SWAP1 RETURN JUMPDEST CALLVALUE DUP1 ISZERO PUSH2 0x2D3 JUMPI PUSH1 0x0 DUP1 REVERT JUMPDEST POP PUSH2 0x2EE PUSH1 0x4 DUP1 CALLDATASIZE SUB DUP2 ADD SWAP1 PUSH2 0x2E9 SWAP2 SWAP1 PUSH2 0x576C JUMP JUMPDEST PUSH2 0xC95 JUMP JUMPDEST PUSH1 0x40 MLOAD PUSH2 0x2FC SWAP3 SWAP2 SWAP1 PUSH2 0x52A4 JUMP JUMPDEST PUSH1 0x40 MLOAD DUP1 SWAP2 SUB SWAP1 RETURN JUMPDEST CALLVALUE DUP1 ISZERO PUSH2 0x311 JUMPI PUSH1 0x0 DUP1 REVERT JUMPDEST POP PUSH2 0x32C PUSH1 0x4 DUP1 CALLDATASIZE SUB DUP2 ADD SWAP1 PUSH2 0x327 SWAP2 SWAP1 PUSH2 0x53A0 JUMP JUMPDEST PUSH2 0xD98 JUMP JUMPDEST PUSH1 0x40 MLOAD PUSH2 0x339 SWAP2 SWAP1 PUSH2 0x54F8 JUMP JUMPDEST PUSH1 0x40 MLOAD DUP1 SWAP2 SUB SWAP1 RETURN JUMPDEST CALLVALUE DUP1 ISZERO PUSH2 0x34E JUMPI PUSH1 0x0 DUP1 REVERT JUMPDEST POP PUSH2 0x369 PUSH1 0x4 DUP1 CALLDATASIZE SUB DUP2 ADD SWAP1 PUSH2 0x364 SWAP2 SWAP1 PUSH2 0x53A0 JUMP JUMPDEST PUSH2 0x10CE JUMP JUMPDEST PUSH1 0x40 MLOAD PUSH2 0x376 SWAP2 SWAP1 PUSH2 0x54F8 JUMP JUMPDEST PUSH1 0x40 MLOAD DUP1 SWAP2 SUB SWAP1 RETURN JUMPDEST CALLVALUE DUP1 ISZERO PUSH2 0x38B JUMPI PUSH1 0x0 DUP1 REVERT JUMPDEST POP PUSH2 0x3A6 PUSH1 0x4 DUP1 CALLDATASIZE SUB DUP2 ADD SWAP1 PUSH2 0x3A1 SWAP2 SWAP1 PUSH2 0x53A0 JUMP JUMPDEST PUSH2 0x14EB JUMP JUMPDEST PUSH1 0x40 MLOAD PUSH2 0x3B3 SWAP2 SWAP1 PUSH2 0x54F8 JUMP JUMPDEST PUSH1 0x40 MLOAD DUP1 SWAP2 SUB SWAP1 RETURN JUMPDEST CALLVALUE DUP1 ISZERO PUSH2 0x3C8 JUMPI PUSH1 0x0 DUP1 REVERT JUMPDEST POP PUSH2 0x3E3 PUSH1 0x4 DUP1 CALLDATASIZE SUB DUP2 ADD SWAP1 PUSH2 0x3DE SWAP2 SWAP1 PUSH2 0x5860 JUMP JUMPDEST PUSH2 0x18C4 JUMP JUMPDEST PUSH1 0x40 MLOAD PUSH2 0x3F0 SWAP2 SWAP1 PUSH2 0x5320 JUMP JUMPDEST PUSH1 0x40 MLOAD DUP1 SWAP2 SUB SWAP1 RETURN JUMPDEST CALLVALUE DUP1 ISZERO PUSH2 0x405 JUMPI PUSH1 0x0 DUP1 REVERT JUMPDEST POP PUSH2 0x420 PUSH1 0x4 DUP1 CALLDATASIZE SUB DUP2 ADD SWAP1 PUSH2 0x41B SWAP2 SWAP1 PUSH2 0x53A0 JUMP JUMPDEST PUSH2 0x19DC JUMP JUMPDEST STOP JUMPDEST CALLVALUE DUP1 ISZERO PUSH2 0x42E JUMPI PUSH1 0x0 DUP1 REVERT JUMPDEST POP PUSH2 0x449 PUSH1 0x4 DUP1 CALLDATASIZE SUB DUP2 ADD SWAP1 PUSH2 0x444 SWAP2 SWAP1 PUSH2 0x53A0 JUMP JUMPDEST PUSH2 0x1CF9 JUMP JUMPDEST STOP JUMPDEST PUSH2 0x465 PUSH1 0x4 DUP1 CALLDATASIZE SUB DUP2 ADD SWAP1 PUSH2 0x460 SWAP2 SWAP1 PUSH2 0x593F JUMP JUMPDEST PUSH2 0x2089 JUMP JUMPDEST PUSH1 0x40 MLOAD PUSH2 0x472 SWAP2 SWAP1 PUSH2 0x54F8 JUMP JUMPDEST PUSH1 0x40 MLOAD DUP1 SWAP2 SUB SWAP1 RETURN JUMPDEST CALLVALUE DUP1 ISZERO PUSH2 0x487 JUMPI PUSH1 0x0 DUP1 REVERT JUMPDEST POP PUSH2 0x4A2 PUSH1 0x4 DUP1 CALLDATASIZE SUB DUP2 ADD SWAP1 PUSH2 0x49D SWAP2 SWAP1 PUSH2 0x52CD JUMP JUMPDEST PUSH2 0x249E JUMP JUMPDEST PUSH1 0x40 MLOAD PUSH2 0x4AF SWAP2 SWAP1 PUSH2 0x5320 JUMP JUMPDEST PUSH1 0x40 MLOAD DUP1 SWAP2 SUB SWAP1 RETURN JUMPDEST CALLVALUE DUP1 ISZERO PUSH2 0x4C4 JUMPI PUSH1 0x0 DUP1 REVERT JUMPDEST POP PUSH2 0x4DF PUSH1 0x4 DUP1 CALLDATASIZE SUB DUP2 ADD SWAP1 PUSH2 0x4DA SWAP2 SWAP1 PUSH2 0x53A0 JUMP JUMPDEST PUSH2 0x24B4 JUMP JUMPDEST PUSH1 0x40 MLOAD PUSH2 0x4EC SWAP2 SWAP1 PUSH2 0x54F8 JUMP JUMPDEST PUSH1 0x40 MLOAD DUP1 SWAP2 SUB SWAP1 RETURN JUMPDEST CALLVALUE DUP1 ISZERO PUSH2 0x501 JUMPI PUSH1 0x0 DUP1 REVERT JUMPDEST POP PUSH2 0x50A PUSH2 0x26E6 JUMP JUMPDEST PUSH1 0x40 MLOAD PUSH2 0x517 SWAP2 SWAP1 PUSH2 0x59D6 JUMP JUMPDEST PUSH1 0x40 MLOAD DUP1 SWAP2 SUB SWAP1 RETURN JUMPDEST CALLVALUE DUP1 ISZERO PUSH2 0x52C JUMPI PUSH1 0x0 DUP1 REVERT JUMPDEST POP PUSH2 0x547 PUSH1 0x4 DUP1 CALLDATASIZE SUB DUP2 ADD SWAP1 PUSH2 0x542 SWAP2 SWAP1 PUSH2 0x52CD JUMP JUMPDEST PUSH2 0x270A JUMP JUMPDEST PUSH1 0x40 MLOAD PUSH2 0x554 SWAP2 SWAP1 PUSH2 0x5320 JUMP JUMPDEST PUSH1 0x40 MLOAD DUP1 SWAP2 SUB SWAP1 RETURN JUMPDEST CALLVALUE DUP1 ISZERO PUSH2 0x569 JUMPI PUSH1 0x0 DUP1 REVERT JUMPDEST POP PUSH2 0x584 PUSH1 0x4 DUP1 CALLDATASIZE SUB DUP2 ADD SWAP1 PUSH2 0x57F SWAP2 SWAP1 PUSH2 0x5208 JUMP JUMPDEST PUSH2 0x2720 JUMP JUMPDEST PUSH1 0x40 MLOAD PUSH2 0x591 SWAP2 SWAP1 PUSH2 0x5320 JUMP JUMPDEST PUSH1 0x40 MLOAD DUP1 SWAP2 SUB SWAP1 RETURN JUMPDEST PUSH2 0x5B4 PUSH1 0x4 DUP1 CALLDATASIZE SUB DUP2 ADD SWAP1 PUSH2 0x5AF SWAP2 SWAP1 PUSH2 0x593F JUMP JUMPDEST PUSH2 0x28CE JUMP JUMPDEST STOP JUMPDEST CALLVALUE DUP1 ISZERO PUSH2 0x5C2 JUMPI PUSH1 0x0 DUP1 REVERT JUMPDEST POP PUSH2 0x5DD PUSH1 0x4 DUP1 CALLDATASIZE SUB DUP2 ADD SWAP1 PUSH2 0x5D8 SWAP2 SWAP1 PUSH2 0x59F1 JUMP JUMPDEST PUSH2 0x2DAD JUMP JUMPDEST PUSH1 0x40 MLOAD PUSH2 0x5EB SWAP3 SWAP2 SWAP1 PUSH2 0x52A4 JUMP JUMPDEST PUSH1 0x40 MLOAD DUP1 SWAP2 SUB SWAP1 RETURN JUMPDEST CALLVALUE DUP1 ISZERO PUSH2 0x600 JUMPI PUSH1 0x0 DUP1 REVERT JUMPDEST POP PUSH2 0x609 PUSH2 0x302F JUMP JUMPDEST PUSH1 0x40 MLOAD PUSH2 0x616 SWAP2 SWAP1 PUSH2 0x59D6 JUMP JUMPDEST PUSH1 0x40 MLOAD DUP1 SWAP2 SUB SWAP1 RETURN JUMPDEST CALLVALUE DUP1 ISZERO PUSH2 0x62B JUMPI PUSH1 0x0 DUP1 REVERT JUMPDEST POP PUSH2 0x646 PUSH1 0x4 DUP1 CALLDATASIZE SUB DUP2 ADD SWAP1 PUSH2 0x641 SWAP2 SWAP1 PUSH2 0x5669 JUMP JUMPDEST PUSH2 0x3053 JUMP JUMPDEST PUSH1 0x40 MLOAD PUSH2 0x653 SWAP2 SWAP1 PUSH2 0x54F8 JUMP JUMPDEST PUSH1 0x40 MLOAD DUP1 SWAP2 SUB SWAP1 RETURN JUMPDEST CALLVALUE DUP1 ISZERO PUSH2 0x668 JUMPI PUSH1 0x0 DUP1 REVERT JUMPDEST POP PUSH2 0x683 PUSH1 0x4 DUP1 CALLDATASIZE SUB DUP2 ADD SWAP1 PUSH2 0x67E SWAP2 SWAP1 PUSH2 0x5860 JUMP JUMPDEST PUSH2 0x3088 JUMP JUMPDEST PUSH1 0x40 MLOAD PUSH2 0x691 SWAP3 SWAP2 SWAP1 PUSH2 0x52A4 JUMP JUMPDEST PUSH1 0x40 MLOAD DUP1 SWAP2 SUB SWAP1 RETURN JUMPDEST CALLVALUE DUP1 ISZERO PUSH2 0x6A6 JUMPI PUSH1 0x0 DUP1 REVERT JUMPDEST POP PUSH2 0x6C1 PUSH1 0x4 DUP1 CALLDATASIZE SUB DUP2 ADD SWAP1 PUSH2 0x6BC SWAP2 SWAP1 PUSH2 0x5A93 JUMP JUMPDEST PUSH2 0x31A9 JUMP JUMPDEST PUSH1 0x40 MLOAD PUSH2 0x6D0 SWAP4 SWAP3 SWAP2 SWAP1 PUSH2 0x5B49 JUMP JUMPDEST PUSH1 0x40 MLOAD DUP1 SWAP2 SUB SWAP1 RETURN JUMPDEST PUSH2 0x6F3 PUSH1 0x4 DUP1 CALLDATASIZE SUB DUP2 ADD SWAP1 PUSH2 0x6EE SWAP2 SWAP1 PUSH2 0x5208 JUMP JUMPDEST PUSH2 0x32EC JUMP JUMPDEST PUSH1 0x40 MLOAD PUSH2 0x702 SWAP4 SWAP3 SWAP2 SWAP1 PUSH2 0x5B49 JUMP JUMPDEST PUSH1 0x40 MLOAD DUP1 SWAP2 SUB SWAP1 RETURN JUMPDEST PUSH2 0x725 PUSH1 0x4 DUP1 CALLDATASIZE SUB DUP2 ADD SWAP1 PUSH2 0x720 SWAP2 SWAP1 PUSH2 0x593F JUMP JUMPDEST PUSH2 0x35BA JUMP JUMPDEST PUSH1 0x40 MLOAD PUSH2 0x732 SWAP2 SWAP1 PUSH2 0x54F8 JUMP JUMPDEST PUSH1 0x40 MLOAD DUP1 SWAP2 SUB SWAP1 RETURN JUMPDEST PUSH1 0x0 DUP1 DUP3 TIMESTAMP DUP2 LT ISZERO PUSH2 0x782 JUMPI PUSH1 0x40 MLOAD PUSH32 0x8C379A000000000000000000000000000000000000000000000000000000000 DUP2 MSTORE PUSH1 0x4 ADD PUSH2 0x779 SWAP1 PUSH2 0x5BDD JUMP JUMPDEST PUSH1 0x40 MLOAD DUP1 SWAP2 SUB SWAP1 REVERT JUMPDEST PUSH2 0x7B1 DUP10 PUSH32 0x0 DUP11 DUP11 DUP11 ADDRESS DUP11 PUSH2 0x2DAD JUMP JUMPDEST DUP1 SWAP4 POP DUP2 SWAP5 POP POP POP PUSH2 0x7C4 DUP10 DUP7 DUP6 PUSH2 0x3A17 JUMP JUMPDEST PUSH32 0x0 PUSH20 0xFFFFFFFFFFFFFFFFFFFFFFFFFFFFFFFFFFFFFFFF AND PUSH4 0x2E1A7D4D DUP4 PUSH1 0x40 MLOAD DUP3 PUSH4 0xFFFFFFFF AND PUSH1 0xE0 SHL DUP2 MSTORE PUSH1 0x4 ADD PUSH2 0x81D SWAP2 SWAP1 PUSH2 0x5320 JUMP JUMPDEST PUSH1 0x0 PUSH1 0x40 MLOAD DUP1 DUP4 SUB DUP2 PUSH1 0x0 DUP8 DUP1 EXTCODESIZE ISZERO DUP1 ISZERO PUSH2 0x837 JUMPI PUSH1 0x0 DUP1 REVERT JUMPDEST POP GAS CALL ISZERO DUP1 ISZERO PUSH2 0x84B JUMPI RETURNDATASIZE PUSH1 0x0 DUP1 RETURNDATACOPY RETURNDATASIZE PUSH1 0x0 REVERT JUMPDEST POP POP POP POP PUSH2 0x859 DUP6 DUP4 PUSH2 0x3B4D JUMP JUMPDEST POP SWAP7 POP SWAP7 SWAP5 POP POP POP POP POP JUMP JUMPDEST PUSH1 0x0 PUSH2 0x872 DUP5 DUP5 DUP5 PUSH2 0x3C4D JUMP JUMPDEST SWAP1 POP SWAP4 SWAP3 POP POP POP JUMP JUMPDEST PUSH1 0x60 DUP2 TIMESTAMP DUP2 LT ISZERO PUSH2 0x8C1 JUMPI PUSH1 0x40 MLOAD PUSH32 0x8C379A000000000000000000000000000000000000000000000000000000000 DUP2 MSTORE PUSH1 0x4 ADD PUSH2 0x8B8 SWAP1 PUSH2 0x5BDD JUMP JUMPDEST PUSH1 0x40 MLOAD DUP1 SWAP2 SUB SWAP1 REVERT JUMPDEST PUSH32 0x0 PUSH20 0xFFFFFFFFFFFFFFFFFFFFFFFFFFFFFFFFFFFFFFFF AND DUP7 DUP7 PUSH1 0x1 DUP10 DUP10 SWAP1 POP PUSH2 0x90A SWAP2 SWAP1 PUSH2 0x5C2C JUMP JUMPDEST DUP2 DUP2 LT PUSH2 0x91A JUMPI PUSH2 0x919 PUSH2 0x5C60 JUMP JUMPDEST JUMPDEST SWAP1 POP PUSH1 0x20 MUL ADD PUSH1 0x20 DUP2 ADD SWAP1 PUSH2 0x92F SWAP2 SWAP1 PUSH2 0x5C8F JUMP JUMPDEST PUSH20 0xFFFFFFFFFFFFFFFFFFFFFFFFFFFFFFFFFFFFFFFF AND EQ PUSH2 0x985 JUMPI PUSH1 0x40 MLOAD PUSH32 0x8C379A000000000000000000000000000000000000000000000000000000000 DUP2 MSTORE PUSH1 0x4 ADD PUSH2 0x97C SWAP1 PUSH2 0x5D08 JUMP JUMPDEST PUSH1 0x40 MLOAD DUP1 SWAP2 SUB SWAP1 REVERT JUMPDEST PUSH2 0x9F1 PUSH32 0x0 DUP10 DUP9 DUP9 DUP1 DUP1 PUSH1 0x20 MUL PUSH1 0x20 ADD PUSH1 0x40 MLOAD SWAP1 DUP2 ADD PUSH1 0x40 MSTORE DUP1 SWAP4 SWAP3 SWAP2 SWAP1 DUP2 DUP2 MSTORE PUSH1 0x20 ADD DUP4 DUP4 PUSH1 0x20 MUL DUP1 DUP3 DUP5 CALLDATACOPY PUSH1 0x0 DUP2 DUP5 ADD MSTORE PUSH1 0x1F NOT PUSH1 0x1F DUP3 ADD AND SWAP1 POP DUP1 DUP4 ADD SWAP3 POP POP POP POP POP POP POP PUSH2 0x3D53 JUMP JUMPDEST SWAP2 POP DUP7 DUP3 PUSH1 0x1 DUP5 MLOAD PUSH2 0xA03 SWAP2 SWAP1 PUSH2 0x5C2C JUMP JUMPDEST DUP2 MLOAD DUP2 LT PUSH2 0xA14 JUMPI PUSH2 0xA13 PUSH2 0x5C60 JUMP JUMPDEST JUMPDEST PUSH1 0x20 MUL PUSH1 0x20 ADD ADD MLOAD LT ISZERO PUSH2 0xA5D JUMPI PUSH1 0x40 MLOAD PUSH32 0x8C379A000000000000000000000000000000000000000000000000000000000 DUP2 MSTORE PUSH1 0x4 ADD PUSH2 0xA54 SWAP1 PUSH2 0x5D9A JUMP JUMPDEST PUSH1 0x40 MLOAD DUP1 SWAP2 SUB SWAP1 REVERT JUMPDEST PUSH2 0xB26 DUP7 DUP7 PUSH1 0x0 DUP2 DUP2 LT PUSH2 0xA74 JUMPI PUSH2 0xA73 PUSH2 0x5C60 JUMP JUMPDEST JUMPDEST SWAP1 POP PUSH1 0x20 MUL ADD PUSH1 0x20 DUP2 ADD SWAP1 PUSH2 0xA89 SWAP2 SWAP1 PUSH2 0x5C8F JUMP JUMPDEST CALLER PUSH2 0xB05 PUSH32 0x0 DUP11 DUP11 PUSH1 0x0 DUP2 DUP2 LT PUSH2 0xAC2 JUMPI PUSH2 0xAC1 PUSH2 0x5C60 JUMP JUMPDEST JUMPDEST SWAP1 POP PUSH1 0x20 MUL ADD PUSH1 0x20 DUP2 ADD SWAP1 PUSH2 0xAD7 SWAP2 SWAP1 PUSH2 0x5C8F JUMP JUMPDEST DUP12 DUP12 PUSH1 0x1 DUP2 DUP2 LT PUSH2 0xAEB JUMPI PUSH2 0xAEA PUSH2 0x5C60 JUMP JUMPDEST JUMPDEST SWAP1 POP PUSH1 0x20 MUL ADD PUSH1 0x20 DUP2 ADD SWAP1 PUSH2 0xB00 SWAP2 SWAP1 PUSH2 0x5C8F JUMP JUMPDEST PUSH2 0x3EDE JUMP JUMPDEST DUP6 PUSH1 0x0 DUP2 MLOAD DUP2 LT PUSH2 0xB19 JUMPI PUSH2 0xB18 PUSH2 0x5C60 JUMP JUMPDEST JUMPDEST PUSH1 0x20 MUL PUSH1 0x20 ADD ADD MLOAD PUSH2 0x3F74 JUMP JUMPDEST PUSH2 0xB72 DUP3 DUP8 DUP8 DUP1 DUP1 PUSH1 0x20 MUL PUSH1 0x20 ADD PUSH1 0x40 MLOAD SWAP1 DUP2 ADD PUSH1 0x40 MSTORE DUP1 SWAP4 SWAP3 SWAP2 SWAP1 DUP2 DUP2 MSTORE PUSH1 0x20 ADD DUP4 DUP4 PUSH1 0x20 MUL DUP1 DUP3 DUP5 CALLDATACOPY PUSH1 0x0 DUP2 DUP5 ADD MSTORE PUSH1 0x1F NOT PUSH1 0x1F DUP3 ADD AND SWAP1 POP DUP1 DUP4 ADD SWAP3 POP POP POP POP POP POP POP ADDRESS PUSH2 0x40AD JUMP JUMPDEST PUSH32 0x0 PUSH20 0xFFFFFFFFFFFFFFFFFFFFFFFFFFFFFFFFFFFFFFFF AND PUSH4 0x2E1A7D4D DUP4 PUSH1 0x1 DUP6 MLOAD PUSH2 0xBBD SWAP2 SWAP1 PUSH2 0x5C2C JUMP JUMPDEST DUP2 MLOAD DUP2 LT PUSH2 0xBCE JUMPI PUSH2 0xBCD PUSH2 0x5C60 JUMP JUMPDEST JUMPDEST PUSH1 0x20 MUL PUSH1 0x20 ADD ADD MLOAD PUSH1 0x40 MLOAD DUP3 PUSH4 0xFFFFFFFF AND PUSH1 0xE0 SHL DUP2 MSTORE PUSH1 0x4 ADD PUSH2 0xBF2 SWAP2 SWAP1 PUSH2 0x5320 JUMP JUMPDEST PUSH1 0x0 PUSH1 0x40 MLOAD DUP1 DUP4 SUB DUP2 PUSH1 0x0 DUP8 DUP1 EXTCODESIZE ISZERO DUP1 ISZERO PUSH2 0xC0C JUMPI PUSH1 0x0 DUP1 REVERT JUMPDEST POP GAS CALL ISZERO DUP1 ISZERO PUSH2 0xC20 JUMPI RETURNDATASIZE PUSH1 0x0 DUP1 RETURNDATACOPY RETURNDATASIZE PUSH1 0x0 REVERT JUMPDEST POP POP POP POP PUSH2 0xC55 DUP5 DUP4 PUSH1 0x1 DUP6 MLOAD PUSH2 0xC37 SWAP2 SWAP1 PUSH2 0x5C2C JUMP JUMPDEST DUP2 MLOAD DUP2 LT PUSH2 0xC48 JUMPI PUSH2 0xC47 PUSH2 0x5C60 JUMP JUMPDEST JUMPDEST PUSH1 0x20 MUL PUSH1 0x20 ADD ADD MLOAD PUSH2 0x3B4D JUMP JUMPDEST POP SWAP7 SWAP6 POP POP POP POP POP POP JUMP JUMPDEST PUSH1 0x60 PUSH2 0xC8D PUSH32 0x0 DUP5 DUP5 PUSH2 0x4306 JUMP JUMPDEST SWAP1 POP SWAP3 SWAP2 POP POP JUMP JUMPDEST PUSH1 0x0 DUP1 PUSH1 0x0 PUSH2 0xCC5 PUSH32 0x0 DUP16 DUP16 PUSH2 0x3EDE JUMP JUMPDEST SWAP1 POP PUSH1 0x0 DUP8 PUSH2 0xCD4 JUMPI DUP13 PUSH2 0xCF6 JUMP JUMPDEST PUSH32 0xFFFFFFFFFFFFFFFFFFFFFFFFFFFFFFFFFFFFFFFFFFFFFFFFFFFFFFFFFFFFFFFF JUMPDEST SWAP1 POP DUP2 PUSH20 0xFFFFFFFFFFFFFFFFFFFFFFFFFFFFFFFFFFFFFFFF AND PUSH4 0xD505ACCF CALLER ADDRESS DUP5 DUP14 DUP13 DUP13 DUP13 PUSH1 0x40 MLOAD DUP9 PUSH4 0xFFFFFFFF AND PUSH1 0xE0 SHL DUP2 MSTORE PUSH1 0x4 ADD PUSH2 0xD3D SWAP8 SWAP7 SWAP6 SWAP5 SWAP4 SWAP3 SWAP2 SWAP1 PUSH2 0x5DD8 JUMP JUMPDEST PUSH1 0x0 PUSH1 0x40 MLOAD DUP1 DUP4 SUB DUP2 PUSH1 0x0 DUP8 DUP1 EXTCODESIZE ISZERO DUP1 ISZERO PUSH2 0xD57 JUMPI PUSH1 0x0 DUP1 REVERT JUMPDEST POP GAS CALL ISZERO DUP1 ISZERO PUSH2 0xD6B JUMPI RETURNDATASIZE PUSH1 0x0 DUP1 RETURNDATACOPY RETURNDATASIZE PUSH1 0x0 REVERT JUMPDEST POP POP POP POP PUSH2 0xD7E DUP16 DUP16 DUP16 DUP16 DUP16 DUP16 DUP16 PUSH2 0x2DAD JUMP JUMPDEST DUP1 SWAP5 POP DUP2 SWAP6 POP POP POP POP POP SWAP12 POP SWAP12 SWAP10 POP POP POP POP POP POP POP POP POP POP JUMP JUMPDEST PUSH1 0x60 DUP2 TIMESTAMP DUP2 LT ISZERO PUSH2 0xDDE JUMPI PUSH1 0x40 MLOAD PUSH32 0x8C379A000000000000000000000000000000000000000000000000000000000 DUP2 MSTORE PUSH1 0x4 ADD PUSH2 0xDD5 SWAP1 PUSH2 0x5BDD JUMP JUMPDEST PUSH1 0x40 MLOAD DUP1 SWAP2 SUB SWAP1 REVERT JUMPDEST PUSH2 0xE1C PUSH1 0x40 MLOAD DUP1 PUSH1 0x40 ADD PUSH1 0x40 MSTORE DUP1 PUSH1 0xE DUP2 MSTORE PUSH1 0x20 ADD PUSH32 0x5468697320737563636564646564000000000000000000000000000000000000 DUP2 MSTORE POP PUSH2 0x44A1 JUMP JUMPDEST PUSH2 0xE88 PUSH32 0x0 DUP10 DUP9 DUP9 DUP1 DUP1 PUSH1 0x20 MUL PUSH1 0x20 ADD PUSH1 0x40 MLOAD SWAP1 DUP2 ADD PUSH1 0x40 MSTORE DUP1 SWAP4 SWAP3 SWAP2 SWAP1 DUP2 DUP2 MSTORE PUSH1 0x20 ADD DUP4 DUP4 PUSH1 0x20 MUL DUP1 DUP3 DUP5 CALLDATACOPY PUSH1 0x0 DUP2 DUP5 ADD MSTORE PUSH1 0x1F NOT PUSH1 0x1F DUP3 ADD AND SWAP1 POP DUP1 DUP4 ADD SWAP3 POP POP POP POP POP POP POP PUSH2 0x3D53 JUMP JUMPDEST SWAP2 POP DUP7 DUP3 PUSH1 0x1 DUP5 MLOAD PUSH2 0xE9A SWAP2 SWAP1 PUSH2 0x5C2C JUMP JUMPDEST DUP2 MLOAD DUP2 LT PUSH2 0xEAB JUMPI PUSH2 0xEAA PUSH2 0x5C60 JUMP JUMPDEST JUMPDEST PUSH1 0x20 MUL PUSH1 0x20 ADD ADD MLOAD LT ISZERO PUSH2 0xEF4 JUMPI PUSH1 0x40 MLOAD PUSH32 0x8C379A000000000000000000000000000000000000000000000000000000000 DUP2 MSTORE PUSH1 0x4 ADD PUSH2 0xEEB SWAP1 PUSH2 0x5D9A JUMP JUMPDEST PUSH1 0x40 MLOAD DUP1 SWAP2 SUB SWAP1 REVERT JUMPDEST PUSH2 0xF32 PUSH1 0x40 MLOAD DUP1 PUSH1 0x40 ADD PUSH1 0x40 MSTORE DUP1 PUSH1 0x10 DUP2 MSTORE PUSH1 0x20 ADD PUSH32 0x5468697320737563636564646564203200000000000000000000000000000000 DUP2 MSTORE POP PUSH2 0x44A1 JUMP JUMPDEST PUSH2 0xFFB DUP7 DUP7 PUSH1 0x0 DUP2 DUP2 LT PUSH2 0xF49 JUMPI PUSH2 0xF48 PUSH2 0x5C60 JUMP JUMPDEST JUMPDEST SWAP1 POP PUSH1 0x20 MUL ADD PUSH1 0x20 DUP2 ADD SWAP1 PUSH2 0xF5E SWAP2 SWAP1 PUSH2 0x5C8F JUMP JUMPDEST CALLER PUSH2 0xFDA PUSH32 0x0 DUP11 DUP11 PUSH1 0x0 DUP2 DUP2 LT PUSH2 0xF97 JUMPI PUSH2 0xF96 PUSH2 0x5C60 JUMP JUMPDEST JUMPDEST SWAP1 POP PUSH1 0x20 MUL ADD PUSH1 0x20 DUP2 ADD SWAP1 PUSH2 0xFAC SWAP2 SWAP1 PUSH2 0x5C8F JUMP JUMPDEST DUP12 DUP12 PUSH1 0x1 DUP2 DUP2 LT PUSH2 0xFC0 JUMPI PUSH2 0xFBF PUSH2 0x5C60 JUMP JUMPDEST JUMPDEST SWAP1 POP PUSH1 0x20 MUL ADD PUSH1 0x20 DUP2 ADD SWAP1 PUSH2 0xFD5 SWAP2 SWAP1 PUSH2 0x5C8F JUMP JUMPDEST PUSH2 0x3EDE JUMP JUMPDEST DUP6 PUSH1 0x0 DUP2 MLOAD DUP2 LT PUSH2 0xFEE JUMPI PUSH2 0xFED PUSH2 0x5C60 JUMP JUMPDEST JUMPDEST PUSH1 0x20 MUL PUSH1 0x20 ADD ADD MLOAD PUSH2 0x3F74 JUMP JUMPDEST PUSH2 0x1039 PUSH1 0x40 MLOAD DUP1 PUSH1 0x40 ADD PUSH1 0x40 MSTORE DUP1 PUSH1 0x10 DUP2 MSTORE PUSH1 0x20 ADD PUSH32 0x5468697320737563636564646564203300000000000000000000000000000000 DUP2 MSTORE POP PUSH2 0x44A1 JUMP JUMPDEST PUSH2 0x1085 DUP3 DUP8 DUP8 DUP1 DUP1 PUSH1 0x20 MUL PUSH1 0x20 ADD PUSH1 0x40 MLOAD SWAP1 DUP2 ADD PUSH1 0x40 MSTORE DUP1 SWAP4 SWAP3 SWAP2 SWAP1 DUP2 DUP2 MSTORE PUSH1 0x20 ADD DUP4 DUP4 PUSH1 0x20 MUL DUP1 DUP3 DUP5 CALLDATACOPY PUSH1 0x0 DUP2 DUP5 ADD MSTORE PUSH1 0x1F NOT PUSH1 0x1F DUP3 ADD AND SWAP1 POP DUP1 DUP4 ADD SWAP3 POP POP POP POP POP POP POP DUP7 PUSH2 0x40AD JUMP JUMPDEST PUSH2 0x10C3 PUSH1 0x40 MLOAD DUP1 PUSH1 0x40 ADD PUSH1 0x40 MSTORE DUP1 PUSH1 0x10 DUP2 MSTORE PUSH1 0x20 ADD PUSH32 0x5468697320737563636564646564203400000000000000000000000000000000 DUP2 MSTORE POP PUSH2 0x44A1 JUMP JUMPDEST POP SWAP7 SWAP6 POP POP POP POP POP POP JUMP JUMPDEST PUSH1 0x60 DUP2 TIMESTAMP DUP2 LT ISZERO PUSH2 0x1114 JUMPI PUSH1 0x40 MLOAD PUSH32 0x8C379A000000000000000000000000000000000000000000000000000000000 DUP2 MSTORE PUSH1 0x4 ADD PUSH2 0x110B SWAP1 PUSH2 0x5BDD JUMP JUMPDEST PUSH1 0x40 MLOAD DUP1 SWAP2 SUB SWAP1 REVERT JUMPDEST PUSH2 0x11C2 DUP7 DUP7 PUSH1 0x0 DUP2 DUP2 LT PUSH2 0x112B JUMPI PUSH2 0x112A PUSH2 0x5C60 JUMP JUMPDEST JUMPDEST SWAP1 POP PUSH1 0x20 MUL ADD PUSH1 0x20 DUP2 ADD SWAP1 PUSH2 0x1140 SWAP2 SWAP1 PUSH2 0x5C8F JUMP JUMPDEST CALLER PUSH2 0x11BC PUSH32 0x0 DUP11 DUP11 PUSH1 0x0 DUP2 DUP2 LT PUSH2 0x1179 JUMPI PUSH2 0x1178 PUSH2 0x5C60 JUMP JUMPDEST JUMPDEST SWAP1 POP PUSH1 0x20 MUL ADD PUSH1 0x20 DUP2 ADD SWAP1 PUSH2 0x118E SWAP2 SWAP1 PUSH2 0x5C8F JUMP JUMPDEST DUP12 DUP12 PUSH1 0x1 DUP2 DUP2 LT PUSH2 0x11A2 JUMPI PUSH2 0x11A1 PUSH2 0x5C60 JUMP JUMPDEST JUMPDEST SWAP1 POP PUSH1 0x20 MUL ADD PUSH1 0x20 DUP2 ADD SWAP1 PUSH2 0x11B7 SWAP2 SWAP1 PUSH2 0x5C8F JUMP JUMPDEST PUSH2 0x3EDE JUMP JUMPDEST DUP12 PUSH2 0x3F74 JUMP JUMPDEST PUSH2 0x122E PUSH32 0x0 DUP10 DUP9 DUP9 DUP1 DUP1 PUSH1 0x20 MUL PUSH1 0x20 ADD PUSH1 0x40 MLOAD SWAP1 DUP2 ADD PUSH1 0x40 MSTORE DUP1 SWAP4 SWAP3 SWAP2 SWAP1 DUP2 DUP2 MSTORE PUSH1 0x20 ADD DUP4 DUP4 PUSH1 0x20 MUL DUP1 DUP3 DUP5 CALLDATACOPY PUSH1 0x0 DUP2 DUP5 ADD MSTORE PUSH1 0x1F NOT PUSH1 0x1F DUP3 ADD AND SWAP1 POP DUP1 DUP4 ADD SWAP3 POP POP POP POP POP POP POP PUSH2 0x3D53 JUMP JUMPDEST SWAP2 POP PUSH1 0x0 DUP7 DUP7 PUSH1 0x0 DUP2 DUP2 LT PUSH2 0x1246 JUMPI PUSH2 0x1245 PUSH2 0x5C60 JUMP JUMPDEST JUMPDEST SWAP1 POP PUSH1 0x20 MUL ADD PUSH1 0x20 DUP2 ADD SWAP1 PUSH2 0x125B SWAP2 SWAP1 PUSH2 0x5C8F JUMP JUMPDEST PUSH20 0xFFFFFFFFFFFFFFFFFFFFFFFFFFFFFFFFFFFFFFFF AND PUSH4 0x70A08231 ADDRESS PUSH1 0x40 MLOAD DUP3 PUSH4 0xFFFFFFFF AND PUSH1 0xE0 SHL DUP2 MSTORE PUSH1 0x4 ADD PUSH2 0x1293 SWAP2 SWAP1 PUSH2 0x59D6 JUMP JUMPDEST PUSH1 0x20 PUSH1 0x40 MLOAD DUP1 DUP4 SUB DUP2 DUP7 DUP1 EXTCODESIZE ISZERO DUP1 ISZERO PUSH2 0x12AB JUMPI PUSH1 0x0 DUP1 REVERT JUMPDEST POP GAS STATICCALL ISZERO DUP1 ISZERO PUSH2 0x12BF JUMPI RETURNDATASIZE PUSH1 0x0 DUP1 RETURNDATACOPY RETURNDATASIZE PUSH1 0x0 REVERT JUMPDEST POP POP POP POP PUSH1 0x40 MLOAD RETURNDATASIZE PUSH1 0x1F NOT PUSH1 0x1F DUP3 ADD AND DUP3 ADD DUP1 PUSH1 0x40 MSTORE POP DUP2 ADD SWAP1 PUSH2 0x12E3 SWAP2 SWAP1 PUSH2 0x5E5C JUMP JUMPDEST SWAP1 POP DUP1 DUP10 EQ PUSH2 0x1327 JUMPI PUSH1 0x40 MLOAD PUSH32 0x8C379A000000000000000000000000000000000000000000000000000000000 DUP2 MSTORE PUSH1 0x4 ADD PUSH2 0x131E SWAP1 PUSH2 0x5ED5 JUMP JUMPDEST PUSH1 0x40 MLOAD DUP1 SWAP2 SUB SWAP1 REVERT JUMPDEST PUSH1 0x0 DUP8 DUP8 PUSH1 0x1 DUP2 DUP2 LT PUSH2 0x133D JUMPI PUSH2 0x133C PUSH2 0x5C60 JUMP JUMPDEST JUMPDEST SWAP1 POP PUSH1 0x20 MUL ADD PUSH1 0x20 DUP2 ADD SWAP1 PUSH2 0x1352 SWAP2 SWAP1 PUSH2 0x5C8F JUMP JUMPDEST PUSH20 0xFFFFFFFFFFFFFFFFFFFFFFFFFFFFFFFFFFFFFFFF AND PUSH4 0x70A08231 DUP8 PUSH1 0x40 MLOAD DUP3 PUSH4 0xFFFFFFFF AND PUSH1 0xE0 SHL DUP2 MSTORE PUSH1 0x4 ADD PUSH2 0x138A SWAP2 SWAP1 PUSH2 0x59D6 JUMP JUMPDEST PUSH1 0x20 PUSH1 0x40 MLOAD DUP1 DUP4 SUB DUP2 DUP7 DUP1 EXTCODESIZE ISZERO DUP1 ISZERO PUSH2 0x13A2 JUMPI PUSH1 0x0 DUP1 REVERT JUMPDEST POP GAS STATICCALL ISZERO DUP1 ISZERO PUSH2 0x13B6 JUMPI RETURNDATASIZE PUSH1 0x0 DUP1 RETURNDATACOPY RETURNDATASIZE PUSH1 0x0 REVERT JUMPDEST POP POP POP POP PUSH1 0x40 MLOAD RETURNDATASIZE PUSH1 0x1F NOT PUSH1 0x1F DUP3 ADD AND DUP3 ADD DUP1 PUSH1 0x40 MSTORE POP DUP2 ADD SWAP1 PUSH2 0x13DA SWAP2 SWAP1 PUSH2 0x5E5C JUMP JUMPDEST SWAP1 POP PUSH2 0x1428 DUP5 DUP10 DUP10 DUP1 DUP1 PUSH1 0x20 MUL PUSH1 0x20 ADD PUSH1 0x40 MLOAD SWAP1 DUP2 ADD PUSH1 0x40 MSTORE DUP1 SWAP4 SWAP3 SWAP2 SWAP1 DUP2 DUP2 MSTORE PUSH1 0x20 ADD DUP4 DUP4 PUSH1 0x20 MUL DUP1 DUP3 DUP5 CALLDATACOPY PUSH1 0x0 DUP2 DUP5 ADD MSTORE PUSH1 0x1F NOT PUSH1 0x1F DUP3 ADD AND SWAP1 POP DUP1 DUP4 ADD SWAP3 POP POP POP POP POP POP POP DUP9 PUSH2 0x40AD JUMP JUMPDEST PUSH1 0x0 DUP9 DUP9 PUSH1 0x1 DUP2 DUP2 LT PUSH2 0x143E JUMPI PUSH2 0x143D PUSH2 0x5C60 JUMP JUMPDEST JUMPDEST SWAP1 POP PUSH1 0x20 MUL ADD PUSH1 0x20 DUP2 ADD SWAP1 PUSH2 0x1453 SWAP2 SWAP1 PUSH2 0x5C8F JUMP JUMPDEST PUSH20 0xFFFFFFFFFFFFFFFFFFFFFFFFFFFFFFFFFFFFFFFF AND PUSH4 0x70A08231 DUP9 PUSH1 0x40 MLOAD DUP3 PUSH4 0xFFFFFFFF AND PUSH1 0xE0 SHL DUP2 MSTORE PUSH1 0x4 ADD PUSH2 0x148B SWAP2 SWAP1 PUSH2 0x59D6 JUMP JUMPDEST PUSH1 0x20 PUSH1 0x40 MLOAD DUP1 DUP4 SUB DUP2 DUP7 DUP1 EXTCODESIZE ISZERO DUP1 ISZERO PUSH2 0x14A3 JUMPI PUSH1 0x0 DUP1 REVERT JUMPDEST POP GAS STATICCALL ISZERO DUP1 ISZERO PUSH2 0x14B7 JUMPI RETURNDATASIZE PUSH1 0x0 DUP1 RETURNDATACOPY RETURNDATASIZE PUSH1 0x0 REVERT JUMPDEST POP POP POP POP PUSH1 0x40 MLOAD RETURNDATASIZE PUSH1 0x1F NOT PUSH1 0x1F DUP3 ADD AND DUP3 ADD DUP1 PUSH1 0x40 MSTORE POP DUP2 ADD SWAP1 PUSH2 0x14DB SWAP2 SWAP1 PUSH2 0x5E5C JUMP JUMPDEST SWAP1 POP POP POP POP POP SWAP7 SWAP6 POP POP POP POP POP POP JUMP JUMPDEST PUSH1 0x60 DUP2 TIMESTAMP DUP2 LT ISZERO PUSH2 0x1531 JUMPI PUSH1 0x40 MLOAD PUSH32 0x8C379A000000000000000000000000000000000000000000000000000000000 DUP2 MSTORE PUSH1 0x4 ADD PUSH2 0x1528 SWAP1 PUSH2 0x5BDD JUMP JUMPDEST PUSH1 0x40 MLOAD DUP1 SWAP2 SUB SWAP1 REVERT JUMPDEST PUSH32 0x0 PUSH20 0xFFFFFFFFFFFFFFFFFFFFFFFFFFFFFFFFFFFFFFFF AND DUP7 DUP7 PUSH1 0x1 DUP10 DUP10 SWAP1 POP PUSH2 0x157A SWAP2 SWAP1 PUSH2 0x5C2C JUMP JUMPDEST DUP2 DUP2 LT PUSH2 0x158A JUMPI PUSH2 0x1589 PUSH2 0x5C60 JUMP JUMPDEST JUMPDEST SWAP1 POP PUSH1 0x20 MUL ADD PUSH1 0x20 DUP2 ADD SWAP1 PUSH2 0x159F SWAP2 SWAP1 PUSH2 0x5C8F JUMP JUMPDEST PUSH20 0xFFFFFFFFFFFFFFFFFFFFFFFFFFFFFFFFFFFFFFFF AND EQ PUSH2 0x15F5 JUMPI PUSH1 0x40 MLOAD PUSH32 0x8C379A000000000000000000000000000000000000000000000000000000000 DUP2 MSTORE PUSH1 0x4 ADD PUSH2 0x15EC SWAP1 PUSH2 0x5D08 JUMP JUMPDEST PUSH1 0x40 MLOAD DUP1 SWAP2 SUB SWAP1 REVERT JUMPDEST PUSH2 0x1661 PUSH32 0x0 DUP10 DUP9 DUP9 DUP1 DUP1 PUSH1 0x20 MUL PUSH1 0x20 ADD PUSH1 0x40 MLOAD SWAP1 DUP2 ADD PUSH1 0x40 MSTORE DUP1 SWAP4 SWAP3 SWAP2 SWAP1 DUP2 DUP2 MSTORE PUSH1 0x20 ADD DUP4 DUP4 PUSH1 0x20 MUL DUP1 DUP3 DUP5 CALLDATACOPY PUSH1 0x0 DUP2 DUP5 ADD MSTORE PUSH1 0x1F NOT PUSH1 0x1F DUP3 ADD AND SWAP1 POP DUP1 DUP4 ADD SWAP3 POP POP POP POP POP POP POP PUSH2 0x4306 JUMP JUMPDEST SWAP2 POP DUP7 DUP3 PUSH1 0x0 DUP2 MLOAD DUP2 LT PUSH2 0x1678 JUMPI PUSH2 0x1677 PUSH2 0x5C60 JUMP JUMPDEST JUMPDEST PUSH1 0x20 MUL PUSH1 0x20 ADD ADD MLOAD GT ISZERO PUSH2 0x16C1 JUMPI PUSH1 0x40 MLOAD PUSH32 0x8C379A000000000000000000000000000000000000000000000000000000000 DUP2 MSTORE PUSH1 0x4 ADD PUSH2 0x16B8 SWAP1 PUSH2 0x5F67 JUMP JUMPDEST PUSH1 0x40 MLOAD DUP1 SWAP2 SUB SWAP1 REVERT JUMPDEST PUSH2 0x178A DUP7 DUP7 PUSH1 0x0 DUP2 DUP2 LT PUSH2 0x16D8 JUMPI PUSH2 0x16D7 PUSH2 0x5C60 JUMP JUMPDEST JUMPDEST SWAP1 POP PUSH1 0x20 MUL ADD PUSH1 0x20 DUP2 ADD SWAP1 PUSH2 0x16ED SWAP2 SWAP1 PUSH2 0x5C8F JUMP JUMPDEST CALLER PUSH2 0x1769 PUSH32 0x0 DUP11 DUP11 PUSH1 0x0 DUP2 DUP2 LT PUSH2 0x1726 JUMPI PUSH2 0x1725 PUSH2 0x5C60 JUMP JUMPDEST JUMPDEST SWAP1 POP PUSH1 0x20 MUL ADD PUSH1 0x20 DUP2 ADD SWAP1 PUSH2 0x173B SWAP2 SWAP1 PUSH2 0x5C8F JUMP JUMPDEST DUP12 DUP12 PUSH1 0x1 DUP2 DUP2 LT PUSH2 0x174F JUMPI PUSH2 0x174E PUSH2 0x5C60 JUMP JUMPDEST JUMPDEST SWAP1 POP PUSH1 0x20 MUL ADD PUSH1 0x20 DUP2 ADD SWAP1 PUSH2 0x1764 SWAP2 SWAP1 PUSH2 0x5C8F JUMP JUMPDEST PUSH2 0x3EDE JUMP JUMPDEST DUP6 PUSH1 0x0 DUP2 MLOAD DUP2 LT PUSH2 0x177D JUMPI PUSH2 0x177C PUSH2 0x5C60 JUMP JUMPDEST JUMPDEST PUSH1 0x20 MUL PUSH1 0x20 ADD ADD MLOAD PUSH2 0x3F74 JUMP JUMPDEST PUSH2 0x17D6 DUP3 DUP8 DUP8 DUP1 DUP1 PUSH1 0x20 MUL PUSH1 0x20 ADD PUSH1 0x40 MLOAD SWAP1 DUP2 ADD PUSH1 0x40 MSTORE DUP1 SWAP4 SWAP3 SWAP2 SWAP1 DUP2 DUP2 MSTORE PUSH1 0x20 ADD DUP4 DUP4 PUSH1 0x20 MUL DUP1 DUP3 DUP5 CALLDATACOPY PUSH1 0x0 DUP2 DUP5 ADD MSTORE PUSH1 0x1F NOT PUSH1 0x1F DUP3 ADD AND SWAP1 POP DUP1 DUP4 ADD SWAP3 POP POP POP POP POP POP POP ADDRESS PUSH2 0x40AD JUMP JUMPDEST PUSH32 0x0 PUSH20 0xFFFFFFFFFFFFFFFFFFFFFFFFFFFFFFFFFFFFFFFF AND PUSH4 0x2E1A7D4D DUP4 PUSH1 0x1 DUP6 MLOAD PUSH2 0x1821 SWAP2 SWAP1 PUSH2 0x5C2C JUMP JUMPDEST DUP2 MLOAD DUP2 LT PUSH2 0x1832 JUMPI PUSH2 0x1831 PUSH2 0x5C60 JUMP JUMPDEST JUMPDEST PUSH1 0x20 MUL PUSH1 0x20 ADD ADD MLOAD PUSH1 0x40 MLOAD DUP3 PUSH4 0xFFFFFFFF AND PUSH1 0xE0 SHL DUP2 MSTORE PUSH1 0x4 ADD PUSH2 0x1856 SWAP2 SWAP1 PUSH2 0x5320 JUMP JUMPDEST PUSH1 0x0 PUSH1 0x40 MLOAD DUP1 DUP4 SUB DUP2 PUSH1 0x0 DUP8 DUP1 EXTCODESIZE ISZERO DUP1 ISZERO PUSH2 0x1870 JUMPI PUSH1 0x0 DUP1 REVERT JUMPDEST POP GAS CALL ISZERO DUP1 ISZERO PUSH2 0x1884 JUMPI RETURNDATASIZE PUSH1 0x0 DUP1 RETURNDATACOPY RETURNDATASIZE PUSH1 0x0 REVERT JUMPDEST POP POP POP POP PUSH2 0x18B9 DUP5 DUP4 PUSH1 0x1 DUP6 MLOAD PUSH2 0x189B SWAP2 SWAP1 PUSH2 0x5C2C JUMP JUMPDEST DUP2 MLOAD DUP2 LT PUSH2 0x18AC JUMPI PUSH2 0x18AB PUSH2 0x5C60 JUMP JUMPDEST JUMPDEST PUSH1 0x20 MUL PUSH1 0x20 ADD ADD MLOAD PUSH2 0x3B4D JUMP JUMPDEST POP SWAP7 SWAP6 POP POP POP POP POP POP JUMP JUMPDEST PUSH1 0x0 DUP1 PUSH2 0x1912 PUSH32 0x0 DUP14 PUSH32 0x0 PUSH2 0x3EDE JUMP JUMPDEST SWAP1 POP PUSH1 0x0 DUP7 PUSH2 0x1921 JUMPI DUP12 PUSH2 0x1943 JUMP JUMPDEST PUSH32 0xFFFFFFFFFFFFFFFFFFFFFFFFFFFFFFFFFFFFFFFFFFFFFFFFFFFFFFFFFFFFFFFF JUMPDEST SWAP1 POP DUP2 PUSH20 0xFFFFFFFFFFFFFFFFFFFFFFFFFFFFFFFFFFFFFFFF AND PUSH4 0xD505ACCF CALLER ADDRESS DUP5 DUP13 DUP12 DUP12 DUP12 PUSH1 0x40 MLOAD DUP9 PUSH4 0xFFFFFFFF AND PUSH1 0xE0 SHL DUP2 MSTORE PUSH1 0x4 ADD PUSH2 0x198A SWAP8 SWAP7 SWAP6 SWAP5 SWAP4 SWAP3 SWAP2 SWAP1 PUSH2 0x5DD8 JUMP JUMPDEST PUSH1 0x0 PUSH1 0x40 MLOAD DUP1 DUP4 SUB DUP2 PUSH1 0x0 DUP8 DUP1 EXTCODESIZE ISZERO DUP1 ISZERO PUSH2 0x19A4 JUMPI PUSH1 0x0 DUP1 REVERT JUMPDEST POP GAS CALL ISZERO DUP1 ISZERO PUSH2 0x19B8 JUMPI RETURNDATASIZE PUSH1 0x0 DUP1 RETURNDATACOPY RETURNDATASIZE PUSH1 0x0 REVERT JUMPDEST POP POP POP POP PUSH2 0x19CA DUP14 DUP14 DUP14 DUP14 DUP14 DUP14 PUSH2 0x2720 JUMP JUMPDEST SWAP3 POP POP POP SWAP11 SWAP10 POP POP POP POP POP POP POP POP POP POP JUMP JUMPDEST DUP1 TIMESTAMP DUP2 LT ISZERO PUSH2 0x1A20 JUMPI PUSH1 0x40 MLOAD PUSH32 0x8C379A000000000000000000000000000000000000000000000000000000000 DUP2 MSTORE PUSH1 0x4 ADD PUSH2 0x1A17 SWAP1 PUSH2 0x5BDD JUMP JUMPDEST PUSH1 0x40 MLOAD DUP1 SWAP2 SUB SWAP1 REVERT JUMPDEST PUSH2 0x1ACE DUP6 DUP6 PUSH1 0x0 DUP2 DUP2 LT PUSH2 0x1A37 JUMPI PUSH2 0x1A36 PUSH2 0x5C60 JUMP JUMPDEST JUMPDEST SWAP1 POP PUSH1 0x20 MUL ADD PUSH1 0x20 DUP2 ADD SWAP1 PUSH2 0x1A4C SWAP2 SWAP1 PUSH2 0x5C8F JUMP JUMPDEST CALLER PUSH2 0x1AC8 PUSH32 0x0 DUP10 DUP10 PUSH1 0x0 DUP2 DUP2 LT PUSH2 0x1A85 JUMPI PUSH2 0x1A84 PUSH2 0x5C60 JUMP JUMPDEST JUMPDEST SWAP1 POP PUSH1 0x20 MUL ADD PUSH1 0x20 DUP2 ADD SWAP1 PUSH2 0x1A9A SWAP2 SWAP1 PUSH2 0x5C8F JUMP JUMPDEST DUP11 DUP11 PUSH1 0x1 DUP2 DUP2 LT PUSH2 0x1AAE JUMPI PUSH2 0x1AAD PUSH2 0x5C60 JUMP JUMPDEST JUMPDEST SWAP1 POP PUSH1 0x20 MUL ADD PUSH1 0x20 DUP2 ADD SWAP1 PUSH2 0x1AC3 SWAP2 SWAP1 PUSH2 0x5C8F JUMP JUMPDEST PUSH2 0x3EDE JUMP JUMPDEST DUP11 PUSH2 0x3F74 JUMP JUMPDEST PUSH1 0x0 DUP6 DUP6 PUSH1 0x1 DUP9 DUP9 SWAP1 POP PUSH2 0x1AE2 SWAP2 SWAP1 PUSH2 0x5C2C JUMP JUMPDEST DUP2 DUP2 LT PUSH2 0x1AF2 JUMPI PUSH2 0x1AF1 PUSH2 0x5C60 JUMP JUMPDEST JUMPDEST SWAP1 POP PUSH1 0x20 MUL ADD PUSH1 0x20 DUP2 ADD SWAP1 PUSH2 0x1B07 SWAP2 SWAP1 PUSH2 0x5C8F JUMP JUMPDEST PUSH20 0xFFFFFFFFFFFFFFFFFFFFFFFFFFFFFFFFFFFFFFFF AND PUSH4 0x70A08231 DUP6 PUSH1 0x40 MLOAD DUP3 PUSH4 0xFFFFFFFF AND PUSH1 0xE0 SHL DUP2 MSTORE PUSH1 0x4 ADD PUSH2 0x1B3F SWAP2 SWAP1 PUSH2 0x59D6 JUMP JUMPDEST PUSH1 0x20 PUSH1 0x40 MLOAD DUP1 DUP4 SUB DUP2 DUP7 DUP1 EXTCODESIZE ISZERO DUP1 ISZERO PUSH2 0x1B57 JUMPI PUSH1 0x0 DUP1 REVERT JUMPDEST POP GAS STATICCALL ISZERO DUP1 ISZERO PUSH2 0x1B6B JUMPI RETURNDATASIZE PUSH1 0x0 DUP1 RETURNDATACOPY RETURNDATASIZE PUSH1 0x0 REVERT JUMPDEST POP POP POP POP PUSH1 0x40 MLOAD RETURNDATASIZE PUSH1 0x1F NOT PUSH1 0x1F DUP3 ADD AND DUP3 ADD DUP1 PUSH1 0x40 MSTORE POP DUP2 ADD SWAP1 PUSH2 0x1B8F SWAP2 SWAP1 PUSH2 0x5E5C JUMP JUMPDEST SWAP1 POP PUSH2 0x1BDC DUP7 DUP7 DUP1 DUP1 PUSH1 0x20 MUL PUSH1 0x20 ADD PUSH1 0x40 MLOAD SWAP1 DUP2 ADD PUSH1 0x40 MSTORE DUP1 SWAP4 SWAP3 SWAP2 SWAP1 DUP2 DUP2 MSTORE PUSH1 0x20 ADD DUP4 DUP4 PUSH1 0x20 MUL DUP1 DUP3 DUP5 CALLDATACOPY PUSH1 0x0 DUP2 DUP5 ADD MSTORE PUSH1 0x1F NOT PUSH1 0x1F DUP3 ADD AND SWAP1 POP DUP1 DUP4 ADD SWAP3 POP POP POP POP POP POP POP DUP6 PUSH2 0x453A JUMP JUMPDEST DUP7 PUSH2 0x1CAE DUP3 DUP9 DUP9 PUSH1 0x1 DUP12 DUP12 SWAP1 POP PUSH2 0x1BF3 SWAP2 SWAP1 PUSH2 0x5C2C JUMP JUMPDEST DUP2 DUP2 LT PUSH2 0x1C03 JUMPI PUSH2 0x1C02 PUSH2 0x5C60 JUMP JUMPDEST JUMPDEST SWAP1 POP PUSH1 0x20 MUL ADD PUSH1 0x20 DUP2 ADD SWAP1 PUSH2 0x1C18 SWAP2 SWAP1 PUSH2 0x5C8F JUMP JUMPDEST PUSH20 0xFFFFFFFFFFFFFFFFFFFFFFFFFFFFFFFFFFFFFFFF AND PUSH4 0x70A08231 DUP9 PUSH1 0x40 MLOAD DUP3 PUSH4 0xFFFFFFFF AND PUSH1 0xE0 SHL DUP2 MSTORE PUSH1 0x4 ADD PUSH2 0x1C50 SWAP2 SWAP1 PUSH2 0x59D6 JUMP JUMPDEST PUSH1 0x20 PUSH1 0x40 MLOAD DUP1 DUP4 SUB DUP2 DUP7 DUP1 EXTCODESIZE ISZERO DUP1 ISZERO PUSH2 0x1C68 JUMPI PUSH1 0x0 DUP1 REVERT JUMPDEST POP GAS STATICCALL ISZERO DUP1 ISZERO PUSH2 0x1C7C JUMPI RETURNDATASIZE PUSH1 0x0 DUP1 RETURNDATACOPY RETURNDATASIZE PUSH1 0x0 REVERT JUMPDEST POP POP POP POP PUSH1 0x40 MLOAD RETURNDATASIZE PUSH1 0x1F NOT PUSH1 0x1F DUP3 ADD AND DUP3 ADD DUP1 PUSH1 0x40 MSTORE POP DUP2 ADD SWAP1 PUSH2 0x1CA0 SWAP2 SWAP1 PUSH2 0x5E5C JUMP JUMPDEST PUSH2 0x4909 SWAP1 SWAP2 SWAP1 PUSH4 0xFFFFFFFF AND JUMP JUMPDEST LT ISZERO PUSH2 0x1CEF JUMPI PUSH1 0x40 MLOAD PUSH32 0x8C379A000000000000000000000000000000000000000000000000000000000 DUP2 MSTORE PUSH1 0x4 ADD PUSH2 0x1CE6 SWAP1 PUSH2 0x5D9A JUMP JUMPDEST PUSH1 0x40 MLOAD DUP1 SWAP2 SUB SWAP1 REVERT JUMPDEST POP POP POP POP POP POP POP POP JUMP JUMPDEST DUP1 TIMESTAMP DUP2 LT ISZERO PUSH2 0x1D3D JUMPI PUSH1 0x40 MLOAD PUSH32 0x8C379A000000000000000000000000000000000000000000000000000000000 DUP2 MSTORE PUSH1 0x4 ADD PUSH2 0x1D34 SWAP1 PUSH2 0x5BDD JUMP JUMPDEST PUSH1 0x40 MLOAD DUP1 SWAP2 SUB SWAP1 REVERT JUMPDEST PUSH32 0x0 PUSH20 0xFFFFFFFFFFFFFFFFFFFFFFFFFFFFFFFFFFFFFFFF AND DUP6 DUP6 PUSH1 0x1 DUP9 DUP9 SWAP1 POP PUSH2 0x1D86 SWAP2 SWAP1 PUSH2 0x5C2C JUMP JUMPDEST DUP2 DUP2 LT PUSH2 0x1D96 JUMPI PUSH2 0x1D95 PUSH2 0x5C60 JUMP JUMPDEST JUMPDEST SWAP1 POP PUSH1 0x20 MUL ADD PUSH1 0x20 DUP2 ADD SWAP1 PUSH2 0x1DAB SWAP2 SWAP1 PUSH2 0x5C8F JUMP JUMPDEST PUSH20 0xFFFFFFFFFFFFFFFFFFFFFFFFFFFFFFFFFFFFFFFF AND EQ PUSH2 0x1E01 JUMPI PUSH1 0x40 MLOAD PUSH32 0x8C379A000000000000000000000000000000000000000000000000000000000 DUP2 MSTORE PUSH1 0x4 ADD PUSH2 0x1DF8 SWAP1 PUSH2 0x5D08 JUMP JUMPDEST PUSH1 0x40 MLOAD DUP1 SWAP2 SUB SWAP1 REVERT JUMPDEST PUSH2 0x1EAF DUP6 DUP6 PUSH1 0x0 DUP2 DUP2 LT PUSH2 0x1E18 JUMPI PUSH2 0x1E17 PUSH2 0x5C60 JUMP JUMPDEST JUMPDEST SWAP1 POP PUSH1 0x20 MUL ADD PUSH1 0x20 DUP2 ADD SWAP1 PUSH2 0x1E2D SWAP2 SWAP1 PUSH2 0x5C8F JUMP JUMPDEST CALLER PUSH2 0x1EA9 PUSH32 0x0 DUP10 DUP10 PUSH1 0x0 DUP2 DUP2 LT PUSH2 0x1E66 JUMPI PUSH2 0x1E65 PUSH2 0x5C60 JUMP JUMPDEST JUMPDEST SWAP1 POP PUSH1 0x20 MUL ADD PUSH1 0x20 DUP2 ADD SWAP1 PUSH2 0x1E7B SWAP2 SWAP1 PUSH2 0x5C8F JUMP JUMPDEST DUP11 DUP11 PUSH1 0x1 DUP2 DUP2 LT PUSH2 0x1E8F JUMPI PUSH2 0x1E8E PUSH2 0x5C60 JUMP JUMPDEST JUMPDEST SWAP1 POP PUSH1 0x20 MUL ADD PUSH1 0x20 DUP2 ADD SWAP1 PUSH2 0x1EA4 SWAP2 SWAP1 PUSH2 0x5C8F JUMP JUMPDEST PUSH2 0x3EDE JUMP JUMPDEST DUP11 PUSH2 0x3F74 JUMP JUMPDEST PUSH2 0x1EFA DUP6 DUP6 DUP1 DUP1 PUSH1 0x20 MUL PUSH1 0x20 ADD PUSH1 0x40 MLOAD SWAP1 DUP2 ADD PUSH1 0x40 MSTORE DUP1 SWAP4 SWAP3 SWAP2 SWAP1 DUP2 DUP2 MSTORE PUSH1 0x20 ADD DUP4 DUP4 PUSH1 0x20 MUL DUP1 DUP3 DUP5 CALLDATACOPY PUSH1 0x0 DUP2 DUP5 ADD MSTORE PUSH1 0x1F NOT PUSH1 0x1F DUP3 ADD AND SWAP1 POP DUP1 DUP4 ADD SWAP3 POP POP POP POP POP POP POP ADDRESS PUSH2 0x453A JUMP JUMPDEST PUSH1 0x0 PUSH32 0x0 PUSH20 0xFFFFFFFFFFFFFFFFFFFFFFFFFFFFFFFFFFFFFFFF AND PUSH4 0x70A08231 ADDRESS PUSH1 0x40 MLOAD DUP3 PUSH4 0xFFFFFFFF AND PUSH1 0xE0 SHL DUP2 MSTORE PUSH1 0x4 ADD PUSH2 0x1F55 SWAP2 SWAP1 PUSH2 0x59D6 JUMP JUMPDEST PUSH1 0x20 PUSH1 0x40 MLOAD DUP1 DUP4 SUB DUP2 DUP7 DUP1 EXTCODESIZE ISZERO DUP1 ISZERO PUSH2 0x1F6D JUMPI PUSH1 0x0 DUP1 REVERT JUMPDEST POP GAS STATICCALL ISZERO DUP1 ISZERO PUSH2 0x1F81 JUMPI RETURNDATASIZE PUSH1 0x0 DUP1 RETURNDATACOPY RETURNDATASIZE PUSH1 0x0 REVERT JUMPDEST POP POP POP POP PUSH1 0x40 MLOAD RETURNDATASIZE PUSH1 0x1F NOT PUSH1 0x1F DUP3 ADD AND DUP3 ADD DUP1 PUSH1 0x40 MSTORE POP DUP2 ADD SWAP1 PUSH2 0x1FA5 SWAP2 SWAP1 PUSH2 0x5E5C JUMP JUMPDEST SWAP1 POP DUP7 DUP2 LT ISZERO PUSH2 0x1FEA JUMPI PUSH1 0x40 MLOAD PUSH32 0x8C379A000000000000000000000000000000000000000000000000000000000 DUP2 MSTORE PUSH1 0x4 ADD PUSH2 0x1FE1 SWAP1 PUSH2 0x5D9A JUMP JUMPDEST PUSH1 0x40 MLOAD DUP1 SWAP2 SUB SWAP1 REVERT JUMPDEST PUSH32 0x0 PUSH20 0xFFFFFFFFFFFFFFFFFFFFFFFFFFFFFFFFFFFFFFFF AND PUSH4 0x2E1A7D4D DUP3 PUSH1 0x40 MLOAD DUP3 PUSH4 0xFFFFFFFF AND PUSH1 0xE0 SHL DUP2 MSTORE PUSH1 0x4 ADD PUSH2 0x2043 SWAP2 SWAP1 PUSH2 0x5320 JUMP JUMPDEST PUSH1 0x0 PUSH1 0x40 MLOAD DUP1 DUP4 SUB DUP2 PUSH1 0x0 DUP8 DUP1 EXTCODESIZE ISZERO DUP1 ISZERO PUSH2 0x205D JUMPI PUSH1 0x0 DUP1 REVERT JUMPDEST POP GAS CALL ISZERO DUP1 ISZERO PUSH2 0x2071 JUMPI RETURNDATASIZE PUSH1 0x0 DUP1 RETURNDATACOPY RETURNDATASIZE PUSH1 0x0 REVERT JUMPDEST POP POP POP POP PUSH2 0x207F DUP5 DUP3 PUSH2 0x3B4D JUMP JUMPDEST POP POP POP POP POP POP POP POP JUMP JUMPDEST PUSH1 0x60 DUP2 TIMESTAMP DUP2 LT ISZERO PUSH2 0x20CF JUMPI PUSH1 0x40 MLOAD PUSH32 0x8C379A000000000000000000000000000000000000000000000000000000000 DUP2 MSTORE PUSH1 0x4 ADD PUSH2 0x20C6 SWAP1 PUSH2 0x5BDD JUMP JUMPDEST PUSH1 0x40 MLOAD DUP1 SWAP2 SUB SWAP1 REVERT JUMPDEST PUSH32 0x0 PUSH20 0xFFFFFFFFFFFFFFFFFFFFFFFFFFFFFFFFFFFFFFFF AND DUP7 DUP7 PUSH1 0x0 DUP2 DUP2 LT PUSH2 0x211A JUMPI PUSH2 0x2119 PUSH2 0x5C60 JUMP JUMPDEST JUMPDEST SWAP1 POP PUSH1 0x20 MUL ADD PUSH1 0x20 DUP2 ADD SWAP1 PUSH2 0x212F SWAP2 SWAP1 PUSH2 0x5C8F JUMP JUMPDEST PUSH20 0xFFFFFFFFFFFFFFFFFFFFFFFFFFFFFFFFFFFFFFFF AND EQ PUSH2 0x2185 JUMPI PUSH1 0x40 MLOAD PUSH32 0x8C379A000000000000000000000000000000000000000000000000000000000 DUP2 MSTORE PUSH1 0x4 ADD PUSH2 0x217C SWAP1 PUSH2 0x5D08 JUMP JUMPDEST PUSH1 0x40 MLOAD DUP1 SWAP2 SUB SWAP1 REVERT JUMPDEST PUSH2 0x21F1 PUSH32 0x0 CALLVALUE DUP9 DUP9 DUP1 DUP1 PUSH1 0x20 MUL PUSH1 0x20 ADD PUSH1 0x40 MLOAD SWAP1 DUP2 ADD PUSH1 0x40 MSTORE DUP1 SWAP4 SWAP3 SWAP2 SWAP1 DUP2 DUP2 MSTORE PUSH1 0x20 ADD DUP4 DUP4 PUSH1 0x20 MUL DUP1 DUP3 DUP5 CALLDATACOPY PUSH1 0x0 DUP2 DUP5 ADD MSTORE PUSH1 0x1F NOT PUSH1 0x1F DUP3 ADD AND SWAP1 POP DUP1 DUP4 ADD SWAP3 POP POP POP POP POP POP POP PUSH2 0x3D53 JUMP JUMPDEST SWAP2 POP DUP7 DUP3 PUSH1 0x1 DUP5 MLOAD PUSH2 0x2203 SWAP2 SWAP1 PUSH2 0x5C2C JUMP JUMPDEST DUP2 MLOAD DUP2 LT PUSH2 0x2214 JUMPI PUSH2 0x2213 PUSH2 0x5C60 JUMP JUMPDEST JUMPDEST PUSH1 0x20 MUL PUSH1 0x20 ADD ADD MLOAD LT ISZERO PUSH2 0x225D JUMPI PUSH1 0x40 MLOAD PUSH32 0x8C379A000000000000000000000000000000000000000000000000000000000 DUP2 MSTORE PUSH1 0x4 ADD PUSH2 0x2254 SWAP1 PUSH2 0x5D9A JUMP JUMPDEST PUSH1 0x40 MLOAD DUP1 SWAP2 SUB SWAP1 REVERT JUMPDEST PUSH32 0x0 PUSH20 0xFFFFFFFFFFFFFFFFFFFFFFFFFFFFFFFFFFFFFFFF AND PUSH4 0xD0E30DB0 DUP4 PUSH1 0x0 DUP2 MLOAD DUP2 LT PUSH2 0x22AD JUMPI PUSH2 0x22AC PUSH2 0x5C60 JUMP JUMPDEST JUMPDEST PUSH1 0x20 MUL PUSH1 0x20 ADD ADD MLOAD PUSH1 0x40 MLOAD DUP3 PUSH4 0xFFFFFFFF AND PUSH1 0xE0 SHL DUP2 MSTORE PUSH1 0x4 ADD PUSH1 0x0 PUSH1 0x40 MLOAD DUP1 DUP4 SUB DUP2 DUP6 DUP9 DUP1 EXTCODESIZE ISZERO DUP1 ISZERO PUSH2 0x22E0 JUMPI PUSH1 0x0 DUP1 REVERT JUMPDEST POP GAS CALL ISZERO DUP1 ISZERO PUSH2 0x22F4 JUMPI RETURNDATASIZE PUSH1 0x0 DUP1 RETURNDATACOPY RETURNDATASIZE PUSH1 0x0 REVERT JUMPDEST POP POP POP POP POP PUSH32 0x0 PUSH20 0xFFFFFFFFFFFFFFFFFFFFFFFFFFFFFFFFFFFFFFFF AND PUSH4 0xA9059CBB PUSH2 0x23B0 PUSH32 0x0 DUP10 DUP10 PUSH1 0x0 DUP2 DUP2 LT PUSH2 0x236D JUMPI PUSH2 0x236C PUSH2 0x5C60 JUMP JUMPDEST JUMPDEST SWAP1 POP PUSH1 0x20 MUL ADD PUSH1 0x20 DUP2 ADD SWAP1 PUSH2 0x2382 SWAP2 SWAP1 PUSH2 0x5C8F JUMP JUMPDEST DUP11 DUP11 PUSH1 0x1 DUP2 DUP2 LT PUSH2 0x2396 JUMPI PUSH2 0x2395 PUSH2 0x5C60 JUMP JUMPDEST JUMPDEST SWAP1 POP PUSH1 0x20 MUL ADD PUSH1 0x20 DUP2 ADD SWAP1 PUSH2 0x23AB SWAP2 SWAP1 PUSH2 0x5C8F JUMP JUMPDEST PUSH2 0x3EDE JUMP JUMPDEST DUP5 PUSH1 0x0 DUP2 MLOAD DUP2 LT PUSH2 0x23C4 JUMPI PUSH2 0x23C3 PUSH2 0x5C60 JUMP JUMPDEST JUMPDEST PUSH1 0x20 MUL PUSH1 0x20 ADD ADD MLOAD PUSH1 0x40 MLOAD DUP4 PUSH4 0xFFFFFFFF AND PUSH1 0xE0 SHL DUP2 MSTORE PUSH1 0x4 ADD PUSH2 0x23E9 SWAP3 SWAP2 SWAP1 PUSH2 0x5F87 JUMP JUMPDEST PUSH1 0x20 PUSH1 0x40 MLOAD DUP1 DUP4 SUB DUP2 PUSH1 0x0 DUP8 DUP1 EXTCODESIZE ISZERO DUP1 ISZERO PUSH2 0x2403 JUMPI PUSH1 0x0 DUP1 REVERT JUMPDEST POP GAS CALL ISZERO DUP1 ISZERO PUSH2 0x2417 JUMPI RETURNDATASIZE PUSH1 0x0 DUP1 RETURNDATACOPY RETURNDATASIZE PUSH1 0x0 REVERT JUMPDEST POP POP POP POP PUSH1 0x40 MLOAD RETURNDATASIZE PUSH1 0x1F NOT PUSH1 0x1F DUP3 ADD AND DUP3 ADD DUP1 PUSH1 0x40 MSTORE POP DUP2 ADD SWAP1 PUSH2 0x243B SWAP2 SWAP1 PUSH2 0x5FC5 JUMP JUMPDEST PUSH2 0x2448 JUMPI PUSH2 0x2447 PUSH2 0x5131 JUMP JUMPDEST JUMPDEST PUSH2 0x2494 DUP3 DUP8 DUP8 DUP1 DUP1 PUSH1 0x20 MUL PUSH1 0x20 ADD PUSH1 0x40 MLOAD SWAP1 DUP2 ADD PUSH1 0x40 MSTORE DUP1 SWAP4 SWAP3 SWAP2 SWAP1 DUP2 DUP2 MSTORE PUSH1 0x20 ADD DUP4 DUP4 PUSH1 0x20 MUL DUP1 DUP3 DUP5 CALLDATACOPY PUSH1 0x0 DUP2 DUP5 ADD MSTORE PUSH1 0x1F NOT PUSH1 0x1F DUP3 ADD AND SWAP1 POP DUP1 DUP4 ADD SWAP3 POP POP POP POP POP POP POP DUP7 PUSH2 0x40AD JUMP JUMPDEST POP SWAP6 SWAP5 POP POP POP POP POP JUMP JUMPDEST PUSH1 0x0 PUSH2 0x24AB DUP5 DUP5 DUP5 PUSH2 0x4962 JUMP JUMPDEST SWAP1 POP SWAP4 SWAP3 POP POP POP JUMP JUMPDEST PUSH1 0x60 DUP2 TIMESTAMP DUP2 LT ISZERO PUSH2 0x24FA JUMPI PUSH1 0x40 MLOAD PUSH32 0x8C379A000000000000000000000000000000000000000000000000000000000 DUP2 MSTORE PUSH1 0x4 ADD PUSH2 0x24F1 SWAP1 PUSH2 0x5BDD JUMP JUMPDEST PUSH1 0x40 MLOAD DUP1 SWAP2 SUB SWAP1 REVERT JUMPDEST PUSH2 0x2566 PUSH32 0x0 DUP10 DUP9 DUP9 DUP1 DUP1 PUSH1 0x20 MUL PUSH1 0x20 ADD PUSH1 0x40 MLOAD SWAP1 DUP2 ADD PUSH1 0x40 MSTORE DUP1 SWAP4 SWAP3 SWAP2 SWAP1 DUP2 DUP2 MSTORE PUSH1 0x20 ADD DUP4 DUP4 PUSH1 0x20 MUL DUP1 DUP3 DUP5 CALLDATACOPY PUSH1 0x0 DUP2 DUP5 ADD MSTORE PUSH1 0x1F NOT PUSH1 0x1F DUP3 ADD AND SWAP1 POP DUP1 DUP4 ADD SWAP3 POP POP POP POP POP POP POP PUSH2 0x4306 JUMP JUMPDEST SWAP2 POP DUP7 DUP3 PUSH1 0x0 DUP2 MLOAD DUP2 LT PUSH2 0x257D JUMPI PUSH2 0x257C PUSH2 0x5C60 JUMP JUMPDEST JUMPDEST PUSH1 0x20 MUL PUSH1 0x20 ADD ADD MLOAD GT ISZERO PUSH2 0x25C6 JUMPI PUSH1 0x40 MLOAD PUSH32 0x8C379A000000000000000000000000000000000000000000000000000000000 DUP2 MSTORE PUSH1 0x4 ADD PUSH2 0x25BD SWAP1 PUSH2 0x5F67 JUMP JUMPDEST PUSH1 0x40 MLOAD DUP1 SWAP2 SUB SWAP1 REVERT JUMPDEST PUSH2 0x268F DUP7 DUP7 PUSH1 0x0 DUP2 DUP2 LT PUSH2 0x25DD JUMPI PUSH2 0x25DC PUSH2 0x5C60 JUMP JUMPDEST JUMPDEST SWAP1 POP PUSH1 0x20 MUL ADD PUSH1 0x20 DUP2 ADD SWAP1 PUSH2 0x25F2 SWAP2 SWAP1 PUSH2 0x5C8F JUMP JUMPDEST CALLER PUSH2 0x266E PUSH32 0x0 DUP11 DUP11 PUSH1 0x0 DUP2 DUP2 LT PUSH2 0x262B JUMPI PUSH2 0x262A PUSH2 0x5C60 JUMP JUMPDEST JUMPDEST SWAP1 POP PUSH1 0x20 MUL ADD PUSH1 0x20 DUP2 ADD SWAP1 PUSH2 0x2640 SWAP2 SWAP1 PUSH2 0x5C8F JUMP JUMPDEST DUP12 DUP12 PUSH1 0x1 DUP2 DUP2 LT PUSH2 0x2654 JUMPI PUSH2 0x2653 PUSH2 0x5C60 JUMP JUMPDEST JUMPDEST SWAP1 POP PUSH1 0x20 MUL ADD PUSH1 0x20 DUP2 ADD SWAP1 PUSH2 0x2669 SWAP2 SWAP1 PUSH2 0x5C8F JUMP JUMPDEST PUSH2 0x3EDE JUMP JUMPDEST DUP6 PUSH1 0x0 DUP2 MLOAD DUP2 LT PUSH2 0x2682 JUMPI PUSH2 0x2681 PUSH2 0x5C60 JUMP JUMPDEST JUMPDEST PUSH1 0x20 MUL PUSH1 0x20 ADD ADD MLOAD PUSH2 0x3F74 JUMP JUMPDEST PUSH2 0x26DB DUP3 DUP8 DUP8 DUP1 DUP1 PUSH1 0x20 MUL PUSH1 0x20 ADD PUSH1 0x40 MLOAD SWAP1 DUP2 ADD PUSH1 0x40 MSTORE DUP1 SWAP4 SWAP3 SWAP2 SWAP1 DUP2 DUP2 MSTORE PUSH1 0x20 ADD DUP4 DUP4 PUSH1 0x20 MUL DUP1 DUP3 DUP5 CALLDATACOPY PUSH1 0x0 DUP2 DUP5 ADD MSTORE PUSH1 0x1F NOT PUSH1 0x1F DUP3 ADD AND SWAP1 POP DUP1 DUP4 ADD SWAP3 POP POP POP POP POP POP POP DUP7 PUSH2 0x40AD JUMP JUMPDEST POP SWAP7 SWAP6 POP POP POP POP POP POP JUMP JUMPDEST PUSH32 0x0 DUP2 JUMP JUMPDEST PUSH1 0x0 PUSH2 0x2717 DUP5 DUP5 DUP5 PUSH2 0x4A75 JUMP JUMPDEST SWAP1 POP SWAP4 SWAP3 POP POP POP JUMP JUMPDEST PUSH1 0x0 DUP2 TIMESTAMP DUP2 LT ISZERO PUSH2 0x2766 JUMPI PUSH1 0x40 MLOAD PUSH32 0x8C379A000000000000000000000000000000000000000000000000000000000 DUP2 MSTORE PUSH1 0x4 ADD PUSH2 0x275D SWAP1 PUSH2 0x5BDD JUMP JUMPDEST PUSH1 0x40 MLOAD DUP1 SWAP2 SUB SWAP1 REVERT JUMPDEST PUSH2 0x2795 DUP9 PUSH32 0x0 DUP10 DUP10 DUP10 ADDRESS DUP10 PUSH2 0x2DAD JUMP JUMPDEST SWAP1 POP DUP1 SWAP3 POP POP PUSH2 0x282E DUP9 DUP6 DUP11 PUSH20 0xFFFFFFFFFFFFFFFFFFFFFFFFFFFFFFFFFFFFFFFF AND PUSH4 0x70A08231 ADDRESS PUSH1 0x40 MLOAD DUP3 PUSH4 0xFFFFFFFF AND PUSH1 0xE0 SHL DUP2 MSTORE PUSH1 0x4 ADD PUSH2 0x27D9 SWAP2 SWAP1 PUSH2 0x59D6 JUMP JUMPDEST PUSH1 0x20 PUSH1 0x40 MLOAD DUP1 DUP4 SUB DUP2 DUP7 DUP1 EXTCODESIZE ISZERO DUP1 ISZERO PUSH2 0x27F1 JUMPI PUSH1 0x0 DUP1 REVERT JUMPDEST POP GAS STATICCALL ISZERO DUP1 ISZERO PUSH2 0x2805 JUMPI RETURNDATASIZE PUSH1 0x0 DUP1 RETURNDATACOPY RETURNDATASIZE PUSH1 0x0 REVERT JUMPDEST POP POP POP POP PUSH1 0x40 MLOAD RETURNDATASIZE PUSH1 0x1F NOT PUSH1 0x1F DUP3 ADD AND DUP3 ADD DUP1 PUSH1 0x40 MSTORE POP DUP2 ADD SWAP1 PUSH2 0x2829 SWAP2 SWAP1 PUSH2 0x5E5C JUMP JUMPDEST PUSH2 0x3A17 JUMP JUMPDEST PUSH32 0x0 PUSH20 0xFFFFFFFFFFFFFFFFFFFFFFFFFFFFFFFFFFFFFFFF AND PUSH4 0x2E1A7D4D DUP4 PUSH1 0x40 MLOAD DUP3 PUSH4 0xFFFFFFFF AND PUSH1 0xE0 SHL DUP2 MSTORE PUSH1 0x4 ADD PUSH2 0x2887 SWAP2 SWAP1 PUSH2 0x5320 JUMP JUMPDEST PUSH1 0x0 PUSH1 0x40 MLOAD DUP1 DUP4 SUB DUP2 PUSH1 0x0 DUP8 DUP1 EXTCODESIZE ISZERO DUP1 ISZERO PUSH2 0x28A1 JUMPI PUSH1 0x0 DUP1 REVERT JUMPDEST POP GAS CALL ISZERO DUP1 ISZERO PUSH2 0x28B5 JUMPI RETURNDATASIZE PUSH1 0x0 DUP1 RETURNDATACOPY RETURNDATASIZE PUSH1 0x0 REVERT JUMPDEST POP POP POP POP PUSH2 0x28C3 DUP5 DUP4 PUSH2 0x3B4D JUMP JUMPDEST POP SWAP7 SWAP6 POP POP POP POP POP POP JUMP JUMPDEST DUP1 TIMESTAMP DUP2 LT ISZERO PUSH2 0x2912 JUMPI PUSH1 0x40 MLOAD PUSH32 0x8C379A000000000000000000000000000000000000000000000000000000000 DUP2 MSTORE PUSH1 0x4 ADD PUSH2 0x2909 SWAP1 PUSH2 0x5BDD JUMP JUMPDEST PUSH1 0x40 MLOAD DUP1 SWAP2 SUB SWAP1 REVERT JUMPDEST PUSH32 0x0 PUSH20 0xFFFFFFFFFFFFFFFFFFFFFFFFFFFFFFFFFFFFFFFF AND DUP6 DUP6 PUSH1 0x0 DUP2 DUP2 LT PUSH2 0x295D JUMPI PUSH2 0x295C PUSH2 0x5C60 JUMP JUMPDEST JUMPDEST SWAP1 POP PUSH1 0x20 MUL ADD PUSH1 0x20 DUP2 ADD SWAP1 PUSH2 0x2972 SWAP2 SWAP1 PUSH2 0x5C8F JUMP JUMPDEST PUSH20 0xFFFFFFFFFFFFFFFFFFFFFFFFFFFFFFFFFFFFFFFF AND EQ PUSH2 0x29C8 JUMPI PUSH1 0x40 MLOAD PUSH32 0x8C379A000000000000000000000000000000000000000000000000000000000 DUP2 MSTORE PUSH1 0x4 ADD PUSH2 0x29BF SWAP1 PUSH2 0x5D08 JUMP JUMPDEST PUSH1 0x40 MLOAD DUP1 SWAP2 SUB SWAP1 REVERT JUMPDEST PUSH1 0x0 CALLVALUE SWAP1 POP PUSH32 0x0 PUSH20 0xFFFFFFFFFFFFFFFFFFFFFFFFFFFFFFFFFFFFFFFF AND PUSH4 0xD0E30DB0 DUP3 PUSH1 0x40 MLOAD DUP3 PUSH4 0xFFFFFFFF AND PUSH1 0xE0 SHL DUP2 MSTORE PUSH1 0x4 ADD PUSH1 0x0 PUSH1 0x40 MLOAD DUP1 DUP4 SUB DUP2 DUP6 DUP9 DUP1 EXTCODESIZE ISZERO DUP1 ISZERO PUSH2 0x2A35 JUMPI PUSH1 0x0 DUP1 REVERT JUMPDEST POP GAS CALL ISZERO DUP1 ISZERO PUSH2 0x2A49 JUMPI RETURNDATASIZE PUSH1 0x0 DUP1 RETURNDATACOPY RETURNDATASIZE PUSH1 0x0 REVERT JUMPDEST POP POP POP POP POP PUSH32 0x0 PUSH20 0xFFFFFFFFFFFFFFFFFFFFFFFFFFFFFFFFFFFFFFFF AND PUSH4 0xA9059CBB PUSH2 0x2B05 PUSH32 0x0 DUP10 DUP10 PUSH1 0x0 DUP2 DUP2 LT PUSH2 0x2AC2 JUMPI PUSH2 0x2AC1 PUSH2 0x5C60 JUMP JUMPDEST JUMPDEST SWAP1 POP PUSH1 0x20 MUL ADD PUSH1 0x20 DUP2 ADD SWAP1 PUSH2 0x2AD7 SWAP2 SWAP1 PUSH2 0x5C8F JUMP JUMPDEST DUP11 DUP11 PUSH1 0x1 DUP2 DUP2 LT PUSH2 0x2AEB JUMPI PUSH2 0x2AEA PUSH2 0x5C60 JUMP JUMPDEST JUMPDEST SWAP1 POP PUSH1 0x20 MUL ADD PUSH1 0x20 DUP2 ADD SWAP1 PUSH2 0x2B00 SWAP2 SWAP1 PUSH2 0x5C8F JUMP JUMPDEST PUSH2 0x3EDE JUMP JUMPDEST DUP4 PUSH1 0x40 MLOAD DUP4 PUSH4 0xFFFFFFFF AND PUSH1 0xE0 SHL DUP2 MSTORE PUSH1 0x4 ADD PUSH2 0x2B23 SWAP3 SWAP2 SWAP1 PUSH2 0x5F87 JUMP JUMPDEST PUSH1 0x20 PUSH1 0x40 MLOAD DUP1 DUP4 SUB DUP2 PUSH1 0x0 DUP8 DUP1 EXTCODESIZE ISZERO DUP1 ISZERO PUSH2 0x2B3D JUMPI PUSH1 0x0 DUP1 REVERT JUMPDEST POP GAS CALL ISZERO DUP1 ISZERO PUSH2 0x2B51 JUMPI RETURNDATASIZE PUSH1 0x0 DUP1 RETURNDATACOPY RETURNDATASIZE PUSH1 0x0 REVERT JUMPDEST POP POP POP POP PUSH1 0x40 MLOAD RETURNDATASIZE PUSH1 0x1F NOT PUSH1 0x1F DUP3 ADD AND DUP3 ADD DUP1 PUSH1 0x40 MSTORE POP DUP2 ADD SWAP1 PUSH2 0x2B75 SWAP2 SWAP1 PUSH2 0x5FC5 JUMP JUMPDEST PUSH2 0x2B82 JUMPI PUSH2 0x2B81 PUSH2 0x5131 JUMP JUMPDEST JUMPDEST PUSH1 0x0 DUP7 DUP7 PUSH1 0x1 DUP10 DUP10 SWAP1 POP PUSH2 0x2B96 SWAP2 SWAP1 PUSH2 0x5C2C JUMP JUMPDEST DUP2 DUP2 LT PUSH2 0x2BA6 JUMPI PUSH2 0x2BA5 PUSH2 0x5C60 JUMP JUMPDEST JUMPDEST SWAP1 POP PUSH1 0x20 MUL ADD PUSH1 0x20 DUP2 ADD SWAP1 PUSH2 0x2BBB SWAP2 SWAP1 PUSH2 0x5C8F JUMP JUMPDEST PUSH20 0xFFFFFFFFFFFFFFFFFFFFFFFFFFFFFFFFFFFFFFFF AND PUSH4 0x70A08231 DUP7 PUSH1 0x40 MLOAD DUP3 PUSH4 0xFFFFFFFF AND PUSH1 0xE0 SHL DUP2 MSTORE PUSH1 0x4 ADD PUSH2 0x2BF3 SWAP2 SWAP1 PUSH2 0x59D6 JUMP JUMPDEST PUSH1 0x20 PUSH1 0x40 MLOAD DUP1 DUP4 SUB DUP2 DUP7 DUP1 EXTCODESIZE ISZERO DUP1 ISZERO PUSH2 0x2C0B JUMPI PUSH1 0x0 DUP1 REVERT JUMPDEST POP GAS STATICCALL ISZERO DUP1 ISZERO PUSH2 0x2C1F JUMPI RETURNDATASIZE PUSH1 0x0 DUP1 RETURNDATACOPY RETURNDATASIZE PUSH1 0x0 REVERT JUMPDEST POP POP POP POP PUSH1 0x40 MLOAD RETURNDATASIZE PUSH1 0x1F NOT PUSH1 0x1F DUP3 ADD AND DUP3 ADD DUP1 PUSH1 0x40 MSTORE POP DUP2 ADD SWAP1 PUSH2 0x2C43 SWAP2 SWAP1 PUSH2 0x5E5C JUMP JUMPDEST SWAP1 POP PUSH2 0x2C90 DUP8 DUP8 DUP1 DUP1 PUSH1 0x20 MUL PUSH1 0x20 ADD PUSH1 0x40 MLOAD SWAP1 DUP2 ADD PUSH1 0x40 MSTORE DUP1 SWAP4 SWAP3 SWAP2 SWAP1 DUP2 DUP2 MSTORE PUSH1 0x20 ADD DUP4 DUP4 PUSH1 0x20 MUL DUP1 DUP3 DUP5 CALLDATACOPY PUSH1 0x0 DUP2 DUP5 ADD MSTORE PUSH1 0x1F NOT PUSH1 0x1F DUP3 ADD AND SWAP1 POP DUP1 DUP4 ADD SWAP3 POP POP POP POP POP POP POP DUP7 PUSH2 0x453A JUMP JUMPDEST DUP8 PUSH2 0x2D62 DUP3 DUP10 DUP10 PUSH1 0x1 DUP13 DUP13 SWAP1 POP PUSH2 0x2CA7 SWAP2 SWAP1 PUSH2 0x5C2C JUMP JUMPDEST DUP2 DUP2 LT PUSH2 0x2CB7 JUMPI PUSH2 0x2CB6 PUSH2 0x5C60 JUMP JUMPDEST JUMPDEST SWAP1 POP PUSH1 0x20 MUL ADD PUSH1 0x20 DUP2 ADD SWAP1 PUSH2 0x2CCC SWAP2 SWAP1 PUSH2 0x5C8F JUMP JUMPDEST PUSH20 0xFFFFFFFFFFFFFFFFFFFFFFFFFFFFFFFFFFFFFFFF AND PUSH4 0x70A08231 DUP10 PUSH1 0x40 MLOAD DUP3 PUSH4 0xFFFFFFFF AND PUSH1 0xE0 SHL DUP2 MSTORE PUSH1 0x4 ADD PUSH2 0x2D04 SWAP2 SWAP1 PUSH2 0x59D6 JUMP JUMPDEST PUSH1 0x20 PUSH1 0x40 MLOAD DUP1 DUP4 SUB DUP2 DUP7 DUP1 EXTCODESIZE ISZERO DUP1 ISZERO PUSH2 0x2D1C JUMPI PUSH1 0x0 DUP1 REVERT JUMPDEST POP GAS STATICCALL ISZERO DUP1 ISZERO PUSH2 0x2D30 JUMPI RETURNDATASIZE PUSH1 0x0 DUP1 RETURNDATACOPY RETURNDATASIZE PUSH1 0x0 REVERT JUMPDEST POP POP POP POP PUSH1 0x40 MLOAD RETURNDATASIZE PUSH1 0x1F NOT PUSH1 0x1F DUP3 ADD AND DUP3 ADD DUP1 PUSH1 0x40 MSTORE POP DUP2 ADD SWAP1 PUSH2 0x2D54 SWAP2 SWAP1 PUSH2 0x5E5C JUMP JUMPDEST PUSH2 0x4909 SWAP1 SWAP2 SWAP1 PUSH4 0xFFFFFFFF AND JUMP JUMPDEST LT ISZERO PUSH2 0x2DA3 JUMPI PUSH1 0x40 MLOAD PUSH32 0x8C379A000000000000000000000000000000000000000000000000000000000 DUP2 MSTORE PUSH1 0x4 ADD PUSH2 0x2D9A SWAP1 PUSH2 0x5D9A JUMP JUMPDEST PUSH1 0x40 MLOAD DUP1 SWAP2 SUB SWAP1 REVERT JUMPDEST POP POP POP POP POP POP POP POP JUMP JUMPDEST PUSH1 0x0 DUP1 DUP3 TIMESTAMP DUP2 LT ISZERO PUSH2 0x2DF4 JUMPI PUSH1 0x40 MLOAD PUSH32 0x8C379A000000000000000000000000000000000000000000000000000000000 DUP2 MSTORE PUSH1 0x4 ADD PUSH2 0x2DEB SWAP1 PUSH2 0x5BDD JUMP JUMPDEST PUSH1 0x40 MLOAD DUP1 SWAP2 SUB SWAP1 REVERT JUMPDEST PUSH1 0x0 PUSH2 0x2E21 PUSH32 0x0 DUP13 DUP13 PUSH2 0x3EDE JUMP JUMPDEST SWAP1 POP DUP1 PUSH20 0xFFFFFFFFFFFFFFFFFFFFFFFFFFFFFFFFFFFFFFFF AND PUSH4 0x23B872DD CALLER DUP4 DUP13 PUSH1 0x40 MLOAD DUP5 PUSH4 0xFFFFFFFF AND PUSH1 0xE0 SHL DUP2 MSTORE PUSH1 0x4 ADD PUSH2 0x2E60 SWAP4 SWAP3 SWAP2 SWAP1 PUSH2 0x5FF2 JUMP JUMPDEST PUSH1 0x20 PUSH1 0x40 MLOAD DUP1 DUP4 SUB DUP2 PUSH1 0x0 DUP8 DUP1 EXTCODESIZE ISZERO DUP1 ISZERO PUSH2 0x2E7A JUMPI PUSH1 0x0 DUP1 REVERT JUMPDEST POP GAS CALL ISZERO DUP1 ISZERO PUSH2 0x2E8E JUMPI RETURNDATASIZE PUSH1 0x0 DUP1 RETURNDATACOPY RETURNDATASIZE PUSH1 0x0 REVERT JUMPDEST POP POP POP POP PUSH1 0x40 MLOAD RETURNDATASIZE PUSH1 0x1F NOT PUSH1 0x1F DUP3 ADD AND DUP3 ADD DUP1 PUSH1 0x40 MSTORE POP DUP2 ADD SWAP1 PUSH2 0x2EB2 SWAP2 SWAP1 PUSH2 0x5FC5 JUMP JUMPDEST POP PUSH1 0x0 DUP1 DUP3 PUSH20 0xFFFFFFFFFFFFFFFFFFFFFFFFFFFFFFFFFFFFFFFF AND PUSH4 0x89AFCB44 DUP10 PUSH1 0x40 MLOAD DUP3 PUSH4 0xFFFFFFFF AND PUSH1 0xE0 SHL DUP2 MSTORE PUSH1 0x4 ADD PUSH2 0x2EEF SWAP2 SWAP1 PUSH2 0x59D6 JUMP JUMPDEST PUSH1 0x40 DUP1 MLOAD DUP1 DUP4 SUB DUP2 PUSH1 0x0 DUP8 DUP1 EXTCODESIZE ISZERO DUP1 ISZERO PUSH2 0x2F08 JUMPI PUSH1 0x0 DUP1 REVERT JUMPDEST POP GAS CALL ISZERO DUP1 ISZERO PUSH2 0x2F1C JUMPI RETURNDATASIZE PUSH1 0x0 DUP1 RETURNDATACOPY RETURNDATASIZE PUSH1 0x0 REVERT JUMPDEST POP POP POP POP PUSH1 0x40 MLOAD RETURNDATASIZE PUSH1 0x1F NOT PUSH1 0x1F DUP3 ADD AND DUP3 ADD DUP1 PUSH1 0x40 MSTORE POP DUP2 ADD SWAP1 PUSH2 0x2F40 SWAP2 SWAP1 PUSH2 0x6029 JUMP JUMPDEST SWAP2 POP SWAP2 POP PUSH1 0x0 PUSH2 0x2F50 DUP15 DUP15 PUSH2 0x4B2F JUMP JUMPDEST POP SWAP1 POP DUP1 PUSH20 0xFFFFFFFFFFFFFFFFFFFFFFFFFFFFFFFFFFFFFFFF AND DUP15 PUSH20 0xFFFFFFFFFFFFFFFFFFFFFFFFFFFFFFFFFFFFFFFF AND EQ PUSH2 0x2F8D JUMPI DUP2 DUP4 PUSH2 0x2F90 JUMP JUMPDEST DUP3 DUP3 JUMPDEST DUP1 SWAP8 POP DUP2 SWAP9 POP POP POP DUP11 DUP8 LT ISZERO PUSH2 0x2FDB JUMPI PUSH1 0x40 MLOAD PUSH32 0x8C379A000000000000000000000000000000000000000000000000000000000 DUP2 MSTORE PUSH1 0x4 ADD PUSH2 0x2FD2 SWAP1 PUSH2 0x60DB JUMP JUMPDEST PUSH1 0x40 MLOAD DUP1 SWAP2 SUB SWAP1 REVERT JUMPDEST DUP10 DUP7 LT ISZERO PUSH2 0x301E JUMPI PUSH1 0x40 MLOAD PUSH32 0x8C379A000000000000000000000000000000000000000000000000000000000 DUP2 MSTORE PUSH1 0x4 ADD PUSH2 0x3015 SWAP1 PUSH2 0x616D JUMP JUMPDEST PUSH1 0x40 MLOAD DUP1 SWAP2 SUB SWAP1 REVERT JUMPDEST POP POP POP POP POP SWAP8 POP SWAP8 SWAP6 POP POP POP POP POP POP JUMP JUMPDEST PUSH32 0x0 DUP2 JUMP JUMPDEST PUSH1 0x60 PUSH2 0x3080 PUSH32 0x0 DUP5 DUP5 PUSH2 0x3D53 JUMP JUMPDEST SWAP1 POP SWAP3 SWAP2 POP POP JUMP JUMPDEST PUSH1 0x0 DUP1 PUSH1 0x0 PUSH2 0x30D8 PUSH32 0x0 DUP15 PUSH32 0x0 PUSH2 0x3EDE JUMP JUMPDEST SWAP1 POP PUSH1 0x0 DUP8 PUSH2 0x30E7 JUMPI DUP13 PUSH2 0x3109 JUMP JUMPDEST PUSH32 0xFFFFFFFFFFFFFFFFFFFFFFFFFFFFFFFFFFFFFFFFFFFFFFFFFFFFFFFFFFFFFFFF JUMPDEST SWAP1 POP DUP2 PUSH20 0xFFFFFFFFFFFFFFFFFFFFFFFFFFFFFFFFFFFFFFFF AND PUSH4 0xD505ACCF CALLER ADDRESS DUP5 DUP14 DUP13 DUP13 DUP13 PUSH1 0x40 MLOAD DUP9 PUSH4 0xFFFFFFFF AND PUSH1 0xE0 SHL DUP2 MSTORE PUSH1 0x4 ADD PUSH2 0x3150 SWAP8 SWAP7 SWAP6 SWAP5 SWAP4 SWAP3 SWAP2 SWAP1 PUSH2 0x5DD8 JUMP JUMPDEST PUSH1 0x0 PUSH1 0x40 MLOAD DUP1 DUP4 SUB DUP2 PUSH1 0x0 DUP8 DUP1 EXTCODESIZE ISZERO DUP1 ISZERO PUSH2 0x316A JUMPI PUSH1 0x0 DUP1 REVERT JUMPDEST POP GAS CALL ISZERO DUP1 ISZERO PUSH2 0x317E JUMPI RETURNDATASIZE PUSH1 0x0 DUP1 RETURNDATACOPY RETURNDATASIZE PUSH1 0x0 REVERT JUMPDEST POP POP POP POP PUSH2 0x3190 DUP15 DUP15 DUP15 DUP15 DUP15 DUP15 PUSH2 0x73B JUMP JUMPDEST DUP1 SWAP5 POP DUP2 SWAP6 POP POP POP POP POP SWAP11 POP SWAP11 SWAP9 POP POP POP POP POP POP POP POP POP JUMP JUMPDEST PUSH1 0x0 DUP1 PUSH1 0x0 DUP4 TIMESTAMP DUP2 LT ISZERO PUSH2 0x31F2 JUMPI PUSH1 0x40 MLOAD PUSH32 0x8C379A000000000000000000000000000000000000000000000000000000000 DUP2 MSTORE PUSH1 0x4 ADD PUSH2 0x31E9 SWAP1 PUSH2 0x5BDD JUMP JUMPDEST PUSH1 0x40 MLOAD DUP1 SWAP2 SUB SWAP1 REVERT JUMPDEST PUSH2 0x3200 DUP13 DUP13 DUP13 DUP13 DUP13 DUP13 PUSH2 0x4C5D JUMP JUMPDEST DUP1 SWAP5 POP DUP2 SWAP6 POP POP POP PUSH1 0x0 PUSH2 0x3235 PUSH32 0x0 DUP15 DUP15 PUSH2 0x3EDE JUMP JUMPDEST SWAP1 POP PUSH2 0x3243 DUP14 CALLER DUP4 DUP9 PUSH2 0x3F74 JUMP JUMPDEST PUSH2 0x324F DUP13 CALLER DUP4 DUP8 PUSH2 0x3F74 JUMP JUMPDEST DUP1 PUSH20 0xFFFFFFFFFFFFFFFFFFFFFFFFFFFFFFFFFFFFFFFF AND PUSH4 0x6A627842 DUP9 PUSH1 0x40 MLOAD DUP3 PUSH4 0xFFFFFFFF AND PUSH1 0xE0 SHL DUP2 MSTORE PUSH1 0x4 ADD PUSH2 0x3288 SWAP2 SWAP1 PUSH2 0x59D6 JUMP JUMPDEST PUSH1 0x20 PUSH1 0x40 MLOAD DUP1 DUP4 SUB DUP2 PUSH1 0x0 DUP8 DUP1 EXTCODESIZE ISZERO DUP1 ISZERO PUSH2 0x32A2 JUMPI PUSH1 0x0 DUP1 REVERT JUMPDEST POP GAS CALL ISZERO DUP1 ISZERO PUSH2 0x32B6 JUMPI RETURNDATASIZE PUSH1 0x0 DUP1 RETURNDATACOPY RETURNDATASIZE PUSH1 0x0 REVERT JUMPDEST POP POP POP POP PUSH1 0x40 MLOAD RETURNDATASIZE PUSH1 0x1F NOT PUSH1 0x1F DUP3 ADD AND DUP3 ADD DUP1 PUSH1 0x40 MSTORE POP DUP2 ADD SWAP1 PUSH2 0x32DA SWAP2 SWAP1 PUSH2 0x5E5C JUMP JUMPDEST SWAP3 POP POP POP SWAP9 POP SWAP9 POP SWAP9 SWAP6 POP POP POP POP POP POP JUMP JUMPDEST PUSH1 0x0 DUP1 PUSH1 0x0 DUP4 TIMESTAMP DUP2 LT ISZERO PUSH2 0x3335 JUMPI PUSH1 0x40 MLOAD PUSH32 0x8C379A000000000000000000000000000000000000000000000000000000000 DUP2 MSTORE PUSH1 0x4 ADD PUSH2 0x332C SWAP1 PUSH2 0x5BDD JUMP JUMPDEST PUSH1 0x40 MLOAD DUP1 SWAP2 SUB SWAP1 REVERT JUMPDEST PUSH2 0x3363 DUP11 PUSH32 0x0 DUP12 CALLVALUE DUP13 DUP13 PUSH2 0x4C5D JUMP JUMPDEST DUP1 SWAP5 POP DUP2 SWAP6 POP POP POP PUSH1 0x0 PUSH2 0x33B8 PUSH32 0x0 DUP13 PUSH32 0x0 PUSH2 0x3EDE JUMP JUMPDEST SWAP1 POP PUSH2 0x33C6 DUP12 CALLER DUP4 DUP9 PUSH2 0x3F74 JUMP JUMPDEST PUSH32 0x0 PUSH20 0xFFFFFFFFFFFFFFFFFFFFFFFFFFFFFFFFFFFFFFFF AND PUSH4 0xD0E30DB0 DUP6 PUSH1 0x40 MLOAD DUP3 PUSH4 0xFFFFFFFF AND PUSH1 0xE0 SHL DUP2 MSTORE PUSH1 0x4 ADD PUSH1 0x0 PUSH1 0x40 MLOAD DUP1 DUP4 SUB DUP2 DUP6 DUP9 DUP1 EXTCODESIZE ISZERO DUP1 ISZERO PUSH2 0x342E JUMPI PUSH1 0x0 DUP1 REVERT JUMPDEST POP GAS CALL ISZERO DUP1 ISZERO PUSH2 0x3442 JUMPI RETURNDATASIZE PUSH1 0x0 DUP1 RETURNDATACOPY RETURNDATASIZE PUSH1 0x0 REVERT JUMPDEST POP POP POP POP POP PUSH32 0x0 PUSH20 0xFFFFFFFFFFFFFFFFFFFFFFFFFFFFFFFFFFFFFFFF AND PUSH4 0xA9059CBB DUP3 DUP7 PUSH1 0x40 MLOAD DUP4 PUSH4 0xFFFFFFFF AND PUSH1 0xE0 SHL DUP2 MSTORE PUSH1 0x4 ADD PUSH2 0x34A2 SWAP3 SWAP2 SWAP1 PUSH2 0x5F87 JUMP JUMPDEST PUSH1 0x20 PUSH1 0x40 MLOAD DUP1 DUP4 SUB DUP2 PUSH1 0x0 DUP8 DUP1 EXTCODESIZE ISZERO DUP1 ISZERO PUSH2 0x34BC JUMPI PUSH1 0x0 DUP1 REVERT JUMPDEST POP GAS CALL ISZERO DUP1 ISZERO PUSH2 0x34D0 JUMPI RETURNDATASIZE PUSH1 0x0 DUP1 RETURNDATACOPY RETURNDATASIZE PUSH1 0x0 REVERT JUMPDEST POP POP POP POP PUSH1 0x40 MLOAD RETURNDATASIZE PUSH1 0x1F NOT PUSH1 0x1F DUP3 ADD AND DUP3 ADD DUP1 PUSH1 0x40 MSTORE POP DUP2 ADD SWAP1 PUSH2 0x34F4 SWAP2 SWAP1 PUSH2 0x5FC5 JUMP JUMPDEST PUSH2 0x3501 JUMPI PUSH2 0x3500 PUSH2 0x5131 JUMP JUMPDEST JUMPDEST DUP1 PUSH20 0xFFFFFFFFFFFFFFFFFFFFFFFFFFFFFFFFFFFFFFFF AND PUSH4 0x6A627842 DUP9 PUSH1 0x40 MLOAD DUP3 PUSH4 0xFFFFFFFF AND PUSH1 0xE0 SHL DUP2 MSTORE PUSH1 0x4 ADD PUSH2 0x353A SWAP2 SWAP1 PUSH2 0x59D6 JUMP JUMPDEST PUSH1 0x20 PUSH1 0x40 MLOAD DUP1 DUP4 SUB DUP2 PUSH1 0x0 DUP8 DUP1 EXTCODESIZE ISZERO DUP1 ISZERO PUSH2 0x3554 JUMPI PUSH1 0x0 DUP1 REVERT JUMPDEST POP GAS CALL ISZERO DUP1 ISZERO PUSH2 0x3568 JUMPI RETURNDATASIZE PUSH1 0x0 DUP1 RETURNDATACOPY RETURNDATASIZE PUSH1 0x0 REVERT JUMPDEST POP POP POP POP PUSH1 0x40 MLOAD RETURNDATASIZE PUSH1 0x1F NOT PUSH1 0x1F DUP3 ADD AND DUP3 ADD DUP1 PUSH1 0x40 MSTORE POP DUP2 ADD SWAP1 PUSH2 0x358C SWAP2 SWAP1 PUSH2 0x5E5C JUMP JUMPDEST SWAP3 POP DUP4 CALLVALUE GT ISZERO PUSH2 0x35AC JUMPI PUSH2 0x35AB CALLER DUP6 CALLVALUE PUSH2 0x35A6 SWAP2 SWAP1 PUSH2 0x5C2C JUMP JUMPDEST PUSH2 0x3B4D JUMP JUMPDEST JUMPDEST POP POP SWAP7 POP SWAP7 POP SWAP7 SWAP4 POP POP POP POP JUMP JUMPDEST PUSH1 0x60 DUP2 TIMESTAMP DUP2 LT ISZERO PUSH2 0x3600 JUMPI PUSH1 0x40 MLOAD PUSH32 0x8C379A000000000000000000000000000000000000000000000000000000000 DUP2 MSTORE PUSH1 0x4 ADD PUSH2 0x35F7 SWAP1 PUSH2 0x5BDD JUMP JUMPDEST PUSH1 0x40 MLOAD DUP1 SWAP2 SUB SWAP1 REVERT JUMPDEST PUSH32 0x0 PUSH20 0xFFFFFFFFFFFFFFFFFFFFFFFFFFFFFFFFFFFFFFFF AND DUP7 DUP7 PUSH1 0x0 DUP2 DUP2 LT PUSH2 0x364B JUMPI PUSH2 0x364A PUSH2 0x5C60 JUMP JUMPDEST JUMPDEST SWAP1 POP PUSH1 0x20 MUL ADD PUSH1 0x20 DUP2 ADD SWAP1 PUSH2 0x3660 SWAP2 SWAP1 PUSH2 0x5C8F JUMP JUMPDEST PUSH20 0xFFFFFFFFFFFFFFFFFFFFFFFFFFFFFFFFFFFFFFFF AND EQ PUSH2 0x36B6 JUMPI PUSH1 0x40 MLOAD PUSH32 0x8C379A000000000000000000000000000000000000000000000000000000000 DUP2 MSTORE PUSH1 0x4 ADD PUSH2 0x36AD SWAP1 PUSH2 0x5D08 JUMP JUMPDEST PUSH1 0x40 MLOAD DUP1 SWAP2 SUB SWAP1 REVERT JUMPDEST PUSH2 0x3722 PUSH32 0x0 DUP9 DUP9 DUP9 DUP1 DUP1 PUSH1 0x20 MUL PUSH1 0x20 ADD PUSH1 0x40 MLOAD SWAP1 DUP2 ADD PUSH1 0x40 MSTORE DUP1 SWAP4 SWAP3 SWAP2 SWAP1 DUP2 DUP2 MSTORE PUSH1 0x20 ADD DUP4 DUP4 PUSH1 0x20 MUL DUP1 DUP3 DUP5 CALLDATACOPY PUSH1 0x0 DUP2 DUP5 ADD MSTORE PUSH1 0x1F NOT PUSH1 0x1F DUP3 ADD AND SWAP1 POP DUP1 DUP4 ADD SWAP3 POP POP POP POP POP POP POP PUSH2 0x4306 JUMP JUMPDEST SWAP2 POP CALLVALUE DUP3 PUSH1 0x0 DUP2 MLOAD DUP2 LT PUSH2 0x3739 JUMPI PUSH2 0x3738 PUSH2 0x5C60 JUMP JUMPDEST JUMPDEST PUSH1 0x20 MUL PUSH1 0x20 ADD ADD MLOAD GT ISZERO PUSH2 0x3782 JUMPI PUSH1 0x40 MLOAD PUSH32 0x8C379A000000000000000000000000000000000000000000000000000000000 DUP2 MSTORE PUSH1 0x4 ADD PUSH2 0x3779 SWAP1 PUSH2 0x5F67 JUMP JUMPDEST PUSH1 0x40 MLOAD DUP1 SWAP2 SUB SWAP1 REVERT JUMPDEST PUSH32 0x0 PUSH20 0xFFFFFFFFFFFFFFFFFFFFFFFFFFFFFFFFFFFFFFFF AND PUSH4 0xD0E30DB0 DUP4 PUSH1 0x0 DUP2 MLOAD DUP2 LT PUSH2 0x37D2 JUMPI PUSH2 0x37D1 PUSH2 0x5C60 JUMP JUMPDEST JUMPDEST PUSH1 0x20 MUL PUSH1 0x20 ADD ADD MLOAD PUSH1 0x40 MLOAD DUP3 PUSH4 0xFFFFFFFF AND PUSH1 0xE0 SHL DUP2 MSTORE PUSH1 0x4 ADD PUSH1 0x0 PUSH1 0x40 MLOAD DUP1 DUP4 SUB DUP2 DUP6 DUP9 DUP1 EXTCODESIZE ISZERO DUP1 ISZERO PUSH2 0x3805 JUMPI PUSH1 0x0 DUP1 REVERT JUMPDEST POP GAS CALL ISZERO DUP1 ISZERO PUSH2 0x3819 JUMPI RETURNDATASIZE PUSH1 0x0 DUP1 RETURNDATACOPY RETURNDATASIZE PUSH1 0x0 REVERT JUMPDEST POP POP POP POP POP PUSH32 0x0 PUSH20 0xFFFFFFFFFFFFFFFFFFFFFFFFFFFFFFFFFFFFFFFF AND PUSH4 0xA9059CBB PUSH2 0x38D5 PUSH32 0x0 DUP10 DUP10 PUSH1 0x0 DUP2 DUP2 LT PUSH2 0x3892 JUMPI PUSH2 0x3891 PUSH2 0x5C60 JUMP JUMPDEST JUMPDEST SWAP1 POP PUSH1 0x20 MUL ADD PUSH1 0x20 DUP2 ADD SWAP1 PUSH2 0x38A7 SWAP2 SWAP1 PUSH2 0x5C8F JUMP JUMPDEST DUP11 DUP11 PUSH1 0x1 DUP2 DUP2 LT PUSH2 0x38BB JUMPI PUSH2 0x38BA PUSH2 0x5C60 JUMP JUMPDEST JUMPDEST SWAP1 POP PUSH1 0x20 MUL ADD PUSH1 0x20 DUP2 ADD SWAP1 PUSH2 0x38D0 SWAP2 SWAP1 PUSH2 0x5C8F JUMP JUMPDEST PUSH2 0x3EDE JUMP JUMPDEST DUP5 PUSH1 0x0 DUP2 MLOAD DUP2 LT PUSH2 0x38E9 JUMPI PUSH2 0x38E8 PUSH2 0x5C60 JUMP JUMPDEST JUMPDEST PUSH1 0x20 MUL PUSH1 0x20 ADD ADD MLOAD PUSH1 0x40 MLOAD DUP4 PUSH4 0xFFFFFFFF AND PUSH1 0xE0 SHL DUP2 MSTORE PUSH1 0x4 ADD PUSH2 0x390E SWAP3 SWAP2 SWAP1 PUSH2 0x5F87 JUMP JUMPDEST PUSH1 0x20 PUSH1 0x40 MLOAD DUP1 DUP4 SUB DUP2 PUSH1 0x0 DUP8 DUP1 EXTCODESIZE ISZERO DUP1 ISZERO PUSH2 0x3928 JUMPI PUSH1 0x0 DUP1 REVERT JUMPDEST POP GAS CALL ISZERO DUP1 ISZERO PUSH2 0x393C JUMPI RETURNDATASIZE PUSH1 0x0 DUP1 RETURNDATACOPY RETURNDATASIZE PUSH1 0x0 REVERT JUMPDEST POP POP POP POP PUSH1 0x40 MLOAD RETURNDATASIZE PUSH1 0x1F NOT PUSH1 0x1F DUP3 ADD AND DUP3 ADD DUP1 PUSH1 0x40 MSTORE POP DUP2 ADD SWAP1 PUSH2 0x3960 SWAP2 SWAP1 PUSH2 0x5FC5 JUMP JUMPDEST PUSH2 0x396D JUMPI PUSH2 0x396C PUSH2 0x5131 JUMP JUMPDEST JUMPDEST PUSH2 0x39B9 DUP3 DUP8 DUP8 DUP1 DUP1 PUSH1 0x20 MUL PUSH1 0x20 ADD PUSH1 0x40 MLOAD SWAP1 DUP2 ADD PUSH1 0x40 MSTORE DUP1 SWAP4 SWAP3 SWAP2 SWAP1 DUP2 DUP2 MSTORE PUSH1 0x20 ADD DUP4 DUP4 PUSH1 0x20 MUL DUP1 DUP3 DUP5 CALLDATACOPY PUSH1 0x0 DUP2 DUP5 ADD MSTORE PUSH1 0x1F NOT PUSH1 0x1F DUP3 ADD AND SWAP1 POP DUP1 DUP4 ADD SWAP3 POP POP POP POP POP POP POP DUP7 PUSH2 0x40AD JUMP JUMPDEST DUP2 PUSH1 0x0 DUP2 MLOAD DUP2 LT PUSH2 0x39CD JUMPI PUSH2 0x39CC PUSH2 0x5C60 JUMP JUMPDEST JUMPDEST PUSH1 0x20 MUL PUSH1 0x20 ADD ADD MLOAD CALLVALUE GT ISZERO PUSH2 0x3A0D JUMPI PUSH2 0x3A0C CALLER DUP4 PUSH1 0x0 DUP2 MLOAD DUP2 LT PUSH2 0x39F4 JUMPI PUSH2 0x39F3 PUSH2 0x5C60 JUMP JUMPDEST JUMPDEST PUSH1 0x20 MUL PUSH1 0x20 ADD ADD MLOAD CALLVALUE PUSH2 0x3A07 SWAP2 SWAP1 PUSH2 0x5C2C JUMP JUMPDEST PUSH2 0x3B4D JUMP JUMPDEST JUMPDEST POP SWAP6 SWAP5 POP POP POP POP POP JUMP JUMPDEST PUSH1 0x0 DUP1 DUP5 PUSH20 0xFFFFFFFFFFFFFFFFFFFFFFFFFFFFFFFFFFFFFFFF AND PUSH4 0xA9059CBB DUP6 DUP6 PUSH1 0x40 MLOAD PUSH1 0x24 ADD PUSH2 0x3A49 SWAP3 SWAP2 SWAP1 PUSH2 0x5F87 JUMP JUMPDEST PUSH1 0x40 MLOAD PUSH1 0x20 DUP2 DUP4 SUB SUB DUP2 MSTORE SWAP1 PUSH1 0x40 MSTORE SWAP1 PUSH1 0xE0 SHL PUSH1 0x20 DUP3 ADD DUP1 MLOAD PUSH28 0xFFFFFFFFFFFFFFFFFFFFFFFFFFFFFFFFFFFFFFFFFFFFFFFFFFFFFFFF DUP4 DUP2 DUP4 AND OR DUP4 MSTORE POP POP POP POP PUSH1 0x40 MLOAD PUSH2 0x3A97 SWAP2 SWAP1 PUSH2 0x6207 JUMP JUMPDEST PUSH1 0x0 PUSH1 0x40 MLOAD DUP1 DUP4 SUB DUP2 PUSH1 0x0 DUP7 GAS CALL SWAP2 POP POP RETURNDATASIZE DUP1 PUSH1 0x0 DUP2 EQ PUSH2 0x3AD4 JUMPI PUSH1 0x40 MLOAD SWAP2 POP PUSH1 0x1F NOT PUSH1 0x3F RETURNDATASIZE ADD AND DUP3 ADD PUSH1 0x40 MSTORE RETURNDATASIZE DUP3 MSTORE RETURNDATASIZE PUSH1 0x0 PUSH1 0x20 DUP5 ADD RETURNDATACOPY PUSH2 0x3AD9 JUMP JUMPDEST PUSH1 0x60 SWAP2 POP JUMPDEST POP SWAP2 POP SWAP2 POP DUP2 DUP1 ISZERO PUSH2 0x3B07 JUMPI POP PUSH1 0x0 DUP2 MLOAD EQ DUP1 PUSH2 0x3B06 JUMPI POP DUP1 DUP1 PUSH1 0x20 ADD SWAP1 MLOAD DUP2 ADD SWAP1 PUSH2 0x3B05 SWAP2 SWAP1 PUSH2 0x5FC5 JUMP JUMPDEST JUMPDEST JUMPDEST PUSH2 0x3B46 JUMPI PUSH1 0x40 MLOAD PUSH32 0x8C379A000000000000000000000000000000000000000000000000000000000 DUP2 MSTORE PUSH1 0x4 ADD PUSH2 0x3B3D SWAP1 PUSH2 0x6290 JUMP JUMPDEST PUSH1 0x40 MLOAD DUP1 SWAP2 SUB SWAP1 REVERT JUMPDEST POP POP POP POP POP JUMP JUMPDEST PUSH1 0x0 DUP3 PUSH20 0xFFFFFFFFFFFFFFFFFFFFFFFFFFFFFFFFFFFFFFFF AND DUP3 PUSH1 0x0 PUSH8 0xFFFFFFFFFFFFFFFF DUP2 GT ISZERO PUSH2 0x3B82 JUMPI PUSH2 0x3B81 PUSH2 0x552B JUMP JUMPDEST JUMPDEST PUSH1 0x40 MLOAD SWAP1 DUP1 DUP3 MSTORE DUP1 PUSH1 0x1F ADD PUSH1 0x1F NOT AND PUSH1 0x20 ADD DUP3 ADD PUSH1 0x40 MSTORE DUP1 ISZERO PUSH2 0x3BB4 JUMPI DUP2 PUSH1 0x20 ADD PUSH1 0x1 DUP3 MUL DUP1 CALLDATASIZE DUP4 CALLDATACOPY DUP1 DUP3 ADD SWAP2 POP POP SWAP1 POP JUMPDEST POP PUSH1 0x40 MLOAD PUSH2 0x3BC2 SWAP2 SWAP1 PUSH2 0x6207 JUMP JUMPDEST PUSH1 0x0 PUSH1 0x40 MLOAD DUP1 DUP4 SUB DUP2 DUP6 DUP8 GAS CALL SWAP3 POP POP POP RETURNDATASIZE DUP1 PUSH1 0x0 DUP2 EQ PUSH2 0x3BFF JUMPI PUSH1 0x40 MLOAD SWAP2 POP PUSH1 0x1F NOT PUSH1 0x3F RETURNDATASIZE ADD AND DUP3 ADD PUSH1 0x40 MSTORE RETURNDATASIZE DUP3 MSTORE RETURNDATASIZE PUSH1 0x0 PUSH1 0x20 DUP5 ADD RETURNDATACOPY PUSH2 0x3C04 JUMP JUMPDEST PUSH1 0x60 SWAP2 POP JUMPDEST POP POP SWAP1 POP DUP1 PUSH2 0x3C48 JUMPI PUSH1 0x40 MLOAD PUSH32 0x8C379A000000000000000000000000000000000000000000000000000000000 DUP2 MSTORE PUSH1 0x4 ADD PUSH2 0x3C3F SWAP1 PUSH2 0x6322 JUMP JUMPDEST PUSH1 0x40 MLOAD DUP1 SWAP2 SUB SWAP1 REVERT JUMPDEST POP POP POP JUMP JUMPDEST PUSH1 0x0 DUP1 DUP5 GT PUSH2 0x3C91 JUMPI PUSH1 0x40 MLOAD PUSH32 0x8C379A000000000000000000000000000000000000000000000000000000000 DUP2 MSTORE PUSH1 0x4 ADD PUSH2 0x3C88 SWAP1 PUSH2 0x63B4 JUMP JUMPDEST PUSH1 0x40 MLOAD DUP1 SWAP2 SUB SWAP1 REVERT JUMPDEST PUSH1 0x0 DUP4 GT DUP1 ISZERO PUSH2 0x3CA1 JUMPI POP PUSH1 0x0 DUP3 GT JUMPDEST PUSH2 0x3CE0 JUMPI PUSH1 0x40 MLOAD PUSH32 0x8C379A000000000000000000000000000000000000000000000000000000000 DUP2 MSTORE PUSH1 0x4 ADD PUSH2 0x3CD7 SWAP1 PUSH2 0x6446 JUMP JUMPDEST PUSH1 0x40 MLOAD DUP1 SWAP2 SUB SWAP1 REVERT JUMPDEST PUSH1 0x0 PUSH2 0x3CF7 PUSH2 0x3E5 DUP7 PUSH2 0x4F2A SWAP1 SWAP2 SWAP1 PUSH4 0xFFFFFFFF AND JUMP JUMPDEST SWAP1 POP PUSH1 0x0 PUSH2 0x3D0E DUP5 DUP4 PUSH2 0x4F2A SWAP1 SWAP2 SWAP1 PUSH4 0xFFFFFFFF AND JUMP JUMPDEST SWAP1 POP PUSH1 0x0 PUSH2 0x3D39 DUP4 PUSH2 0x3D2B PUSH2 0x3E8 DUP10 PUSH2 0x4F2A SWAP1 SWAP2 SWAP1 PUSH4 0xFFFFFFFF AND JUMP JUMPDEST PUSH2 0x4F97 SWAP1 SWAP2 SWAP1 PUSH4 0xFFFFFFFF AND JUMP JUMPDEST SWAP1 POP DUP1 DUP3 PUSH2 0x3D47 SWAP2 SWAP1 PUSH2 0x6495 JUMP JUMPDEST SWAP4 POP POP POP POP SWAP4 SWAP3 POP POP POP JUMP JUMPDEST PUSH1 0x60 PUSH1 0x2 DUP3 MLOAD LT ISZERO PUSH2 0x3D9A JUMPI PUSH1 0x40 MLOAD PUSH32 0x8C379A000000000000000000000000000000000000000000000000000000000 DUP2 MSTORE PUSH1 0x4 ADD PUSH2 0x3D91 SWAP1 PUSH2 0x6512 JUMP JUMPDEST PUSH1 0x40 MLOAD DUP1 SWAP2 SUB SWAP1 REVERT JUMPDEST DUP2 MLOAD PUSH8 0xFFFFFFFFFFFFFFFF DUP2 GT ISZERO PUSH2 0x3DB5 JUMPI PUSH2 0x3DB4 PUSH2 0x552B JUMP JUMPDEST JUMPDEST PUSH1 0x40 MLOAD SWAP1 DUP1 DUP3 MSTORE DUP1 PUSH1 0x20 MUL PUSH1 0x20 ADD DUP3 ADD PUSH1 0x40 MSTORE DUP1 ISZERO PUSH2 0x3DE3 JUMPI DUP2 PUSH1 0x20 ADD PUSH1 0x20 DUP3 MUL DUP1 CALLDATASIZE DUP4 CALLDATACOPY DUP1 DUP3 ADD SWAP2 POP POP SWAP1 POP JUMPDEST POP SWAP1 POP DUP3 DUP2 PUSH1 0x0 DUP2 MLOAD DUP2 LT PUSH2 0x3DFB JUMPI PUSH2 0x3DFA PUSH2 0x5C60 JUMP JUMPDEST JUMPDEST PUSH1 0x20 MUL PUSH1 0x20 ADD ADD DUP2 DUP2 MSTORE POP POP PUSH1 0x0 JUMPDEST PUSH1 0x1 DUP4 MLOAD PUSH2 0x3E18 SWAP2 SWAP1 PUSH2 0x5C2C JUMP JUMPDEST DUP2 LT ISZERO PUSH2 0x3ED6 JUMPI PUSH1 0x0 DUP1 PUSH2 0x3E6D DUP8 DUP7 DUP6 DUP2 MLOAD DUP2 LT PUSH2 0x3E39 JUMPI PUSH2 0x3E38 PUSH2 0x5C60 JUMP JUMPDEST JUMPDEST PUSH1 0x20 MUL PUSH1 0x20 ADD ADD MLOAD DUP8 PUSH1 0x1 DUP8 PUSH2 0x3E4F SWAP2 SWAP1 PUSH2 0x6532 JUMP JUMPDEST DUP2 MLOAD DUP2 LT PUSH2 0x3E60 JUMPI PUSH2 0x3E5F PUSH2 0x5C60 JUMP JUMPDEST JUMPDEST PUSH1 0x20 MUL PUSH1 0x20 ADD ADD MLOAD PUSH2 0x4FF0 JUMP JUMPDEST SWAP2 POP SWAP2 POP PUSH2 0x3E96 DUP5 DUP5 DUP2 MLOAD DUP2 LT PUSH2 0x3E87 JUMPI PUSH2 0x3E86 PUSH2 0x5C60 JUMP JUMPDEST JUMPDEST PUSH1 0x20 MUL PUSH1 0x20 ADD ADD MLOAD DUP4 DUP4 PUSH2 0x3C4D JUMP JUMPDEST DUP5 PUSH1 0x1 DUP6 PUSH2 0x3EA4 SWAP2 SWAP1 PUSH2 0x6532 JUMP JUMPDEST DUP2 MLOAD DUP2 LT PUSH2 0x3EB5 JUMPI PUSH2 0x3EB4 PUSH2 0x5C60 JUMP JUMPDEST JUMPDEST PUSH1 0x20 MUL PUSH1 0x20 ADD ADD DUP2 DUP2 MSTORE POP POP POP POP DUP1 DUP1 PUSH2 0x3ECE SWAP1 PUSH2 0x6588 JUMP JUMPDEST SWAP2 POP POP PUSH2 0x3E0A JUMP JUMPDEST POP SWAP4 SWAP3 POP POP POP JUMP JUMPDEST PUSH1 0x0 DUP4 PUSH20 0xFFFFFFFFFFFFFFFFFFFFFFFFFFFFFFFFFFFFFFFF AND PUSH4 0xE6A43905 DUP5 DUP5 PUSH1 0x40 MLOAD DUP4 PUSH4 0xFFFFFFFF AND PUSH1 0xE0 SHL DUP2 MSTORE PUSH1 0x4 ADD PUSH2 0x3F1B SWAP3 SWAP2 SWAP1 PUSH2 0x65D1 JUMP JUMPDEST PUSH1 0x20 PUSH1 0x40 MLOAD DUP1 DUP4 SUB DUP2 DUP7 DUP1 EXTCODESIZE ISZERO DUP1 ISZERO PUSH2 0x3F33 JUMPI PUSH1 0x0 DUP1 REVERT JUMPDEST POP GAS STATICCALL ISZERO DUP1 ISZERO PUSH2 0x3F47 JUMPI RETURNDATASIZE PUSH1 0x0 DUP1 RETURNDATACOPY RETURNDATASIZE PUSH1 0x0 REVERT JUMPDEST POP POP POP POP PUSH1 0x40 MLOAD RETURNDATASIZE PUSH1 0x1F NOT PUSH1 0x1F DUP3 ADD AND DUP3 ADD DUP1 PUSH1 0x40 MSTORE POP DUP2 ADD SWAP1 PUSH2 0x3F6B SWAP2 SWAP1 PUSH2 0x660F JUMP JUMPDEST SWAP1 POP SWAP4 SWAP3 POP POP POP JUMP JUMPDEST PUSH1 0x0 DUP1 DUP6 PUSH20 0xFFFFFFFFFFFFFFFFFFFFFFFFFFFFFFFFFFFFFFFF AND PUSH4 0x23B872DD DUP7 DUP7 DUP7 PUSH1 0x40 MLOAD PUSH1 0x24 ADD PUSH2 0x3FA8 SWAP4 SWAP3 SWAP2 SWAP1 PUSH2 0x5FF2 JUMP JUMPDEST PUSH1 0x40 MLOAD PUSH1 0x20 DUP2 DUP4 SUB SUB DUP2 MSTORE SWAP1 PUSH1 0x40 MSTORE SWAP1 PUSH1 0xE0 SHL PUSH1 0x20 DUP3 ADD DUP1 MLOAD PUSH28 0xFFFFFFFFFFFFFFFFFFFFFFFFFFFFFFFFFFFFFFFFFFFFFFFFFFFFFFFF DUP4 DUP2 DUP4 AND OR DUP4 MSTORE POP POP POP POP PUSH1 0x40 MLOAD PUSH2 0x3FF6 SWAP2 SWAP1 PUSH2 0x6207 JUMP JUMPDEST PUSH1 0x0 PUSH1 0x40 MLOAD DUP1 DUP4 SUB DUP2 PUSH1 0x0 DUP7 GAS CALL SWAP2 POP POP RETURNDATASIZE DUP1 PUSH1 0x0 DUP2 EQ PUSH2 0x4033 JUMPI PUSH1 0x40 MLOAD SWAP2 POP PUSH1 0x1F NOT PUSH1 0x3F RETURNDATASIZE ADD AND DUP3 ADD PUSH1 0x40 MSTORE RETURNDATASIZE DUP3 MSTORE RETURNDATASIZE PUSH1 0x0 PUSH1 0x20 DUP5 ADD RETURNDATACOPY PUSH2 0x4038 JUMP JUMPDEST PUSH1 0x60 SWAP2 POP JUMPDEST POP SWAP2 POP SWAP2 POP DUP2 DUP1 ISZERO PUSH2 0x4066 JUMPI POP PUSH1 0x0 DUP2 MLOAD EQ DUP1 PUSH2 0x4065 JUMPI POP DUP1 DUP1 PUSH1 0x20 ADD SWAP1 MLOAD DUP2 ADD SWAP1 PUSH2 0x4064 SWAP2 SWAP1 PUSH2 0x5FC5 JUMP JUMPDEST JUMPDEST JUMPDEST PUSH2 0x40A5 JUMPI PUSH1 0x40 MLOAD PUSH32 0x8C379A000000000000000000000000000000000000000000000000000000000 DUP2 MSTORE PUSH1 0x4 ADD PUSH2 0x409C SWAP1 PUSH2 0x66AE JUMP JUMPDEST PUSH1 0x40 MLOAD DUP1 SWAP2 SUB SWAP1 REVERT JUMPDEST POP POP POP POP POP POP JUMP JUMPDEST PUSH1 0x0 JUMPDEST PUSH1 0x1 DUP4 MLOAD PUSH2 0x40BE SWAP2 SWAP1 PUSH2 0x5C2C JUMP JUMPDEST DUP2 LT ISZERO PUSH2 0x4300 JUMPI PUSH1 0x0 DUP1 DUP5 DUP4 DUP2 MLOAD DUP2 LT PUSH2 0x40DB JUMPI PUSH2 0x40DA PUSH2 0x5C60 JUMP JUMPDEST JUMPDEST PUSH1 0x20 MUL PUSH1 0x20 ADD ADD MLOAD DUP6 PUSH1 0x1 DUP6 PUSH2 0x40F1 SWAP2 SWAP1 PUSH2 0x6532 JUMP JUMPDEST DUP2 MLOAD DUP2 LT PUSH2 0x4102 JUMPI PUSH2 0x4101 PUSH2 0x5C60 JUMP JUMPDEST JUMPDEST PUSH1 0x20 MUL PUSH1 0x20 ADD ADD MLOAD SWAP2 POP SWAP2 POP PUSH1 0x0 PUSH2 0x411A DUP4 DUP4 PUSH2 0x4B2F JUMP JUMPDEST POP SWAP1 POP PUSH1 0x0 DUP8 PUSH1 0x1 DUP7 PUSH2 0x412D SWAP2 SWAP1 PUSH2 0x6532 JUMP JUMPDEST DUP2 MLOAD DUP2 LT PUSH2 0x413E JUMPI PUSH2 0x413D PUSH2 0x5C60 JUMP JUMPDEST JUMPDEST PUSH1 0x20 MUL PUSH1 0x20 ADD ADD MLOAD SWAP1 POP PUSH1 0x0 DUP1 DUP4 PUSH20 0xFFFFFFFFFFFFFFFFFFFFFFFFFFFFFFFFFFFFFFFF AND DUP7 PUSH20 0xFFFFFFFFFFFFFFFFFFFFFFFFFFFFFFFFFFFFFFFF AND EQ PUSH2 0x4186 JUMPI DUP3 PUSH1 0x0 PUSH2 0x418A JUMP JUMPDEST PUSH1 0x0 DUP4 JUMPDEST SWAP2 POP SWAP2 POP PUSH1 0x0 PUSH1 0x2 DUP11 MLOAD PUSH2 0x419E SWAP2 SWAP1 PUSH2 0x5C2C JUMP JUMPDEST DUP9 LT PUSH2 0x41AA JUMPI DUP9 PUSH2 0x41FC JUMP JUMPDEST PUSH2 0x41FB PUSH32 0x0 DUP8 DUP13 PUSH1 0x2 DUP13 PUSH2 0x41DD SWAP2 SWAP1 PUSH2 0x6532 JUMP JUMPDEST DUP2 MLOAD DUP2 LT PUSH2 0x41EE JUMPI PUSH2 0x41ED PUSH2 0x5C60 JUMP JUMPDEST JUMPDEST PUSH1 0x20 MUL PUSH1 0x20 ADD ADD MLOAD PUSH2 0x3EDE JUMP JUMPDEST JUMPDEST SWAP1 POP PUSH2 0x4229 PUSH32 0x0 DUP9 DUP9 PUSH2 0x3EDE JUMP JUMPDEST PUSH20 0xFFFFFFFFFFFFFFFFFFFFFFFFFFFFFFFFFFFFFFFF AND PUSH4 0x22C0D9F DUP5 DUP5 DUP5 PUSH1 0x0 PUSH8 0xFFFFFFFFFFFFFFFF DUP2 GT ISZERO PUSH2 0x4262 JUMPI PUSH2 0x4261 PUSH2 0x552B JUMP JUMPDEST JUMPDEST PUSH1 0x40 MLOAD SWAP1 DUP1 DUP3 MSTORE DUP1 PUSH1 0x1F ADD PUSH1 0x1F NOT AND PUSH1 0x20 ADD DUP3 ADD PUSH1 0x40 MSTORE DUP1 ISZERO PUSH2 0x4294 JUMPI DUP2 PUSH1 0x20 ADD PUSH1 0x1 DUP3 MUL DUP1 CALLDATASIZE DUP4 CALLDATACOPY DUP1 DUP3 ADD SWAP2 POP POP SWAP1 POP JUMPDEST POP PUSH1 0x40 MLOAD DUP6 PUSH4 0xFFFFFFFF AND PUSH1 0xE0 SHL DUP2 MSTORE PUSH1 0x4 ADD PUSH2 0x42B4 SWAP5 SWAP4 SWAP3 SWAP2 SWAP1 PUSH2 0x6718 JUMP JUMPDEST PUSH1 0x0 PUSH1 0x40 MLOAD DUP1 DUP4 SUB DUP2 PUSH1 0x0 DUP8 DUP1 EXTCODESIZE ISZERO DUP1 ISZERO PUSH2 0x42CE JUMPI PUSH1 0x0 DUP1 REVERT JUMPDEST POP GAS CALL ISZERO DUP1 ISZERO PUSH2 0x42E2 JUMPI RETURNDATASIZE PUSH1 0x0 DUP1 RETURNDATACOPY RETURNDATASIZE PUSH1 0x0 REVERT JUMPDEST POP POP POP POP POP POP POP POP POP POP POP DUP1 DUP1 PUSH2 0x42F8 SWAP1 PUSH2 0x6588 JUMP JUMPDEST SWAP2 POP POP PUSH2 0x40B0 JUMP JUMPDEST POP POP POP POP JUMP JUMPDEST PUSH1 0x60 PUSH1 0x2 DUP3 MLOAD LT ISZERO PUSH2 0x434D JUMPI PUSH1 0x40 MLOAD PUSH32 0x8C379A000000000000000000000000000000000000000000000000000000000 DUP2 MSTORE PUSH1 0x4 ADD PUSH2 0x4344 SWAP1 PUSH2 0x6512 JUMP JUMPDEST PUSH1 0x40 MLOAD DUP1 SWAP2 SUB SWAP1 REVERT JUMPDEST DUP2 MLOAD PUSH8 0xFFFFFFFFFFFFFFFF DUP2 GT ISZERO PUSH2 0x4368 JUMPI PUSH2 0x4367 PUSH2 0x552B JUMP JUMPDEST JUMPDEST PUSH1 0x40 MLOAD SWAP1 DUP1 DUP3 MSTORE DUP1 PUSH1 0x20 MUL PUSH1 0x20 ADD DUP3 ADD PUSH1 0x40 MSTORE DUP1 ISZERO PUSH2 0x4396 JUMPI DUP2 PUSH1 0x20 ADD PUSH1 0x20 DUP3 MUL DUP1 CALLDATASIZE DUP4 CALLDATACOPY DUP1 DUP3 ADD SWAP2 POP POP SWAP1 POP JUMPDEST POP SWAP1 POP DUP3 DUP2 PUSH1 0x1 DUP4 MLOAD PUSH2 0x43A9 SWAP2 SWAP1 PUSH2 0x5C2C JUMP JUMPDEST DUP2 MLOAD DUP2 LT PUSH2 0x43BA JUMPI PUSH2 0x43B9 PUSH2 0x5C60 JUMP JUMPDEST JUMPDEST PUSH1 0x20 MUL PUSH1 0x20 ADD ADD DUP2 DUP2 MSTORE POP POP PUSH1 0x0 PUSH1 0x1 DUP4 MLOAD PUSH2 0x43D6 SWAP2 SWAP1 PUSH2 0x5C2C JUMP JUMPDEST SWAP1 POP JUMPDEST PUSH1 0x0 DUP2 GT ISZERO PUSH2 0x4499 JUMPI PUSH1 0x0 DUP1 PUSH2 0x4430 DUP8 DUP7 PUSH1 0x1 DUP7 PUSH2 0x43F7 SWAP2 SWAP1 PUSH2 0x5C2C JUMP JUMPDEST DUP2 MLOAD DUP2 LT PUSH2 0x4408 JUMPI PUSH2 0x4407 PUSH2 0x5C60 JUMP JUMPDEST JUMPDEST PUSH1 0x20 MUL PUSH1 0x20 ADD ADD MLOAD DUP8 DUP7 DUP2 MLOAD DUP2 LT PUSH2 0x4423 JUMPI PUSH2 0x4422 PUSH2 0x5C60 JUMP JUMPDEST JUMPDEST PUSH1 0x20 MUL PUSH1 0x20 ADD ADD MLOAD PUSH2 0x4FF0 JUMP JUMPDEST SWAP2 POP SWAP2 POP PUSH2 0x4459 DUP5 DUP5 DUP2 MLOAD DUP2 LT PUSH2 0x444A JUMPI PUSH2 0x4449 PUSH2 0x5C60 JUMP JUMPDEST JUMPDEST PUSH1 0x20 MUL PUSH1 0x20 ADD ADD MLOAD DUP4 DUP4 PUSH2 0x4962 JUMP JUMPDEST DUP5 PUSH1 0x1 DUP6 PUSH2 0x4467 SWAP2 SWAP1 PUSH2 0x5C2C JUMP JUMPDEST DUP2 MLOAD DUP2 LT PUSH2 0x4478 JUMPI PUSH2 0x4477 PUSH2 0x5C60 JUMP JUMPDEST JUMPDEST PUSH1 0x20 MUL PUSH1 0x20 ADD ADD DUP2 DUP2 MSTORE POP POP POP POP DUP1 DUP1 PUSH2 0x4491 SWAP1 PUSH2 0x6764 JUMP JUMPDEST SWAP2 POP POP PUSH2 0x43D9 JUMP JUMPDEST POP SWAP4 SWAP3 POP POP POP JUMP JUMPDEST PUSH2 0x4537 DUP2 PUSH1 0x40 MLOAD PUSH1 0x24 ADD PUSH2 0x44B5 SWAP2 SWAP1 PUSH2 0x67D2 JUMP JUMPDEST PUSH1 0x40 MLOAD PUSH1 0x20 DUP2 DUP4 SUB SUB DUP2 MSTORE SWAP1 PUSH1 0x40 MSTORE PUSH32 0x41304FAC00000000000000000000000000000000000000000000000000000000 PUSH28 0xFFFFFFFFFFFFFFFFFFFFFFFFFFFFFFFFFFFFFFFFFFFFFFFFFFFFFFFF NOT AND PUSH1 0x20 DUP3 ADD DUP1 MLOAD PUSH28 0xFFFFFFFFFFFFFFFFFFFFFFFFFFFFFFFFFFFFFFFFFFFFFFFFFFFFFFFF DUP4 DUP2 DUP4 AND OR DUP4 MSTORE POP POP POP POP PUSH2 0x5108 JUMP JUMPDEST POP JUMP JUMPDEST PUSH1 0x0 JUMPDEST PUSH1 0x1 DUP4 MLOAD PUSH2 0x454B SWAP2 SWAP1 PUSH2 0x5C2C JUMP JUMPDEST DUP2 LT ISZERO PUSH2 0x4904 JUMPI PUSH1 0x0 DUP1 DUP5 DUP4 DUP2 MLOAD DUP2 LT PUSH2 0x4568 JUMPI PUSH2 0x4567 PUSH2 0x5C60 JUMP JUMPDEST JUMPDEST PUSH1 0x20 MUL PUSH1 0x20 ADD ADD MLOAD DUP6 PUSH1 0x1 DUP6 PUSH2 0x457E SWAP2 SWAP1 PUSH2 0x6532 JUMP JUMPDEST DUP2 MLOAD DUP2 LT PUSH2 0x458F JUMPI PUSH2 0x458E PUSH2 0x5C60 JUMP JUMPDEST JUMPDEST PUSH1 0x20 MUL PUSH1 0x20 ADD ADD MLOAD SWAP2 POP SWAP2 POP PUSH1 0x0 PUSH2 0x45A7 DUP4 DUP4 PUSH2 0x4B2F JUMP JUMPDEST POP SWAP1 POP PUSH1 0x0 PUSH2 0x45D7 PUSH32 0x0 DUP6 DUP6 PUSH2 0x3EDE JUMP JUMPDEST SWAP1 POP PUSH1 0x0 DUP1 PUSH1 0x0 DUP1 DUP5 PUSH20 0xFFFFFFFFFFFFFFFFFFFFFFFFFFFFFFFFFFFFFFFF AND PUSH4 0x902F1AC PUSH1 0x40 MLOAD DUP2 PUSH4 0xFFFFFFFF AND PUSH1 0xE0 SHL DUP2 MSTORE PUSH1 0x4 ADD PUSH1 0x60 PUSH1 0x40 MLOAD DUP1 DUP4 SUB DUP2 DUP7 DUP1 EXTCODESIZE ISZERO DUP1 ISZERO PUSH2 0x4625 JUMPI PUSH1 0x0 DUP1 REVERT JUMPDEST POP GAS STATICCALL ISZERO DUP1 ISZERO PUSH2 0x4639 JUMPI RETURNDATASIZE PUSH1 0x0 DUP1 RETURNDATACOPY RETURNDATASIZE PUSH1 0x0 REVERT JUMPDEST POP POP POP POP PUSH1 0x40 MLOAD RETURNDATASIZE PUSH1 0x1F NOT PUSH1 0x1F DUP3 ADD AND DUP3 ADD DUP1 PUSH1 0x40 MSTORE POP DUP2 ADD SWAP1 PUSH2 0x465D SWAP2 SWAP1 PUSH2 0x6876 JUMP JUMPDEST POP PUSH14 0xFFFFFFFFFFFFFFFFFFFFFFFFFFFF AND SWAP2 POP PUSH14 0xFFFFFFFFFFFFFFFFFFFFFFFFFFFF AND SWAP2 POP PUSH1 0x0 DUP1 DUP8 PUSH20 0xFFFFFFFFFFFFFFFFFFFFFFFFFFFFFFFFFFFFFFFF AND DUP11 PUSH20 0xFFFFFFFFFFFFFFFFFFFFFFFFFFFFFFFFFFFFFFFF AND EQ PUSH2 0x46BF JUMPI DUP3 DUP5 PUSH2 0x46C2 JUMP JUMPDEST DUP4 DUP4 JUMPDEST SWAP2 POP SWAP2 POP PUSH2 0x4761 DUP3 DUP12 PUSH20 0xFFFFFFFFFFFFFFFFFFFFFFFFFFFFFFFFFFFFFFFF AND PUSH4 0x70A08231 DUP11 PUSH1 0x40 MLOAD DUP3 PUSH4 0xFFFFFFFF AND PUSH1 0xE0 SHL DUP2 MSTORE PUSH1 0x4 ADD PUSH2 0x4703 SWAP2 SWAP1 PUSH2 0x59D6 JUMP JUMPDEST PUSH1 0x20 PUSH1 0x40 MLOAD DUP1 DUP4 SUB DUP2 DUP7 DUP1 EXTCODESIZE ISZERO DUP1 ISZERO PUSH2 0x471B JUMPI PUSH1 0x0 DUP1 REVERT JUMPDEST POP GAS STATICCALL ISZERO DUP1 ISZERO PUSH2 0x472F JUMPI RETURNDATASIZE PUSH1 0x0 DUP1 RETURNDATACOPY RETURNDATASIZE PUSH1 0x0 REVERT JUMPDEST POP POP POP POP PUSH1 0x40 MLOAD RETURNDATASIZE PUSH1 0x1F NOT PUSH1 0x1F DUP3 ADD AND DUP3 ADD DUP1 PUSH1 0x40 MSTORE POP DUP2 ADD SWAP1 PUSH2 0x4753 SWAP2 SWAP1 PUSH2 0x5E5C JUMP JUMPDEST PUSH2 0x4909 SWAP1 SWAP2 SWAP1 PUSH4 0xFFFFFFFF AND JUMP JUMPDEST SWAP6 POP PUSH2 0x476E DUP7 DUP4 DUP4 PUSH2 0x3C4D JUMP JUMPDEST SWAP5 POP POP POP POP POP PUSH1 0x0 DUP1 DUP6 PUSH20 0xFFFFFFFFFFFFFFFFFFFFFFFFFFFFFFFFFFFFFFFF AND DUP9 PUSH20 0xFFFFFFFFFFFFFFFFFFFFFFFFFFFFFFFFFFFFFFFF AND EQ PUSH2 0x47B2 JUMPI DUP3 PUSH1 0x0 PUSH2 0x47B6 JUMP JUMPDEST PUSH1 0x0 DUP4 JUMPDEST SWAP2 POP SWAP2 POP PUSH1 0x0 PUSH1 0x2 DUP13 MLOAD PUSH2 0x47CA SWAP2 SWAP1 PUSH2 0x5C2C JUMP JUMPDEST DUP11 LT PUSH2 0x47D6 JUMPI DUP11 PUSH2 0x4828 JUMP JUMPDEST PUSH2 0x4827 PUSH32 0x0 DUP10 DUP15 PUSH1 0x2 DUP15 PUSH2 0x4809 SWAP2 SWAP1 PUSH2 0x6532 JUMP JUMPDEST DUP2 MLOAD DUP2 LT PUSH2 0x481A JUMPI PUSH2 0x4819 PUSH2 0x5C60 JUMP JUMPDEST JUMPDEST PUSH1 0x20 MUL PUSH1 0x20 ADD ADD MLOAD PUSH2 0x3EDE JUMP JUMPDEST JUMPDEST SWAP1 POP DUP6 PUSH20 0xFFFFFFFFFFFFFFFFFFFFFFFFFFFFFFFFFFFFFFFF AND PUSH4 0x22C0D9F DUP5 DUP5 DUP5 PUSH1 0x0 PUSH8 0xFFFFFFFFFFFFFFFF DUP2 GT ISZERO PUSH2 0x4864 JUMPI PUSH2 0x4863 PUSH2 0x552B JUMP JUMPDEST JUMPDEST PUSH1 0x40 MLOAD SWAP1 DUP1 DUP3 MSTORE DUP1 PUSH1 0x1F ADD PUSH1 0x1F NOT AND PUSH1 0x20 ADD DUP3 ADD PUSH1 0x40 MSTORE DUP1 ISZERO PUSH2 0x4896 JUMPI DUP2 PUSH1 0x20 ADD PUSH1 0x1 DUP3 MUL DUP1 CALLDATASIZE DUP4 CALLDATACOPY DUP1 DUP3 ADD SWAP2 POP POP SWAP1 POP JUMPDEST POP PUSH1 0x40 MLOAD DUP6 PUSH4 0xFFFFFFFF AND PUSH1 0xE0 SHL DUP2 MSTORE PUSH1 0x4 ADD PUSH2 0x48B6 SWAP5 SWAP4 SWAP3 SWAP2 SWAP1 PUSH2 0x6718 JUMP JUMPDEST PUSH1 0x0 PUSH1 0x40 MLOAD DUP1 DUP4 SUB DUP2 PUSH1 0x0 DUP8 DUP1 EXTCODESIZE ISZERO DUP1 ISZERO PUSH2 0x48D0 JUMPI PUSH1 0x0 DUP1 REVERT JUMPDEST POP GAS CALL ISZERO DUP1 ISZERO PUSH2 0x48E4 JUMPI RETURNDATASIZE PUSH1 0x0 DUP1 RETURNDATACOPY RETURNDATASIZE PUSH1 0x0 REVERT JUMPDEST POP POP POP POP POP POP POP POP POP POP POP POP POP DUP1 DUP1 PUSH2 0x48FC SWAP1 PUSH2 0x6588 JUMP JUMPDEST SWAP2 POP POP PUSH2 0x453D JUMP JUMPDEST POP POP POP JUMP JUMPDEST PUSH1 0x0 DUP3 DUP3 DUP5 PUSH2 0x4918 SWAP2 SWAP1 PUSH2 0x5C2C JUMP JUMPDEST SWAP2 POP DUP2 GT ISZERO PUSH2 0x495C JUMPI PUSH1 0x40 MLOAD PUSH32 0x8C379A000000000000000000000000000000000000000000000000000000000 DUP2 MSTORE PUSH1 0x4 ADD PUSH2 0x4953 SWAP1 PUSH2 0x6915 JUMP JUMPDEST PUSH1 0x40 MLOAD DUP1 SWAP2 SUB SWAP1 REVERT JUMPDEST SWAP3 SWAP2 POP POP JUMP JUMPDEST PUSH1 0x0 DUP1 DUP5 GT PUSH2 0x49A6 JUMPI PUSH1 0x40 MLOAD PUSH32 0x8C379A000000000000000000000000000000000000000000000000000000000 DUP2 MSTORE PUSH1 0x4 ADD PUSH2 0x499D SWAP1 PUSH2 0x69A7 JUMP JUMPDEST PUSH1 0x40 MLOAD DUP1 SWAP2 SUB SWAP1 REVERT JUMPDEST PUSH1 0x0 DUP4 GT DUP1 ISZERO PUSH2 0x49B6 JUMPI POP PUSH1 0x0 DUP3 GT JUMPDEST PUSH2 0x49F5 JUMPI PUSH1 0x40 MLOAD PUSH32 0x8C379A000000000000000000000000000000000000000000000000000000000 DUP2 MSTORE PUSH1 0x4 ADD PUSH2 0x49EC SWAP1 PUSH2 0x6446 JUMP JUMPDEST PUSH1 0x40 MLOAD DUP1 SWAP2 SUB SWAP1 REVERT JUMPDEST PUSH1 0x0 PUSH2 0x4A1E PUSH2 0x3E8 PUSH2 0x4A10 DUP8 DUP8 PUSH2 0x4F2A SWAP1 SWAP2 SWAP1 PUSH4 0xFFFFFFFF AND JUMP JUMPDEST PUSH2 0x4F2A SWAP1 SWAP2 SWAP1 PUSH4 0xFFFFFFFF AND JUMP JUMPDEST SWAP1 POP PUSH1 0x0 PUSH2 0x4A49 PUSH2 0x3E5 PUSH2 0x4A3B DUP9 DUP8 PUSH2 0x4909 SWAP1 SWAP2 SWAP1 PUSH4 0xFFFFFFFF AND JUMP JUMPDEST PUSH2 0x4F2A SWAP1 SWAP2 SWAP1 PUSH4 0xFFFFFFFF AND JUMP JUMPDEST SWAP1 POP PUSH2 0x4A6A PUSH1 0x1 DUP3 DUP5 PUSH2 0x4A5C SWAP2 SWAP1 PUSH2 0x6495 JUMP JUMPDEST PUSH2 0x4F97 SWAP1 SWAP2 SWAP1 PUSH4 0xFFFFFFFF AND JUMP JUMPDEST SWAP3 POP POP POP SWAP4 SWAP3 POP POP POP JUMP JUMPDEST PUSH1 0x0 DUP1 DUP5 GT PUSH2 0x4AB9 JUMPI PUSH1 0x40 MLOAD PUSH32 0x8C379A000000000000000000000000000000000000000000000000000000000 DUP2 MSTORE PUSH1 0x4 ADD PUSH2 0x4AB0 SWAP1 PUSH2 0x6A39 JUMP JUMPDEST PUSH1 0x40 MLOAD DUP1 SWAP2 SUB SWAP1 REVERT JUMPDEST PUSH1 0x0 DUP4 GT DUP1 ISZERO PUSH2 0x4AC9 JUMPI POP PUSH1 0x0 DUP3 GT JUMPDEST PUSH2 0x4B08 JUMPI PUSH1 0x40 MLOAD PUSH32 0x8C379A000000000000000000000000000000000000000000000000000000000 DUP2 MSTORE PUSH1 0x4 ADD PUSH2 0x4AFF SWAP1 PUSH2 0x6446 JUMP JUMPDEST PUSH1 0x40 MLOAD DUP1 SWAP2 SUB SWAP1 REVERT JUMPDEST DUP3 PUSH2 0x4B1C DUP4 DUP7 PUSH2 0x4F2A SWAP1 SWAP2 SWAP1 PUSH4 0xFFFFFFFF AND JUMP JUMPDEST PUSH2 0x4B26 SWAP2 SWAP1 PUSH2 0x6495 JUMP JUMPDEST SWAP1 POP SWAP4 SWAP3 POP POP POP JUMP JUMPDEST PUSH1 0x0 DUP1 DUP3 PUSH20 0xFFFFFFFFFFFFFFFFFFFFFFFFFFFFFFFFFFFFFFFF AND DUP5 PUSH20 0xFFFFFFFFFFFFFFFFFFFFFFFFFFFFFFFFFFFFFFFF AND EQ ISZERO PUSH2 0x4BA1 JUMPI PUSH1 0x40 MLOAD PUSH32 0x8C379A000000000000000000000000000000000000000000000000000000000 DUP2 MSTORE PUSH1 0x4 ADD PUSH2 0x4B98 SWAP1 PUSH2 0x6ACB JUMP JUMPDEST PUSH1 0x40 MLOAD DUP1 SWAP2 SUB SWAP1 REVERT JUMPDEST DUP3 PUSH20 0xFFFFFFFFFFFFFFFFFFFFFFFFFFFFFFFFFFFFFFFF AND DUP5 PUSH20 0xFFFFFFFFFFFFFFFFFFFFFFFFFFFFFFFFFFFFFFFF AND LT PUSH2 0x4BDB JUMPI DUP3 DUP5 PUSH2 0x4BDE JUMP JUMPDEST DUP4 DUP4 JUMPDEST DUP1 SWAP3 POP DUP2 SWAP4 POP POP POP PUSH1 0x0 PUSH20 0xFFFFFFFFFFFFFFFFFFFFFFFFFFFFFFFFFFFFFFFF AND DUP3 PUSH20 0xFFFFFFFFFFFFFFFFFFFFFFFFFFFFFFFFFFFFFFFF AND EQ ISZERO PUSH2 0x4C56 JUMPI PUSH1 0x40 MLOAD PUSH32 0x8C379A000000000000000000000000000000000000000000000000000000000 DUP2 MSTORE PUSH1 0x4 ADD PUSH2 0x4C4D SWAP1 PUSH2 0x6B37 JUMP JUMPDEST PUSH1 0x40 MLOAD DUP1 SWAP2 SUB SWAP1 REVERT JUMPDEST SWAP3 POP SWAP3 SWAP1 POP JUMP JUMPDEST PUSH1 0x0 DUP1 PUSH1 0x0 PUSH20 0xFFFFFFFFFFFFFFFFFFFFFFFFFFFFFFFFFFFFFFFF AND PUSH32 0x0 PUSH20 0xFFFFFFFFFFFFFFFFFFFFFFFFFFFFFFFFFFFFFFFF AND PUSH4 0xE6A43905 DUP11 DUP11 PUSH1 0x40 MLOAD DUP4 PUSH4 0xFFFFFFFF AND PUSH1 0xE0 SHL DUP2 MSTORE PUSH1 0x4 ADD PUSH2 0x4CD3 SWAP3 SWAP2 SWAP1 PUSH2 0x65D1 JUMP JUMPDEST PUSH1 0x20 PUSH1 0x40 MLOAD DUP1 DUP4 SUB DUP2 DUP7 DUP1 EXTCODESIZE ISZERO DUP1 ISZERO PUSH2 0x4CEB JUMPI PUSH1 0x0 DUP1 REVERT JUMPDEST POP GAS STATICCALL ISZERO DUP1 ISZERO PUSH2 0x4CFF JUMPI RETURNDATASIZE PUSH1 0x0 DUP1 RETURNDATACOPY RETURNDATASIZE PUSH1 0x0 REVERT JUMPDEST POP POP POP POP PUSH1 0x40 MLOAD RETURNDATASIZE PUSH1 0x1F NOT PUSH1 0x1F DUP3 ADD AND DUP3 ADD DUP1 PUSH1 0x40 MSTORE POP DUP2 ADD SWAP1 PUSH2 0x4D23 SWAP2 SWAP1 PUSH2 0x660F JUMP JUMPDEST PUSH20 0xFFFFFFFFFFFFFFFFFFFFFFFFFFFFFFFFFFFFFFFF AND EQ ISZERO PUSH2 0x4DEE JUMPI PUSH32 0x0 PUSH20 0xFFFFFFFFFFFFFFFFFFFFFFFFFFFFFFFFFFFFFFFF AND PUSH4 0xC9C65396 DUP10 DUP10 PUSH1 0x40 MLOAD DUP4 PUSH4 0xFFFFFFFF AND PUSH1 0xE0 SHL DUP2 MSTORE PUSH1 0x4 ADD PUSH2 0x4D9A SWAP3 SWAP2 SWAP1 PUSH2 0x65D1 JUMP JUMPDEST PUSH1 0x20 PUSH1 0x40 MLOAD DUP1 DUP4 SUB DUP2 PUSH1 0x0 DUP8 DUP1 EXTCODESIZE ISZERO DUP1 ISZERO PUSH2 0x4DB4 JUMPI PUSH1 0x0 DUP1 REVERT JUMPDEST POP GAS CALL ISZERO DUP1 ISZERO PUSH2 0x4DC8 JUMPI RETURNDATASIZE PUSH1 0x0 DUP1 RETURNDATACOPY RETURNDATASIZE PUSH1 0x0 REVERT JUMPDEST POP POP POP POP PUSH1 0x40 MLOAD RETURNDATASIZE PUSH1 0x1F NOT PUSH1 0x1F DUP3 ADD AND DUP3 ADD DUP1 PUSH1 0x40 MSTORE POP DUP2 ADD SWAP1 PUSH2 0x4DEC SWAP2 SWAP1 PUSH2 0x660F JUMP JUMPDEST POP JUMPDEST PUSH1 0x0 DUP1 PUSH2 0x4E1C PUSH32 0x0 DUP12 DUP12 PUSH2 0x4FF0 JUMP JUMPDEST SWAP2 POP SWAP2 POP PUSH1 0x0 DUP3 EQ DUP1 ISZERO PUSH2 0x4E30 JUMPI POP PUSH1 0x0 DUP2 EQ JUMPDEST ISZERO PUSH2 0x4E44 JUMPI DUP8 DUP8 DUP1 SWAP5 POP DUP2 SWAP6 POP POP POP PUSH2 0x4F1D JUMP JUMPDEST PUSH1 0x0 PUSH2 0x4E51 DUP10 DUP5 DUP5 PUSH2 0x4A75 JUMP JUMPDEST SWAP1 POP DUP8 DUP2 GT PUSH2 0x4EAC JUMPI DUP6 DUP2 LT ISZERO PUSH2 0x4E9D JUMPI PUSH1 0x40 MLOAD PUSH32 0x8C379A000000000000000000000000000000000000000000000000000000000 DUP2 MSTORE PUSH1 0x4 ADD PUSH2 0x4E94 SWAP1 PUSH2 0x616D JUMP JUMPDEST PUSH1 0x40 MLOAD DUP1 SWAP2 SUB SWAP1 REVERT JUMPDEST DUP9 DUP2 DUP1 SWAP6 POP DUP2 SWAP7 POP POP POP PUSH2 0x4F1B JUMP JUMPDEST PUSH1 0x0 PUSH2 0x4EB9 DUP10 DUP5 DUP7 PUSH2 0x4A75 JUMP JUMPDEST SWAP1 POP DUP10 DUP2 GT ISZERO PUSH2 0x4ECC JUMPI PUSH2 0x4ECB PUSH2 0x5131 JUMP JUMPDEST JUMPDEST DUP8 DUP2 LT ISZERO PUSH2 0x4F0F JUMPI PUSH1 0x40 MLOAD PUSH32 0x8C379A000000000000000000000000000000000000000000000000000000000 DUP2 MSTORE PUSH1 0x4 ADD PUSH2 0x4F06 SWAP1 PUSH2 0x60DB JUMP JUMPDEST PUSH1 0x40 MLOAD DUP1 SWAP2 SUB SWAP1 REVERT JUMPDEST DUP1 DUP10 DUP1 SWAP7 POP DUP2 SWAP8 POP POP POP POP JUMPDEST POP JUMPDEST POP POP SWAP7 POP SWAP7 SWAP5 POP POP POP POP POP JUMP JUMPDEST PUSH1 0x0 DUP1 DUP3 EQ DUP1 PUSH2 0x4F52 JUMPI POP DUP3 DUP3 DUP4 DUP6 PUSH2 0x4F43 SWAP2 SWAP1 PUSH2 0x6B57 JUMP JUMPDEST SWAP3 POP DUP3 PUSH2 0x4F50 SWAP2 SWAP1 PUSH2 0x6495 JUMP JUMPDEST EQ JUMPDEST PUSH2 0x4F91 JUMPI PUSH1 0x40 MLOAD PUSH32 0x8C379A000000000000000000000000000000000000000000000000000000000 DUP2 MSTORE PUSH1 0x4 ADD PUSH2 0x4F88 SWAP1 PUSH2 0x6BFD JUMP JUMPDEST PUSH1 0x40 MLOAD DUP1 SWAP2 SUB SWAP1 REVERT JUMPDEST SWAP3 SWAP2 POP POP JUMP JUMPDEST PUSH1 0x0 DUP3 DUP3 DUP5 PUSH2 0x4FA6 SWAP2 SWAP1 PUSH2 0x6532 JUMP JUMPDEST SWAP2 POP DUP2 LT ISZERO PUSH2 0x4FEA JUMPI PUSH1 0x40 MLOAD PUSH32 0x8C379A000000000000000000000000000000000000000000000000000000000 DUP2 MSTORE PUSH1 0x4 ADD PUSH2 0x4FE1 SWAP1 PUSH2 0x6C69 JUMP JUMPDEST PUSH1 0x40 MLOAD DUP1 SWAP2 SUB SWAP1 REVERT JUMPDEST SWAP3 SWAP2 POP POP JUMP JUMPDEST PUSH1 0x0 DUP1 PUSH1 0x0 PUSH2 0x4FFF DUP6 DUP6 PUSH2 0x4B2F JUMP JUMPDEST POP SWAP1 POP PUSH1 0x0 PUSH2 0x500F DUP8 DUP8 DUP8 PUSH2 0x3EDE JUMP JUMPDEST SWAP1 POP PUSH1 0x0 DUP1 DUP3 PUSH20 0xFFFFFFFFFFFFFFFFFFFFFFFFFFFFFFFFFFFFFFFF AND PUSH4 0x902F1AC PUSH1 0x40 MLOAD DUP2 PUSH4 0xFFFFFFFF AND PUSH1 0xE0 SHL DUP2 MSTORE PUSH1 0x4 ADD PUSH1 0x60 PUSH1 0x40 MLOAD DUP1 DUP4 SUB DUP2 DUP7 DUP1 EXTCODESIZE ISZERO DUP1 ISZERO PUSH2 0x505A JUMPI PUSH1 0x0 DUP1 REVERT JUMPDEST POP GAS STATICCALL ISZERO DUP1 ISZERO PUSH2 0x506E JUMPI RETURNDATASIZE PUSH1 0x0 DUP1 RETURNDATACOPY RETURNDATASIZE PUSH1 0x0 REVERT JUMPDEST POP POP POP POP PUSH1 0x40 MLOAD RETURNDATASIZE PUSH1 0x1F NOT PUSH1 0x1F DUP3 ADD AND DUP3 ADD DUP1 PUSH1 0x40 MSTORE POP DUP2 ADD SWAP1 PUSH2 0x5092 SWAP2 SWAP1 PUSH2 0x6876 JUMP JUMPDEST POP PUSH14 0xFFFFFFFFFFFFFFFFFFFFFFFFFFFF AND SWAP2 POP PUSH14 0xFFFFFFFFFFFFFFFFFFFFFFFFFFFF AND SWAP2 POP DUP4 PUSH20 0xFFFFFFFFFFFFFFFFFFFFFFFFFFFFFFFFFFFFFFFF AND DUP9 PUSH20 0xFFFFFFFFFFFFFFFFFFFFFFFFFFFFFFFFFFFFFFFF AND EQ PUSH2 0x50F1 JUMPI DUP1 DUP3 PUSH2 0x50F4 JUMP JUMPDEST DUP2 DUP2 JUMPDEST DUP1 SWAP7 POP DUP2 SWAP8 POP POP POP POP POP POP POP SWAP4 POP SWAP4 SWAP2 POP POP JUMP JUMPDEST PUSH1 0x0 DUP2 MLOAD SWAP1 POP PUSH1 0x0 PUSH11 0x636F6E736F6C652E6C6F67 SWAP1 POP PUSH1 0x20 DUP4 ADD PUSH1 0x0 DUP1 DUP5 DUP4 DUP6 GAS STATICCALL POP POP POP POP POP JUMP JUMPDEST PUSH32 0x4E487B7100000000000000000000000000000000000000000000000000000000 PUSH1 0x0 MSTORE PUSH1 0x1 PUSH1 0x4 MSTORE PUSH1 0x24 PUSH1 0x0 REVERT JUMPDEST PUSH1 0x0 PUSH1 0x40 MLOAD SWAP1 POP SWAP1 JUMP JUMPDEST PUSH1 0x0 DUP1 REVERT JUMPDEST PUSH1 0x0 DUP1 REVERT JUMPDEST PUSH1 0x0 PUSH20 0xFFFFFFFFFFFFFFFFFFFFFFFFFFFFFFFFFFFFFFFF DUP3 AND SWAP1 POP SWAP2 SWAP1 POP JUMP JUMPDEST PUSH1 0x0 PUSH2 0x519F DUP3 PUSH2 0x5174 JUMP JUMPDEST SWAP1 POP SWAP2 SWAP1 POP JUMP JUMPDEST PUSH2 0x51AF DUP2 PUSH2 0x5194 JUMP JUMPDEST DUP2 EQ PUSH2 0x51BA JUMPI PUSH1 0x0 DUP1 REVERT JUMPDEST POP JUMP JUMPDEST PUSH1 0x0 DUP2 CALLDATALOAD SWAP1 POP PUSH2 0x51CC DUP2 PUSH2 0x51A6 JUMP JUMPDEST SWAP3 SWAP2 POP POP JUMP JUMPDEST PUSH1 0x0 DUP2 SWAP1 POP SWAP2 SWAP1 POP JUMP JUMPDEST PUSH2 0x51E5 DUP2 PUSH2 0x51D2 JUMP JUMPDEST DUP2 EQ PUSH2 0x51F0 JUMPI PUSH1 0x0 DUP1 REVERT JUMPDEST POP JUMP JUMPDEST PUSH1 0x0 DUP2 CALLDATALOAD SWAP1 POP PUSH2 0x5202 DUP2 PUSH2 0x51DC JUMP JUMPDEST SWAP3 SWAP2 POP POP JUMP JUMPDEST PUSH1 0x0 DUP1 PUSH1 0x0 DUP1 PUSH1 0x0 DUP1 PUSH1 0xC0 DUP8 DUP10 SUB SLT ISZERO PUSH2 0x5225 JUMPI PUSH2 0x5224 PUSH2 0x516A JUMP JUMPDEST JUMPDEST PUSH1 0x0 PUSH2 0x5233 DUP10 DUP3 DUP11 ADD PUSH2 0x51BD JUMP JUMPDEST SWAP7 POP POP PUSH1 0x20 PUSH2 0x5244 DUP10 DUP3 DUP11 ADD PUSH2 0x51F3 JUMP JUMPDEST SWAP6 POP POP PUSH1 0x40 PUSH2 0x5255 DUP10 DUP3 DUP11 ADD PUSH2 0x51F3 JUMP JUMPDEST SWAP5 POP POP PUSH1 0x60 PUSH2 0x5266 DUP10 DUP3 DUP11 ADD PUSH2 0x51F3 JUMP JUMPDEST SWAP4 POP POP PUSH1 0x80 PUSH2 0x5277 DUP10 DUP3 DUP11 ADD PUSH2 0x51BD JUMP JUMPDEST SWAP3 POP POP PUSH1 0xA0 PUSH2 0x5288 DUP10 DUP3 DUP11 ADD PUSH2 0x51F3 JUMP JUMPDEST SWAP2 POP POP SWAP3 SWAP6 POP SWAP3 SWAP6 POP SWAP3 SWAP6 JUMP JUMPDEST PUSH2 0x529E DUP2 PUSH2 0x51D2 JUMP JUMPDEST DUP3 MSTORE POP POP JUMP JUMPDEST PUSH1 0x0 PUSH1 0x40 DUP3 ADD SWAP1 POP PUSH2 0x52B9 PUSH1 0x0 DUP4 ADD DUP6 PUSH2 0x5295 JUMP JUMPDEST PUSH2 0x52C6 PUSH1 0x20 DUP4 ADD DUP5 PUSH2 0x5295 JUMP JUMPDEST SWAP4 SWAP3 POP POP POP JUMP JUMPDEST PUSH1 0x0 DUP1 PUSH1 0x0 PUSH1 0x60 DUP5 DUP7 SUB SLT ISZERO PUSH2 0x52E6 JUMPI PUSH2 0x52E5 PUSH2 0x516A JUMP JUMPDEST JUMPDEST PUSH1 0x0 PUSH2 0x52F4 DUP7 DUP3 DUP8 ADD PUSH2 0x51F3 JUMP JUMPDEST SWAP4 POP POP PUSH1 0x20 PUSH2 0x5305 DUP7 DUP3 DUP8 ADD PUSH2 0x51F3 JUMP JUMPDEST SWAP3 POP POP PUSH1 0x40 PUSH2 0x5316 DUP7 DUP3 DUP8 ADD PUSH2 0x51F3 JUMP JUMPDEST SWAP2 POP POP SWAP3 POP SWAP3 POP SWAP3 JUMP JUMPDEST PUSH1 0x0 PUSH1 0x20 DUP3 ADD SWAP1 POP PUSH2 0x5335 PUSH1 0x0 DUP4 ADD DUP5 PUSH2 0x5295 JUMP JUMPDEST SWAP3 SWAP2 POP POP JUMP JUMPDEST PUSH1 0x0 DUP1 REVERT JUMPDEST PUSH1 0x0 DUP1 REVERT JUMPDEST PUSH1 0x0 DUP1 REVERT JUMPDEST PUSH1 0x0 DUP1 DUP4 PUSH1 0x1F DUP5 ADD SLT PUSH2 0x5360 JUMPI PUSH2 0x535F PUSH2 0x533B JUMP JUMPDEST JUMPDEST DUP3 CALLDATALOAD SWAP1 POP PUSH8 0xFFFFFFFFFFFFFFFF DUP2 GT ISZERO PUSH2 0x537D JUMPI PUSH2 0x537C PUSH2 0x5340 JUMP JUMPDEST JUMPDEST PUSH1 0x20 DUP4 ADD SWAP2 POP DUP4 PUSH1 0x20 DUP3 MUL DUP4 ADD GT ISZERO PUSH2 0x5399 JUMPI PUSH2 0x5398 PUSH2 0x5345 JUMP JUMPDEST JUMPDEST SWAP3 POP SWAP3 SWAP1 POP JUMP JUMPDEST PUSH1 0x0 DUP1 PUSH1 0x0 DUP1 PUSH1 0x0 DUP1 PUSH1 0xA0 DUP8 DUP10 SUB SLT ISZERO PUSH2 0x53BD JUMPI PUSH2 0x53BC PUSH2 0x516A JUMP JUMPDEST JUMPDEST PUSH1 0x0 PUSH2 0x53CB DUP10 DUP3 DUP11 ADD PUSH2 0x51F3 JUMP JUMPDEST SWAP7 POP POP PUSH1 0x20 PUSH2 0x53DC DUP10 DUP3 DUP11 ADD PUSH2 0x51F3 JUMP JUMPDEST SWAP6 POP POP PUSH1 0x40 DUP8 ADD CALLDATALOAD PUSH8 0xFFFFFFFFFFFFFFFF DUP2 GT ISZERO PUSH2 0x53FD JUMPI PUSH2 0x53FC PUSH2 0x516F JUMP JUMPDEST JUMPDEST PUSH2 0x5409 DUP10 DUP3 DUP11 ADD PUSH2 0x534A JUMP JUMPDEST SWAP5 POP SWAP5 POP POP PUSH1 0x60 PUSH2 0x541C DUP10 DUP3 DUP11 ADD PUSH2 0x51BD JUMP JUMPDEST SWAP3 POP POP PUSH1 0x80 PUSH2 0x542D DUP10 DUP3 DUP11 ADD PUSH2 0x51F3 JUMP JUMPDEST SWAP2 POP POP SWAP3 SWAP6 POP SWAP3 SWAP6 POP SWAP3 SWAP6 JUMP JUMPDEST PUSH1 0x0 DUP2 MLOAD SWAP1 POP SWAP2 SWAP1 POP JUMP JUMPDEST PUSH1 0x0 DUP3 DUP3 MSTORE PUSH1 0x20 DUP3 ADD SWAP1 POP SWAP3 SWAP2 POP POP JUMP JUMPDEST PUSH1 0x0 DUP2 SWAP1 POP PUSH1 0x20 DUP3 ADD SWAP1 POP SWAP2 SWAP1 POP JUMP JUMPDEST PUSH2 0x546F DUP2 PUSH2 0x51D2 JUMP JUMPDEST DUP3 MSTORE POP POP JUMP JUMPDEST PUSH1 0x0 PUSH2 0x5481 DUP4 DUP4 PUSH2 0x5466 JUMP JUMPDEST PUSH1 0x20 DUP4 ADD SWAP1 POP SWAP3 SWAP2 POP POP JUMP JUMPDEST PUSH1 0x0 PUSH1 0x20 DUP3 ADD SWAP1 POP SWAP2 SWAP1 POP JUMP JUMPDEST PUSH1 0x0 PUSH2 0x54A5 DUP3 PUSH2 0x543A JUMP JUMPDEST PUSH2 0x54AF DUP2 DUP6 PUSH2 0x5445 JUMP JUMPDEST SWAP4 POP PUSH2 0x54BA DUP4 PUSH2 0x5456 JUMP JUMPDEST DUP1 PUSH1 0x0 JUMPDEST DUP4 DUP2 LT ISZERO PUSH2 0x54EB JUMPI DUP2 MLOAD PUSH2 0x54D2 DUP9 DUP3 PUSH2 0x5475 JUMP JUMPDEST SWAP8 POP PUSH2 0x54DD DUP4 PUSH2 0x548D JUMP JUMPDEST SWAP3 POP POP PUSH1 0x1 DUP2 ADD SWAP1 POP PUSH2 0x54BE JUMP JUMPDEST POP DUP6 SWAP4 POP POP POP POP SWAP3 SWAP2 POP POP JUMP JUMPDEST PUSH1 0x0 PUSH1 0x20 DUP3 ADD SWAP1 POP DUP2 DUP2 SUB PUSH1 0x0 DUP4 ADD MSTORE PUSH2 0x5512 DUP2 DUP5 PUSH2 0x549A JUMP JUMPDEST SWAP1 POP SWAP3 SWAP2 POP POP JUMP JUMPDEST PUSH1 0x0 PUSH1 0x1F NOT PUSH1 0x1F DUP4 ADD AND SWAP1 POP SWAP2 SWAP1 POP JUMP JUMPDEST PUSH32 0x4E487B7100000000000000000000000000000000000000000000000000000000 PUSH1 0x0 MSTORE PUSH1 0x41 PUSH1 0x4 MSTORE PUSH1 0x24 PUSH1 0x0 REVERT JUMPDEST PUSH2 0x5563 DUP3 PUSH2 0x551A JUMP JUMPDEST DUP2 ADD DUP2 DUP2 LT PUSH8 0xFFFFFFFFFFFFFFFF DUP3 GT OR ISZERO PUSH2 0x5582 JUMPI PUSH2 0x5581 PUSH2 0x552B JUMP JUMPDEST JUMPDEST DUP1 PUSH1 0x40 MSTORE POP POP POP JUMP JUMPDEST PUSH1 0x0 PUSH2 0x5595 PUSH2 0x5160 JUMP JUMPDEST SWAP1 POP PUSH2 0x55A1 DUP3 DUP3 PUSH2 0x555A JUMP JUMPDEST SWAP2 SWAP1 POP JUMP JUMPDEST PUSH1 0x0 PUSH8 0xFFFFFFFFFFFFFFFF DUP3 GT ISZERO PUSH2 0x55C1 JUMPI PUSH2 0x55C0 PUSH2 0x552B JUMP JUMPDEST JUMPDEST PUSH1 0x20 DUP3 MUL SWAP1 POP PUSH1 0x20 DUP2 ADD SWAP1 POP SWAP2 SWAP1 POP JUMP JUMPDEST PUSH1 0x0 PUSH2 0x55E5 PUSH2 0x55E0 DUP5 PUSH2 0x55A6 JUMP JUMPDEST PUSH2 0x558B JUMP JUMPDEST SWAP1 POP DUP1 DUP4 DUP3 MSTORE PUSH1 0x20 DUP3 ADD SWAP1 POP PUSH1 0x20 DUP5 MUL DUP4 ADD DUP6 DUP2 GT ISZERO PUSH2 0x5608 JUMPI PUSH2 0x5607 PUSH2 0x5345 JUMP JUMPDEST JUMPDEST DUP4 JUMPDEST DUP2 DUP2 LT ISZERO PUSH2 0x5631 JUMPI DUP1 PUSH2 0x561D DUP9 DUP3 PUSH2 0x51BD JUMP JUMPDEST DUP5 MSTORE PUSH1 0x20 DUP5 ADD SWAP4 POP POP PUSH1 0x20 DUP2 ADD SWAP1 POP PUSH2 0x560A JUMP JUMPDEST POP POP POP SWAP4 SWAP3 POP POP POP JUMP JUMPDEST PUSH1 0x0 DUP3 PUSH1 0x1F DUP4 ADD SLT PUSH2 0x5650 JUMPI PUSH2 0x564F PUSH2 0x533B JUMP JUMPDEST JUMPDEST DUP2 CALLDATALOAD PUSH2 0x5660 DUP5 DUP3 PUSH1 0x20 DUP7 ADD PUSH2 0x55D2 JUMP JUMPDEST SWAP2 POP POP SWAP3 SWAP2 POP POP JUMP JUMPDEST PUSH1 0x0 DUP1 PUSH1 0x40 DUP4 DUP6 SUB SLT ISZERO PUSH2 0x5680 JUMPI PUSH2 0x567F PUSH2 0x516A JUMP JUMPDEST JUMPDEST PUSH1 0x0 PUSH2 0x568E DUP6 DUP3 DUP7 ADD PUSH2 0x51F3 JUMP JUMPDEST SWAP3 POP POP PUSH1 0x20 DUP4 ADD CALLDATALOAD PUSH8 0xFFFFFFFFFFFFFFFF DUP2 GT ISZERO PUSH2 0x56AF JUMPI PUSH2 0x56AE PUSH2 0x516F JUMP JUMPDEST JUMPDEST PUSH2 0x56BB DUP6 DUP3 DUP7 ADD PUSH2 0x563B JUMP JUMPDEST SWAP2 POP POP SWAP3 POP SWAP3 SWAP1 POP JUMP JUMPDEST PUSH1 0x0 DUP2 ISZERO ISZERO SWAP1 POP SWAP2 SWAP1 POP JUMP JUMPDEST PUSH2 0x56DA DUP2 PUSH2 0x56C5 JUMP JUMPDEST DUP2 EQ PUSH2 0x56E5 JUMPI PUSH1 0x0 DUP1 REVERT JUMPDEST POP JUMP JUMPDEST PUSH1 0x0 DUP2 CALLDATALOAD SWAP1 POP PUSH2 0x56F7 DUP2 PUSH2 0x56D1 JUMP JUMPDEST SWAP3 SWAP2 POP POP JUMP JUMPDEST PUSH1 0x0 PUSH1 0xFF DUP3 AND SWAP1 POP SWAP2 SWAP1 POP JUMP JUMPDEST PUSH2 0x5713 DUP2 PUSH2 0x56FD JUMP JUMPDEST DUP2 EQ PUSH2 0x571E JUMPI PUSH1 0x0 DUP1 REVERT JUMPDEST POP JUMP JUMPDEST PUSH1 0x0 DUP2 CALLDATALOAD SWAP1 POP PUSH2 0x5730 DUP2 PUSH2 0x570A JUMP JUMPDEST SWAP3 SWAP2 POP POP JUMP JUMPDEST PUSH1 0x0 DUP2 SWAP1 POP SWAP2 SWAP1 POP JUMP JUMPDEST PUSH2 0x5749 DUP2 PUSH2 0x5736 JUMP JUMPDEST DUP2 EQ PUSH2 0x5754 JUMPI PUSH1 0x0 DUP1 REVERT JUMPDEST POP JUMP JUMPDEST PUSH1 0x0 DUP2 CALLDATALOAD SWAP1 POP PUSH2 0x5766 DUP2 PUSH2 0x5740 JUMP JUMPDEST SWAP3 SWAP2 POP POP JUMP JUMPDEST PUSH1 0x0 DUP1 PUSH1 0x0 DUP1 PUSH1 0x0 DUP1 PUSH1 0x0 DUP1 PUSH1 0x0 DUP1 PUSH1 0x0 PUSH2 0x160 DUP13 DUP15 SUB SLT ISZERO PUSH2 0x5792 JUMPI PUSH2 0x5791 PUSH2 0x516A JUMP JUMPDEST JUMPDEST PUSH1 0x0 PUSH2 0x57A0 DUP15 DUP3 DUP16 ADD PUSH2 0x51BD JUMP JUMPDEST SWAP12 POP POP PUSH1 0x20 PUSH2 0x57B1 DUP15 DUP3 DUP16 ADD PUSH2 0x51BD JUMP JUMPDEST SWAP11 POP POP PUSH1 0x40 PUSH2 0x57C2 DUP15 DUP3 DUP16 ADD PUSH2 0x51F3 JUMP JUMPDEST SWAP10 POP POP PUSH1 0x60 PUSH2 0x57D3 DUP15 DUP3 DUP16 ADD PUSH2 0x51F3 JUMP JUMPDEST SWAP9 POP POP PUSH1 0x80 PUSH2 0x57E4 DUP15 DUP3 DUP16 ADD PUSH2 0x51F3 JUMP JUMPDEST SWAP8 POP POP PUSH1 0xA0 PUSH2 0x57F5 DUP15 DUP3 DUP16 ADD PUSH2 0x51BD JUMP JUMPDEST SWAP7 POP POP PUSH1 0xC0 PUSH2 0x5806 DUP15 DUP3 DUP16 ADD PUSH2 0x51F3 JUMP JUMPDEST SWAP6 POP POP PUSH1 0xE0 PUSH2 0x5817 DUP15 DUP3 DUP16 ADD PUSH2 0x56E8 JUMP JUMPDEST SWAP5 POP POP PUSH2 0x100 PUSH2 0x5829 DUP15 DUP3 DUP16 ADD PUSH2 0x5721 JUMP JUMPDEST SWAP4 POP POP PUSH2 0x120 PUSH2 0x583B DUP15 DUP3 DUP16 ADD PUSH2 0x5757 JUMP JUMPDEST SWAP3 POP POP PUSH2 0x140 PUSH2 0x584D DUP15 DUP3 DUP16 ADD PUSH2 0x5757 JUMP JUMPDEST SWAP2 POP POP SWAP3 SWAP6 SWAP9 SWAP12 POP SWAP3 SWAP6 SWAP9 SWAP12 SWAP1 SWAP4 SWAP7 SWAP10 POP JUMP JUMPDEST PUSH1 0x0 DUP1 PUSH1 0x0 DUP1 PUSH1 0x0 DUP1 PUSH1 0x0 DUP1 PUSH1 0x0 DUP1 PUSH2 0x140 DUP12 DUP14 SUB SLT ISZERO PUSH2 0x5884 JUMPI PUSH2 0x5883 PUSH2 0x516A JUMP JUMPDEST JUMPDEST PUSH1 0x0 PUSH2 0x5892 DUP14 DUP3 DUP15 ADD PUSH2 0x51BD JUMP JUMPDEST SWAP11 POP POP PUSH1 0x20 PUSH2 0x58A3 DUP14 DUP3 DUP15 ADD PUSH2 0x51F3 JUMP JUMPDEST SWAP10 POP POP PUSH1 0x40 PUSH2 0x58B4 DUP14 DUP3 DUP15 ADD PUSH2 0x51F3 JUMP JUMPDEST SWAP9 POP POP PUSH1 0x60 PUSH2 0x58C5 DUP14 DUP3 DUP15 ADD PUSH2 0x51F3 JUMP JUMPDEST SWAP8 POP POP PUSH1 0x80 PUSH2 0x58D6 DUP14 DUP3 DUP15 ADD PUSH2 0x51BD JUMP JUMPDEST SWAP7 POP POP PUSH1 0xA0 PUSH2 0x58E7 DUP14 DUP3 DUP15 ADD PUSH2 0x51F3 JUMP JUMPDEST SWAP6 POP POP PUSH1 0xC0 PUSH2 0x58F8 DUP14 DUP3 DUP15 ADD PUSH2 0x56E8 JUMP JUMPDEST SWAP5 POP POP PUSH1 0xE0 PUSH2 0x5909 DUP14 DUP3 DUP15 ADD PUSH2 0x5721 JUMP JUMPDEST SWAP4 POP POP PUSH2 0x100 PUSH2 0x591B DUP14 DUP3 DUP15 ADD PUSH2 0x5757 JUMP JUMPDEST SWAP3 POP POP PUSH2 0x120 PUSH2 0x592D DUP14 DUP3 DUP15 ADD PUSH2 0x5757 JUMP JUMPDEST SWAP2 POP POP SWAP3 SWAP6 SWAP9 SWAP12 SWAP2 SWAP5 SWAP8 SWAP11 POP SWAP3 SWAP6 SWAP9 POP JUMP JUMPDEST PUSH1 0x0 DUP1 PUSH1 0x0 DUP1 PUSH1 0x0 PUSH1 0x80 DUP7 DUP9 SUB SLT ISZERO PUSH2 0x595B JUMPI PUSH2 0x595A PUSH2 0x516A JUMP JUMPDEST JUMPDEST PUSH1 0x0 PUSH2 0x5969 DUP9 DUP3 DUP10 ADD PUSH2 0x51F3 JUMP JUMPDEST SWAP6 POP POP PUSH1 0x20 DUP7 ADD CALLDATALOAD PUSH8 0xFFFFFFFFFFFFFFFF DUP2 GT ISZERO PUSH2 0x598A JUMPI PUSH2 0x5989 PUSH2 0x516F JUMP JUMPDEST JUMPDEST PUSH2 0x5996 DUP9 DUP3 DUP10 ADD PUSH2 0x534A JUMP JUMPDEST SWAP5 POP SWAP5 POP POP PUSH1 0x40 PUSH2 0x59A9 DUP9 DUP3 DUP10 ADD PUSH2 0x51BD JUMP JUMPDEST SWAP3 POP POP PUSH1 0x60 PUSH2 0x59BA DUP9 DUP3 DUP10 ADD PUSH2 0x51F3 JUMP JUMPDEST SWAP2 POP POP SWAP3 SWAP6 POP SWAP3 SWAP6 SWAP1 SWAP4 POP JUMP JUMPDEST PUSH2 0x59D0 DUP2 PUSH2 0x5194 JUMP JUMPDEST DUP3 MSTORE POP POP JUMP JUMPDEST PUSH1 0x0 PUSH1 0x20 DUP3 ADD SWAP1 POP PUSH2 0x59EB PUSH1 0x0 DUP4 ADD DUP5 PUSH2 0x59C7 JUMP JUMPDEST SWAP3 SWAP2 POP POP JUMP JUMPDEST PUSH1 0x0 DUP1 PUSH1 0x0 DUP1 PUSH1 0x0 DUP1 PUSH1 0x0 PUSH1 0xE0 DUP9 DUP11 SUB SLT ISZERO PUSH2 0x5A10 JUMPI PUSH2 0x5A0F PUSH2 0x516A JUMP JUMPDEST JUMPDEST PUSH1 0x0 PUSH2 0x5A1E DUP11 DUP3 DUP12 ADD PUSH2 0x51BD JUMP JUMPDEST SWAP8 POP POP PUSH1 0x20 PUSH2 0x5A2F DUP11 DUP3 DUP12 ADD PUSH2 0x51BD JUMP JUMPDEST SWAP7 POP POP PUSH1 0x40 PUSH2 0x5A40 DUP11 DUP3 DUP12 ADD PUSH2 0x51F3 JUMP JUMPDEST SWAP6 POP POP PUSH1 0x60 PUSH2 0x5A51 DUP11 DUP3 DUP12 ADD PUSH2 0x51F3 JUMP JUMPDEST SWAP5 POP POP PUSH1 0x80 PUSH2 0x5A62 DUP11 DUP3 DUP12 ADD PUSH2 0x51F3 JUMP JUMPDEST SWAP4 POP POP PUSH1 0xA0 PUSH2 0x5A73 DUP11 DUP3 DUP12 ADD PUSH2 0x51BD JUMP JUMPDEST SWAP3 POP POP PUSH1 0xC0 PUSH2 0x5A84 DUP11 DUP3 DUP12 ADD PUSH2 0x51F3 JUMP JUMPDEST SWAP2 POP POP SWAP3 SWAP6 SWAP9 SWAP2 SWAP5 SWAP8 POP SWAP3 SWAP6 POP JUMP JUMPDEST PUSH1 0x0 DUP1 PUSH1 0x0 DUP1 PUSH1 0x0 DUP1 PUSH1 0x0 DUP1 PUSH2 0x100 DUP10 DUP12 SUB SLT ISZERO PUSH2 0x5AB4 JUMPI PUSH2 0x5AB3 PUSH2 0x516A JUMP JUMPDEST JUMPDEST PUSH1 0x0 PUSH2 0x5AC2 DUP12 DUP3 DUP13 ADD PUSH2 0x51BD JUMP JUMPDEST SWAP9 POP POP PUSH1 0x20 PUSH2 0x5AD3 DUP12 DUP3 DUP13 ADD PUSH2 0x51BD JUMP JUMPDEST SWAP8 POP POP PUSH1 0x40 PUSH2 0x5AE4 DUP12 DUP3 DUP13 ADD PUSH2 0x51F3 JUMP JUMPDEST SWAP7 POP POP PUSH1 0x60 PUSH2 0x5AF5 DUP12 DUP3 DUP13 ADD PUSH2 0x51F3 JUMP JUMPDEST SWAP6 POP POP PUSH1 0x80 PUSH2 0x5B06 DUP12 DUP3 DUP13 ADD PUSH2 0x51F3 JUMP JUMPDEST SWAP5 POP POP PUSH1 0xA0 PUSH2 0x5B17 DUP12 DUP3 DUP13 ADD PUSH2 0x51F3 JUMP JUMPDEST SWAP4 POP POP PUSH1 0xC0 PUSH2 0x5B28 DUP12 DUP3 DUP13 ADD PUSH2 0x51BD JUMP JUMPDEST SWAP3 POP POP PUSH1 0xE0 PUSH2 0x5B39 DUP12 DUP3 DUP13 ADD PUSH2 0x51F3 JUMP JUMPDEST SWAP2 POP POP SWAP3 SWAP6 SWAP9 POP SWAP3 SWAP6 SWAP9 SWAP1 SWAP4 SWAP7 POP JUMP JUMPDEST PUSH1 0x0 PUSH1 0x60 DUP3 ADD SWAP1 POP PUSH2 0x5B5E PUSH1 0x0 DUP4 ADD DUP7 PUSH2 0x5295 JUMP JUMPDEST PUSH2 0x5B6B PUSH1 0x20 DUP4 ADD DUP6 PUSH2 0x5295 JUMP JUMPDEST PUSH2 0x5B78 PUSH1 0x40 DUP4 ADD DUP5 PUSH2 0x5295 JUMP JUMPDEST SWAP5 SWAP4 POP POP POP POP JUMP JUMPDEST PUSH1 0x0 DUP3 DUP3 MSTORE PUSH1 0x20 DUP3 ADD SWAP1 POP SWAP3 SWAP2 POP POP JUMP JUMPDEST PUSH32 0x556E69737761705632526F757465723A20455850495245440000000000000000 PUSH1 0x0 DUP3 ADD MSTORE POP JUMP JUMPDEST PUSH1 0x0 PUSH2 0x5BC7 PUSH1 0x18 DUP4 PUSH2 0x5B80 JUMP JUMPDEST SWAP2 POP PUSH2 0x5BD2 DUP3 PUSH2 0x5B91 JUMP JUMPDEST PUSH1 0x20 DUP3 ADD SWAP1 POP SWAP2 SWAP1 POP JUMP JUMPDEST PUSH1 0x0 PUSH1 0x20 DUP3 ADD SWAP1 POP DUP2 DUP2 SUB PUSH1 0x0 DUP4 ADD MSTORE PUSH2 0x5BF6 DUP2 PUSH2 0x5BBA JUMP JUMPDEST SWAP1 POP SWAP2 SWAP1 POP JUMP JUMPDEST PUSH32 0x4E487B7100000000000000000000000000000000000000000000000000000000 PUSH1 0x0 MSTORE PUSH1 0x11 PUSH1 0x4 MSTORE PUSH1 0x24 PUSH1 0x0 REVERT JUMPDEST PUSH1 0x0 PUSH2 0x5C37 DUP3 PUSH2 0x51D2 JUMP JUMPDEST SWAP2 POP PUSH2 0x5C42 DUP4 PUSH2 0x51D2 JUMP JUMPDEST SWAP3 POP DUP3 DUP3 LT ISZERO PUSH2 0x5C55 JUMPI PUSH2 0x5C54 PUSH2 0x5BFD JUMP JUMPDEST JUMPDEST DUP3 DUP3 SUB SWAP1 POP SWAP3 SWAP2 POP POP JUMP JUMPDEST PUSH32 0x4E487B7100000000000000000000000000000000000000000000000000000000 PUSH1 0x0 MSTORE PUSH1 0x32 PUSH1 0x4 MSTORE PUSH1 0x24 PUSH1 0x0 REVERT JUMPDEST PUSH1 0x0 PUSH1 0x20 DUP3 DUP5 SUB SLT ISZERO PUSH2 0x5CA5 JUMPI PUSH2 0x5CA4 PUSH2 0x516A JUMP JUMPDEST JUMPDEST PUSH1 0x0 PUSH2 0x5CB3 DUP5 DUP3 DUP6 ADD PUSH2 0x51BD JUMP JUMPDEST SWAP2 POP POP SWAP3 SWAP2 POP POP JUMP JUMPDEST PUSH32 0x556E69737761705632526F757465723A20494E56414C49445F50415448000000 PUSH1 0x0 DUP3 ADD MSTORE POP JUMP JUMPDEST PUSH1 0x0 PUSH2 0x5CF2 PUSH1 0x1D DUP4 PUSH2 0x5B80 JUMP JUMPDEST SWAP2 POP PUSH2 0x5CFD DUP3 PUSH2 0x5CBC JUMP JUMPDEST PUSH1 0x20 DUP3 ADD SWAP1 POP SWAP2 SWAP1 POP JUMP JUMPDEST PUSH1 0x0 PUSH1 0x20 DUP3 ADD SWAP1 POP DUP2 DUP2 SUB PUSH1 0x0 DUP4 ADD MSTORE PUSH2 0x5D21 DUP2 PUSH2 0x5CE5 JUMP JUMPDEST SWAP1 POP SWAP2 SWAP1 POP JUMP JUMPDEST PUSH32 0x556E69737761705632526F757465723A20494E53554646494349454E545F4F55 PUSH1 0x0 DUP3 ADD MSTORE PUSH32 0x545055545F414D4F554E54000000000000000000000000000000000000000000 PUSH1 0x20 DUP3 ADD MSTORE POP JUMP JUMPDEST PUSH1 0x0 PUSH2 0x5D84 PUSH1 0x2B DUP4 PUSH2 0x5B80 JUMP JUMPDEST SWAP2 POP PUSH2 0x5D8F DUP3 PUSH2 0x5D28 JUMP JUMPDEST PUSH1 0x40 DUP3 ADD SWAP1 POP SWAP2 SWAP1 POP JUMP JUMPDEST PUSH1 0x0 PUSH1 0x20 DUP3 ADD SWAP1 POP DUP2 DUP2 SUB PUSH1 0x0 DUP4 ADD MSTORE PUSH2 0x5DB3 DUP2 PUSH2 0x5D77 JUMP JUMPDEST SWAP1 POP SWAP2 SWAP1 POP JUMP JUMPDEST PUSH2 0x5DC3 DUP2 PUSH2 0x56FD JUMP JUMPDEST DUP3 MSTORE POP POP JUMP JUMPDEST PUSH2 0x5DD2 DUP2 PUSH2 0x5736 JUMP JUMPDEST DUP3 MSTORE POP POP JUMP JUMPDEST PUSH1 0x0 PUSH1 0xE0 DUP3 ADD SWAP1 POP PUSH2 0x5DED PUSH1 0x0 DUP4 ADD DUP11 PUSH2 0x59C7 JUMP JUMPDEST PUSH2 0x5DFA PUSH1 0x20 DUP4 ADD DUP10 PUSH2 0x59C7 JUMP JUMPDEST PUSH2 0x5E07 PUSH1 0x40 DUP4 ADD DUP9 PUSH2 0x5295 JUMP JUMPDEST PUSH2 0x5E14 PUSH1 0x60 DUP4 ADD DUP8 PUSH2 0x5295 JUMP JUMPDEST PUSH2 0x5E21 PUSH1 0x80 DUP4 ADD DUP7 PUSH2 0x5DBA JUMP JUMPDEST PUSH2 0x5E2E PUSH1 0xA0 DUP4 ADD DUP6 PUSH2 0x5DC9 JUMP JUMPDEST PUSH2 0x5E3B PUSH1 0xC0 DUP4 ADD DUP5 PUSH2 0x5DC9 JUMP JUMPDEST SWAP9 SWAP8 POP POP POP POP POP POP POP POP JUMP JUMPDEST PUSH1 0x0 DUP2 MLOAD SWAP1 POP PUSH2 0x5E56 DUP2 PUSH2 0x51DC JUMP JUMPDEST SWAP3 SWAP2 POP POP JUMP JUMPDEST PUSH1 0x0 PUSH1 0x20 DUP3 DUP5 SUB SLT ISZERO PUSH2 0x5E72 JUMPI PUSH2 0x5E71 PUSH2 0x516A JUMP JUMPDEST JUMPDEST PUSH1 0x0 PUSH2 0x5E80 DUP5 DUP3 DUP6 ADD PUSH2 0x5E47 JUMP JUMPDEST SWAP2 POP POP SWAP3 SWAP2 POP POP JUMP JUMPDEST PUSH32 0x746F6B656E412069732074617861626C65000000000000000000000000000000 PUSH1 0x0 DUP3 ADD MSTORE POP JUMP JUMPDEST PUSH1 0x0 PUSH2 0x5EBF PUSH1 0x11 DUP4 PUSH2 0x5B80 JUMP JUMPDEST SWAP2 POP PUSH2 0x5ECA DUP3 PUSH2 0x5E89 JUMP JUMPDEST PUSH1 0x20 DUP3 ADD SWAP1 POP SWAP2 SWAP1 POP JUMP JUMPDEST PUSH1 0x0 PUSH1 0x20 DUP3 ADD SWAP1 POP DUP2 DUP2 SUB PUSH1 0x0 DUP4 ADD MSTORE PUSH2 0x5EEE DUP2 PUSH2 0x5EB2 JUMP JUMPDEST SWAP1 POP SWAP2 SWAP1 POP JUMP JUMPDEST PUSH32 0x556E69737761705632526F757465723A204558434553534956455F494E505554 PUSH1 0x0 DUP3 ADD MSTORE PUSH32 0x5F414D4F554E5400000000000000000000000000000000000000000000000000 PUSH1 0x20 DUP3 ADD MSTORE POP JUMP JUMPDEST PUSH1 0x0 PUSH2 0x5F51 PUSH1 0x27 DUP4 PUSH2 0x5B80 JUMP JUMPDEST SWAP2 POP PUSH2 0x5F5C DUP3 PUSH2 0x5EF5 JUMP JUMPDEST PUSH1 0x40 DUP3 ADD SWAP1 POP SWAP2 SWAP1 POP JUMP JUMPDEST PUSH1 0x0 PUSH1 0x20 DUP3 ADD SWAP1 POP DUP2 DUP2 SUB PUSH1 0x0 DUP4 ADD MSTORE PUSH2 0x5F80 DUP2 PUSH2 0x5F44 JUMP JUMPDEST SWAP1 POP SWAP2 SWAP1 POP JUMP JUMPDEST PUSH1 0x0 PUSH1 0x40 DUP3 ADD SWAP1 POP PUSH2 0x5F9C PUSH1 0x0 DUP4 ADD DUP6 PUSH2 0x59C7 JUMP JUMPDEST PUSH2 0x5FA9 PUSH1 0x20 DUP4 ADD DUP5 PUSH2 0x5295 JUMP JUMPDEST SWAP4 SWAP3 POP POP POP JUMP JUMPDEST PUSH1 0x0 DUP2 MLOAD SWAP1 POP PUSH2 0x5FBF DUP2 PUSH2 0x56D1 JUMP JUMPDEST SWAP3 SWAP2 POP POP JUMP JUMPDEST PUSH1 0x0 PUSH1 0x20 DUP3 DUP5 SUB SLT ISZERO PUSH2 0x5FDB JUMPI PUSH2 0x5FDA PUSH2 0x516A JUMP JUMPDEST JUMPDEST PUSH1 0x0 PUSH2 0x5FE9 DUP5 DUP3 DUP6 ADD PUSH2 0x5FB0 JUMP JUMPDEST SWAP2 POP POP SWAP3 SWAP2 POP POP JUMP JUMPDEST PUSH1 0x0 PUSH1 0x60 DUP3 ADD SWAP1 POP PUSH2 0x6007 PUSH1 0x0 DUP4 ADD DUP7 PUSH2 0x59C7 JUMP JUMPDEST PUSH2 0x6014 PUSH1 0x20 DUP4 ADD DUP6 PUSH2 0x59C7 JUMP JUMPDEST PUSH2 0x6021 PUSH1 0x40 DUP4 ADD DUP5 PUSH2 0x5295 JUMP JUMPDEST SWAP5 SWAP4 POP POP POP POP JUMP JUMPDEST PUSH1 0x0 DUP1 PUSH1 0x40 DUP4 DUP6 SUB SLT ISZERO PUSH2 0x6040 JUMPI PUSH2 0x603F PUSH2 0x516A JUMP JUMPDEST JUMPDEST PUSH1 0x0 PUSH2 0x604E DUP6 DUP3 DUP7 ADD PUSH2 0x5E47 JUMP JUMPDEST SWAP3 POP POP PUSH1 0x20 PUSH2 0x605F DUP6 DUP3 DUP7 ADD PUSH2 0x5E47 JUMP JUMPDEST SWAP2 POP POP SWAP3 POP SWAP3 SWAP1 POP JUMP JUMPDEST PUSH32 0x556E69737761705632526F757465723A20494E53554646494349454E545F415F PUSH1 0x0 DUP3 ADD MSTORE PUSH32 0x414D4F554E540000000000000000000000000000000000000000000000000000 PUSH1 0x20 DUP3 ADD MSTORE POP JUMP JUMPDEST PUSH1 0x0 PUSH2 0x60C5 PUSH1 0x26 DUP4 PUSH2 0x5B80 JUMP JUMPDEST SWAP2 POP PUSH2 0x60D0 DUP3 PUSH2 0x6069 JUMP JUMPDEST PUSH1 0x40 DUP3 ADD SWAP1 POP SWAP2 SWAP1 POP JUMP JUMPDEST PUSH1 0x0 PUSH1 0x20 DUP3 ADD SWAP1 POP DUP2 DUP2 SUB PUSH1 0x0 DUP4 ADD MSTORE PUSH2 0x60F4 DUP2 PUSH2 0x60B8 JUMP JUMPDEST SWAP1 POP SWAP2 SWAP1 POP JUMP JUMPDEST PUSH32 0x556E69737761705632526F757465723A20494E53554646494349454E545F425F PUSH1 0x0 DUP3 ADD MSTORE PUSH32 0x414D4F554E540000000000000000000000000000000000000000000000000000 PUSH1 0x20 DUP3 ADD MSTORE POP JUMP JUMPDEST PUSH1 0x0 PUSH2 0x6157 PUSH1 0x26 DUP4 PUSH2 0x5B80 JUMP JUMPDEST SWAP2 POP PUSH2 0x6162 DUP3 PUSH2 0x60FB JUMP JUMPDEST PUSH1 0x40 DUP3 ADD SWAP1 POP SWAP2 SWAP1 POP JUMP JUMPDEST PUSH1 0x0 PUSH1 0x20 DUP3 ADD SWAP1 POP DUP2 DUP2 SUB PUSH1 0x0 DUP4 ADD MSTORE PUSH2 0x6186 DUP2 PUSH2 0x614A JUMP JUMPDEST SWAP1 POP SWAP2 SWAP1 POP JUMP JUMPDEST PUSH1 0x0 DUP2 MLOAD SWAP1 POP SWAP2 SWAP1 POP JUMP JUMPDEST PUSH1 0x0 DUP2 SWAP1 POP SWAP3 SWAP2 POP POP JUMP JUMPDEST PUSH1 0x0 JUMPDEST DUP4 DUP2 LT ISZERO PUSH2 0x61C1 JUMPI DUP1 DUP3 ADD MLOAD DUP2 DUP5 ADD MSTORE PUSH1 0x20 DUP2 ADD SWAP1 POP PUSH2 0x61A6 JUMP JUMPDEST DUP4 DUP2 GT ISZERO PUSH2 0x61D0 JUMPI PUSH1 0x0 DUP5 DUP5 ADD MSTORE JUMPDEST POP POP POP POP JUMP JUMPDEST PUSH1 0x0 PUSH2 0x61E1 DUP3 PUSH2 0x618D JUMP JUMPDEST PUSH2 0x61EB DUP2 DUP6 PUSH2 0x6198 JUMP JUMPDEST SWAP4 POP PUSH2 0x61FB DUP2 DUP6 PUSH1 0x20 DUP7 ADD PUSH2 0x61A3 JUMP JUMPDEST DUP1 DUP5 ADD SWAP2 POP POP SWAP3 SWAP2 POP POP JUMP JUMPDEST PUSH1 0x0 PUSH2 0x6213 DUP3 DUP5 PUSH2 0x61D6 JUMP JUMPDEST SWAP2 POP DUP2 SWAP1 POP SWAP3 SWAP2 POP POP JUMP JUMPDEST PUSH32 0x5472616E7366657248656C7065723A3A736166655472616E736665723A207472 PUSH1 0x0 DUP3 ADD MSTORE PUSH32 0x616E73666572206661696C656400000000000000000000000000000000000000 PUSH1 0x20 DUP3 ADD MSTORE POP JUMP JUMPDEST PUSH1 0x0 PUSH2 0x627A PUSH1 0x2D DUP4 PUSH2 0x5B80 JUMP JUMPDEST SWAP2 POP PUSH2 0x6285 DUP3 PUSH2 0x621E JUMP JUMPDEST PUSH1 0x40 DUP3 ADD SWAP1 POP SWAP2 SWAP1 POP JUMP JUMPDEST PUSH1 0x0 PUSH1 0x20 DUP3 ADD SWAP1 POP DUP2 DUP2 SUB PUSH1 0x0 DUP4 ADD MSTORE PUSH2 0x62A9 DUP2 PUSH2 0x626D JUMP JUMPDEST SWAP1 POP SWAP2 SWAP1 POP JUMP JUMPDEST PUSH32 0x5472616E7366657248656C7065723A3A736166655472616E736665724554483A PUSH1 0x0 DUP3 ADD MSTORE PUSH32 0x20455448207472616E73666572206661696C6564000000000000000000000000 PUSH1 0x20 DUP3 ADD MSTORE POP JUMP JUMPDEST PUSH1 0x0 PUSH2 0x630C PUSH1 0x34 DUP4 PUSH2 0x5B80 JUMP JUMPDEST SWAP2 POP PUSH2 0x6317 DUP3 PUSH2 0x62B0 JUMP JUMPDEST PUSH1 0x40 DUP3 ADD SWAP1 POP SWAP2 SWAP1 POP JUMP JUMPDEST PUSH1 0x0 PUSH1 0x20 DUP3 ADD SWAP1 POP DUP2 DUP2 SUB PUSH1 0x0 DUP4 ADD MSTORE PUSH2 0x633B DUP2 PUSH2 0x62FF JUMP JUMPDEST SWAP1 POP SWAP2 SWAP1 POP JUMP JUMPDEST PUSH32 0x556E697377617056324C6962726172793A20494E53554646494349454E545F49 PUSH1 0x0 DUP3 ADD MSTORE PUSH32 0x4E5055545F414D4F554E54000000000000000000000000000000000000000000 PUSH1 0x20 DUP3 ADD MSTORE POP JUMP JUMPDEST PUSH1 0x0 PUSH2 0x639E PUSH1 0x2B DUP4 PUSH2 0x5B80 JUMP JUMPDEST SWAP2 POP PUSH2 0x63A9 DUP3 PUSH2 0x6342 JUMP JUMPDEST PUSH1 0x40 DUP3 ADD SWAP1 POP SWAP2 SWAP1 POP JUMP JUMPDEST PUSH1 0x0 PUSH1 0x20 DUP3 ADD SWAP1 POP DUP2 DUP2 SUB PUSH1 0x0 DUP4 ADD MSTORE PUSH2 0x63CD DUP2 PUSH2 0x6391 JUMP JUMPDEST SWAP1 POP SWAP2 SWAP1 POP JUMP JUMPDEST PUSH32 0x556E697377617056324C6962726172793A20494E53554646494349454E545F4C PUSH1 0x0 DUP3 ADD MSTORE PUSH32 0x4951554944495459000000000000000000000000000000000000000000000000 PUSH1 0x20 DUP3 ADD MSTORE POP JUMP JUMPDEST PUSH1 0x0 PUSH2 0x6430 PUSH1 0x28 DUP4 PUSH2 0x5B80 JUMP JUMPDEST SWAP2 POP PUSH2 0x643B DUP3 PUSH2 0x63D4 JUMP JUMPDEST PUSH1 0x40 DUP3 ADD SWAP1 POP SWAP2 SWAP1 POP JUMP JUMPDEST PUSH1 0x0 PUSH1 0x20 DUP3 ADD SWAP1 POP DUP2 DUP2 SUB PUSH1 0x0 DUP4 ADD MSTORE PUSH2 0x645F DUP2 PUSH2 0x6423 JUMP JUMPDEST SWAP1 POP SWAP2 SWAP1 POP JUMP JUMPDEST PUSH32 0x4E487B7100000000000000000000000000000000000000000000000000000000 PUSH1 0x0 MSTORE PUSH1 0x12 PUSH1 0x4 MSTORE PUSH1 0x24 PUSH1 0x0 REVERT JUMPDEST PUSH1 0x0 PUSH2 0x64A0 DUP3 PUSH2 0x51D2 JUMP JUMPDEST SWAP2 POP PUSH2 0x64AB DUP4 PUSH2 0x51D2 JUMP JUMPDEST SWAP3 POP DUP3 PUSH2 0x64BB JUMPI PUSH2 0x64BA PUSH2 0x6466 JUMP JUMPDEST JUMPDEST DUP3 DUP3 DIV SWAP1 POP SWAP3 SWAP2 POP POP JUMP JUMPDEST PUSH32 0x556E697377617056324C6962726172793A20494E56414C49445F504154480000 PUSH1 0x0 DUP3 ADD MSTORE POP JUMP JUMPDEST PUSH1 0x0 PUSH2 0x64FC PUSH1 0x1E DUP4 PUSH2 0x5B80 JUMP JUMPDEST SWAP2 POP PUSH2 0x6507 DUP3 PUSH2 0x64C6 JUMP JUMPDEST PUSH1 0x20 DUP3 ADD SWAP1 POP SWAP2 SWAP1 POP JUMP JUMPDEST PUSH1 0x0 PUSH1 0x20 DUP3 ADD SWAP1 POP DUP2 DUP2 SUB PUSH1 0x0 DUP4 ADD MSTORE PUSH2 0x652B DUP2 PUSH2 0x64EF JUMP JUMPDEST SWAP1 POP SWAP2 SWAP1 POP JUMP JUMPDEST PUSH1 0x0 PUSH2 0x653D DUP3 PUSH2 0x51D2 JUMP JUMPDEST SWAP2 POP PUSH2 0x6548 DUP4 PUSH2 0x51D2 JUMP JUMPDEST SWAP3 POP DUP3 PUSH32 0xFFFFFFFFFFFFFFFFFFFFFFFFFFFFFFFFFFFFFFFFFFFFFFFFFFFFFFFFFFFFFFFF SUB DUP3 GT ISZERO PUSH2 0x657D JUMPI PUSH2 0x657C PUSH2 0x5BFD JUMP JUMPDEST JUMPDEST DUP3 DUP3 ADD SWAP1 POP SWAP3 SWAP2 POP POP JUMP JUMPDEST PUSH1 0x0 PUSH2 0x6593 DUP3 PUSH2 0x51D2 JUMP JUMPDEST SWAP2 POP PUSH32 0xFFFFFFFFFFFFFFFFFFFFFFFFFFFFFFFFFFFFFFFFFFFFFFFFFFFFFFFFFFFFFFFF DUP3 EQ ISZERO PUSH2 0x65C6 JUMPI PUSH2 0x65C5 PUSH2 0x5BFD JUMP JUMPDEST JUMPDEST PUSH1 0x1 DUP3 ADD SWAP1 POP SWAP2 SWAP1 POP JUMP JUMPDEST PUSH1 0x0 PUSH1 0x40 DUP3 ADD SWAP1 POP PUSH2 0x65E6 PUSH1 0x0 DUP4 ADD DUP6 PUSH2 0x59C7 JUMP JUMPDEST PUSH2 0x65F3 PUSH1 0x20 DUP4 ADD DUP5 PUSH2 0x59C7 JUMP JUMPDEST SWAP4 SWAP3 POP POP POP JUMP JUMPDEST PUSH1 0x0 DUP2 MLOAD SWAP1 POP PUSH2 0x6609 DUP2 PUSH2 0x51A6 JUMP JUMPDEST SWAP3 SWAP2 POP POP JUMP JUMPDEST PUSH1 0x0 PUSH1 0x20 DUP3 DUP5 SUB SLT ISZERO PUSH2 0x6625 JUMPI PUSH2 0x6624 PUSH2 0x516A JUMP JUMPDEST JUMPDEST PUSH1 0x0 PUSH2 0x6633 DUP5 DUP3 DUP6 ADD PUSH2 0x65FA JUMP JUMPDEST SWAP2 POP POP SWAP3 SWAP2 POP POP JUMP JUMPDEST PUSH32 0x5472616E7366657248656C7065723A3A7472616E7366657246726F6D3A207472 PUSH1 0x0 DUP3 ADD MSTORE PUSH32 0x616E7366657246726F6D206661696C6564000000000000000000000000000000 PUSH1 0x20 DUP3 ADD MSTORE POP JUMP JUMPDEST PUSH1 0x0 PUSH2 0x6698 PUSH1 0x31 DUP4 PUSH2 0x5B80 JUMP JUMPDEST SWAP2 POP PUSH2 0x66A3 DUP3 PUSH2 0x663C JUMP JUMPDEST PUSH1 0x40 DUP3 ADD SWAP1 POP SWAP2 SWAP1 POP JUMP JUMPDEST PUSH1 0x0 PUSH1 0x20 DUP3 ADD SWAP1 POP DUP2 DUP2 SUB PUSH1 0x0 DUP4 ADD MSTORE PUSH2 0x66C7 DUP2 PUSH2 0x668B JUMP JUMPDEST SWAP1 POP SWAP2 SWAP1 POP JUMP JUMPDEST PUSH1 0x0 DUP3 DUP3 MSTORE PUSH1 0x20 DUP3 ADD SWAP1 POP SWAP3 SWAP2 POP POP JUMP JUMPDEST PUSH1 0x0 PUSH2 0x66EA DUP3 PUSH2 0x618D JUMP JUMPDEST PUSH2 0x66F4 DUP2 DUP6 PUSH2 0x66CE JUMP JUMPDEST SWAP4 POP PUSH2 0x6704 DUP2 DUP6 PUSH1 0x20 DUP7 ADD PUSH2 0x61A3 JUMP JUMPDEST PUSH2 0x670D DUP2 PUSH2 0x551A JUMP JUMPDEST DUP5 ADD SWAP2 POP POP SWAP3 SWAP2 POP POP JUMP JUMPDEST PUSH1 0x0 PUSH1 0x80 DUP3 ADD SWAP1 POP PUSH2 0x672D PUSH1 0x0 DUP4 ADD DUP8 PUSH2 0x5295 JUMP JUMPDEST PUSH2 0x673A PUSH1 0x20 DUP4 ADD DUP7 PUSH2 0x5295 JUMP JUMPDEST PUSH2 0x6747 PUSH1 0x40 DUP4 ADD DUP6 PUSH2 0x59C7 JUMP JUMPDEST DUP2 DUP2 SUB PUSH1 0x60 DUP4 ADD MSTORE PUSH2 0x6759 DUP2 DUP5 PUSH2 0x66DF JUMP JUMPDEST SWAP1 POP SWAP6 SWAP5 POP POP POP POP POP JUMP JUMPDEST PUSH1 0x0 PUSH2 0x676F DUP3 PUSH2 0x51D2 JUMP JUMPDEST SWAP2 POP PUSH1 0x0 DUP3 EQ ISZERO PUSH2 0x6783 JUMPI PUSH2 0x6782 PUSH2 0x5BFD JUMP JUMPDEST JUMPDEST PUSH1 0x1 DUP3 SUB SWAP1 POP SWAP2 SWAP1 POP JUMP JUMPDEST PUSH1 0x0 DUP2 MLOAD SWAP1 POP SWAP2 SWAP1 POP JUMP JUMPDEST PUSH1 0x0 PUSH2 0x67A4 DUP3 PUSH2 0x678E JUMP JUMPDEST PUSH2 0x67AE DUP2 DUP6 PUSH2 0x5B80 JUMP JUMPDEST SWAP4 POP PUSH2 0x67BE DUP2 DUP6 PUSH1 0x20 DUP7 ADD PUSH2 0x61A3 JUMP JUMPDEST PUSH2 0x67C7 DUP2 PUSH2 0x551A JUMP JUMPDEST DUP5 ADD SWAP2 POP POP SWAP3 SWAP2 POP POP JUMP JUMPDEST PUSH1 0x0 PUSH1 0x20 DUP3 ADD SWAP1 POP DUP2 DUP2 SUB PUSH1 0x0 DUP4 ADD MSTORE PUSH2 0x67EC DUP2 DUP5 PUSH2 0x6799 JUMP JUMPDEST SWAP1 POP SWAP3 SWAP2 POP POP JUMP JUMPDEST PUSH1 0x0 PUSH14 0xFFFFFFFFFFFFFFFFFFFFFFFFFFFF DUP3 AND SWAP1 POP SWAP2 SWAP1 POP JUMP JUMPDEST PUSH2 0x6817 DUP2 PUSH2 0x67F4 JUMP JUMPDEST DUP2 EQ PUSH2 0x6822 JUMPI PUSH1 0x0 DUP1 REVERT JUMPDEST POP JUMP JUMPDEST PUSH1 0x0 DUP2 MLOAD SWAP1 POP PUSH2 0x6834 DUP2 PUSH2 0x680E JUMP JUMPDEST SWAP3 SWAP2 POP POP JUMP JUMPDEST PUSH1 0x0 PUSH4 0xFFFFFFFF DUP3 AND SWAP1 POP SWAP2 SWAP1 POP JUMP JUMPDEST PUSH2 0x6853 DUP2 PUSH2 0x683A JUMP JUMPDEST DUP2 EQ PUSH2 0x685E JUMPI PUSH1 0x0 DUP1 REVERT JUMPDEST POP JUMP JUMPDEST PUSH1 0x0 DUP2 MLOAD SWAP1 POP PUSH2 0x6870 DUP2 PUSH2 0x684A JUMP JUMPDEST SWAP3 SWAP2 POP POP JUMP JUMPDEST PUSH1 0x0 DUP1 PUSH1 0x0 PUSH1 0x60 DUP5 DUP7 SUB SLT ISZERO PUSH2 0x688F JUMPI PUSH2 0x688E PUSH2 0x516A JUMP JUMPDEST JUMPDEST PUSH1 0x0 PUSH2 0x689D DUP7 DUP3 DUP8 ADD PUSH2 0x6825 JUMP JUMPDEST SWAP4 POP POP PUSH1 0x20 PUSH2 0x68AE DUP7 DUP3 DUP8 ADD PUSH2 0x6825 JUMP JUMPDEST SWAP3 POP POP PUSH1 0x40 PUSH2 0x68BF DUP7 DUP3 DUP8 ADD PUSH2 0x6861 JUMP JUMPDEST SWAP2 POP POP SWAP3 POP SWAP3 POP SWAP3 JUMP JUMPDEST PUSH32 0x64732D6D6174682D7375622D756E646572666C6F770000000000000000000000 PUSH1 0x0 DUP3 ADD MSTORE POP JUMP JUMPDEST PUSH1 0x0 PUSH2 0x68FF PUSH1 0x15 DUP4 PUSH2 0x5B80 JUMP JUMPDEST SWAP2 POP PUSH2 0x690A DUP3 PUSH2 0x68C9 JUMP JUMPDEST PUSH1 0x20 DUP3 ADD SWAP1 POP SWAP2 SWAP1 POP JUMP JUMPDEST PUSH1 0x0 PUSH1 0x20 DUP3 ADD SWAP1 POP DUP2 DUP2 SUB PUSH1 0x0 DUP4 ADD MSTORE PUSH2 0x692E DUP2 PUSH2 0x68F2 JUMP JUMPDEST SWAP1 POP SWAP2 SWAP1 POP JUMP JUMPDEST PUSH32 0x556E697377617056324C6962726172793A20494E53554646494349454E545F4F PUSH1 0x0 DUP3 ADD MSTORE PUSH32 0x55545055545F414D4F554E540000000000000000000000000000000000000000 PUSH1 0x20 DUP3 ADD MSTORE POP JUMP JUMPDEST PUSH1 0x0 PUSH2 0x6991 PUSH1 0x2C DUP4 PUSH2 0x5B80 JUMP JUMPDEST SWAP2 POP PUSH2 0x699C DUP3 PUSH2 0x6935 JUMP JUMPDEST PUSH1 0x40 DUP3 ADD SWAP1 POP SWAP2 SWAP1 POP JUMP JUMPDEST PUSH1 0x0 PUSH1 0x20 DUP3 ADD SWAP1 POP DUP2 DUP2 SUB PUSH1 0x0 DUP4 ADD MSTORE PUSH2 0x69C0 DUP2 PUSH2 0x6984 JUMP JUMPDEST SWAP1 POP SWAP2 SWAP1 POP JUMP JUMPDEST PUSH32 0x556E697377617056324C6962726172793A20494E53554646494349454E545F41 PUSH1 0x0 DUP3 ADD MSTORE PUSH32 0x4D4F554E54000000000000000000000000000000000000000000000000000000 PUSH1 0x20 DUP3 ADD MSTORE POP JUMP JUMPDEST PUSH1 0x0 PUSH2 0x6A23 PUSH1 0x25 DUP4 PUSH2 0x5B80 JUMP JUMPDEST SWAP2 POP PUSH2 0x6A2E DUP3 PUSH2 0x69C7 JUMP JUMPDEST PUSH1 0x40 DUP3 ADD SWAP1 POP SWAP2 SWAP1 POP JUMP JUMPDEST PUSH1 0x0 PUSH1 0x20 DUP3 ADD SWAP1 POP DUP2 DUP2 SUB PUSH1 0x0 DUP4 ADD MSTORE PUSH2 0x6A52 DUP2 PUSH2 0x6A16 JUMP JUMPDEST SWAP1 POP SWAP2 SWAP1 POP JUMP JUMPDEST PUSH32 0x556E697377617056324C6962726172793A204944454E544943414C5F41444452 PUSH1 0x0 DUP3 ADD MSTORE PUSH32 0x4553534553000000000000000000000000000000000000000000000000000000 PUSH1 0x20 DUP3 ADD MSTORE POP JUMP JUMPDEST PUSH1 0x0 PUSH2 0x6AB5 PUSH1 0x25 DUP4 PUSH2 0x5B80 JUMP JUMPDEST SWAP2 POP PUSH2 0x6AC0 DUP3 PUSH2 0x6A59 JUMP JUMPDEST PUSH1 0x40 DUP3 ADD SWAP1 POP SWAP2 SWAP1 POP JUMP JUMPDEST PUSH1 0x0 PUSH1 0x20 DUP3 ADD SWAP1 POP DUP2 DUP2 SUB PUSH1 0x0 DUP4 ADD MSTORE PUSH2 0x6AE4 DUP2 PUSH2 0x6AA8 JUMP JUMPDEST SWAP1 POP SWAP2 SWAP1 POP JUMP JUMPDEST PUSH32 0x556E697377617056324C6962726172793A205A45524F5F414444524553530000 PUSH1 0x0 DUP3 ADD MSTORE POP JUMP JUMPDEST PUSH1 0x0 PUSH2 0x6B21 PUSH1 0x1E DUP4 PUSH2 0x5B80 JUMP JUMPDEST SWAP2 POP PUSH2 0x6B2C DUP3 PUSH2 0x6AEB JUMP JUMPDEST PUSH1 0x20 DUP3 ADD SWAP1 POP SWAP2 SWAP1 POP JUMP JUMPDEST PUSH1 0x0 PUSH1 0x20 DUP3 ADD SWAP1 POP DUP2 DUP2 SUB PUSH1 0x0 DUP4 ADD MSTORE PUSH2 0x6B50 DUP2 PUSH2 0x6B14 JUMP JUMPDEST SWAP1 POP SWAP2 SWAP1 POP JUMP JUMPDEST PUSH1 0x0 PUSH2 0x6B62 DUP3 PUSH2 0x51D2 JUMP JUMPDEST SWAP2 POP PUSH2 0x6B6D DUP4 PUSH2 0x51D2 JUMP JUMPDEST SWAP3 POP DUP2 PUSH32 0xFFFFFFFFFFFFFFFFFFFFFFFFFFFFFFFFFFFFFFFFFFFFFFFFFFFFFFFFFFFFFFFF DIV DUP4 GT DUP3 ISZERO ISZERO AND ISZERO PUSH2 0x6BA6 JUMPI PUSH2 0x6BA5 PUSH2 0x5BFD JUMP JUMPDEST JUMPDEST DUP3 DUP3 MUL SWAP1 POP SWAP3 SWAP2 POP POP JUMP JUMPDEST PUSH32 0x64732D6D6174682D6D756C2D6F766572666C6F77000000000000000000000000 PUSH1 0x0 DUP3 ADD MSTORE POP JUMP JUMPDEST PUSH1 0x0 PUSH2 0x6BE7 PUSH1 0x14 DUP4 PUSH2 0x5B80 JUMP JUMPDEST SWAP2 POP PUSH2 0x6BF2 DUP3 PUSH2 0x6BB1 JUMP JUMPDEST PUSH1 0x20 DUP3 ADD SWAP1 POP SWAP2 SWAP1 POP JUMP JUMPDEST PUSH1 0x0 PUSH1 0x20 DUP3 ADD SWAP1 POP DUP2 DUP2 SUB PUSH1 0x0 DUP4 ADD MSTORE PUSH2 0x6C16 DUP2 PUSH2 0x6BDA JUMP JUMPDEST SWAP1 POP SWAP2 SWAP1 POP JUMP JUMPDEST PUSH32 0x64732D6D6174682D6164642D6F766572666C6F77000000000000000000000000 PUSH1 0x0 DUP3 ADD MSTORE POP JUMP JUMPDEST PUSH1 0x0 PUSH2 0x6C53 PUSH1 0x14 DUP4 PUSH2 0x5B80 JUMP JUMPDEST SWAP2 POP PUSH2 0x6C5E DUP3 PUSH2 0x6C1D JUMP JUMPDEST PUSH1 0x20 DUP3 ADD SWAP1 POP SWAP2 SWAP1 POP JUMP JUMPDEST PUSH1 0x0 PUSH1 0x20 DUP3 ADD SWAP1 POP DUP2 DUP2 SUB PUSH1 0x0 DUP4 ADD MSTORE PUSH2 0x6C82 DUP2 PUSH2 0x6C46 JUMP JUMPDEST SWAP1 POP SWAP2 SWAP1 POP JUMP INVALID LOG2 PUSH5 0x6970667358 0x22 SLT KECCAK256 0x2D DUP3 COINBASE DUP5 EXTCODEHASH PUSH10 0x24AB6DFA45147E9765C8 DUP3 DUP10 0x29 JUMPI MSTORE8 STATICCALL MSIZE MULMOD 0xE2 0xD9 0xBC 0xF7 0xC8 0xA5 LT SDIV PUSH5 0x736F6C6343 STOP ADDMOD MULMOD STOP CALLER "},"methodIdentifiers":{"WETH()":"ad5c4648","addLiquidity(address,address,uint256,uint256,uint256,uint256,address,uint256)":"e8e33700","addLiquidityETH(address,uint256,uint256,uint256,address,uint256)":"f305d719","factory()":"c45a0155","getAmountIn(uint256,uint256,uint256)":"85f8c259","getAmountOut(uint256,uint256,uint256)":"054d50d4","getAmountsIn(uint256,address[])":"1f00ca74","getAmountsOut(uint256,address[])":"d06ca61f","quote(uint256,uint256,uint256)":"ad615dec","removeLiquidity(address,address,uint256,uint256,uint256,address,uint256)":"baa2abde","removeLiquidityETH(address,uint256,uint256,uint256,address,uint256)":"02751cec","removeLiquidityETHSupportingFeeOnTransferTokens(address,uint256,uint256,uint256,address,uint256)":"af2979eb","removeLiquidityETHWithPermit(address,uint256,uint256,uint256,address,uint256,bool,uint8,bytes32,bytes32)":"ded9382a","removeLiquidityETHWithPermitSupportingFeeOnTransferTokens(address,uint256,uint256,uint256,address,uint256,bool,uint8,bytes32,bytes32)":"5b0d5984","removeLiquidityWithPermit(address,address,uint256,uint256,uint256,address,uint256,bool,uint8,bytes32,bytes32)":"2195995c","swapCheck(uint256,uint256,address[],address,uint256)":"494339e1","swapETHForExactTokens(uint256,address[],address,uint256)":"fb3bdb41","swapExactETHForTokens(uint256,address[],address,uint256)":"7ff36ab5","swapExactETHForTokensSupportingFeeOnTransferTokens(uint256,address[],address,uint256)":"b6f9de95","swapExactTokensForETH(uint256,uint256,address[],address,uint256)":"18cbafe5","swapExactTokensForETHSupportingFeeOnTransferTokens(uint256,uint256,address[],address,uint256)":"791ac947","swapExactTokensForTokens(uint256,uint256,address[],address,uint256)":"38ed1739","swapExactTokensForTokensSupportingFeeOnTransferTokens(uint256,uint256,address[],address,uint256)":"5c11d795","swapTokensForExactETH(uint256,uint256,address[],address,uint256)":"4a25d94a","swapTokensForExactTokens(uint256,uint256,address[],address,uint256)":"8803dbee"}}}}}