{
  "_format": "hh-sol-artifact-1",
  "contractName": "taxableToken",
  "sourceName": "contracts/taxableToken.sol",
  "abi": [
    {
      "inputs": [],
      "stateMutability": "nonpayable",
      "type": "constructor"
    },
    {
      "anonymous": false,
      "inputs": [
        {
          "indexed": true,
          "internalType": "address",
          "name": "owner",
          "type": "address"
        },
        {
          "indexed": true,
          "internalType": "address",
          "name": "spender",
          "type": "address"
        },
        {
          "indexed": false,
          "internalType": "uint256",
          "name": "value",
          "type": "uint256"
        }
      ],
      "name": "Approval",
      "type": "event"
    },
    {
      "anonymous": false,
      "inputs": [
        {
          "indexed": true,
          "internalType": "address",
          "name": "from",
          "type": "address"
        },
        {
          "indexed": true,
          "internalType": "address",
          "name": "to",
          "type": "address"
        },
        {
          "indexed": false,
          "internalType": "uint256",
          "name": "value",
          "type": "uint256"
        }
      ],
      "name": "Transfer",
      "type": "event"
    },
    {
      "inputs": [
        {
          "internalType": "address",
          "name": "owner",
          "type": "address"
        },
        {
          "internalType": "address",
          "name": "spender",
          "type": "address"
        }
      ],
      "name": "allowance",
      "outputs": [
        {
          "internalType": "uint256",
          "name": "",
          "type": "uint256"
        }
      ],
      "stateMutability": "view",
      "type": "function"
    },
    {
      "inputs": [
        {
          "internalType": "address",
          "name": "spender",
          "type": "address"
        },
        {
          "internalType": "uint256",
          "name": "value",
          "type": "uint256"
        }
      ],
      "name": "approve",
      "outputs": [
        {
          "internalType": "bool",
          "name": "",
          "type": "bool"
        }
      ],
      "stateMutability": "nonpayable",
      "type": "function"
    },
    {
      "inputs": [
        {
          "internalType": "address",
          "name": "owner",
          "type": "address"
        }
      ],
      "name": "balanceOf",
      "outputs": [
        {
          "internalType": "uint256",
          "name": "",
          "type": "uint256"
        }
      ],
      "stateMutability": "view",
      "type": "function"
    },
    {
      "inputs": [],
      "name": "basePercent",
      "outputs": [
        {
          "internalType": "uint256",
          "name": "",
          "type": "uint256"
        }
      ],
      "stateMutability": "view",
      "type": "function"
    },
    {
      "inputs": [
        {
          "internalType": "uint256",
          "name": "value",
          "type": "uint256"
        }
      ],
      "name": "cut",
      "outputs": [
        {
          "internalType": "uint256",
          "name": "",
          "type": "uint256"
        }
      ],
      "stateMutability": "view",
      "type": "function"
    },
    {
      "inputs": [
        {
          "internalType": "uint256",
          "name": "amount",
          "type": "uint256"
        }
      ],
      "name": "destroy",
      "outputs": [],
      "stateMutability": "nonpayable",
      "type": "function"
    },
    {
      "inputs": [
        {
          "internalType": "address",
          "name": "account",
          "type": "address"
        },
        {
          "internalType": "uint256",
          "name": "amount",
          "type": "uint256"
        }
      ],
      "name": "destroyFrom",
      "outputs": [],
      "stateMutability": "nonpayable",
      "type": "function"
    },
    {
      "inputs": [
        {
          "internalType": "address",
          "name": "spender",
          "type": "address"
        },
        {
          "internalType": "uint256",
          "name": "subtractedValue",
          "type": "uint256"
        }
      ],
      "name": "downAllowance",
      "outputs": [
        {
          "internalType": "bool",
          "name": "",
          "type": "bool"
        }
      ],
      "stateMutability": "nonpayable",
      "type": "function"
    },
    {
      "inputs": [
        {
          "internalType": "address[]",
          "name": "receivers",
          "type": "address[]"
        },
        {
          "internalType": "uint256[]",
          "name": "amounts",
          "type": "uint256[]"
        }
      ],
      "name": "multiTransfer",
      "outputs": [],
      "stateMutability": "nonpayable",
      "type": "function"
    },
    {
      "inputs": [],
      "name": "totalSupply",
      "outputs": [
        {
          "internalType": "uint256",
          "name": "",
          "type": "uint256"
        }
      ],
      "stateMutability": "view",
      "type": "function"
    },
    {
      "inputs": [
        {
          "internalType": "address",
          "name": "to",
          "type": "address"
        },
        {
          "internalType": "uint256",
          "name": "value",
          "type": "uint256"
        }
      ],
      "name": "transfer",
      "outputs": [
        {
          "internalType": "bool",
          "name": "",
          "type": "bool"
        }
      ],
      "stateMutability": "nonpayable",
      "type": "function"
    },
    {
      "inputs": [
        {
          "internalType": "address",
          "name": "from",
          "type": "address"
        },
        {
          "internalType": "address",
          "name": "to",
          "type": "address"
        },
        {
          "internalType": "uint256",
          "name": "value",
          "type": "uint256"
        }
      ],
      "name": "transferFrom",
      "outputs": [
        {
          "internalType": "bool",
          "name": "",
          "type": "bool"
        }
      ],
      "stateMutability": "nonpayable",
      "type": "function"
    },
    {
      "inputs": [
        {
          "internalType": "address",
          "name": "spender",
          "type": "address"
        },
        {
          "internalType": "uint256",
          "name": "addedValue",
          "type": "uint256"
        }
      ],
      "name": "upAllowance",
      "outputs": [
        {
          "internalType": "bool",
          "name": "",
          "type": "bool"
        }
      ],
      "stateMutability": "nonpayable",
      "type": "function"
    }
  ],
  "bytecode": "0x60806040526b033b2e3c9fd0803ce800000060025560646003553480156200002657600080fd5b506200003b336002546200004160201b60201c565b6200027a565b60008114156200005057600080fd5b620000a8816000808573ffffffffffffffffffffffffffffffffffffffff1673ffffffffffffffffffffffffffffffffffffffff168152602001908152602001600020546200015660201b620012de1790919060201c565b6000808473ffffffffffffffffffffffffffffffffffffffff1673ffffffffffffffffffffffffffffffffffffffff168152602001908152602001600020819055508173ffffffffffffffffffffffffffffffffffffffff16600073ffffffffffffffffffffffffffffffffffffffff167fddf252ad1be2c89b69c2b068fc378daa952ba7f163c4a11628f55a4df523b3ef836040516200014a9190620001a2565b60405180910390a35050565b6000808284620001679190620001ee565b9050838110156200017d576200017c6200024b565b5b8091505092915050565b6000819050919050565b6200019c8162000187565b82525050565b6000602082019050620001b9600083018462000191565b92915050565b7f4e487b7100000000000000000000000000000000000000000000000000000000600052601160045260246000fd5b6000620001fb8262000187565b9150620002088362000187565b9250827fffffffffffffffffffffffffffffffffffffffffffffffffffffffffffffffff0382111562000240576200023f620001bf565b5b828201905092915050565b7f4e487b7100000000000000000000000000000000000000000000000000000000600052600160045260246000fd5b611c5a806200028a6000396000f3fe608060405234801561001057600080fd5b50600436106100cf5760003560e01c806370a082311161008c578063c5ac0ded11610066578063c5ac0ded14610236578063dd62ed3e14610254578063df401a9614610284578063e5981a42146102b4576100cf565b806370a08231146101ba5780639d118770146101ea578063a9059cbb14610206576100cf565b806309260db7146100d4578063095ea7b31461010457806318160ddd146101345780631e89d5451461015257806323b872dd1461016e57806333393efa1461019e575b600080fd5b6100ee60048036038101906100e9919061158b565b6102e4565b6040516100fb91906115c7565b60405180910390f35b61011e60048036038101906101199190611640565b610335565b60405161012b919061169b565b60405180910390f35b61013c610460565b60405161014991906115c7565b60405180910390f35b61016c600480360381019061016791906118d2565b61046a565b005b6101886004803603810190610183919061194a565b6104cd565b604051610195919061169b565b60405180910390f35b6101b860048036038101906101b39190611640565b610929565b005b6101d460048036038101906101cf919061199d565b610acf565b6040516101e191906115c7565b60405180910390f35b61020460048036038101906101ff919061158b565b610b17565b005b610220600480360381019061021b9190611640565b610b24565b60405161022d919061169b565b60405180910390f35b61023e610de7565b60405161024b91906115c7565b60405180910390f35b61026e600480360381019061026991906119ca565b610ded565b60405161027b91906115c7565b60405180910390f35b61029e60048036038101906102999190611640565b610e74565b6040516102ab919061169b565b60405180910390f35b6102ce60048036038101906102c99190611640565b6110a9565b6040516102db919061169b565b60405180910390f35b6000806102fc6003548461130a90919063ffffffff16565b9050600061032961271061031b6003548561134590919063ffffffff16565b61138e90919063ffffffff16565b90508092505050919050565b60008073ffffffffffffffffffffffffffffffffffffffff168373ffffffffffffffffffffffffffffffffffffffff16141561037057600080fd5b81600160003373ffffffffffffffffffffffffffffffffffffffff1673ffffffffffffffffffffffffffffffffffffffff16815260200190815260200160002060008573ffffffffffffffffffffffffffffffffffffffff1673ffffffffffffffffffffffffffffffffffffffff168152602001908152602001600020819055508273ffffffffffffffffffffffffffffffffffffffff163373ffffffffffffffffffffffffffffffffffffffff167f8c5be1e5ebec7d5bd14f71427d1e84f3dd0314c0f7b2291e5b200ac8c7c3b9258460405161044e91906115c7565b60405180910390a36001905092915050565b6000600254905090565b60005b82518110156104c8576104b483828151811061048c5761048b611a0a565b5b60200260200101518383815181106104a7576104a6611a0a565b5b6020026020010151610b24565b5080806104c090611a68565b91505061046d565b505050565b60008060008573ffffffffffffffffffffffffffffffffffffffff1673ffffffffffffffffffffffffffffffffffffffff1681526020019081526020016000205482111561051a57600080fd5b600160008573ffffffffffffffffffffffffffffffffffffffff1673ffffffffffffffffffffffffffffffffffffffff16815260200190815260200160002060003373ffffffffffffffffffffffffffffffffffffffff1673ffffffffffffffffffffffffffffffffffffffff168152602001908152602001600020548211156105a357600080fd5b600073ffffffffffffffffffffffffffffffffffffffff168373ffffffffffffffffffffffffffffffffffffffff1614156105dd57600080fd5b61062e826000808773ffffffffffffffffffffffffffffffffffffffff1673ffffffffffffffffffffffffffffffffffffffff168152602001908152602001600020546113a990919063ffffffff16565b6000808673ffffffffffffffffffffffffffffffffffffffff1673ffffffffffffffffffffffffffffffffffffffff16815260200190815260200160002081905550600061067b836102e4565b9050600061069282856113a990919063ffffffff16565b90506106e5816000808873ffffffffffffffffffffffffffffffffffffffff1673ffffffffffffffffffffffffffffffffffffffff168152602001908152602001600020546112de90919063ffffffff16565b6000808773ffffffffffffffffffffffffffffffffffffffff1673ffffffffffffffffffffffffffffffffffffffff1681526020019081526020016000208190555061073c826002546113a990919063ffffffff16565b6002819055506107d184600160008973ffffffffffffffffffffffffffffffffffffffff1673ffffffffffffffffffffffffffffffffffffffff16815260200190815260200160002060003373ffffffffffffffffffffffffffffffffffffffff1673ffffffffffffffffffffffffffffffffffffffff168152602001908152602001600020546113a990919063ffffffff16565b600160008873ffffffffffffffffffffffffffffffffffffffff1673ffffffffffffffffffffffffffffffffffffffff16815260200190815260200160002060003373ffffffffffffffffffffffffffffffffffffffff1673ffffffffffffffffffffffffffffffffffffffff168152602001908152602001600020819055508473ffffffffffffffffffffffffffffffffffffffff168673ffffffffffffffffffffffffffffffffffffffff167fddf252ad1be2c89b69c2b068fc378daa952ba7f163c4a11628f55a4df523b3ef836040516108ae91906115c7565b60405180910390a3600073ffffffffffffffffffffffffffffffffffffffff168673ffffffffffffffffffffffffffffffffffffffff167fddf252ad1be2c89b69c2b068fc378daa952ba7f163c4a11628f55a4df523b3ef8460405161091491906115c7565b60405180910390a36001925050509392505050565b600160008373ffffffffffffffffffffffffffffffffffffffff1673ffffffffffffffffffffffffffffffffffffffff16815260200190815260200160002060003373ffffffffffffffffffffffffffffffffffffffff1673ffffffffffffffffffffffffffffffffffffffff168152602001908152602001600020548111156109b257600080fd5b610a4181600160008573ffffffffffffffffffffffffffffffffffffffff1673ffffffffffffffffffffffffffffffffffffffff16815260200190815260200160002060003373ffffffffffffffffffffffffffffffffffffffff1673ffffffffffffffffffffffffffffffffffffffff168152602001908152602001600020546113a990919063ffffffff16565b600160008473ffffffffffffffffffffffffffffffffffffffff1673ffffffffffffffffffffffffffffffffffffffff16815260200190815260200160002060003373ffffffffffffffffffffffffffffffffffffffff1673ffffffffffffffffffffffffffffffffffffffff16815260200190815260200160002081905550610acb82826113d0565b5050565b60008060008373ffffffffffffffffffffffffffffffffffffffff1673ffffffffffffffffffffffffffffffffffffffff168152602001908152602001600020549050919050565b610b2133826113d0565b50565b60008060003373ffffffffffffffffffffffffffffffffffffffff1673ffffffffffffffffffffffffffffffffffffffff16815260200190815260200160002054821115610b7157600080fd5b600073ffffffffffffffffffffffffffffffffffffffff168373ffffffffffffffffffffffffffffffffffffffff161415610bab57600080fd5b6000610bb6836102e4565b90506000610bcd82856113a990919063ffffffff16565b9050610c20846000803373ffffffffffffffffffffffffffffffffffffffff1673ffffffffffffffffffffffffffffffffffffffff168152602001908152602001600020546113a990919063ffffffff16565b6000803373ffffffffffffffffffffffffffffffffffffffff1673ffffffffffffffffffffffffffffffffffffffff16815260200190815260200160002081905550610cb3816000808873ffffffffffffffffffffffffffffffffffffffff1673ffffffffffffffffffffffffffffffffffffffff168152602001908152602001600020546112de90919063ffffffff16565b6000808773ffffffffffffffffffffffffffffffffffffffff1673ffffffffffffffffffffffffffffffffffffffff16815260200190815260200160002081905550610d0a826002546113a990919063ffffffff16565b6002819055508473ffffffffffffffffffffffffffffffffffffffff163373ffffffffffffffffffffffffffffffffffffffff167fddf252ad1be2c89b69c2b068fc378daa952ba7f163c4a11628f55a4df523b3ef83604051610d6d91906115c7565b60405180910390a3600073ffffffffffffffffffffffffffffffffffffffff163373ffffffffffffffffffffffffffffffffffffffff167fddf252ad1be2c89b69c2b068fc378daa952ba7f163c4a11628f55a4df523b3ef84604051610dd391906115c7565b60405180910390a360019250505092915050565b60035481565b6000600160008473ffffffffffffffffffffffffffffffffffffffff1673ffffffffffffffffffffffffffffffffffffffff16815260200190815260200160002060008373ffffffffffffffffffffffffffffffffffffffff1673ffffffffffffffffffffffffffffffffffffffff16815260200190815260200160002054905092915050565b60008073ffffffffffffffffffffffffffffffffffffffff168373ffffffffffffffffffffffffffffffffffffffff161415610eaf57600080fd5b610f3e82600160003373ffffffffffffffffffffffffffffffffffffffff1673ffffffffffffffffffffffffffffffffffffffff16815260200190815260200160002060008673ffffffffffffffffffffffffffffffffffffffff1673ffffffffffffffffffffffffffffffffffffffff168152602001908152602001600020546113a990919063ffffffff16565b600160003373ffffffffffffffffffffffffffffffffffffffff1673ffffffffffffffffffffffffffffffffffffffff16815260200190815260200160002060008573ffffffffffffffffffffffffffffffffffffffff1673ffffffffffffffffffffffffffffffffffffffff168152602001908152602001600020819055508273ffffffffffffffffffffffffffffffffffffffff163373ffffffffffffffffffffffffffffffffffffffff167f8c5be1e5ebec7d5bd14f71427d1e84f3dd0314c0f7b2291e5b200ac8c7c3b925600160003373ffffffffffffffffffffffffffffffffffffffff1673ffffffffffffffffffffffffffffffffffffffff16815260200190815260200160002060008773ffffffffffffffffffffffffffffffffffffffff1673ffffffffffffffffffffffffffffffffffffffff1681526020019081526020016000205460405161109791906115c7565b60405180910390a36001905092915050565b60008073ffffffffffffffffffffffffffffffffffffffff168373ffffffffffffffffffffffffffffffffffffffff1614156110e457600080fd5b61117382600160003373ffffffffffffffffffffffffffffffffffffffff1673ffffffffffffffffffffffffffffffffffffffff16815260200190815260200160002060008673ffffffffffffffffffffffffffffffffffffffff1673ffffffffffffffffffffffffffffffffffffffff168152602001908152602001600020546112de90919063ffffffff16565b600160003373ffffffffffffffffffffffffffffffffffffffff1673ffffffffffffffffffffffffffffffffffffffff16815260200190815260200160002060008573ffffffffffffffffffffffffffffffffffffffff1673ffffffffffffffffffffffffffffffffffffffff168152602001908152602001600020819055508273ffffffffffffffffffffffffffffffffffffffff163373ffffffffffffffffffffffffffffffffffffffff167f8c5be1e5ebec7d5bd14f71427d1e84f3dd0314c0f7b2291e5b200ac8c7c3b925600160003373ffffffffffffffffffffffffffffffffffffffff1673ffffffffffffffffffffffffffffffffffffffff16815260200190815260200160002060008773ffffffffffffffffffffffffffffffffffffffff1673ffffffffffffffffffffffffffffffffffffffff168152602001908152602001600020546040516112cc91906115c7565b60405180910390a36001905092915050565b60008082846112ed9190611ab1565b905083811015611300576112ff611b07565b5b8091505092915050565b60008061131784846112de565b905060006113268260016113a9565b905061133b611335828661138e565b85611345565b9250505092915050565b6000808314156113585760009050611388565b600082846113669190611b36565b90508284826113759190611bbf565b1461138357611382611b07565b5b809150505b92915050565b600080828461139d9190611bbf565b90508091505092915050565b6000828211156113bc576113bb611b07565b5b81836113c89190611bf0565b905092915050565b60008114156113de57600080fd5b6000808373ffffffffffffffffffffffffffffffffffffffff1673ffffffffffffffffffffffffffffffffffffffff1681526020019081526020016000205481111561142957600080fd5b61143e816002546113a990919063ffffffff16565b600281905550611495816000808573ffffffffffffffffffffffffffffffffffffffff1673ffffffffffffffffffffffffffffffffffffffff168152602001908152602001600020546113a990919063ffffffff16565b6000808473ffffffffffffffffffffffffffffffffffffffff1673ffffffffffffffffffffffffffffffffffffffff16815260200190815260200160002081905550600073ffffffffffffffffffffffffffffffffffffffff168273ffffffffffffffffffffffffffffffffffffffff167fddf252ad1be2c89b69c2b068fc378daa952ba7f163c4a11628f55a4df523b3ef8360405161153591906115c7565b60405180910390a35050565b6000604051905090565b600080fd5b600080fd5b6000819050919050565b61156881611555565b811461157357600080fd5b50565b6000813590506115858161155f565b92915050565b6000602082840312156115a1576115a061154b565b5b60006115af84828501611576565b91505092915050565b6115c181611555565b82525050565b60006020820190506115dc60008301846115b8565b92915050565b600073ffffffffffffffffffffffffffffffffffffffff82169050919050565b600061160d826115e2565b9050919050565b61161d81611602565b811461162857600080fd5b50565b60008135905061163a81611614565b92915050565b600080604083850312156116575761165661154b565b5b60006116658582860161162b565b925050602061167685828601611576565b9150509250929050565b60008115159050919050565b61169581611680565b82525050565b60006020820190506116b0600083018461168c565b92915050565b600080fd5b6000601f19601f8301169050919050565b7f4e487b7100000000000000000000000000000000000000000000000000000000600052604160045260246000fd5b611704826116bb565b810181811067ffffffffffffffff82111715611723576117226116cc565b5b80604052505050565b6000611736611541565b905061174282826116fb565b919050565b600067ffffffffffffffff821115611762576117616116cc565b5b602082029050602081019050919050565b600080fd5b600061178b61178684611747565b61172c565b905080838252602082019050602084028301858111156117ae576117ad611773565b5b835b818110156117d757806117c3888261162b565b8452602084019350506020810190506117b0565b5050509392505050565b600082601f8301126117f6576117f56116b6565b5b8135611806848260208601611778565b91505092915050565b600067ffffffffffffffff82111561182a576118296116cc565b5b602082029050602081019050919050565b600061184e6118498461180f565b61172c565b9050808382526020820190506020840283018581111561187157611870611773565b5b835b8181101561189a57806118868882611576565b845260208401935050602081019050611873565b5050509392505050565b600082601f8301126118b9576118b86116b6565b5b81356118c984826020860161183b565b91505092915050565b600080604083850312156118e9576118e861154b565b5b600083013567ffffffffffffffff81111561190757611906611550565b5b611913858286016117e1565b925050602083013567ffffffffffffffff81111561193457611933611550565b5b611940858286016118a4565b9150509250929050565b6000806000606084860312156119635761196261154b565b5b60006119718682870161162b565b93505060206119828682870161162b565b925050604061199386828701611576565b9150509250925092565b6000602082840312156119b3576119b261154b565b5b60006119c18482850161162b565b91505092915050565b600080604083850312156119e1576119e061154b565b5b60006119ef8582860161162b565b9250506020611a008582860161162b565b9150509250929050565b7f4e487b7100000000000000000000000000000000000000000000000000000000600052603260045260246000fd5b7f4e487b7100000000000000000000000000000000000000000000000000000000600052601160045260246000fd5b6000611a7382611555565b91507fffffffffffffffffffffffffffffffffffffffffffffffffffffffffffffffff821415611aa657611aa5611a39565b5b600182019050919050565b6000611abc82611555565b9150611ac783611555565b9250827fffffffffffffffffffffffffffffffffffffffffffffffffffffffffffffffff03821115611afc57611afb611a39565b5b828201905092915050565b7f4e487b7100000000000000000000000000000000000000000000000000000000600052600160045260246000fd5b6000611b4182611555565b9150611b4c83611555565b9250817fffffffffffffffffffffffffffffffffffffffffffffffffffffffffffffffff0483118215151615611b8557611b84611a39565b5b828202905092915050565b7f4e487b7100000000000000000000000000000000000000000000000000000000600052601260045260246000fd5b6000611bca82611555565b9150611bd583611555565b925082611be557611be4611b90565b5b828204905092915050565b6000611bfb82611555565b9150611c0683611555565b925082821015611c1957611c18611a39565b5b82820390509291505056fea26469706673582212200d276c81947f2a29cf93b3f699a641004990fb9e360275ed3e5df5c2620535c764736f6c63430008090033",
  "linkReferences": {},
  "deployedLinkReferences": {}
}