{
  "_format": "hh-sol-artifact-1",
  "contractName": "UniswapV2Router02",
  "sourceName": "contracts/UniswapV2Router02.sol",
  "abi": [
    {
      "inputs": [
        {
          "internalType": "address",
          "name": "_factory",
          "type": "address"
        },
        {
          "internalType": "address",
          "name": "_WETH",
          "type": "address"
        }
      ],
      "stateMutability": "nonpayable",
      "type": "constructor"
    },
    {
      "inputs": [],
      "name": "WETH",
      "outputs": [
        {
          "internalType": "address",
          "name": "",
          "type": "address"
        }
      ],
      "stateMutability": "view",
      "type": "function"
    },
    {
      "inputs": [
        {
          "internalType": "address",
          "name": "tokenA",
          "type": "address"
        },
        {
          "internalType": "address",
          "name": "tokenB",
          "type": "address"
        },
        {
          "internalType": "uint256",
          "name": "amountADesired",
          "type": "uint256"
        },
        {
          "internalType": "uint256",
          "name": "amountBDesired",
          "type": "uint256"
        },
        {
          "internalType": "uint256",
          "name": "amountAMin",
          "type": "uint256"
        },
        {
          "internalType": "uint256",
          "name": "amountBMin",
          "type": "uint256"
        },
        {
          "internalType": "address",
          "name": "to",
          "type": "address"
        },
        {
          "internalType": "uint256",
          "name": "deadline",
          "type": "uint256"
        }
      ],
      "name": "addLiquidity",
      "outputs": [
        {
          "internalType": "uint256",
          "name": "amountA",
          "type": "uint256"
        },
        {
          "internalType": "uint256",
          "name": "amountB",
          "type": "uint256"
        },
        {
          "internalType": "uint256",
          "name": "liquidity",
          "type": "uint256"
        }
      ],
      "stateMutability": "nonpayable",
      "type": "function"
    },
    {
      "inputs": [
        {
          "internalType": "address",
          "name": "token",
          "type": "address"
        },
        {
          "internalType": "uint256",
          "name": "amountTokenDesired",
          "type": "uint256"
        },
        {
          "internalType": "uint256",
          "name": "amountTokenMin",
          "type": "uint256"
        },
        {
          "internalType": "uint256",
          "name": "amountETHMin",
          "type": "uint256"
        },
        {
          "internalType": "address",
          "name": "to",
          "type": "address"
        },
        {
          "internalType": "uint256",
          "name": "deadline",
          "type": "uint256"
        }
      ],
      "name": "addLiquidityETH",
      "outputs": [
        {
          "internalType": "uint256",
          "name": "amountToken",
          "type": "uint256"
        },
        {
          "internalType": "uint256",
          "name": "amountETH",
          "type": "uint256"
        },
        {
          "internalType": "uint256",
          "name": "liquidity",
          "type": "uint256"
        }
      ],
      "stateMutability": "payable",
      "type": "function"
    },
    {
      "inputs": [],
      "name": "factory",
      "outputs": [
        {
          "internalType": "address",
          "name": "",
          "type": "address"
        }
      ],
      "stateMutability": "view",
      "type": "function"
    },
    {
      "inputs": [
        {
          "internalType": "uint256",
          "name": "amountOut",
          "type": "uint256"
        },
        {
          "internalType": "uint256",
          "name": "reserveIn",
          "type": "uint256"
        },
        {
          "internalType": "uint256",
          "name": "reserveOut",
          "type": "uint256"
        }
      ],
      "name": "getAmountIn",
      "outputs": [
        {
          "internalType": "uint256",
          "name": "amountIn",
          "type": "uint256"
        }
      ],
      "stateMutability": "view",
      "type": "function"
    },
    {
      "inputs": [
        {
          "internalType": "uint256",
          "name": "amountIn",
          "type": "uint256"
        },
        {
          "internalType": "uint256",
          "name": "reserveIn",
          "type": "uint256"
        },
        {
          "internalType": "uint256",
          "name": "reserveOut",
          "type": "uint256"
        }
      ],
      "name": "getAmountOut",
      "outputs": [
        {
          "internalType": "uint256",
          "name": "amountOut",
          "type": "uint256"
        }
      ],
      "stateMutability": "pure",
      "type": "function"
    },
    {
      "inputs": [
        {
          "internalType": "uint256",
          "name": "amountOut",
          "type": "uint256"
        },
        {
          "internalType": "address[]",
          "name": "path",
          "type": "address[]"
        }
      ],
      "name": "getAmountsIn",
      "outputs": [
        {
          "internalType": "uint256[]",
          "name": "amounts",
          "type": "uint256[]"
        }
      ],
      "stateMutability": "view",
      "type": "function"
    },
    {
      "inputs": [
        {
          "internalType": "uint256",
          "name": "amountIn",
          "type": "uint256"
        },
        {
          "internalType": "address[]",
          "name": "path",
          "type": "address[]"
        }
      ],
      "name": "getAmountsOut",
      "outputs": [
        {
          "internalType": "uint256[]",
          "name": "amounts",
          "type": "uint256[]"
        }
      ],
      "stateMutability": "view",
      "type": "function"
    },
    {
      "inputs": [
        {
          "internalType": "uint256",
          "name": "amountA",
          "type": "uint256"
        },
        {
          "internalType": "uint256",
          "name": "reserveA",
          "type": "uint256"
        },
        {
          "internalType": "uint256",
          "name": "reserveB",
          "type": "uint256"
        }
      ],
      "name": "quote",
      "outputs": [
        {
          "internalType": "uint256",
          "name": "amountB",
          "type": "uint256"
        }
      ],
      "stateMutability": "pure",
      "type": "function"
    },
    {
      "inputs": [
        {
          "internalType": "address",
          "name": "tokenA",
          "type": "address"
        },
        {
          "internalType": "address",
          "name": "tokenB",
          "type": "address"
        },
        {
          "internalType": "uint256",
          "name": "liquidity",
          "type": "uint256"
        },
        {
          "internalType": "uint256",
          "name": "amountAMin",
          "type": "uint256"
        },
        {
          "internalType": "uint256",
          "name": "amountBMin",
          "type": "uint256"
        },
        {
          "internalType": "address",
          "name": "to",
          "type": "address"
        },
        {
          "internalType": "uint256",
          "name": "deadline",
          "type": "uint256"
        }
      ],
      "name": "removeLiquidity",
      "outputs": [
        {
          "internalType": "uint256",
          "name": "amountA",
          "type": "uint256"
        },
        {
          "internalType": "uint256",
          "name": "amountB",
          "type": "uint256"
        }
      ],
      "stateMutability": "nonpayable",
      "type": "function"
    },
    {
      "inputs": [
        {
          "internalType": "address",
          "name": "token",
          "type": "address"
        },
        {
          "internalType": "uint256",
          "name": "liquidity",
          "type": "uint256"
        },
        {
          "internalType": "uint256",
          "name": "amountTokenMin",
          "type": "uint256"
        },
        {
          "internalType": "uint256",
          "name": "amountETHMin",
          "type": "uint256"
        },
        {
          "internalType": "address",
          "name": "to",
          "type": "address"
        },
        {
          "internalType": "uint256",
          "name": "deadline",
          "type": "uint256"
        }
      ],
      "name": "removeLiquidityETH",
      "outputs": [
        {
          "internalType": "uint256",
          "name": "amountToken",
          "type": "uint256"
        },
        {
          "internalType": "uint256",
          "name": "amountETH",
          "type": "uint256"
        }
      ],
      "stateMutability": "nonpayable",
      "type": "function"
    },
    {
      "inputs": [
        {
          "internalType": "address",
          "name": "token",
          "type": "address"
        },
        {
          "internalType": "uint256",
          "name": "liquidity",
          "type": "uint256"
        },
        {
          "internalType": "uint256",
          "name": "amountTokenMin",
          "type": "uint256"
        },
        {
          "internalType": "uint256",
          "name": "amountETHMin",
          "type": "uint256"
        },
        {
          "internalType": "address",
          "name": "to",
          "type": "address"
        },
        {
          "internalType": "uint256",
          "name": "deadline",
          "type": "uint256"
        }
      ],
      "name": "removeLiquidityETHSupportingFeeOnTransferTokens",
      "outputs": [
        {
          "internalType": "uint256",
          "name": "amountETH",
          "type": "uint256"
        }
      ],
      "stateMutability": "nonpayable",
      "type": "function"
    },
    {
      "inputs": [
        {
          "internalType": "address",
          "name": "token",
          "type": "address"
        },
        {
          "internalType": "uint256",
          "name": "liquidity",
          "type": "uint256"
        },
        {
          "internalType": "uint256",
          "name": "amountTokenMin",
          "type": "uint256"
        },
        {
          "internalType": "uint256",
          "name": "amountETHMin",
          "type": "uint256"
        },
        {
          "internalType": "address",
          "name": "to",
          "type": "address"
        },
        {
          "internalType": "uint256",
          "name": "deadline",
          "type": "uint256"
        },
        {
          "internalType": "bool",
          "name": "approveMax",
          "type": "bool"
        },
        {
          "internalType": "uint8",
          "name": "v",
          "type": "uint8"
        },
        {
          "internalType": "bytes32",
          "name": "r",
          "type": "bytes32"
        },
        {
          "internalType": "bytes32",
          "name": "s",
          "type": "bytes32"
        }
      ],
      "name": "removeLiquidityETHWithPermit",
      "outputs": [
        {
          "internalType": "uint256",
          "name": "amountToken",
          "type": "uint256"
        },
        {
          "internalType": "uint256",
          "name": "amountETH",
          "type": "uint256"
        }
      ],
      "stateMutability": "nonpayable",
      "type": "function"
    },
    {
      "inputs": [
        {
          "internalType": "address",
          "name": "token",
          "type": "address"
        },
        {
          "internalType": "uint256",
          "name": "liquidity",
          "type": "uint256"
        },
        {
          "internalType": "uint256",
          "name": "amountTokenMin",
          "type": "uint256"
        },
        {
          "internalType": "uint256",
          "name": "amountETHMin",
          "type": "uint256"
        },
        {
          "internalType": "address",
          "name": "to",
          "type": "address"
        },
        {
          "internalType": "uint256",
          "name": "deadline",
          "type": "uint256"
        },
        {
          "internalType": "bool",
          "name": "approveMax",
          "type": "bool"
        },
        {
          "internalType": "uint8",
          "name": "v",
          "type": "uint8"
        },
        {
          "internalType": "bytes32",
          "name": "r",
          "type": "bytes32"
        },
        {
          "internalType": "bytes32",
          "name": "s",
          "type": "bytes32"
        }
      ],
      "name": "removeLiquidityETHWithPermitSupportingFeeOnTransferTokens",
      "outputs": [
        {
          "internalType": "uint256",
          "name": "amountETH",
          "type": "uint256"
        }
      ],
      "stateMutability": "nonpayable",
      "type": "function"
    },
    {
      "inputs": [
        {
          "internalType": "address",
          "name": "tokenA",
          "type": "address"
        },
        {
          "internalType": "address",
          "name": "tokenB",
          "type": "address"
        },
        {
          "internalType": "uint256",
          "name": "liquidity",
          "type": "uint256"
        },
        {
          "internalType": "uint256",
          "name": "amountAMin",
          "type": "uint256"
        },
        {
          "internalType": "uint256",
          "name": "amountBMin",
          "type": "uint256"
        },
        {
          "internalType": "address",
          "name": "to",
          "type": "address"
        },
        {
          "internalType": "uint256",
          "name": "deadline",
          "type": "uint256"
        },
        {
          "internalType": "bool",
          "name": "approveMax",
          "type": "bool"
        },
        {
          "internalType": "uint8",
          "name": "v",
          "type": "uint8"
        },
        {
          "internalType": "bytes32",
          "name": "r",
          "type": "bytes32"
        },
        {
          "internalType": "bytes32",
          "name": "s",
          "type": "bytes32"
        }
      ],
      "name": "removeLiquidityWithPermit",
      "outputs": [
        {
          "internalType": "uint256",
          "name": "amountA",
          "type": "uint256"
        },
        {
          "internalType": "uint256",
          "name": "amountB",
          "type": "uint256"
        }
      ],
      "stateMutability": "nonpayable",
      "type": "function"
    },
    {
      "inputs": [
        {
          "internalType": "uint256",
          "name": "amountIn",
          "type": "uint256"
        },
        {
          "internalType": "uint256",
          "name": "amountOutMin",
          "type": "uint256"
        },
        {
          "internalType": "address[]",
          "name": "path",
          "type": "address[]"
        },
        {
          "internalType": "address",
          "name": "to",
          "type": "address"
        },
        {
          "internalType": "uint256",
          "name": "deadline",
          "type": "uint256"
        }
      ],
      "name": "swapCheck",
      "outputs": [
        {
          "internalType": "uint256[]",
          "name": "amounts",
          "type": "uint256[]"
        }
      ],
      "stateMutability": "nonpayable",
      "type": "function"
    },
    {
      "inputs": [
        {
          "internalType": "uint256",
          "name": "amountOut",
          "type": "uint256"
        },
        {
          "internalType": "address[]",
          "name": "path",
          "type": "address[]"
        },
        {
          "internalType": "address",
          "name": "to",
          "type": "address"
        },
        {
          "internalType": "uint256",
          "name": "deadline",
          "type": "uint256"
        }
      ],
      "name": "swapETHForExactTokens",
      "outputs": [
        {
          "internalType": "uint256[]",
          "name": "amounts",
          "type": "uint256[]"
        }
      ],
      "stateMutability": "payable",
      "type": "function"
    },
    {
      "inputs": [
        {
          "internalType": "uint256",
          "name": "amountOutMin",
          "type": "uint256"
        },
        {
          "internalType": "address[]",
          "name": "path",
          "type": "address[]"
        },
        {
          "internalType": "address",
          "name": "to",
          "type": "address"
        },
        {
          "internalType": "uint256",
          "name": "deadline",
          "type": "uint256"
        }
      ],
      "name": "swapExactETHForTokens",
      "outputs": [
        {
          "internalType": "uint256[]",
          "name": "amounts",
          "type": "uint256[]"
        }
      ],
      "stateMutability": "payable",
      "type": "function"
    },
    {
      "inputs": [
        {
          "internalType": "uint256",
          "name": "amountOutMin",
          "type": "uint256"
        },
        {
          "internalType": "address[]",
          "name": "path",
          "type": "address[]"
        },
        {
          "internalType": "address",
          "name": "to",
          "type": "address"
        },
        {
          "internalType": "uint256",
          "name": "deadline",
          "type": "uint256"
        }
      ],
      "name": "swapExactETHForTokensSupportingFeeOnTransferTokens",
      "outputs": [],
      "stateMutability": "payable",
      "type": "function"
    },
    {
      "inputs": [
        {
          "internalType": "uint256",
          "name": "amountIn",
          "type": "uint256"
        },
        {
          "internalType": "uint256",
          "name": "amountOutMin",
          "type": "uint256"
        },
        {
          "internalType": "address[]",
          "name": "path",
          "type": "address[]"
        },
        {
          "internalType": "address",
          "name": "to",
          "type": "address"
        },
        {
          "internalType": "uint256",
          "name": "deadline",
          "type": "uint256"
        }
      ],
      "name": "swapExactTokensForETH",
      "outputs": [
        {
          "internalType": "uint256[]",
          "name": "amounts",
          "type": "uint256[]"
        }
      ],
      "stateMutability": "nonpayable",
      "type": "function"
    },
    {
      "inputs": [
        {
          "internalType": "uint256",
          "name": "amountIn",
          "type": "uint256"
        },
        {
          "internalType": "uint256",
          "name": "amountOutMin",
          "type": "uint256"
        },
        {
          "internalType": "address[]",
          "name": "path",
          "type": "address[]"
        },
        {
          "internalType": "address",
          "name": "to",
          "type": "address"
        },
        {
          "internalType": "uint256",
          "name": "deadline",
          "type": "uint256"
        }
      ],
      "name": "swapExactTokensForETHSupportingFeeOnTransferTokens",
      "outputs": [],
      "stateMutability": "nonpayable",
      "type": "function"
    },
    {
      "inputs": [
        {
          "internalType": "uint256",
          "name": "amountIn",
          "type": "uint256"
        },
        {
          "internalType": "uint256",
          "name": "amountOutMin",
          "type": "uint256"
        },
        {
          "internalType": "address[]",
          "name": "path",
          "type": "address[]"
        },
        {
          "internalType": "address",
          "name": "to",
          "type": "address"
        },
        {
          "internalType": "uint256",
          "name": "deadline",
          "type": "uint256"
        }
      ],
      "name": "swapExactTokensForTokens",
      "outputs": [
        {
          "internalType": "uint256[]",
          "name": "amounts",
          "type": "uint256[]"
        }
      ],
      "stateMutability": "nonpayable",
      "type": "function"
    },
    {
      "inputs": [
        {
          "internalType": "uint256",
          "name": "amountIn",
          "type": "uint256"
        },
        {
          "internalType": "uint256",
          "name": "amountOutMin",
          "type": "uint256"
        },
        {
          "internalType": "address[]",
          "name": "path",
          "type": "address[]"
        },
        {
          "internalType": "address",
          "name": "to",
          "type": "address"
        },
        {
          "internalType": "uint256",
          "name": "deadline",
          "type": "uint256"
        }
      ],
      "name": "swapExactTokensForTokensSupportingFeeOnTransferTokens",
      "outputs": [],
      "stateMutability": "nonpayable",
      "type": "function"
    },
    {
      "inputs": [
        {
          "internalType": "uint256",
          "name": "amountOut",
          "type": "uint256"
        },
        {
          "internalType": "uint256",
          "name": "amountInMax",
          "type": "uint256"
        },
        {
          "internalType": "address[]",
          "name": "path",
          "type": "address[]"
        },
        {
          "internalType": "address",
          "name": "to",
          "type": "address"
        },
        {
          "internalType": "uint256",
          "name": "deadline",
          "type": "uint256"
        }
      ],
      "name": "swapTokensForExactETH",
      "outputs": [
        {
          "internalType": "uint256[]",
          "name": "amounts",
          "type": "uint256[]"
        }
      ],
      "stateMutability": "nonpayable",
      "type": "function"
    },
    {
      "inputs": [
        {
          "internalType": "uint256",
          "name": "amountOut",
          "type": "uint256"
        },
        {
          "internalType": "uint256",
          "name": "amountInMax",
          "type": "uint256"
        },
        {
          "internalType": "address[]",
          "name": "path",
          "type": "address[]"
        },
        {
          "internalType": "address",
          "name": "to",
          "type": "address"
        },
        {
          "internalType": "uint256",
          "name": "deadline",
          "type": "uint256"
        }
      ],
      "name": "swapTokensForExactTokens",
      "outputs": [
        {
          "internalType": "uint256[]",
          "name": "amounts",
          "type": "uint256[]"
        }
      ],
      "stateMutability": "nonpayable",
      "type": "function"
    },
    {
      "stateMutability": "payable",
      "type": "receive"
    }
  ],
  "bytecode": "0x60c06040523480156200001157600080fd5b5060405162006fda38038062006fda833981810160405281019062000037919062000111565b8173ffffffffffffffffffffffffffffffffffffffff1660808173ffffffffffffffffffffffffffffffffffffffff16815250508073ffffffffffffffffffffffffffffffffffffffff1660a08173ffffffffffffffffffffffffffffffffffffffff1681525050505062000158565b600080fd5b600073ffffffffffffffffffffffffffffffffffffffff82169050919050565b6000620000d982620000ac565b9050919050565b620000eb81620000cc565b8114620000f757600080fd5b50565b6000815190506200010b81620000e0565b92915050565b600080604083850312156200012b576200012a620000a7565b5b60006200013b85828601620000fa565b92505060206200014e85828601620000fa565b9150509250929050565b60805160a051616cbf6200031b6000396000818161017101528181610788015281816107c6015281816108c301528181610b7401528181611533015281816117d8015281816118ee01528181611d3f01528181611efe01528181611fec015281816120d10152818161225f015281816122fb015281816126e80152818161276c0152818161283001528181612914015281816129cf01528181612a50015281816130b40152818161333b01528181613394015281816133c8015281816134490152818161360201528181613784015261382001526000818161098a01528181610a8f01528181610c6701528181610c9f01528181610e2101528181610f6401528181611146015281816111c7015281816115fa015281816116f3015281816118cc01528181611a5201528181611e330152818161218a0152818161233a015281816124ff015281816125f801528181612a8f01528181612dfb015281816130310152818161305a015281816130920152818161320f01528181613372015281816136bb0152818161385f015281816141af01528181614203015281816145b1015281816147db01528181614c7a01528181614d410152614df60152616cbf6000f3fe60806040526004361061016a5760003560e01c806385f8c259116100d1578063baa2abde1161008a578063ded9382a11610064578063ded9382a1461065c578063e8e337001461069a578063f305d719146106d9578063fb3bdb411461070b576101cd565b8063baa2abde146105b6578063c45a0155146105f4578063d06ca61f1461061f576101cd565b806385f8c2591461047b5780638803dbee146104b8578063ad5c4648146104f5578063ad615dec14610520578063af2979eb1461055d578063b6f9de951461059a576101cd565b8063494339e111610123578063494339e1146103425780634a25d94a1461037f5780635b0d5984146103bc5780635c11d795146103f9578063791ac947146104225780637ff36ab51461044b576101cd565b806302751cec146101d2578063054d50d41461021057806318cbafe51461024d5780631f00ca741461028a5780632195995c146102c757806338ed173914610305576101cd565b366101cd577f000000000000000000000000000000000000000000000000000000000000000073ffffffffffffffffffffffffffffffffffffffff163373ffffffffffffffffffffffffffffffffffffffff16146101cb576101ca615131565b5b005b600080fd5b3480156101de57600080fd5b506101f960048036038101906101f49190615208565b61073b565b6040516102079291906152a4565b60405180910390f35b34801561021c57600080fd5b50610237600480360381019061023291906152cd565b610865565b6040516102449190615320565b60405180910390f35b34801561025957600080fd5b50610274600480360381019061026f91906153a0565b61087b565b60405161028191906154f8565b60405180910390f35b34801561029657600080fd5b506102b160048036038101906102ac9190615669565b610c60565b6040516102be91906154f8565b60405180910390f35b3480156102d357600080fd5b506102ee60048036038101906102e9919061576c565b610c95565b6040516102fc9291906152a4565b60405180910390f35b34801561031157600080fd5b5061032c600480360381019061032791906153a0565b610d98565b60405161033991906154f8565b60405180910390f35b34801561034e57600080fd5b50610369600480360381019061036491906153a0565b6110ce565b60405161037691906154f8565b60405180910390f35b34801561038b57600080fd5b506103a660048036038101906103a191906153a0565b6114eb565b6040516103b391906154f8565b60405180910390f35b3480156103c857600080fd5b506103e360048036038101906103de9190615860565b6118c4565b6040516103f09190615320565b60405180910390f35b34801561040557600080fd5b50610420600480360381019061041b91906153a0565b6119dc565b005b34801561042e57600080fd5b50610449600480360381019061044491906153a0565b611cf9565b005b6104656004803603810190610460919061593f565b612089565b60405161047291906154f8565b60405180910390f35b34801561048757600080fd5b506104a2600480360381019061049d91906152cd565b61249e565b6040516104af9190615320565b60405180910390f35b3480156104c457600080fd5b506104df60048036038101906104da91906153a0565b6124b4565b6040516104ec91906154f8565b60405180910390f35b34801561050157600080fd5b5061050a6126e6565b60405161051791906159d6565b60405180910390f35b34801561052c57600080fd5b50610547600480360381019061054291906152cd565b61270a565b6040516105549190615320565b60405180910390f35b34801561056957600080fd5b50610584600480360381019061057f9190615208565b612720565b6040516105919190615320565b60405180910390f35b6105b460048036038101906105af919061593f565b6128ce565b005b3480156105c257600080fd5b506105dd60048036038101906105d891906159f1565b612dad565b6040516105eb9291906152a4565b60405180910390f35b34801561060057600080fd5b5061060961302f565b60405161061691906159d6565b60405180910390f35b34801561062b57600080fd5b5061064660048036038101906106419190615669565b613053565b60405161065391906154f8565b60405180910390f35b34801561066857600080fd5b50610683600480360381019061067e9190615860565b613088565b6040516106919291906152a4565b60405180910390f35b3480156106a657600080fd5b506106c160048036038101906106bc9190615a93565b6131a9565b6040516106d093929190615b49565b60405180910390f35b6106f360048036038101906106ee9190615208565b6132ec565b60405161070293929190615b49565b60405180910390f35b6107256004803603810190610720919061593f565b6135ba565b60405161073291906154f8565b60405180910390f35b6000808242811015610782576040517f08c379a000000000000000000000000000000000000000000000000000000000815260040161077990615bdd565b60405180910390fd5b6107b1897f00000000000000000000000000000000000000000000000000000000000000008a8a8a308a612dad565b80935081945050506107c4898685613a17565b7f000000000000000000000000000000000000000000000000000000000000000073ffffffffffffffffffffffffffffffffffffffff16632e1a7d4d836040518263ffffffff1660e01b815260040161081d9190615320565b600060405180830381600087803b15801561083757600080fd5b505af115801561084b573d6000803e3d6000fd5b505050506108598583613b4d565b50965096945050505050565b6000610872848484613c4d565b90509392505050565b606081428110156108c1576040517f08c379a00000000000000000000000000000000000000000000000000000000081526004016108b890615bdd565b60405180910390fd5b7f000000000000000000000000000000000000000000000000000000000000000073ffffffffffffffffffffffffffffffffffffffff16868660018989905061090a9190615c2c565b81811061091a57610919615c60565b5b905060200201602081019061092f9190615c8f565b73ffffffffffffffffffffffffffffffffffffffff1614610985576040517f08c379a000000000000000000000000000000000000000000000000000000000815260040161097c90615d08565b60405180910390fd5b6109f17f000000000000000000000000000000000000000000000000000000000000000089888880806020026020016040519081016040528093929190818152602001838360200280828437600081840152601f19601f82011690508083019250505050505050613d53565b9150868260018451610a039190615c2c565b81518110610a1457610a13615c60565b5b60200260200101511015610a5d576040517f08c379a0000000000000000000000000000000000000000000000000000000008152600401610a5490615d9a565b60405180910390fd5b610b2686866000818110610a7457610a73615c60565b5b9050602002016020810190610a899190615c8f565b33610b057f00000000000000000000000000000000000000000000000000000000000000008a8a6000818110610ac257610ac1615c60565b5b9050602002016020810190610ad79190615c8f565b8b8b6001818110610aeb57610aea615c60565b5b9050602002016020810190610b009190615c8f565b613ede565b85600081518110610b1957610b18615c60565b5b6020026020010151613f74565b610b7282878780806020026020016040519081016040528093929190818152602001838360200280828437600081840152601f19601f82011690508083019250505050505050306140ad565b7f000000000000000000000000000000000000000000000000000000000000000073ffffffffffffffffffffffffffffffffffffffff16632e1a7d4d8360018551610bbd9190615c2c565b81518110610bce57610bcd615c60565b5b60200260200101516040518263ffffffff1660e01b8152600401610bf29190615320565b600060405180830381600087803b158015610c0c57600080fd5b505af1158015610c20573d6000803e3d6000fd5b50505050610c55848360018551610c379190615c2c565b81518110610c4857610c47615c60565b5b6020026020010151613b4d565b509695505050505050565b6060610c8d7f00000000000000000000000000000000000000000000000000000000000000008484614306565b905092915050565b6000806000610cc57f00000000000000000000000000000000000000000000000000000000000000008f8f613ede565b9050600087610cd4578c610cf6565b7fffffffffffffffffffffffffffffffffffffffffffffffffffffffffffffffff5b90508173ffffffffffffffffffffffffffffffffffffffff1663d505accf3330848d8c8c8c6040518863ffffffff1660e01b8152600401610d3d9796959493929190615dd8565b600060405180830381600087803b158015610d5757600080fd5b505af1158015610d6b573d6000803e3d6000fd5b50505050610d7e8f8f8f8f8f8f8f612dad565b809450819550505050509b509b9950505050505050505050565b60608142811015610dde576040517f08c379a0000000000000000000000000000000000000000000000000000000008152600401610dd590615bdd565b60405180910390fd5b610e1c6040518060400160405280600e81526020017f54686973207375636365646465640000000000000000000000000000000000008152506144a1565b610e887f000000000000000000000000000000000000000000000000000000000000000089888880806020026020016040519081016040528093929190818152602001838360200280828437600081840152601f19601f82011690508083019250505050505050613d53565b9150868260018451610e9a9190615c2c565b81518110610eab57610eaa615c60565b5b60200260200101511015610ef4576040517f08c379a0000000000000000000000000000000000000000000000000000000008152600401610eeb90615d9a565b60405180910390fd5b610f326040518060400160405280601081526020017f54686973207375636365646465642032000000000000000000000000000000008152506144a1565b610ffb86866000818110610f4957610f48615c60565b5b9050602002016020810190610f5e9190615c8f565b33610fda7f00000000000000000000000000000000000000000000000000000000000000008a8a6000818110610f9757610f96615c60565b5b9050602002016020810190610fac9190615c8f565b8b8b6001818110610fc057610fbf615c60565b5b9050602002016020810190610fd59190615c8f565b613ede565b85600081518110610fee57610fed615c60565b5b6020026020010151613f74565b6110396040518060400160405280601081526020017f54686973207375636365646465642033000000000000000000000000000000008152506144a1565b61108582878780806020026020016040519081016040528093929190818152602001838360200280828437600081840152601f19601f82011690508083019250505050505050866140ad565b6110c36040518060400160405280601081526020017f54686973207375636365646465642034000000000000000000000000000000008152506144a1565b509695505050505050565b60608142811015611114576040517f08c379a000000000000000000000000000000000000000000000000000000000815260040161110b90615bdd565b60405180910390fd5b6111c28686600081811061112b5761112a615c60565b5b90506020020160208101906111409190615c8f565b336111bc7f00000000000000000000000000000000000000000000000000000000000000008a8a600081811061117957611178615c60565b5b905060200201602081019061118e9190615c8f565b8b8b60018181106111a2576111a1615c60565b5b90506020020160208101906111b79190615c8f565b613ede565b8b613f74565b61122e7f000000000000000000000000000000000000000000000000000000000000000089888880806020026020016040519081016040528093929190818152602001838360200280828437600081840152601f19601f82011690508083019250505050505050613d53565b915060008686600081811061124657611245615c60565b5b905060200201602081019061125b9190615c8f565b73ffffffffffffffffffffffffffffffffffffffff166370a08231306040518263ffffffff1660e01b815260040161129391906159d6565b60206040518083038186803b1580156112ab57600080fd5b505afa1580156112bf573d6000803e3d6000fd5b505050506040513d601f19601f820116820180604052508101906112e39190615e5c565b9050808914611327576040517f08c379a000000000000000000000000000000000000000000000000000000000815260040161131e90615ed5565b60405180910390fd5b60008787600181811061133d5761133c615c60565b5b90506020020160208101906113529190615c8f565b73ffffffffffffffffffffffffffffffffffffffff166370a08231876040518263ffffffff1660e01b815260040161138a91906159d6565b60206040518083038186803b1580156113a257600080fd5b505afa1580156113b6573d6000803e3d6000fd5b505050506040513d601f19601f820116820180604052508101906113da9190615e5c565b905061142884898980806020026020016040519081016040528093929190818152602001838360200280828437600081840152601f19601f82011690508083019250505050505050886140ad565b60008888600181811061143e5761143d615c60565b5b90506020020160208101906114539190615c8f565b73ffffffffffffffffffffffffffffffffffffffff166370a08231886040518263ffffffff1660e01b815260040161148b91906159d6565b60206040518083038186803b1580156114a357600080fd5b505afa1580156114b7573d6000803e3d6000fd5b505050506040513d601f19601f820116820180604052508101906114db9190615e5c565b9050505050509695505050505050565b60608142811015611531576040517f08c379a000000000000000000000000000000000000000000000000000000000815260040161152890615bdd565b60405180910390fd5b7f000000000000000000000000000000000000000000000000000000000000000073ffffffffffffffffffffffffffffffffffffffff16868660018989905061157a9190615c2c565b81811061158a57611589615c60565b5b905060200201602081019061159f9190615c8f565b73ffffffffffffffffffffffffffffffffffffffff16146115f5576040517f08c379a00000000000000000000000000000000000000000000000000000000081526004016115ec90615d08565b60405180910390fd5b6116617f000000000000000000000000000000000000000000000000000000000000000089888880806020026020016040519081016040528093929190818152602001838360200280828437600081840152601f19601f82011690508083019250505050505050614306565b9150868260008151811061167857611677615c60565b5b602002602001015111156116c1576040517f08c379a00000000000000000000000000000000000000000000000000000000081526004016116b890615f67565b60405180910390fd5b61178a868660008181106116d8576116d7615c60565b5b90506020020160208101906116ed9190615c8f565b336117697f00000000000000000000000000000000000000000000000000000000000000008a8a600081811061172657611725615c60565b5b905060200201602081019061173b9190615c8f565b8b8b600181811061174f5761174e615c60565b5b90506020020160208101906117649190615c8f565b613ede565b8560008151811061177d5761177c615c60565b5b6020026020010151613f74565b6117d682878780806020026020016040519081016040528093929190818152602001838360200280828437600081840152601f19601f82011690508083019250505050505050306140ad565b7f000000000000000000000000000000000000000000000000000000000000000073ffffffffffffffffffffffffffffffffffffffff16632e1a7d4d83600185516118219190615c2c565b8151811061183257611831615c60565b5b60200260200101516040518263ffffffff1660e01b81526004016118569190615320565b600060405180830381600087803b15801561187057600080fd5b505af1158015611884573d6000803e3d6000fd5b505050506118b984836001855161189b9190615c2c565b815181106118ac576118ab615c60565b5b6020026020010151613b4d565b509695505050505050565b6000806119127f00000000000000000000000000000000000000000000000000000000000000008d7f0000000000000000000000000000000000000000000000000000000000000000613ede565b9050600086611921578b611943565b7fffffffffffffffffffffffffffffffffffffffffffffffffffffffffffffffff5b90508173ffffffffffffffffffffffffffffffffffffffff1663d505accf3330848c8b8b8b6040518863ffffffff1660e01b815260040161198a9796959493929190615dd8565b600060405180830381600087803b1580156119a457600080fd5b505af11580156119b8573d6000803e3d6000fd5b505050506119ca8d8d8d8d8d8d612720565b925050509a9950505050505050505050565b8042811015611a20576040517f08c379a0000000000000000000000000000000000000000000000000000000008152600401611a1790615bdd565b60405180910390fd5b611ace85856000818110611a3757611a36615c60565b5b9050602002016020810190611a4c9190615c8f565b33611ac87f000000000000000000000000000000000000000000000000000000000000000089896000818110611a8557611a84615c60565b5b9050602002016020810190611a9a9190615c8f565b8a8a6001818110611aae57611aad615c60565b5b9050602002016020810190611ac39190615c8f565b613ede565b8a613f74565b60008585600188889050611ae29190615c2c565b818110611af257611af1615c60565b5b9050602002016020810190611b079190615c8f565b73ffffffffffffffffffffffffffffffffffffffff166370a08231856040518263ffffffff1660e01b8152600401611b3f91906159d6565b60206040518083038186803b158015611b5757600080fd5b505afa158015611b6b573d6000803e3d6000fd5b505050506040513d601f19601f82011682018060405250810190611b8f9190615e5c565b9050611bdc868680806020026020016040519081016040528093929190818152602001838360200280828437600081840152601f19601f820116905080830192505050505050508561453a565b86611cae82888860018b8b9050611bf39190615c2c565b818110611c0357611c02615c60565b5b9050602002016020810190611c189190615c8f565b73ffffffffffffffffffffffffffffffffffffffff166370a08231886040518263ffffffff1660e01b8152600401611c5091906159d6565b60206040518083038186803b158015611c6857600080fd5b505afa158015611c7c573d6000803e3d6000fd5b505050506040513d601f19601f82011682018060405250810190611ca09190615e5c565b61490990919063ffffffff16565b1015611cef576040517f08c379a0000000000000000000000000000000000000000000000000000000008152600401611ce690615d9a565b60405180910390fd5b5050505050505050565b8042811015611d3d576040517f08c379a0000000000000000000000000000000000000000000000000000000008152600401611d3490615bdd565b60405180910390fd5b7f000000000000000000000000000000000000000000000000000000000000000073ffffffffffffffffffffffffffffffffffffffff168585600188889050611d869190615c2c565b818110611d9657611d95615c60565b5b9050602002016020810190611dab9190615c8f565b73ffffffffffffffffffffffffffffffffffffffff1614611e01576040517f08c379a0000000000000000000000000000000000000000000000000000000008152600401611df890615d08565b60405180910390fd5b611eaf85856000818110611e1857611e17615c60565b5b9050602002016020810190611e2d9190615c8f565b33611ea97f000000000000000000000000000000000000000000000000000000000000000089896000818110611e6657611e65615c60565b5b9050602002016020810190611e7b9190615c8f565b8a8a6001818110611e8f57611e8e615c60565b5b9050602002016020810190611ea49190615c8f565b613ede565b8a613f74565b611efa858580806020026020016040519081016040528093929190818152602001838360200280828437600081840152601f19601f820116905080830192505050505050503061453a565b60007f000000000000000000000000000000000000000000000000000000000000000073ffffffffffffffffffffffffffffffffffffffff166370a08231306040518263ffffffff1660e01b8152600401611f5591906159d6565b60206040518083038186803b158015611f6d57600080fd5b505afa158015611f81573d6000803e3d6000fd5b505050506040513d601f19601f82011682018060405250810190611fa59190615e5c565b905086811015611fea576040517f08c379a0000000000000000000000000000000000000000000000000000000008152600401611fe190615d9a565b60405180910390fd5b7f000000000000000000000000000000000000000000000000000000000000000073ffffffffffffffffffffffffffffffffffffffff16632e1a7d4d826040518263ffffffff1660e01b81526004016120439190615320565b600060405180830381600087803b15801561205d57600080fd5b505af1158015612071573d6000803e3d6000fd5b5050505061207f8482613b4d565b5050505050505050565b606081428110156120cf576040517f08c379a00000000000000000000000000000000000000000000000000000000081526004016120c690615bdd565b60405180910390fd5b7f000000000000000000000000000000000000000000000000000000000000000073ffffffffffffffffffffffffffffffffffffffff168686600081811061211a57612119615c60565b5b905060200201602081019061212f9190615c8f565b73ffffffffffffffffffffffffffffffffffffffff1614612185576040517f08c379a000000000000000000000000000000000000000000000000000000000815260040161217c90615d08565b60405180910390fd5b6121f17f000000000000000000000000000000000000000000000000000000000000000034888880806020026020016040519081016040528093929190818152602001838360200280828437600081840152601f19601f82011690508083019250505050505050613d53565b91508682600184516122039190615c2c565b8151811061221457612213615c60565b5b6020026020010151101561225d576040517f08c379a000000000000000000000000000000000000000000000000000000000815260040161225490615d9a565b60405180910390fd5b7f000000000000000000000000000000000000000000000000000000000000000073ffffffffffffffffffffffffffffffffffffffff1663d0e30db0836000815181106122ad576122ac615c60565b5b60200260200101516040518263ffffffff1660e01b81526004016000604051808303818588803b1580156122e057600080fd5b505af11580156122f4573d6000803e3d6000fd5b50505050507f000000000000000000000000000000000000000000000000000000000000000073ffffffffffffffffffffffffffffffffffffffff1663a9059cbb6123b07f00000000000000000000000000000000000000000000000000000000000000008989600081811061236d5761236c615c60565b5b90506020020160208101906123829190615c8f565b8a8a600181811061239657612395615c60565b5b90506020020160208101906123ab9190615c8f565b613ede565b846000815181106123c4576123c3615c60565b5b60200260200101516040518363ffffffff1660e01b81526004016123e9929190615f87565b602060405180830381600087803b15801561240357600080fd5b505af1158015612417573d6000803e3d6000fd5b505050506040513d601f19601f8201168201806040525081019061243b9190615fc5565b61244857612447615131565b5b61249482878780806020026020016040519081016040528093929190818152602001838360200280828437600081840152601f19601f82011690508083019250505050505050866140ad565b5095945050505050565b60006124ab848484614962565b90509392505050565b606081428110156124fa576040517f08c379a00000000000000000000000000000000000000000000000000000000081526004016124f190615bdd565b60405180910390fd5b6125667f000000000000000000000000000000000000000000000000000000000000000089888880806020026020016040519081016040528093929190818152602001838360200280828437600081840152601f19601f82011690508083019250505050505050614306565b9150868260008151811061257d5761257c615c60565b5b602002602001015111156125c6576040517f08c379a00000000000000000000000000000000000000000000000000000000081526004016125bd90615f67565b60405180910390fd5b61268f868660008181106125dd576125dc615c60565b5b90506020020160208101906125f29190615c8f565b3361266e7f00000000000000000000000000000000000000000000000000000000000000008a8a600081811061262b5761262a615c60565b5b90506020020160208101906126409190615c8f565b8b8b600181811061265457612653615c60565b5b90506020020160208101906126699190615c8f565b613ede565b8560008151811061268257612681615c60565b5b6020026020010151613f74565b6126db82878780806020026020016040519081016040528093929190818152602001838360200280828437600081840152601f19601f82011690508083019250505050505050866140ad565b509695505050505050565b7f000000000000000000000000000000000000000000000000000000000000000081565b6000612717848484614a75565b90509392505050565b60008142811015612766576040517f08c379a000000000000000000000000000000000000000000000000000000000815260040161275d90615bdd565b60405180910390fd5b612795887f00000000000000000000000000000000000000000000000000000000000000008989893089612dad565b90508092505061282e88858a73ffffffffffffffffffffffffffffffffffffffff166370a08231306040518263ffffffff1660e01b81526004016127d991906159d6565b60206040518083038186803b1580156127f157600080fd5b505afa158015612805573d6000803e3d6000fd5b505050506040513d601f19601f820116820180604052508101906128299190615e5c565b613a17565b7f000000000000000000000000000000000000000000000000000000000000000073ffffffffffffffffffffffffffffffffffffffff16632e1a7d4d836040518263ffffffff1660e01b81526004016128879190615320565b600060405180830381600087803b1580156128a157600080fd5b505af11580156128b5573d6000803e3d6000fd5b505050506128c38483613b4d565b509695505050505050565b8042811015612912576040517f08c379a000000000000000000000000000000000000000000000000000000000815260040161290990615bdd565b60405180910390fd5b7f000000000000000000000000000000000000000000000000000000000000000073ffffffffffffffffffffffffffffffffffffffff168585600081811061295d5761295c615c60565b5b90506020020160208101906129729190615c8f565b73ffffffffffffffffffffffffffffffffffffffff16146129c8576040517f08c379a00000000000000000000000000000000000000000000000000000000081526004016129bf90615d08565b60405180910390fd5b60003490507f000000000000000000000000000000000000000000000000000000000000000073ffffffffffffffffffffffffffffffffffffffff1663d0e30db0826040518263ffffffff1660e01b81526004016000604051808303818588803b158015612a3557600080fd5b505af1158015612a49573d6000803e3d6000fd5b50505050507f000000000000000000000000000000000000000000000000000000000000000073ffffffffffffffffffffffffffffffffffffffff1663a9059cbb612b057f000000000000000000000000000000000000000000000000000000000000000089896000818110612ac257612ac1615c60565b5b9050602002016020810190612ad79190615c8f565b8a8a6001818110612aeb57612aea615c60565b5b9050602002016020810190612b009190615c8f565b613ede565b836040518363ffffffff1660e01b8152600401612b23929190615f87565b602060405180830381600087803b158015612b3d57600080fd5b505af1158015612b51573d6000803e3d6000fd5b505050506040513d601f19601f82011682018060405250810190612b759190615fc5565b612b8257612b81615131565b5b60008686600189899050612b969190615c2c565b818110612ba657612ba5615c60565b5b9050602002016020810190612bbb9190615c8f565b73ffffffffffffffffffffffffffffffffffffffff166370a08231866040518263ffffffff1660e01b8152600401612bf391906159d6565b60206040518083038186803b158015612c0b57600080fd5b505afa158015612c1f573d6000803e3d6000fd5b505050506040513d601f19601f82011682018060405250810190612c439190615e5c565b9050612c90878780806020026020016040519081016040528093929190818152602001838360200280828437600081840152601f19601f820116905080830192505050505050508661453a565b87612d6282898960018c8c9050612ca79190615c2c565b818110612cb757612cb6615c60565b5b9050602002016020810190612ccc9190615c8f565b73ffffffffffffffffffffffffffffffffffffffff166370a08231896040518263ffffffff1660e01b8152600401612d0491906159d6565b60206040518083038186803b158015612d1c57600080fd5b505afa158015612d30573d6000803e3d6000fd5b505050506040513d601f19601f82011682018060405250810190612d549190615e5c565b61490990919063ffffffff16565b1015612da3576040517f08c379a0000000000000000000000000000000000000000000000000000000008152600401612d9a90615d9a565b60405180910390fd5b5050505050505050565b6000808242811015612df4576040517f08c379a0000000000000000000000000000000000000000000000000000000008152600401612deb90615bdd565b60405180910390fd5b6000612e217f00000000000000000000000000000000000000000000000000000000000000008c8c613ede565b90508073ffffffffffffffffffffffffffffffffffffffff166323b872dd33838c6040518463ffffffff1660e01b8152600401612e6093929190615ff2565b602060405180830381600087803b158015612e7a57600080fd5b505af1158015612e8e573d6000803e3d6000fd5b505050506040513d601f19601f82011682018060405250810190612eb29190615fc5565b506000808273ffffffffffffffffffffffffffffffffffffffff166389afcb44896040518263ffffffff1660e01b8152600401612eef91906159d6565b6040805180830381600087803b158015612f0857600080fd5b505af1158015612f1c573d6000803e3d6000fd5b505050506040513d601f19601f82011682018060405250810190612f409190616029565b915091506000612f508e8e614b2f565b5090508073ffffffffffffffffffffffffffffffffffffffff168e73ffffffffffffffffffffffffffffffffffffffff1614612f8d578183612f90565b82825b80975081985050508a871015612fdb576040517f08c379a0000000000000000000000000000000000000000000000000000000008152600401612fd2906160db565b60405180910390fd5b8986101561301e576040517f08c379a00000000000000000000000000000000000000000000000000000000081526004016130159061616d565b60405180910390fd5b505050505097509795505050505050565b7f000000000000000000000000000000000000000000000000000000000000000081565b60606130807f00000000000000000000000000000000000000000000000000000000000000008484613d53565b905092915050565b60008060006130d87f00000000000000000000000000000000000000000000000000000000000000008e7f0000000000000000000000000000000000000000000000000000000000000000613ede565b90506000876130e7578c613109565b7fffffffffffffffffffffffffffffffffffffffffffffffffffffffffffffffff5b90508173ffffffffffffffffffffffffffffffffffffffff1663d505accf3330848d8c8c8c6040518863ffffffff1660e01b81526004016131509796959493929190615dd8565b600060405180830381600087803b15801561316a57600080fd5b505af115801561317e573d6000803e3d6000fd5b505050506131908e8e8e8e8e8e61073b565b809450819550505050509a509a98505050505050505050565b600080600083428110156131f2576040517f08c379a00000000000000000000000000000000000000000000000000000000081526004016131e990615bdd565b60405180910390fd5b6132008c8c8c8c8c8c614c5d565b809450819550505060006132357f00000000000000000000000000000000000000000000000000000000000000008e8e613ede565b90506132438d338388613f74565b61324f8c338387613f74565b8073ffffffffffffffffffffffffffffffffffffffff16636a627842886040518263ffffffff1660e01b815260040161328891906159d6565b602060405180830381600087803b1580156132a257600080fd5b505af11580156132b6573d6000803e3d6000fd5b505050506040513d601f19601f820116820180604052508101906132da9190615e5c565b92505050985098509895505050505050565b60008060008342811015613335576040517f08c379a000000000000000000000000000000000000000000000000000000000815260040161332c90615bdd565b60405180910390fd5b6133638a7f00000000000000000000000000000000000000000000000000000000000000008b348c8c614c5d565b809450819550505060006133b87f00000000000000000000000000000000000000000000000000000000000000008c7f0000000000000000000000000000000000000000000000000000000000000000613ede565b90506133c68b338388613f74565b7f000000000000000000000000000000000000000000000000000000000000000073ffffffffffffffffffffffffffffffffffffffff1663d0e30db0856040518263ffffffff1660e01b81526004016000604051808303818588803b15801561342e57600080fd5b505af1158015613442573d6000803e3d6000fd5b50505050507f000000000000000000000000000000000000000000000000000000000000000073ffffffffffffffffffffffffffffffffffffffff1663a9059cbb82866040518363ffffffff1660e01b81526004016134a2929190615f87565b602060405180830381600087803b1580156134bc57600080fd5b505af11580156134d0573d6000803e3d6000fd5b505050506040513d601f19601f820116820180604052508101906134f49190615fc5565b61350157613500615131565b5b8073ffffffffffffffffffffffffffffffffffffffff16636a627842886040518263ffffffff1660e01b815260040161353a91906159d6565b602060405180830381600087803b15801561355457600080fd5b505af1158015613568573d6000803e3d6000fd5b505050506040513d601f19601f8201168201806040525081019061358c9190615e5c565b9250833411156135ac576135ab3385346135a69190615c2c565b613b4d565b5b505096509650969350505050565b60608142811015613600576040517f08c379a00000000000000000000000000000000000000000000000000000000081526004016135f790615bdd565b60405180910390fd5b7f000000000000000000000000000000000000000000000000000000000000000073ffffffffffffffffffffffffffffffffffffffff168686600081811061364b5761364a615c60565b5b90506020020160208101906136609190615c8f565b73ffffffffffffffffffffffffffffffffffffffff16146136b6576040517f08c379a00000000000000000000000000000000000000000000000000000000081526004016136ad90615d08565b60405180910390fd5b6137227f000000000000000000000000000000000000000000000000000000000000000088888880806020026020016040519081016040528093929190818152602001838360200280828437600081840152601f19601f82011690508083019250505050505050614306565b9150348260008151811061373957613738615c60565b5b60200260200101511115613782576040517f08c379a000000000000000000000000000000000000000000000000000000000815260040161377990615f67565b60405180910390fd5b7f000000000000000000000000000000000000000000000000000000000000000073ffffffffffffffffffffffffffffffffffffffff1663d0e30db0836000815181106137d2576137d1615c60565b5b60200260200101516040518263ffffffff1660e01b81526004016000604051808303818588803b15801561380557600080fd5b505af1158015613819573d6000803e3d6000fd5b50505050507f000000000000000000000000000000000000000000000000000000000000000073ffffffffffffffffffffffffffffffffffffffff1663a9059cbb6138d57f00000000000000000000000000000000000000000000000000000000000000008989600081811061389257613891615c60565b5b90506020020160208101906138a79190615c8f565b8a8a60018181106138bb576138ba615c60565b5b90506020020160208101906138d09190615c8f565b613ede565b846000815181106138e9576138e8615c60565b5b60200260200101516040518363ffffffff1660e01b815260040161390e929190615f87565b602060405180830381600087803b15801561392857600080fd5b505af115801561393c573d6000803e3d6000fd5b505050506040513d601f19601f820116820180604052508101906139609190615fc5565b61396d5761396c615131565b5b6139b982878780806020026020016040519081016040528093929190818152602001838360200280828437600081840152601f19601f82011690508083019250505050505050866140ad565b816000815181106139cd576139cc615c60565b5b6020026020010151341115613a0d57613a0c33836000815181106139f4576139f3615c60565b5b602002602001015134613a079190615c2c565b613b4d565b5b5095945050505050565b6000808473ffffffffffffffffffffffffffffffffffffffff1663a9059cbb8585604051602401613a49929190615f87565b6040516020818303038152906040529060e01b6020820180517bffffffffffffffffffffffffffffffffffffffffffffffffffffffff8381831617835250505050604051613a979190616207565b6000604051808303816000865af19150503d8060008114613ad4576040519150601f19603f3d011682016040523d82523d6000602084013e613ad9565b606091505b5091509150818015613b075750600081511480613b06575080806020019051810190613b059190615fc5565b5b5b613b46576040517f08c379a0000000000000000000000000000000000000000000000000000000008152600401613b3d90616290565b60405180910390fd5b5050505050565b60008273ffffffffffffffffffffffffffffffffffffffff1682600067ffffffffffffffff811115613b8257613b8161552b565b5b6040519080825280601f01601f191660200182016040528015613bb45781602001600182028036833780820191505090505b50604051613bc29190616207565b60006040518083038185875af1925050503d8060008114613bff576040519150601f19603f3d011682016040523d82523d6000602084013e613c04565b606091505b5050905080613c48576040517f08c379a0000000000000000000000000000000000000000000000000000000008152600401613c3f90616322565b60405180910390fd5b505050565b6000808411613c91576040517f08c379a0000000000000000000000000000000000000000000000000000000008152600401613c88906163b4565b60405180910390fd5b600083118015613ca15750600082115b613ce0576040517f08c379a0000000000000000000000000000000000000000000000000000000008152600401613cd790616446565b60405180910390fd5b6000613cf76103e586614f2a90919063ffffffff16565b90506000613d0e8483614f2a90919063ffffffff16565b90506000613d3983613d2b6103e889614f2a90919063ffffffff16565b614f9790919063ffffffff16565b90508082613d479190616495565b93505050509392505050565b6060600282511015613d9a576040517f08c379a0000000000000000000000000000000000000000000000000000000008152600401613d9190616512565b60405180910390fd5b815167ffffffffffffffff811115613db557613db461552b565b5b604051908082528060200260200182016040528015613de35781602001602082028036833780820191505090505b5090508281600081518110613dfb57613dfa615c60565b5b60200260200101818152505060005b60018351613e189190615c2c565b811015613ed657600080613e6d87868581518110613e3957613e38615c60565b5b602002602001015187600187613e4f9190616532565b81518110613e6057613e5f615c60565b5b6020026020010151614ff0565b91509150613e96848481518110613e8757613e86615c60565b5b60200260200101518383613c4d565b84600185613ea49190616532565b81518110613eb557613eb4615c60565b5b60200260200101818152505050508080613ece90616588565b915050613e0a565b509392505050565b60008373ffffffffffffffffffffffffffffffffffffffff1663e6a4390584846040518363ffffffff1660e01b8152600401613f1b9291906165d1565b60206040518083038186803b158015613f3357600080fd5b505afa158015613f47573d6000803e3d6000fd5b505050506040513d601f19601f82011682018060405250810190613f6b919061660f565b90509392505050565b6000808573ffffffffffffffffffffffffffffffffffffffff166323b872dd868686604051602401613fa893929190615ff2565b6040516020818303038152906040529060e01b6020820180517bffffffffffffffffffffffffffffffffffffffffffffffffffffffff8381831617835250505050604051613ff69190616207565b6000604051808303816000865af19150503d8060008114614033576040519150601f19603f3d011682016040523d82523d6000602084013e614038565b606091505b509150915081801561406657506000815114806140655750808060200190518101906140649190615fc5565b5b5b6140a5576040517f08c379a000000000000000000000000000000000000000000000000000000000815260040161409c906166ae565b60405180910390fd5b505050505050565b60005b600183516140be9190615c2c565b811015614300576000808483815181106140db576140da615c60565b5b6020026020010151856001856140f19190616532565b8151811061410257614101615c60565b5b602002602001015191509150600061411a8383614b2f565b50905060008760018661412d9190616532565b8151811061413e5761413d615c60565b5b602002602001015190506000808373ffffffffffffffffffffffffffffffffffffffff168673ffffffffffffffffffffffffffffffffffffffff16146141865782600061418a565b6000835b91509150600060028a5161419e9190615c2c565b88106141aa57886141fc565b6141fb7f0000000000000000000000000000000000000000000000000000000000000000878c60028c6141dd9190616532565b815181106141ee576141ed615c60565b5b6020026020010151613ede565b5b90506142297f00000000000000000000000000000000000000000000000000000000000000008888613ede565b73ffffffffffffffffffffffffffffffffffffffff1663022c0d9f848484600067ffffffffffffffff8111156142625761426161552b565b5b6040519080825280601f01601f1916602001820160405280156142945781602001600182028036833780820191505090505b506040518563ffffffff1660e01b81526004016142b49493929190616718565b600060405180830381600087803b1580156142ce57600080fd5b505af11580156142e2573d6000803e3d6000fd5b505050505050505050505080806142f890616588565b9150506140b0565b50505050565b606060028251101561434d576040517f08c379a000000000000000000000000000000000000000000000000000000000815260040161434490616512565b60405180910390fd5b815167ffffffffffffffff8111156143685761436761552b565b5b6040519080825280602002602001820160405280156143965781602001602082028036833780820191505090505b5090508281600183516143a99190615c2c565b815181106143ba576143b9615c60565b5b6020026020010181815250506000600183516143d69190615c2c565b90505b60008111156144995760008061443087866001866143f79190615c2c565b8151811061440857614407615c60565b5b602002602001015187868151811061442357614422615c60565b5b6020026020010151614ff0565b9150915061445984848151811061444a57614449615c60565b5b60200260200101518383614962565b846001856144679190615c2c565b8151811061447857614477615c60565b5b6020026020010181815250505050808061449190616764565b9150506143d9565b509392505050565b614537816040516024016144b591906167d2565b6040516020818303038152906040527f41304fac000000000000000000000000000000000000000000000000000000007bffffffffffffffffffffffffffffffffffffffffffffffffffffffff19166020820180517bffffffffffffffffffffffffffffffffffffffffffffffffffffffff8381831617835250505050615108565b50565b60005b6001835161454b9190615c2c565b8110156149045760008084838151811061456857614567615c60565b5b60200260200101518560018561457e9190616532565b8151811061458f5761458e615c60565b5b60200260200101519150915060006145a78383614b2f565b50905060006145d77f00000000000000000000000000000000000000000000000000000000000000008585613ede565b90506000806000808473ffffffffffffffffffffffffffffffffffffffff16630902f1ac6040518163ffffffff1660e01b815260040160606040518083038186803b15801561462557600080fd5b505afa158015614639573d6000803e3d6000fd5b505050506040513d601f19601f8201168201806040525081019061465d9190616876565b506dffffffffffffffffffffffffffff1691506dffffffffffffffffffffffffffff1691506000808773ffffffffffffffffffffffffffffffffffffffff168a73ffffffffffffffffffffffffffffffffffffffff16146146bf5782846146c2565b83835b91509150614761828b73ffffffffffffffffffffffffffffffffffffffff166370a082318a6040518263ffffffff1660e01b815260040161470391906159d6565b60206040518083038186803b15801561471b57600080fd5b505afa15801561472f573d6000803e3d6000fd5b505050506040513d601f19601f820116820180604052508101906147539190615e5c565b61490990919063ffffffff16565b955061476e868383613c4d565b9450505050506000808573ffffffffffffffffffffffffffffffffffffffff168873ffffffffffffffffffffffffffffffffffffffff16146147b2578260006147b6565b6000835b91509150600060028c516147ca9190615c2c565b8a106147d6578a614828565b6148277f0000000000000000000000000000000000000000000000000000000000000000898e60028e6148099190616532565b8151811061481a57614819615c60565b5b6020026020010151613ede565b5b90508573ffffffffffffffffffffffffffffffffffffffff1663022c0d9f848484600067ffffffffffffffff8111156148645761486361552b565b5b6040519080825280601f01601f1916602001820160405280156148965781602001600182028036833780820191505090505b506040518563ffffffff1660e01b81526004016148b69493929190616718565b600060405180830381600087803b1580156148d057600080fd5b505af11580156148e4573d6000803e3d6000fd5b5050505050505050505050505080806148fc90616588565b91505061453d565b505050565b60008282846149189190615c2c565b915081111561495c576040517f08c379a000000000000000000000000000000000000000000000000000000000815260040161495390616915565b60405180910390fd5b92915050565b60008084116149a6576040517f08c379a000000000000000000000000000000000000000000000000000000000815260040161499d906169a7565b60405180910390fd5b6000831180156149b65750600082115b6149f5576040517f08c379a00000000000000000000000000000000000000000000000000000000081526004016149ec90616446565b60405180910390fd5b6000614a1e6103e8614a108787614f2a90919063ffffffff16565b614f2a90919063ffffffff16565b90506000614a496103e5614a3b888761490990919063ffffffff16565b614f2a90919063ffffffff16565b9050614a6a60018284614a5c9190616495565b614f9790919063ffffffff16565b925050509392505050565b6000808411614ab9576040517f08c379a0000000000000000000000000000000000000000000000000000000008152600401614ab090616a39565b60405180910390fd5b600083118015614ac95750600082115b614b08576040517f08c379a0000000000000000000000000000000000000000000000000000000008152600401614aff90616446565b60405180910390fd5b82614b1c8386614f2a90919063ffffffff16565b614b269190616495565b90509392505050565b6000808273ffffffffffffffffffffffffffffffffffffffff168473ffffffffffffffffffffffffffffffffffffffff161415614ba1576040517f08c379a0000000000000000000000000000000000000000000000000000000008152600401614b9890616acb565b60405180910390fd5b8273ffffffffffffffffffffffffffffffffffffffff168473ffffffffffffffffffffffffffffffffffffffff1610614bdb578284614bde565b83835b8092508193505050600073ffffffffffffffffffffffffffffffffffffffff168273ffffffffffffffffffffffffffffffffffffffff161415614c56576040517f08c379a0000000000000000000000000000000000000000000000000000000008152600401614c4d90616b37565b60405180910390fd5b9250929050565b600080600073ffffffffffffffffffffffffffffffffffffffff167f000000000000000000000000000000000000000000000000000000000000000073ffffffffffffffffffffffffffffffffffffffff1663e6a439058a8a6040518363ffffffff1660e01b8152600401614cd39291906165d1565b60206040518083038186803b158015614ceb57600080fd5b505afa158015614cff573d6000803e3d6000fd5b505050506040513d601f19601f82011682018060405250810190614d23919061660f565b73ffffffffffffffffffffffffffffffffffffffff161415614dee577f000000000000000000000000000000000000000000000000000000000000000073ffffffffffffffffffffffffffffffffffffffff1663c9c6539689896040518363ffffffff1660e01b8152600401614d9a9291906165d1565b602060405180830381600087803b158015614db457600080fd5b505af1158015614dc8573d6000803e3d6000fd5b505050506040513d601f19601f82011682018060405250810190614dec919061660f565b505b600080614e1c7f00000000000000000000000000000000000000000000000000000000000000008b8b614ff0565b91509150600082148015614e305750600081145b15614e445787878094508195505050614f1d565b6000614e51898484614a75565b9050878111614eac5785811015614e9d576040517f08c379a0000000000000000000000000000000000000000000000000000000008152600401614e949061616d565b60405180910390fd5b88818095508196505050614f1b565b6000614eb9898486614a75565b905089811115614ecc57614ecb615131565b5b87811015614f0f576040517f08c379a0000000000000000000000000000000000000000000000000000000008152600401614f06906160db565b60405180910390fd5b80898096508197505050505b505b5050965096945050505050565b600080821480614f52575082828385614f439190616b57565b925082614f509190616495565b145b614f91576040517f08c379a0000000000000000000000000000000000000000000000000000000008152600401614f8890616bfd565b60405180910390fd5b92915050565b6000828284614fa69190616532565b9150811015614fea576040517f08c379a0000000000000000000000000000000000000000000000000000000008152600401614fe190616c69565b60405180910390fd5b92915050565b6000806000614fff8585614b2f565b509050600061500f878787613ede565b90506000808273ffffffffffffffffffffffffffffffffffffffff16630902f1ac6040518163ffffffff1660e01b815260040160606040518083038186803b15801561505a57600080fd5b505afa15801561506e573d6000803e3d6000fd5b505050506040513d601f19601f820116820180604052508101906150929190616876565b506dffffffffffffffffffffffffffff1691506dffffffffffffffffffffffffffff1691508373ffffffffffffffffffffffffffffffffffffffff168873ffffffffffffffffffffffffffffffffffffffff16146150f15780826150f4565b81815b809650819750505050505050935093915050565b60008151905060006a636f6e736f6c652e6c6f679050602083016000808483855afa5050505050565b7f4e487b7100000000000000000000000000000000000000000000000000000000600052600160045260246000fd5b6000604051905090565b600080fd5b600080fd5b600073ffffffffffffffffffffffffffffffffffffffff82169050919050565b600061519f82615174565b9050919050565b6151af81615194565b81146151ba57600080fd5b50565b6000813590506151cc816151a6565b92915050565b6000819050919050565b6151e5816151d2565b81146151f057600080fd5b50565b600081359050615202816151dc565b92915050565b60008060008060008060c087890312156152255761522461516a565b5b600061523389828a016151bd565b965050602061524489828a016151f3565b955050604061525589828a016151f3565b945050606061526689828a016151f3565b935050608061527789828a016151bd565b92505060a061528889828a016151f3565b9150509295509295509295565b61529e816151d2565b82525050565b60006040820190506152b96000830185615295565b6152c66020830184615295565b9392505050565b6000806000606084860312156152e6576152e561516a565b5b60006152f4868287016151f3565b9350506020615305868287016151f3565b9250506040615316868287016151f3565b9150509250925092565b60006020820190506153356000830184615295565b92915050565b600080fd5b600080fd5b600080fd5b60008083601f8401126153605761535f61533b565b5b8235905067ffffffffffffffff81111561537d5761537c615340565b5b60208301915083602082028301111561539957615398615345565b5b9250929050565b60008060008060008060a087890312156153bd576153bc61516a565b5b60006153cb89828a016151f3565b96505060206153dc89828a016151f3565b955050604087013567ffffffffffffffff8111156153fd576153fc61516f565b5b61540989828a0161534a565b9450945050606061541c89828a016151bd565b925050608061542d89828a016151f3565b9150509295509295509295565b600081519050919050565b600082825260208201905092915050565b6000819050602082019050919050565b61546f816151d2565b82525050565b60006154818383615466565b60208301905092915050565b6000602082019050919050565b60006154a58261543a565b6154af8185615445565b93506154ba83615456565b8060005b838110156154eb5781516154d28882615475565b97506154dd8361548d565b9250506001810190506154be565b5085935050505092915050565b60006020820190508181036000830152615512818461549a565b905092915050565b6000601f19601f8301169050919050565b7f4e487b7100000000000000000000000000000000000000000000000000000000600052604160045260246000fd5b6155638261551a565b810181811067ffffffffffffffff821117156155825761558161552b565b5b80604052505050565b6000615595615160565b90506155a1828261555a565b919050565b600067ffffffffffffffff8211156155c1576155c061552b565b5b602082029050602081019050919050565b60006155e56155e0846155a6565b61558b565b9050808382526020820190506020840283018581111561560857615607615345565b5b835b81811015615631578061561d88826151bd565b84526020840193505060208101905061560a565b5050509392505050565b600082601f8301126156505761564f61533b565b5b81356156608482602086016155d2565b91505092915050565b600080604083850312156156805761567f61516a565b5b600061568e858286016151f3565b925050602083013567ffffffffffffffff8111156156af576156ae61516f565b5b6156bb8582860161563b565b9150509250929050565b60008115159050919050565b6156da816156c5565b81146156e557600080fd5b50565b6000813590506156f7816156d1565b92915050565b600060ff82169050919050565b615713816156fd565b811461571e57600080fd5b50565b6000813590506157308161570a565b92915050565b6000819050919050565b61574981615736565b811461575457600080fd5b50565b60008135905061576681615740565b92915050565b60008060008060008060008060008060006101608c8e0312156157925761579161516a565b5b60006157a08e828f016151bd565b9b505060206157b18e828f016151bd565b9a505060406157c28e828f016151f3565b99505060606157d38e828f016151f3565b98505060806157e48e828f016151f3565b97505060a06157f58e828f016151bd565b96505060c06158068e828f016151f3565b95505060e06158178e828f016156e8565b9450506101006158298e828f01615721565b93505061012061583b8e828f01615757565b92505061014061584d8e828f01615757565b9150509295989b509295989b9093969950565b6000806000806000806000806000806101408b8d0312156158845761588361516a565b5b60006158928d828e016151bd565b9a505060206158a38d828e016151f3565b99505060406158b48d828e016151f3565b98505060606158c58d828e016151f3565b97505060806158d68d828e016151bd565b96505060a06158e78d828e016151f3565b95505060c06158f88d828e016156e8565b94505060e06159098d828e01615721565b93505061010061591b8d828e01615757565b92505061012061592d8d828e01615757565b9150509295989b9194979a5092959850565b60008060008060006080868803121561595b5761595a61516a565b5b6000615969888289016151f3565b955050602086013567ffffffffffffffff81111561598a5761598961516f565b5b6159968882890161534a565b945094505060406159a9888289016151bd565b92505060606159ba888289016151f3565b9150509295509295909350565b6159d081615194565b82525050565b60006020820190506159eb60008301846159c7565b92915050565b600080600080600080600060e0888a031215615a1057615a0f61516a565b5b6000615a1e8a828b016151bd565b9750506020615a2f8a828b016151bd565b9650506040615a408a828b016151f3565b9550506060615a518a828b016151f3565b9450506080615a628a828b016151f3565b93505060a0615a738a828b016151bd565b92505060c0615a848a828b016151f3565b91505092959891949750929550565b600080600080600080600080610100898b031215615ab457615ab361516a565b5b6000615ac28b828c016151bd565b9850506020615ad38b828c016151bd565b9750506040615ae48b828c016151f3565b9650506060615af58b828c016151f3565b9550506080615b068b828c016151f3565b94505060a0615b178b828c016151f3565b93505060c0615b288b828c016151bd565b92505060e0615b398b828c016151f3565b9150509295985092959890939650565b6000606082019050615b5e6000830186615295565b615b6b6020830185615295565b615b786040830184615295565b949350505050565b600082825260208201905092915050565b7f556e69737761705632526f757465723a20455850495245440000000000000000600082015250565b6000615bc7601883615b80565b9150615bd282615b91565b602082019050919050565b60006020820190508181036000830152615bf681615bba565b9050919050565b7f4e487b7100000000000000000000000000000000000000000000000000000000600052601160045260246000fd5b6000615c37826151d2565b9150615c42836151d2565b925082821015615c5557615c54615bfd565b5b828203905092915050565b7f4e487b7100000000000000000000000000000000000000000000000000000000600052603260045260246000fd5b600060208284031215615ca557615ca461516a565b5b6000615cb3848285016151bd565b91505092915050565b7f556e69737761705632526f757465723a20494e56414c49445f50415448000000600082015250565b6000615cf2601d83615b80565b9150615cfd82615cbc565b602082019050919050565b60006020820190508181036000830152615d2181615ce5565b9050919050565b7f556e69737761705632526f757465723a20494e53554646494349454e545f4f5560008201527f545055545f414d4f554e54000000000000000000000000000000000000000000602082015250565b6000615d84602b83615b80565b9150615d8f82615d28565b604082019050919050565b60006020820190508181036000830152615db381615d77565b9050919050565b615dc3816156fd565b82525050565b615dd281615736565b82525050565b600060e082019050615ded600083018a6159c7565b615dfa60208301896159c7565b615e076040830188615295565b615e146060830187615295565b615e216080830186615dba565b615e2e60a0830185615dc9565b615e3b60c0830184615dc9565b98975050505050505050565b600081519050615e56816151dc565b92915050565b600060208284031215615e7257615e7161516a565b5b6000615e8084828501615e47565b91505092915050565b7f746f6b656e412069732074617861626c65000000000000000000000000000000600082015250565b6000615ebf601183615b80565b9150615eca82615e89565b602082019050919050565b60006020820190508181036000830152615eee81615eb2565b9050919050565b7f556e69737761705632526f757465723a204558434553534956455f494e50555460008201527f5f414d4f554e5400000000000000000000000000000000000000000000000000602082015250565b6000615f51602783615b80565b9150615f5c82615ef5565b604082019050919050565b60006020820190508181036000830152615f8081615f44565b9050919050565b6000604082019050615f9c60008301856159c7565b615fa96020830184615295565b9392505050565b600081519050615fbf816156d1565b92915050565b600060208284031215615fdb57615fda61516a565b5b6000615fe984828501615fb0565b91505092915050565b600060608201905061600760008301866159c7565b61601460208301856159c7565b6160216040830184615295565b949350505050565b600080604083850312156160405761603f61516a565b5b600061604e85828601615e47565b925050602061605f85828601615e47565b9150509250929050565b7f556e69737761705632526f757465723a20494e53554646494349454e545f415f60008201527f414d4f554e540000000000000000000000000000000000000000000000000000602082015250565b60006160c5602683615b80565b91506160d082616069565b604082019050919050565b600060208201905081810360008301526160f4816160b8565b9050919050565b7f556e69737761705632526f757465723a20494e53554646494349454e545f425f60008201527f414d4f554e540000000000000000000000000000000000000000000000000000602082015250565b6000616157602683615b80565b9150616162826160fb565b604082019050919050565b600060208201905081810360008301526161868161614a565b9050919050565b600081519050919050565b600081905092915050565b60005b838110156161c15780820151818401526020810190506161a6565b838111156161d0576000848401525b50505050565b60006161e18261618d565b6161eb8185616198565b93506161fb8185602086016161a3565b80840191505092915050565b600061621382846161d6565b915081905092915050565b7f5472616e7366657248656c7065723a3a736166655472616e736665723a20747260008201527f616e73666572206661696c656400000000000000000000000000000000000000602082015250565b600061627a602d83615b80565b91506162858261621e565b604082019050919050565b600060208201905081810360008301526162a98161626d565b9050919050565b7f5472616e7366657248656c7065723a3a736166655472616e736665724554483a60008201527f20455448207472616e73666572206661696c6564000000000000000000000000602082015250565b600061630c603483615b80565b9150616317826162b0565b604082019050919050565b6000602082019050818103600083015261633b816162ff565b9050919050565b7f556e697377617056324c6962726172793a20494e53554646494349454e545f4960008201527f4e5055545f414d4f554e54000000000000000000000000000000000000000000602082015250565b600061639e602b83615b80565b91506163a982616342565b604082019050919050565b600060208201905081810360008301526163cd81616391565b9050919050565b7f556e697377617056324c6962726172793a20494e53554646494349454e545f4c60008201527f4951554944495459000000000000000000000000000000000000000000000000602082015250565b6000616430602883615b80565b915061643b826163d4565b604082019050919050565b6000602082019050818103600083015261645f81616423565b9050919050565b7f4e487b7100000000000000000000000000000000000000000000000000000000600052601260045260246000fd5b60006164a0826151d2565b91506164ab836151d2565b9250826164bb576164ba616466565b5b828204905092915050565b7f556e697377617056324c6962726172793a20494e56414c49445f504154480000600082015250565b60006164fc601e83615b80565b9150616507826164c6565b602082019050919050565b6000602082019050818103600083015261652b816164ef565b9050919050565b600061653d826151d2565b9150616548836151d2565b9250827fffffffffffffffffffffffffffffffffffffffffffffffffffffffffffffffff0382111561657d5761657c615bfd565b5b828201905092915050565b6000616593826151d2565b91507fffffffffffffffffffffffffffffffffffffffffffffffffffffffffffffffff8214156165c6576165c5615bfd565b5b600182019050919050565b60006040820190506165e660008301856159c7565b6165f360208301846159c7565b9392505050565b600081519050616609816151a6565b92915050565b6000602082840312156166255761662461516a565b5b6000616633848285016165fa565b91505092915050565b7f5472616e7366657248656c7065723a3a7472616e7366657246726f6d3a20747260008201527f616e7366657246726f6d206661696c6564000000000000000000000000000000602082015250565b6000616698603183615b80565b91506166a38261663c565b604082019050919050565b600060208201905081810360008301526166c78161668b565b9050919050565b600082825260208201905092915050565b60006166ea8261618d565b6166f481856166ce565b93506167048185602086016161a3565b61670d8161551a565b840191505092915050565b600060808201905061672d6000830187615295565b61673a6020830186615295565b61674760408301856159c7565b818103606083015261675981846166df565b905095945050505050565b600061676f826151d2565b9150600082141561678357616782615bfd565b5b600182039050919050565b600081519050919050565b60006167a48261678e565b6167ae8185615b80565b93506167be8185602086016161a3565b6167c78161551a565b840191505092915050565b600060208201905081810360008301526167ec8184616799565b905092915050565b60006dffffffffffffffffffffffffffff82169050919050565b616817816167f4565b811461682257600080fd5b50565b6000815190506168348161680e565b92915050565b600063ffffffff82169050919050565b6168538161683a565b811461685e57600080fd5b50565b6000815190506168708161684a565b92915050565b60008060006060848603121561688f5761688e61516a565b5b600061689d86828701616825565b93505060206168ae86828701616825565b92505060406168bf86828701616861565b9150509250925092565b7f64732d6d6174682d7375622d756e646572666c6f770000000000000000000000600082015250565b60006168ff601583615b80565b915061690a826168c9565b602082019050919050565b6000602082019050818103600083015261692e816168f2565b9050919050565b7f556e697377617056324c6962726172793a20494e53554646494349454e545f4f60008201527f55545055545f414d4f554e540000000000000000000000000000000000000000602082015250565b6000616991602c83615b80565b915061699c82616935565b604082019050919050565b600060208201905081810360008301526169c081616984565b9050919050565b7f556e697377617056324c6962726172793a20494e53554646494349454e545f4160008201527f4d4f554e54000000000000000000000000000000000000000000000000000000602082015250565b6000616a23602583615b80565b9150616a2e826169c7565b604082019050919050565b60006020820190508181036000830152616a5281616a16565b9050919050565b7f556e697377617056324c6962726172793a204944454e544943414c5f4144445260008201527f4553534553000000000000000000000000000000000000000000000000000000602082015250565b6000616ab5602583615b80565b9150616ac082616a59565b604082019050919050565b60006020820190508181036000830152616ae481616aa8565b9050919050565b7f556e697377617056324c6962726172793a205a45524f5f414444524553530000600082015250565b6000616b21601e83615b80565b9150616b2c82616aeb565b602082019050919050565b60006020820190508181036000830152616b5081616b14565b9050919050565b6000616b62826151d2565b9150616b6d836151d2565b9250817fffffffffffffffffffffffffffffffffffffffffffffffffffffffffffffffff0483118215151615616ba657616ba5615bfd565b5b828202905092915050565b7f64732d6d6174682d6d756c2d6f766572666c6f77000000000000000000000000600082015250565b6000616be7601483615b80565b9150616bf282616bb1565b602082019050919050565b60006020820190508181036000830152616c1681616bda565b9050919050565b7f64732d6d6174682d6164642d6f766572666c6f77000000000000000000000000600082015250565b6000616c53601483615b80565b9150616c5e82616c1d565b602082019050919050565b60006020820190508181036000830152616c8281616c46565b905091905056fea26469706673582212202d8241843f6924ab6dfa45147e9765c88289295753fa5909e2d9bcf7c8a5100564736f6c63430008090033",
  "linkReferences": {},
  "deployedLinkReferences": {}
}