{
  "_format": "hh-sol-artifact-1",
  "contractName": "decodeData",
  "sourceName": "contracts/decode.sol",
  "abi": [
    {
      "inputs": [
        {
          "internalType": "bytes",
          "name": "_data",
          "type": "bytes"
        }
      ],
      "name": "decodeInputData",
      "outputs": [
        {
          "internalType": "address",
          "name": "",
          "type": "address"
        }
      ],
      "stateMutability": "nonpayable",
      "type": "function"
    }
  ],
  "bytecode": "0x608060405234801561001057600080fd5b50610856806100206000396000f3fe608060405234801561001057600080fd5b506004361061002b5760003560e01c8063e12f0b3714610030575b600080fd5b61004a6004803603810190610045919061038b565b610060565b6040516100579190610415565b60405180910390f35b6000806000806000808680602001905181019061007d91906104d3565b9450945094509450945060008580602001905181019061009d9190610618565b90506000838060200190518101906100b59190610618565b90506000868060200190518101906100cd919061067b565b90506000868060200190518101906100e5919061067b565b90508273ffffffffffffffffffffffffffffffffffffffff1663095ea7b385836040518363ffffffff1660e01b81526004016101229291906106b7565b602060405180830381600087803b15801561013c57600080fd5b505af1158015610150573d6000803e3d6000fd5b505050506040513d601f19601f820116820180604052508101906101749190610718565b5060008473ffffffffffffffffffffffffffffffffffffffff168660405161019c919061078c565b6000604051808303816000865af19150503d80600081146101d9576040519150601f19603f3d011682016040523d82523d6000602084013e6101de565b606091505b5050905080610222576040517f08c379a000000000000000000000000000000000000000000000000000000000815260040161021990610800565b60405180910390fd5b50505050505050505050919050565b6000604051905090565b600080fd5b600080fd5b600080fd5b600080fd5b6000601f19601f8301169050919050565b7f4e487b7100000000000000000000000000000000000000000000000000000000600052604160045260246000fd5b6102988261024f565b810181811067ffffffffffffffff821117156102b7576102b6610260565b5b80604052505050565b60006102ca610231565b90506102d6828261028f565b919050565b600067ffffffffffffffff8211156102f6576102f5610260565b5b6102ff8261024f565b9050602081019050919050565b82818337600083830152505050565b600061032e610329846102db565b6102c0565b90508281526020810184848401111561034a5761034961024a565b5b61035584828561030c565b509392505050565b600082601f83011261037257610371610245565b5b813561038284826020860161031b565b91505092915050565b6000602082840312156103a1576103a061023b565b5b600082013567ffffffffffffffff8111156103bf576103be610240565b5b6103cb8482850161035d565b91505092915050565b600073ffffffffffffffffffffffffffffffffffffffff82169050919050565b60006103ff826103d4565b9050919050565b61040f816103f4565b82525050565b600060208201905061042a6000830184610406565b92915050565b60005b8381101561044e578082015181840152602081019050610433565b8381111561045d576000848401525b50505050565b6000610476610471846102db565b6102c0565b9050828152602081018484840111156104925761049161024a565b5b61049d848285610430565b509392505050565b600082601f8301126104ba576104b9610245565b5b81516104ca848260208601610463565b91505092915050565b600080600080600060a086880312156104ef576104ee61023b565b5b600086015167ffffffffffffffff81111561050d5761050c610240565b5b610519888289016104a5565b955050602086015167ffffffffffffffff81111561053a57610539610240565b5b610546888289016104a5565b945050604086015167ffffffffffffffff81111561056757610566610240565b5b610573888289016104a5565b935050606086015167ffffffffffffffff81111561059457610593610240565b5b6105a0888289016104a5565b925050608086015167ffffffffffffffff8111156105c1576105c0610240565b5b6105cd888289016104a5565b9150509295509295909350565b60006105e5826103d4565b9050919050565b6105f5816105da565b811461060057600080fd5b50565b600081519050610612816105ec565b92915050565b60006020828403121561062e5761062d61023b565b5b600061063c84828501610603565b91505092915050565b6000819050919050565b61065881610645565b811461066357600080fd5b50565b6000815190506106758161064f565b92915050565b6000602082840312156106915761069061023b565b5b600061069f84828501610666565b91505092915050565b6106b181610645565b82525050565b60006040820190506106cc6000830185610406565b6106d960208301846106a8565b9392505050565b60008115159050919050565b6106f5816106e0565b811461070057600080fd5b50565b600081519050610712816106ec565b92915050565b60006020828403121561072e5761072d61023b565b5b600061073c84828501610703565b91505092915050565b600081519050919050565b600081905092915050565b600061076682610745565b6107708185610750565b9350610780818560208601610430565b80840191505092915050565b6000610798828461075b565b915081905092915050565b600082825260208201905092915050565b7f4661696c65640000000000000000000000000000000000000000000000000000600082015250565b60006107ea6006836107a3565b91506107f5826107b4565b602082019050919050565b60006020820190508181036000830152610819816107dd565b905091905056fea264697066735822122033a17e66367461b90384155047cc33d77e34b0e9b8dba4eb13a092d43af32fe664736f6c63430008090033",
  "linkReferences": {},
  "deployedLinkReferences": {}
}